:020000040002F8
:10600000D8500020C1630200C9630200CB630200C4
:10601000CD630200CF630200D163020000000000E4
:10602000000000000000000000000000D363020038
:10603000D563020000000000D7630200D9630200AC
:10604000DB630200DB63020055690200DB630200D0
:10605000DB630200DB630200DB630200DB63020040
:10606000DB630200DB630200DB630200DB63020030
:10607000DB630200DB630200DB630200DB63020020
:10608000DB6302004D670200DB630200DB6302009A
:1060900071670200DB63020075670200DB630200C8
:1060A000DB630200DB630200DB630200DB630200F0
:1060B000DB630200DB630200000000000000000060
:1060C000DB630200DB630200DB630200DB630200D0
:1060D000DB630200DB630200DB630200DB630200C0
:1060E000DB630200DB630200DB63020000000000F0
:1060F00000000000DB63020000000000DB63020020
:10610000000000000000000000000000000000008F
:10611000000000000000000000000000000000007F
:10612000000000000000000000000000000000006F
:10613000000000000000000000000000000000005F
:10614000000000000000000000000000000000004F
:10615000000000000000000000000000000000003F
:10616000000000000000000000000000000000002F
:10617000000000000000000000000000000000001F
:10618000000000000000000000000000000000000F
:1061900000000000000000000000000000000000FF
:1061A00000000000000000000000000000000000EF
:1061B00000000000000000000000000000000000DF
:1061C00000000000000000000000000000000000CF
:1061D00000000000000000000000000000000000BF
:1061E00000000000000000000000000000000000AF
:1061F000000000000000000000000000000000009F
:10620000DFF80CD000F026FA00480047AD910200FC
:10621000D850002030B450E8012F93B2C4892344F1
:106220008489A34228BF1B1B0489A34202BFBFF37A
:106230002F8F002007E0C3EA020340E80134002C5E
:10624000E9D14FF001000A6030BC704750E8012FDF
:10625000C2EA024240E801210029F7D1704730B478
:1062600050E8022F1FFAA2F3C488A34202BFBFF373
:106270002F8F00200DE0C48923448489A34228BFC6
:106280001B1BC2EA034340E80234002CE8D14FF064
:1062900001000A6030BC704750E8022FC2EA224277
:1062A00040E802210029F7D17047034653E8022F46
:1062B000D988B2EB324F4FF0000017BF92B241EADB
:1062C000014142EA014104E05A68B2EB324F08BF93
:1062D000012043E80212002AE8D1704730B4044696
:1062E00054E8000F0D4644E80053002BF8D1156028
:1062F00030BC704730B4044654E8000F40EA010552
:1063000044E80053002BF7D1156030BC704730B41F
:10631000044654E8000F00EA010544E80053002B4E
:10632000F7D1156030BC704730B4044654E8000F14
:1063300080EA010544E80053002BF7D1156030BC1A
:10634000704730B4044654E8000F00EB010544E800
:106350000053002BF7D1156030BC704730B40446B1
:1063600054E8000FA0EB010544E80053002BF7D1DF
:10637000156030BC704770B404464FF0000054E81C
:10638000006F0D68AE4207BF44E80023012044E8D7
:1063900000630E60002B1CBF0020F0E770BC70474C
:1063A00030B4044654E8000F88422CBF451A054615
:1063B00044E80053002BF5D1156030BC7047000055
:1063C0000648804706480047FEE7FEE7FEE7FEE78F
:1063D000FEE7FEE7FEE7FEE7FEE7FEE7796702007D
:1063E0000162020000487047F0DF02002DE9FE4321
:1063F000994615468846074601AC022942D3002D2E
:1064000040D000200290A8F101004FF0FF3600902C
:1064100022E000FB057201FB057011464A469047D9
:10642000002805DC54F82600304444F8260013E028
:1064300060682A4600FB057154F8040C00FB0570E7
:1064400007E00B7890F800C001F801CB00F8013BA1
:10645000521E002AF5D1764254F8040C6168884235
:10646000D7DC4B462A463846FFF7C0FF54F8040CE9
:106470004B46A8EB0001401C00FB05702A46491E54
:10648000FFF7B4FFBDE8FE8310B5431A934209D26B
:106490008318881803E010F8011D03F8011D521E2F
:1064A000F9D210BD40EA01039B0703D009E008C9F7
:1064B000121F08C0042AFAD203E011F8013B00F8C9
:1064C000013B521EF9D210BDD2B201E000F8012BFF
:1064D000491EFBD270470022F6E710B513460A4664
:1064E00004461946FFF7F0FF204610BD421C10F885
:1064F000011B0029FBD1801A704710B5002200E073
:10650000521C835C8C5CA34201D1002BF8D1D8B221
:10651000E1B2401A10BD034611F8012B00F8012B1F
:10652000002AF9D11846704730B5054600200346C9
:1065300000E05B1C934205D2EC5CC85C201A01D1E0
:10654000002CF6D130BD2DE9F04791460F4680462C
:106550000446002614F8015B2DB1FFF743FF0068E5
:10656000405DC007F6D12B2D02D02D2D18D0641E12
:106570004A463946204600F01EF827B13968A14244
:1065800001D1C7F8008071054FF002040BD54042DD
:10659000002803DD00F0E4F90460A007BDE8F087FF
:1065A00046F48066E4E70028F8DA00F0D9F90460E0
:1065B0006FF00040F2E72DE9F05F82460078002797
:1065C00015468B460AF10104B946302801D09DB129
:1065D00013E014F8010B0127782803D0582801D0C4
:1065E00045B10AE00DB1102D07D10027102514F890
:1065F000010B02E0082500E00A250026B0460EE067
:1066000005FB080005FB06F1012701EB10461FFA08
:1066100080F8B6F5803F00D3B94614F8010B29463F
:1066200000F02AF80028EBDABBF1000F05D00FB11B
:10663000641E00E05446CBF80040B9F1000F06D0CC
:1066400000F08EF902210160C81EBDE8F09F48EA03
:106650000640FAE7064C074D06E0E06840F001030B
:1066600094E8070098471034AC42F6D3FFF7CCFD0E
:1066700068F2020088F202003A2800D2303820F096
:106680002002412A01D3A2F13700884201D34FF002
:10669000FF30704770B58C1810F8015B15F00703D8
:1066A00001D110F8013B2A1106D110F8012B03E0AB
:1066B00010F8016B01F8016B5B1EF9D12B0705D4B3
:1066C0000023521E0DD401F8013BFAE710F8013BFC
:1066D000CB1A921C03E013F8015B01F8015B521E18
:1066E000F9D5A142D8D3002070BD00F01F020121CE
:1066F00091404009800000F1E020C0F8801270470E
:1067000000F01F02012191404009800000F1E020CB
:10671000C0F80011704700F01F02012191404009AC
:10672000800000F1E020C0F8001270474907090E10
:10673000002806DA00F00F0000F1E02080F8141DB8
:10674000704700F1E02080F80014704707480021EE
:10675000C0F84011C0F84411C0F84811C0F84C11FD
:10676000C0F80011C0F8041106F0CCBC00100140C4
:1067700006F016BC05F02ABC30B54FF08050002260
:106780008300D0F83011C3F80C21C3F81021624BFC
:106790001A60624B1B68624C2360604B1B1D1B68B8
:1067A000241D23605D4B08331B68241D23605B4B55
:1067B0000C331B68241D2360584B10331B68241DA9
:1067C0002360564B14331B68241D2360534B18332E
:1067D0001B68534C20342360504B1C331B68241D12
:1067E00023604E4B20331B68241D23604B4B243306
:1067F0001B68241D2360494B28331B68241D23601C
:10680000464B2C331B68241D2360444B30331B68DC
:10681000434C40342360414B34331B68241D2360B8
:106820003E4B38331B68241D23603C4B3C331B68B4
:10683000241D2360394B40331B68241D2360012431
:10684000082902D1D0F8343113B1082904D006E068
:10685000354B3449196005E0D0F8343113B10829BB
:1068600004D006E0314BFB21196005E0D0F834314B
:1068700013B1082908D00EE090F858322C4801686E
:1068800063F30301016002E0D0F834311BB92949F8
:106890004FF40070086028480168C90702D06FF003
:1068A000010101602548016841F470010160BFF3F6
:1068B0004F8FBFF36F8F4FF01021D1F800020028E7
:1068C00003DBD1F80402002822DA1D4B1C601D48AE
:1068D0000468002CFCD01224C1F800420568002D89
:1068E000FCD0C1F8044201680029FCD01A6001689C
:1068F0000029FCD0BFF34F8F10487C380168124A42
:1069000001F4E06111430160BFF34F8F00BFFDE769
:106910000F490E48086030BD3805004004040010DF
:1069200020C50040488103008C56004018F5004007
:10693000E40E0040409602400004004088ED00E074
:1069400004E5014000E401400400FA050090D00392
:106950004823002001480068004700007022002002
:10696000004870474C23002002E008C8121F08C1ED
:10697000002AFAD170477047002001E001C1121FC0
:10698000002AFBD1704700000121202803DA814052
:106990000548014003E0402802DA2038814009B16F
:1069A0000120704700207047FC06FFBD800701D022
:1069B0000020704701207047C3688B4206D81144FD
:1069C0000069491E814201D80120704700207047AC
:1069D00072B604F0E1FD00BF04F074FB0028FBD1A7
:1069E000144D154915486A88081AC4082AB10120AF
:1069F00000EB044012A104F0A1FC14480068C00799
:106A000000D000BE6888022805D3022000EB0440B5
:106A10000FA104F093FCBFF34F8F0C48E4380168DA
:106A20000F4A01F4E06111430160BFF34F8F00BFD3
:106A3000FDE70000B423002048F3020000F3020049
:106A4000466174616C206572726F7200F0ED00E057
:106A500053797374656D207265736574000000006E
:106A60000400FA050EB500210091CDE901106A4637
:106A700044F20100FFF7ACFF0EBD0000084B9B780D
:106A800023B12AB120B10068037C1BB108207047F4
:106A90000720704700230374417442611846704711
:106AA0006429002070B506F0C3F8104800240B21BB
:106AB000047044700E4D817014206C602C706C70EA
:106AC000FFF713FE06211420FFF730FE1420FFF716
:106AD00017FE0848046006211120FFF727FE05482D
:106AE000001F0068A860002070BD0000642900201D
:106AF00078220020081501402DE9FC47DFF8789046
:106B000099F8023073B368B3052902D20720BDE8B3
:106B1000FC87436933B3437C012B25D0002704460F
:106B20000025884616468DF80050684600F038F873
:106B300001A806F04BFDC8B1012101700F49446066
:106B40000968C0E90218C0E904769DF8040089F8D4
:106B500001009DF8000000F047F81420FFF7DBFD6E
:106B60002846D4E70820D2E70F46D8E704259DF849
:106B7000000000F039F8F3E7642900200415014013
:106B80000649897839B130B1416921B100210174D8
:106B9000022106F093BA0820704700006429002003
:106BA00030B5EFF3108172B60D4A9468012324B119
:106BB0000370002900D162B630BD93604FF0E0232E
:106BC000D3F88051074C25401560C3F88041D3F8B5
:106BD000844154605A17C3F8842100220270E8E708
:106BE000702A0020FC06FFBD0B498A68002A11D0DC
:106BF00000280FD1EFF3108072B60B684FF0E0223F
:106C0000C2F800314B68C2F8043100228A600028C3
:106C100000D162B670470000702A002070B50546AA
:106C200008680C46411C04D004F00AF9206804F0FE
:106C3000D7F86068411C02D0002104F0BFF8296831
:106C4000A069C1F82405607D227D29681043C1F840
:106C50006C05D4E900122868C0F81425C0F80C159A
:106C6000207D012814D1A068411C02D0002104F02D
:106C7000A5F8E068411C04D004F0E2F8E06804F0F4
:106C8000AFF8D4E902122868C0F80825C0F810153A
:106C900070BD70B5054608680C46411C04D004F070
:106CA000D9F8206804F0A6F86068411C02D00021E1
:106CB00004F08DF82968A069C1F82405607D217D64
:106CC0002A680843C2F86C05D4E900122868C0F8A5
:106CD0000C15C0F81425207D012814D1A068411C92
:106CE00002D0002104F073F8E068411C04D004F0E5
:106CF000B1F8E06804F07EF8D4E902122868C0F820
:106D00000825C0F8101570BDF0B500220D4BCA6003
:106D1000C1E901230C4B0D4D1446EE1A0A600CE03C
:106D200003EB0215EF683F79FF2F05D0A04202D197
:106D3000A8680860F0BD641C521CB2EB161FEFD3AC
:106D4000F0BD000064DD0200E0F2020000F302008A
:106D50002DE9F8430546861C00208DF8000090467A
:106D60000F464FF001096846FFF71AFF1B4C2068D9
:106D70003860D4E90001401AA16804F21C47081ADF
:106D80000EE00121384602F038FD02F021F90146FB
:106D9000384602F032FDD4E90001401AA168081A11
:106DA000401C8642EDD8B8F1000F03D0052065F3F2
:106DB000891002E0062065F39F50A2682168114007
:106DC00004EB8101C8602068304420609DF8000019
:106DD000FFF70AFF4846BDE8F8830000B42C002006
:106DE00030B482680468531C8360A154D0E9011256
:106DF0008A4202D330BC03F05ABB30BC704700005B
:106E0000034803C8814201D1012070470020704728
:106E1000B42C002070B5816804468A7C002A4DD0CD
:106E2000C87C00284AD0121A0844D5B200F11401D7
:106E30006A1C1330FFF728FBA068C17C491EC1748F
:106E4000A068817C491E81748DB308221C49206989
:106E500003F020FB204602F055FC8178C078814287
:106E600011D1A06817A2C17C431808212046143311
:106E700003F06CF8204600F013F929462046BDE8DF
:106E8000704001F087B8204600F01EF9204600F05F
:106E900007F9A0680BA2C17C4318082120461433CF
:106EA00003F054F82046BDE8704000F003B92069B3
:106EB000BDE87040044A03A103F0ECBA70BD0000C5
:106EC0009C70020025730000D4DA020070B50446FD
:106ED0008068827CC17C521A12F0FF053AD00844C7
:106EE00000F115012A461430FFF7CEFAA068817C24
:106EF000491E8174204602F005FC8178C0788142E9
:106F000014D1A06814A2C17C431808212046143370
:106F100003F01CF8114A10A1206903F0BBFA6D1EA2
:106F2000E9B22046BDE8704001F034B8204600F0D8
:106F3000CBF8204600F0B4F8A06807A2C17C431843
:106F400008212046143303F001F82046BDE87040C4
:106F500000F0B0B870BD000025730000D8DA020060
:106F60002DE9F041044680680F46D0F83C11C27C00
:106F700011F00106817CA1EB0203DDB20AD07F296A
:106F800001D3002D7ED0A068C17C08440021077584
:106F900066B113E07F297CD2002DF4D0831803F171
:106FA00014012A46481CFFF76FFAECE7A068827CC0
:106FB000521CD2B28274A068143281544DB3204660
:106FC00002F0A0FB8178C07881420ED1A06832A285
:106FD000C17C431808212046143302F0B7FFA81BD8
:106FE000C1B2204600F0D6FF21E0204600F06CF848
:106FF000A06829A2C17C431808212046143302F05E
:10700000A5FF204600F056F80121204601F0A0F827
:107010000DE03EB1A068827C521CD2B28274A0689E
:10702000143281543A461DA1206903F033FAA16855
:10703000C87C401CC874204600F099FF00282046F8
:1070400003D0BDE8F04100F0B1BF01F01DFB002806
:107050001FD0204602F056FB0546C078A978401A9A
:10706000401EC1B2204600F023FF204600F09EFFE4
:10707000E878A978401AC1B2204601F075F828785E
:10708000401E00E005E0C1B22046BDE8F04101F03D
:107090005FB8BDE8F08100002573000025630000A3
:1070A0000069024A02A103F0F5B90000CCDA02003F
:1070B000257300000069024A024903F0EBB90000A1
:1070C000C3DA0200B07002000069024A024903F00C
:1070D000E1B90000C0DA0200B07002002DE9F04F03
:1070E0004FF000099DB005464E464C46CDF8149031
:1070F00000F0F0FD284601F0EDFB284600F0E4FE2C
:10710000284600F034FF10B9284600F04FFFAA6867
:107110000C2308A901A8143202F0CEF90346019805
:1071200040B15BB150A20221284602F00FFF1DB012
:10713000BDE8F08F284600F039FFF8E75148504984
:107140000027A1EB00080DF1200A834613E008D3C5
:107150004DA0009051A202212846089B02F0F6FEA5
:10716000E5E70BEBC704606801685AF82900FFF7F0
:10717000C4F918B17F1CB7EBD80FE8D94FF0000B5A
:10718000CDF868B06068C7680FB1A96848606068EA
:1071900009F101044FF0000880680DF158090690CC
:1071A0000198844237D25AF824003EA1FFF7A5F98E
:1071B00050B35AF824003CA1FFF79FF920B3424690
:1071C00008F101081AAB2146CDF80090069800F0AE
:1071D0003DFDB8F1000F1ED01A98E0B101685AF8D1
:1071E0002400FFF78AF90028DAD11A98C16829B17A
:1071F000A8F10101DDF818B02646059180684FF02E
:107200000008641C0690CBE7A868D0F83C1141F058
:107210000201C0F83C11BBF1000F12D0CDF8009074
:107220001AAB31465846059A00F010FDA9681A9825
:107230000AEB860248600199C368891B2846984773
:107240000AE027B108AA28460199B84704E018A225
:107250000221284602F07AFEA868D0F83C1121F0FD
:107260000201C0F83C1162E76E6F74207465726DA4
:10727000696E617465643A2025630D0A00000000A0
:10728000E0F2020088F202003A20636F6D6D616ED9
:1072900064206E6F7420666F756E640025732573AD
:1072A0000D0A00002D6800002D2D68656C7000002F
:1072B000506C6561736520737065636966792061E0
:1072C00020737562636F6D6D616E642E0D0A000030
:1072D0008068D0F83C01C0F3C000704700B589B0A9
:1072E00020220D4901A8FFF7CFF8062001900820C1
:1072F000029000208DF8180003200090064801231A
:107300001A4601A91C3802F099FF002801D0FFF7A6
:10731000A9FB09B000BD000034D802002DE9F041FE
:107320000446C0688EB00D464068002632460068AC
:1073300001A904F010FA18B100200EB0BDE8F081E8
:107340006DB1019804F0E8F9A168D1F82C01401C56
:10735000C1F82C0100F0070001287AD1012620464F
:1073600002F0D0F905468078012804D9401EC1B248
:10737000204600F0F9FE2878012804D9401EC1B249
:10738000204600F007FE2046FFF78AFE2EB132A20B
:107390000221204602F0DAFD5BE04FF000080023F6
:1073A000082202A9019804F0C6F904980590BDF8D6
:1073B0000C00ADF81800BDF80E00ADF81A008DF8FD
:1073C0001D800298082700F00300012802D002283F
:1073D00018D032E002983B46860AC0F3C2008DF80E
:1073E0001C00029808A9C0F38315AA00019804F0B4
:1073F000A2F92069009005AB2A4608A9304604F09E
:10740000E1F81AE00298850DC0F3C2008DF81C0067
:10741000082D01D22E4600E008263B46324608A938
:10742000019804F088F93744AD1B05AA314608A835
:10743000236903F09FFF002DEAD1019804F06CF955
:10744000E068002201A94068006804F084F900287F
:10745000A5D0012071E700004C6F7374206C6F673A
:1074600073202D20696E637265617365206C6F6790
:10747000206261636B656E6420717565756520734C
:10748000697A652E0D0A000008B50B46009102A22C
:10749000022102F05BFD08BD25733A206D6973730C
:1074A000696E6720706172616D657465722E0D0A78
:1074B00054727920272573202D682720666F72204B
:1074C00068656C702E0D0A00014802F035BF00009F
:1074D00018D8020030B4406804682469A44630BC5F
:1074E0006047000010B5054802F060FF002803D097
:1074F000BDE81040FFF7B6BA10BD000018D8020072
:107500007CB500260446019601AB0122694620465F
:10751000FFF7E0FF0198002817D09DF800507F2D5D
:10752000F2D8A068417821B1012961D0022961D146
:1075300065E0217EA9420FD1817C39B12046FFF759
:10754000CDFD0221204600F0E5F87CBDC0F8386191
:10755000204600F02BFDF4E7092D1CD004DC002DA3
:10756000D2D0082D04D11FE01B2D12D07F2D24D0A6
:10757000FEF738FF0068405D10F03E0FC4D0204693
:10758000FFF7A6FE9DF8001000B32046FFF7E8FCC9
:10759000BAE7012131E02046FFF79AFE0028B3D078
:1075A000204600F0D1F8AFE72046FFF791FE002813
:1075B000AAD02046FFF72EFCA6E72046FFF788FE5C
:1075C0000028A1D02046FFF781FC9DE7A068827CBF
:1075D0007F2A99D2C27C8318521CC2741975A06884
:1075E000C17C08440675A168887C401C88748BE7C0
:1075F0005B2D01D0002100E00221417084E70021D1
:1076000041702046FFF764FE00289ED09DF80000E0
:10761000422840D01BDC332878D012DC31286ED0D1
:107620003228B5D1A16803204870A068D0F83C2169
:1076300001219143D0F83C2161F30002C0F83C21C4
:1076400062E7342852D04128A2D1012124E0462803
:107650004FD01BDC432823D0442899D1204602F088
:1076600051F805460078A979491C884202D1A978C9
:1076700001298DD001284FF0010120462FD000F0C4
:1076800089FCA068C17C491EC1743DE7482839D0F7
:107690004C2888D1C9E70021204601F009F833E7DA
:1076A000204602F02FF8054600786978884203D119
:1076B000A978EA78914288D0697988424FF001012F
:1076C000204606D100F0F4FB6979204600F062FC08
:1076D00001E000F03DFDA068C17C491CD4E700F04A
:1076E00043FD6979204600F033FDCAE7A168032015
:1076F0004870204600F0E8FB06E707E0FFE7A168D6
:1077000003204870204600F008FCFDE6A168032035
:10771000487052E78268022911700BD182680021FB
:1077200011758268D1748268917403A20321036881
:1077300002F00CBC7047000025730000002801D047
:10774000FEF7D4BE704700002DE9F04FA7B04FF010
:1077500000080546CDF82480CDF81880806847469B
:10776000817CC1F17F01C9B25FEA010B7BD0C27C91
:1077700000F114019430FEF787FEA8680024C17C54
:10778000084480F89440FEF72DFE21900168A86817
:107790000C23C27C0244D27C895CC0F83841AA68C0
:1077A00001F0010912A920A8943201F085FE129877
:1077B000FFF7C4FFC6B2A2461F940C94209818B1DC
:1077C0004844401EB8426AD8B9F1000F01D00026E3
:1077D00005E012A850F82700FFF7B0FFC6B200245A
:1077E0000DA822460090641C1FAB3946504600F09D
:1077F0002DFA1F9800286BD0016812A8324650F865
:107800002700FEF791FE00280C9802D00028E7D050
:107810005EE0D8B11F980068FFF790FF0699C0B2EC
:10782000884200D90690BBF1000F2BD022A800900F
:107830000CAB42463946504600F008FA1F980068E3
:1078400082190C9800688319002015E0601E0990C9
:107850001F980068FFF772FFC0B20690801B584562
:1078600010DAC0B20DE07FE013F800C0614506D128
:10787000401C10F0FF0010D0115C0029F4D18345AA
:1078800000D983461F98B4F101080C90A8D263A2D6
:107890000421284602F05AFB1AE0FF20EFE70024FB
:1078A0000DA822460090641C1FAB3946504600F0DC
:1078B000CDF9ECB31F98002856D0016812A850F8F3
:1078C0002700FEF71AFE0028EAD11F98D0F808A07A
:1078D000BAF1000F09D01F9838B120997F1CFFB270
:1078E00001EB09008742FFF469AF0C9800283BD0F8
:1078F0000998414640455FD19AF8000038B10DA87B
:107900000A4600900CAB3946504600F09FF90C989F
:107910000068FFF713FFB04206D00C985A46006883
:107920008119284600F07AFA2198A968026800E0D7
:107930001DE0C87C0B181B7DD25CD2071DD0897C52
:10794000884211D2284601F0DDFEA9688478C87CFF
:10795000401CC874284601F0D5FE8078A04227D18B
:107960000121284600F0F4FB27B0BDE8F08F2BA2E0
:107970000421284602F0EAFAF6E7D1F83C01C007F4
:1079800011D0D1F83C0120F00100C1F83C012021C8
:107990002846FFF7E5FAA868D0F83C1141F001014C
:1079A000C0F83C11E0E720212846FFF7D9FADBE7D1
:1079B000284600F0FBFAD7E700212846069A04F093
:1079C00009FF0DF13409099C0EE01FAB2246394630
:1079D0005046CDF8009000F039F91F98069A0168DA
:1079E000284604F0F7FE641C4445EED917A2032193
:1079F00028462B6802F0AAFAAB6816A2082128468E
:107A0000143302F0A3FA284600F06CFB0C985A4697
:107A100000688119284600F001FAA5E75461622048
:107A200066756E6374696F6E3A20636F6D6D616E1B
:107A3000647320636F756E746572206F766572660D
:107A40006C6F7765642E0D0A000000000D0A257327
:107A50000000000025730000002806D08868D0F8D8
:107A60003C1141F02001C0F83C11704770B504464C
:107A700040680D4690F8280030B1A0680068FFF714
:107A80007FF808B108280CD1012685B1606902F0A1
:107A9000F5FC616800220831606902F0ABFC08B1B6
:107AA000062070BD606880F82960002070BD6068A5
:107AB00090F8280048B9074A0021A068FEF7DEFFC9
:107AC0006168002881F82860F0D12046BDE8704048
:107AD00005F00CB985CF020070B5044640680D462C
:107AE0000260606800224360606880F82820606857
:107AF00080F82920606820220830FEF7C5FC2C6140
:107B0000074A2946606902F075FC050005D1E06866
:107B100004F064F8206904F061F8284670BD0000A4
:107B2000B3D102001A60C0681A4603F095BF10B5C1
:107B30000446406902F0A2FCA0680068BDE810405D
:107B4000FFF71EB87CB51A60044600691A4603F0B8
:107B5000C1FF050025D16069134A0178515C19B154
:107B6000001D04F0D1FD02E00C3004F057FCC0B958
:107B7000FF20009001236A4601A9206903F0F6FF67
:107B800078B900980199C2B2606902F067FC0546B5
:107B9000606890F8290020B11DB92069009903F0B0
:107BA000D2FF28467CBD00005C2200201CB5134695
:107BB000CDE9001202A2022102F0C8F91CBD0000AA
:107BC00025733A20756E6B6E6F776E2070617261EF
:107BD0006D6574657220272573270D0A547279200C
:107BE000272573202D682720666F722068656C70CA
:107BF0002E0D0A002DE9F8431E4615468846074615
:107C000000241BE0786808EB04016B460268D2F898
:107C10000CC02A46E047009804442D1A70B9B86891
:107C2000017803290AD000BFD0F83C118906FBD5A2
:107C3000D0F83C1121F02001C0F83C11002DE1D119
:107C4000002E01D000983060BDE8F8832DE9F05F88
:107C50001C460A9E15464FF0000959B180B30178C1
:107C600039B342683146284690473068D8B126601B
:107C7000BDE8F09F14491548A1EB0008B5EBD80FFB
:107C800011D2DFF84CA00026834609E00BEBC607B3
:107C9000786801685AF82500FEF72FFC30B1761C91
:107CA000B6EBD80FF2D3C4F80090E1E77868206013
:107CB000DEE7406800EB0210016809B11860D7E701
:107CC000FFE7C3F80090D3E7E0F2020088F2020079
:107CD000502300202DE9F041856806460024287DC8
:107CE000002812D0A046FEF77DFB0746D0F8000022
:107CF00004F1140104F10104695CE4B2415CC907B8
:107D000005D0002CF4D185F81480BDE8F081641E04
:107D100014F0FF040FD0A87C021B04F114002918F2
:107D200005F11400521CFEF7AFFBB168887C001B04
:107D30008874B168C874B2683D68937CD0181330F9
:107D40000446002102E0491CC9B2401E0778EF5DDD
:107D5000FF07F8D18442D8D05B1A143302F80380AD
:107D6000B268907C401A9074B168C874CDE7000086
:107D70002DE9F05F26484168F1B3DFF898B00E684E
:107D80008146DBF8004087688078E11B21F07F4561
:107D9000ED1CB0B9DFF880804FF48030C8F84403A0
:107DA000C8F804031120FEF7A0FC1120FEF7A8FC80
:107DB0004FF0010AC8F800A02F2004F0B5F989F8A7
:107DC00002A0B54200D23546124BE8193C3320F0F0
:107DD0007F401860DBF800105A46091B21F07F41F4
:107DE000001B20F07F40C91C81420FD91068186029
:107DF0002F2004F099F900E004E0BDE8F05F1120C5
:107E0000FEF789BCBDE8F05F04F012BFBDE8F09F4B
:107E10007822002004150140001001402DE9F041B6
:107E20000446806815460F46827CC17C531A2A445A
:107E3000DEB27F2A37D8002D35D0084400F1140176
:107E400005F114021044721CFEF71EFBA0682A46BE
:107E5000C17C084439461430FEF716FBA068143084
:107E6000FFF76CFCA16811A28874A068C17C43185C
:107E700008212046143302F069F8A068C17C294427
:107E8000C174204600F073F818B9204600F0FCFBDE
:107E900010B1204600F08AF8002E04D02046BDE83C
:107EA000F04100F01FB9BDE8F0810000257300002B
:107EB000002904D00A46006901A102F0EBBA70471C
:107EC0001B5B25644200000070B5054601F01AFCFA
:107ED000044600786178884203D1A078E17888422E
:107EE0001AD0E178A078814204D9081AC1B2284694
:107EF000FFF7DEFF20786178884205D9401AC1B2C9
:107F0000284600F047F804E0081AC1B2284600F0FD
:107F10001FF9A868817CC17470BD70B5054601F079
:107F2000F1FB044601788079401C814202D1A0789F
:107F300001281BD0A078012804D9401EC1B22846D0
:107F400000F012F92078A179884206D9401A401E23
:107F5000C1B2284600F01EF805E0081A401CC1B264
:107F6000284600F0F5F8A9680020C87470BD10B567
:107F700004460068FFF7E2FB0146A068C27C407B34
:107F80001144B1FBF0F200FB121008B1002010BD4B
:107F9000012010BD002904D00A46006901A102F0A9
:107FA00079BA70471B5B2564440000000069024AEF
:107FB000024902F06FBA0000C6DA0200B070020097
:107FC0002DE9FC47002604468DF80460806835469C
:107FD000B146B04680219430FEF77DFA40492069D1
:107FE00002F058FA206902F062FA00276B4601227B
:107FF00001A92046FFF76EFA0098D8B19DF8040059
:108000001B2806D0A16891F894101B29EED15228A4
:108010001FD0A26808F19401505408F1010000F04B
:10802000FF08B8F1090F0AD9A168042081F89490DB
:10803000BDE8FC872A494FF6C0100D3188470098EB
:108040000028D3D17F1CBFB2B7F57A7FCED30D20E5
:10805000EEE7A16808F194004A4601F80090A16893
:1080600091F895005B2803D081F894200B20DFE77E
:1080700002206FF02F0309E005EB850503EB4505B2
:10808000401C3D44C0B2ADB2802808D200F1940734
:10809000CF5D3B2FF0D1401CC0B2802809D30C200B
:1080A000C6E700BF06EB860603EB46063E44B6B2C3
:1080B000F1E700F19407CF5D002FF3D1FA20FA2EFB
:1080C00001D9087200E00E72FA2D02D9A1688872F7
:1080D00001E0A0688572A06880F894200020A7E7DE
:1080E000E4DA020070B5054601F00CFB0446807826
:1080F000E178884201D1012600E000262846FFF7FA
:1081000036FF18B9284600F0BFFA10B12846FFF72D
:108110004DFF1EB160782178401A12E0E078A17816
:10812000401AC1B2284600F01FF8207861788842D2
:1081300006D9401AC1B22846BDE8704000F008B820
:10814000081AC1B22846BDE87040FFF723BF0000FF
:10815000002904D00A46006901A102F09BB97047CA
:108160001B5B256443000000002904D00A46006917
:1081700001A102F08FB970471B5B2564410000002C
:1081800010B50021024801F04EFB80F3100010BD35
:10819000D03000200E4910B50A784C780023A24256
:1081A00012D0521CD2B20A70022A00D10B70084AB7
:1081B0000B780C3252F8232002608868104420F0BB
:1081C0007F408860012010BD0360002010BD0000CA
:1081D000782200202DE9F843104D0F4680461E46B8
:1081E00091466946286801F0D0FA040014D01C2199
:1081F000FEF771F901202071C4F81490380BC4F80F
:108200000080C4E902606946286801F0DFFA04F0E2
:1082100065FC0020BDE8F8830420FBE78CDB02004E
:1082200070B516460C46054601F0FCFF30B12846F5
:10823000BDE870400022114601F0B0BE032C05D00D
:1082400028463168BDE87040FFF71EB910220021B2
:108250007068FEF778F904460A220021B068FEF73C
:1082600072F9024621460023074802F019FA002855
:1082700009D003F033FF03462846BDE8704003A24F
:10828000022101F063BE70BD7C2300206E72665F28
:108290006673746F726167655F65726173652829C3
:1082A0002072657475726E65643A2025730D0A003C
:1082B00030B50446006887B00D46806800281FD09E
:1082C00018216846FEF707F90195A0680590207906
:1082D00010B1012810D107E001208DF800002069BD
:1082E0000290E068039005E002208DF80000E0684D
:1082F000000302906069049020688168684688479E
:1083000007B030BD70B514460D46064601F08AFF31
:1083100030B13046BDE870400022114601F03EBE4B
:10832000012D06D030466168BDE8704004A2FFF719
:108330003DBC3046BDE8704001A1FFF7A5B8000084
:10834000666C6173686172656100000038B504464F
:1083500001F068FF30B12046BDE8384000221146E8
:1083600001F01CBE044920460A690092CB6803A2B2
:10837000082101F0EBFD38BD7C23002062656769B0
:108380006E3A2025782C20656E643A2025780D0AF7
:1083900000000000F8B515460C46064601F042FF05
:1083A00030B13046BDE8F8400022114601F0F6BD7C
:1083B000032C05D03046BDE8F8400CA1FFF764B8A7
:1083C000102200216868FEF7BEF80C4C1022002134
:1083D000E060A868FEF7B7F82061009008A20821C5
:1083E0003046E36801F0B2FDF8BD0000666C6173D1
:1083F0006861726561207365740000007C23002051
:10840000626567696E3A2025782C20656E643A2093
:1084100025780D0A000000002DE9F05F17460E00D8
:10842000814670D013B1F9B2FFF792FE0024FDF738
:10843000D9FF8246006800E0641C315D415CC907D9
:10844000FAD100253046FFF779F9D9F80810001B5A
:108450004A7BD11B814228D306EB040805E000BF0C
:1084600018F805100A290CD06D1C8542F8D3311973
:10847000D9F8100002F00EF84846BDE8F05FFFF7AB
:1084800095BDD9F8100002F012F8414600232A46A3
:108490004846FFF7AFFB2C444846641CFFF786FDB7
:1084A000F9B24846FFF754FEE1E78B46DAF80010D0
:1084B00006EB040818F805000B5CDB0702D0AB469E
:1084C0000A2804D0E819904201D26D1CF2E7D9F8CD
:1084D000100001F0ECFF414600235A464846FFF7E2
:1084E00089FB5C44DAF8000000E0641C315D415C0B
:1084F000C907FAD14846FFF759FDF9B24846FFF7D8
:1085000027FE9EE7FFE7BDE8F09F000030B401467C
:1085100043681348134C114A001BC00803245288B7
:1085200004EB00402BB1032A16D330BC0E4902F0F5
:1085300005BF0B78012B09D0022B0DD1032A0BD3D9
:108540008B680A6909A130BC02F003BF032A03D378
:108550008B680A6913A1F6E730BC7047B42300208A
:1085600048F3020000F30200ECE302002D2D3E2050
:108570004576656E742072656365697665643A2038
:10858000657261736564202564207061676520668B
:10859000726F6D2061646472657373203078257822
:1085A0002E0000002D2D3E204576656E74207265EC
:1085B0006365697665643A2077726F746520256417
:1085C00020627974657320617420616464726573DC
:1085D0007320307825782E002DE9F041C0B00F4689
:1085E00080464FF480751E46144629466846FDF7BE
:1085F00072FFAC4200D92C4623466A4639461448DD
:1086000002F06EF928B103F069FD034611A20221C0
:1086100006E0682E0AD0732E05D16B4616A20821FB
:10862000404601F093FC40B0BDE8F08100256E4665
:1086300006E0735D12A20821404601F087FC6D1C24
:10864000A542F6D30BA20821404601F07FFCEAE7E1
:108650007C2300206E72665F6673746F726167655B
:108660005F7265616428292072657475726E656435
:108670003A2025730D0A000025730D0A0000000042
:10868000307825782000000010B504460068FFF718
:1086900055F80146A068827C407B1144B1FBF0F2A2
:1086A00000FB121008B1002010BD012010BD000019
:1086B000FEB5002604460096019602968068E9B34E
:1086C000D0E94D128A4271D0D0F8300100286DD027
:1086D0002046FFF722FCA068D0F83851002D68D062
:1086E000002309226946284603F025F8A1689DF871
:1086F00008500098C1F83801A06800230922D0F87A
:108700003801694603F017F8A1689DF8082009238D
:10871000D1F838011431521C03F00DF8A1689DF80E
:108720000800C874A1689DF8080088749DF80800C6
:10873000A84202D22046FEF7B3FC00E00BE0A3689B
:108740002BA208212046143301F000FC2046FFF73D
:108750000EFC60BB42E0D0F83801002846D020462D
:10876000FFF7DBFBA06800230922D0F83801694637
:1087700002F0E1FFA0680199C0F83811A068002953
:10878000857CB9D19430FEF7D9FF0028A06805D0C8
:1087900000F194011430FDF7BEFE00E00675A068FC
:1087A0001430FEF7CBFF8DF80800B7E71EE01AE0A3
:1087B000FFE71430FEF7C2FF10F0FF05A068D0F805
:1087C0003011C0F83811A06805D000F114019430C0
:1087D000FDF7A1FE90E780F894608DE72046FFF753
:1087E00053FF002802D02046FFF7E0FBFEBD00004B
:1087F00025730000FEB50D46816804460026D1F8B9
:10880000300138B300230922694602F094FF019534
:10881000A06800230922D0F83001694602F093FFD6
:108820000196A068D0F830110091807C8DF8080086
:10883000A068C0F83051002309226946284602F09A
:1088400082FFA168092328468A7C1431521C02F059
:108850007AFFFEBDC1F83051A068C0F834510096CF
:108860000196A068807C8DF80800E4E7FEB5044618
:108870008068D0F83461002E28D000230922694690
:10888000304602F058FFA16801980025C1F8340174
:10889000009501952B46092269463046029502F063
:1088A00052FF304602F019FFA168D1F8340170B1CF
:1088B00000230922694602F03EFF0095A0680023CC
:1088C0000922D0F83401694602F03DFFFEBDC1F82F
:1088D0003051FEBDFEB5044680681430FEF72EFF11
:1088E00010F0FF05A0684FF00006C0F8386133D0E3
:1088F000A068D0F83001E0B100230922694602F0F7
:108900001AFF9DF80820AA4213D1A068092300F19C
:108910009401D0F83001521C02F00DFFA06800F164
:1089200094011430FDF7E9FD0028A06880F89460F8
:1089300012D000260A352946606902F09EFE010029
:10894000204604D003B0BDE8F040FFF753BFFFF767
:108950008DFF761C082EEED3FEBD000010B50A492F
:1089600041600A4800F046FF58B903F041FB07494F
:108970001C238C22087404488C39001F006800F006
:10898000F1FE002010BD000090DB0200082B00204B
:108990002DE9FC5F0E008346DDE90C47C6F10000BF
:1089A00098469246814600D40846012503E000BF60
:1089B00090FBFAF06D1C5045FADAA84500D94546FF
:1089C00024B1002E01DB780700D5641EB80702D55C
:1089D000B8F1000F0AD0F80708D13CB1A54205D282
:1089E00020215846641EFEF7FBF9F6E7002E02DA56
:1089F0004E462D2102E0780703D52B215846FEF77D
:108A0000EFF907F0030002280BD1B8F1000F08D1ED
:108A10003CB1A54205D230215846641EFEF7E0F96C
:108A2000F6E7CDE90047434652463146584604F042
:108A300073FDBDE8FC9F000070B50D46044600685C
:108A40004FF4887103F06AFB4FF49071206803F0D3
:108A500065FB4FF49271206803F060FB4FF4A27144
:108A6000206803F05BFB20681249C0F804132068FB
:108A7000690740F30730090E002806DA00F00F00FE
:108A800000F1E02080F8141D03E000F1E02080F800
:108A900000142068012140F3073000F01F029140CC
:108AA0004009800000F1E020C0F88012C0F80011F9
:108AB00070BD000010030200024600201268530738
:108AC00013D502F00300012802D002280CD105E0E2
:108AD000C2F383100B68801C184404E0022308686A
:108AE00003EB925210440860012070470248007A5C
:108AF000002800D001207047082B00202DE9F04706
:108B0000394E002780463D46DFF8E090D6F804A0B5
:108B100057E003D00446D0F81C8035E099F80020D7
:108B200002EB4201521CD2B289F8002009EBC101CC
:108B300099F80230091D9A4201D189F8005048681D
:108B40000A780446012A12D0022A02D0032A3BD115
:108B500008E004F083FA00B10127257434E00574BD
:108B6000C06900E070680028F9D170602CE0207CBA
:108B700050BB88686060C868A0600869E0604869A8
:108B8000A061F07800B165606268B168184B501A56
:108B900020F07F40984202D2A168084406E0881A7B
:108BA000A16820F07F40814202D9081A206000E0CD
:108BB000256065600120A56020742046E56104F011
:108BC0002FFAB8F10000A4D199F8001099F801002B
:108BD0008142A3D117B97168514502D00120BDE887
:108BE000F0870020FBE700007822002064290020A5
:108BF000FFFF7F00014B00F0DDBE0000C18D0200D1
:108C0000014B00F0D7BE00008D8F0200014B00F039
:108C1000D1BE0000958F0200014B00F0CBBE0000DA
:108C20006D9002007CB514460546012902D001F082
:108C3000FFFA38B102B02846BDE870400022114664
:108C400001F0ACB9616805A0CDE9000109A20221DB
:108C50002846236801F07AF97CBD000020756E6B10
:108C60006E6F776E20706172616D657465723A2007
:108C70000000000025733A257325730D0A000000DB
:108C80002DE9FC41074601F0D3FA38B102B038466D
:108C9000BDE8F0410022114601F080B91248134EA0
:108CA000801B050900241AE006EB0410C268117944
:108CB000FF2903D0527942B10DA207E083680EA2CA
:108CC0000821384601F042F908E013A2CDE900215D
:108CD000836814A20821384601F038F9641CAC42BC
:108CE000E2D3BDE8FC81000000F30200E0F20200E4
:108CF000656E61626C65640025730D0A092D205351
:108D000074617475733A2064656163746976617423
:108D100065640D0A0D0A000064697361626C656424
:108D20000000000025730D0A092D2053746174752D
:108D3000733A2025730D0A092D2049443A202564F1
:108D40000D0A0D0A0000000010B5044601F070FA8B
:108D500030B120460022BDE81040114601F01EB996
:108D60002046BDE8104002A2022101F0EFB8000049
:108D70004E6F7420737570706F727465642E0D0A77
:108D80000000000010B5044601F052FA30B1204650
:108D90000022BDE81040114601F000B92046BDE8B0
:108DA000104002A2022101F0D1B800004E6F7420E1
:108DB000737570706F727465642E0D0A0000000088
:108DC0002DE9FF4FC86881B01D46007917004FF0AC
:108DD0000006009057D0072245A12868FDF7A4FBA4
:108DE00078B1082244A12868FDF79EFB00282FD007
:108DF0002B6843A2019805B00221BDE8F04F01F0B5
:108E0000A5B8012F02D0022F08D008E0019805B0C4
:108E100041A2BDE8F04F022101F098B80126DFF829
:108E2000108100240A2258F824106868FDF77CFBA2
:108E300010B1641C052CF5D3052C06D004F0FF09F5
:108E40000224002E51D0002419E03AA26B68D1E729
:108E5000012F4FF00009F6D0012446E04A46214692
:108E6000009800F015FC48B90021204602F086FB6E
:108E7000034638A20221019801F068F8641C02F050
:108E800027FBA042EAD805B0BDE8F08F4FF0000AFA
:108E900055F824B002F01CFB8046002609E00021B2
:108EA000304602F06BFB20225946FDF73DFB58B1DE
:108EB000761C4645F3D3464508D04A4651460098AD
:108EC00000F0E6FB30B10FE0B246F4E755F824308D
:108ED00029A205E00021504602F050FB03461DA2E6
:108EE0000221019801F032F8641CBC42CED3CAE7DB
:108EF000656E61626C65000064697361626C650037
:108F0000556E6B6E6F776E206F7074696F6E3A205E
:108F100025730D0A000000004261642070617261D7
:108F20006D6574657220636F756E742E0D0A000096
:108F3000CC220020556E6B6E6F776E207365766560
:108F400072697479206C6576656C3A2025730D0A18
:108F5000000000004C6576656C20756E6176616975
:108F60006C61626C6520666F72206D6F64756C65F4
:108F70003A2025730D0A0000556E6B6E6F776E20D8
:108F80006D6F64756C653A25730D0A00C968012020
:108F900048717047C96800204871704730B4134663
:108FA000C4680A46214630BCFFF70ABFC0680121E9
:108FB000C06841717047C0680021C0684171704746
:108FC00030B41346C4680A46214630BC00F04EB89F
:108FD0002DE9FF410026234800F009FC2148001F2D
:108FE000074600F004FC204C60680090A56800E093
:108FF00000986946284004EB80000C30FFF75CFDC8
:109000000028F5D101AA009901EA050304EB8303C6
:10901000491CDB6842F82030401C00910228F2D342
:10902000019800F0030001280BD0022810D101980C
:10903000032101EB90500099BDF80A6001EB90000C
:1090400005E00198BDF80A60C0F383100844009061
:10905000384600F0C9FB08B10098606004B03046A3
:10906000BDE8F081CC300020B42C00202DE9FE4F6B
:109070008846824602F02CFA0746D8F80C00407960
:1090800020B922A20221504600F060FF24A327A2AB
:109090000821504600F05AFF2CA20821504600F04B
:1090A00055FF00242DE000BFD8F80C0001231A461C
:1090B00005792146284602F015FA8146002301224F
:1090C0002146284602F00EFA0546032801D206463C
:1090D00000E003260121204602F050FA0346AE428A
:1090E00001D22AA200E028A2294850F8261050F800
:1090F00029008DE8070027A20821504600F026FF2E
:10910000641CBC42D0D3BDE8FE8F00004C6F677377
:10911000206172652068616C746564210D0A00002D
:109120006D6F64756C655F6E616D6500252D343003
:1091300073207C2063757272656E74207C2062756A
:10914000696C742D696E200D0A0000002D2D2D2DE7
:109150002D2D2D2D2D2D2D2D2D2D2D2D2D2D2D2D3F
:109160002D2D2D2D2D2D2D2D2D2D2D2D2D2D2D2D2F
:109170002D2D2D2D2D2D2D2D2D2D2D2D2D2D2D2D1F
:109180002D2D2D2D2D2D0D0A000000002A00000090
:10919000CC220020252D343073207C20252D3773E0
:1091A000207C20257325730D0A00000008B5FDF70B
:1091B00079FC08B1FDF756FC4FF40041002002F0A5
:1091C0002FF908B1FDF74EFCFEF788F86548664AAE
:1091D000634D801AC0086988032202EB004403290A
:1091E00011D3204661A102F0A9F8688803280AD3A8
:1091F000204665A102F0A2F86888032803D3204620
:1092000067A102F09BF872490022724801F0F0FA5F
:1092100008B1FDF727FC6F4803F08EFB4FF01020DC
:1092200040694FF080500169406968886A4F03289F
:1092300004D3204669A13A6802F084F8002604238A
:10924000654A4FF478316348009601F073FC08B129
:10925000FDF708FC5F4804F017FA688803280AD372
:10926000204664A102F06AF86888032803D32046E8
:1092700062A102F063F802F06FFE08B1FDF7F2FBA5
:109280006946012002F0DAFC08B1FDF7EBFB684605
:1092900002F060FD08B1FDF7E5FB5F4A3A606888BF
:1092A000032803D320464DA102F04CF804234A4A78
:1092B0005A494848009601F03DFC08B1FDF7D2FB41
:1092C000444804F0E1F9688803280CD3204649A1FA
:1092D00002F034F86888032805D33F4A2046121D5F
:1092E0004FA102F02FF83C4A0C23121D4FF47C31A1
:1092F0003848009601F01EFC08B1FDF7B3FB354875
:1093000004F0C2F9688803281FD3204639A102F06F
:1093100015F86888032818D3204647A102F00EF8F4
:109320006888032811D320464EA102F007F8688808
:1093300003280AD3204656A102F000F868880328C3
:1093400003D320465B4901F0F9FFFEF7CBF800BFDD
:1093500001F0B8FE00B941DFFEF7B6F8F8E700000B
:10936000B423002048F3020000F302006673746F18
:1093700072616765206578616D706C6520737461DA
:10938000727465642E000000536F667444657669DC
:1093900063652069732070726573656E742E0000BA
:1093A000496E697469616C697A696E67206E72666C
:1093B0005F6673746F726167655F736420696D7057
:1093C0006C656D656E746174696F6E2E2E2E000073
:1093D0009CDB02007C2300204C2200205772697421
:1093E000696E67202225782220746F20666C617375
:1093F000682E0000446F6E652E000000456E6162AD
:109400006C696E672074686520536F667444657676
:109410006963652E00000000EFBEADDE00E10300D1
:1094200057726974696E67202225732220746F2039
:10943000666C6173682E0000557365202772656144
:10944000642720746F20726561642062797465738B
:109450002066726F6D2074686520666C6173682E7B
:109460000000000055736520277772697465272016
:10947000746F2077726974652062797465732074E3
:109480006F2074686520666C6173682E00000000B0
:10949000557365202765726173652720746F206599
:1094A0007261736520666C617368207061676573B3
:1094B0002E00000030E402002DE9FF4F4FF00008BD
:1094C00081B014468B468146C246C0F8008025789C
:1094D000002D71D0FCF786FF00900068405DC0074A
:1094E00002D004F801AB84E0D9F800008300401CEE
:1094F000C9F800004BF8034015E02678002E78D01C
:10950000B8F1000F05D1222E10D0272E0ED05C2EE0
:109510001ED0B04514D12046FEF710F90246611C5A
:109520002046FCF7B1FF4FF00008E6E72046FEF7C3
:1095300005F90246611C2046FCF7A6FFB046DCE7B1
:10954000B8F1000F50D05C2E61D16078404508D151
:109550002046FEF7F3F80246611C2046FCF794FF14
:1095600055E030281CD100270225605DA0F13001B4
:10957000072906D86D1C41EAC701EDB2CFB2052D0F
:10958000F3D3022D0CD92046FEF7D8F8421B6119FF
:109590002046491E921CFCF777FF04F8017BACE7DC
:1095A00078281ED100270225605DA0F1300109292D
:1095B00003D841EA07100DE021E0A0F1610105297F
:1095C00001D8573804E0A0F14101052907D8373800
:1095D00040EA07106D1CEDB2C7B2042DE4D3022D92
:1095E000D1D8B8F1000F12D100980068805DC00793
:1095F0000DD0D9F8001004988142FFF468AFD9F873
:10960000002040464BF822A005B0BDE8F08F641C56
:1096100073E72DE9F047C5881E1DB6FBF5F78946AF
:10962000B6FBF5F1044605FB176C407916686843F4
:10963000DDF820A0F718001F874200D9C61A16606F
:1096400001E02468491E0029FBD1A5EB0C078846E0
:10965000B74216D818E004EB0C00001D09EB080314
:10966000BAF1000F3A4602D00146184600E019460A
:10967000FCF70AFF2468F61B4FF0000CB844B54213
:1096800001D9374600E02F46002EE4D1BDE8F0872F
:1096900070B5144600230D4606461A4601F022FF17
:1096A000844201D9002070BD22462946304601F08F
:1096B0003DFF012070BD000030B5024651B101F000
:1096C00007FF0021074C08E034F821301568AB4251
:1096D00002D11160002030BD491C8142F4D3052025
:1096E00030BD00009023002010B50C460021E16041
:1096F00061600349A160012101F040FF206010BDBD
:109700005CDD020070B58468006804F10805FEF7AE
:1097100015F8C1B2A971E07C6A790844B0FBF2F394
:1097200002FB13035B1C2B70E07C0844B0FBF2F3DC
:109730005B1CAB70A07C0844B0FBF2F35B1CEB70CD
:10974000A07C0844B0FBF2F102FB1101491C6970D6
:10975000284670BD10B5FCF7A8FD08B1002010BD6B
:10976000112010BD10B531B1B2FBF3F403FB14248A
:109770001CB1092010BD0E2010BD01600021416008
:1097800081608281C381084610BD70B50C460546D4
:10979000FCF740FD002802D021882868084470BDED
:1097A00010B50A8849888A4203D1FCF775FD01206B
:1097B00010BD002010BD70B50C460546FCF74FFDEE
:1097C000002802D061882868084470BD10B50A8856
:1097D00049888A4203D1FCF739FD012010BD0020E1
:1097E00010BD002100F00FB8002100F012B80121D7
:1097F00000F01EB8012100F011B808B56A46FCF768
:10980000A0FD009808BD08B56A46FCF780FD0098E9
:1098100008BD08B56A46FCF77AFD08BD08B56A467A
:10982000FCF768FD08BD08B56A46FCF757FD08BDA2
:1098300008B56A46FCF75EFD009808BD08B56A46A3
:10984000FCF78CFD009808BD38B5044600258DF85E
:1098500000506846FDF7A4F92168626808689042E4
:109860000ED9401E08600178238BE26801FB0325B6
:10987000227A2168101AC0B20A79824200D2087195
:109880009DF80000FDF7B0F9284638BD38B505460B
:1098900000208DF800000C466846FDF781F9E86865
:1098A000298B201AB0FBF1F12A681068431C136061
:1098B00001709DF80000FDF797F938BD10B530B183
:1098C000017A42680368891AC9B21A6006E00E205C
:1098D00010BD03681A68541C1C601170491EC9B27F
:1098E000F7D2006800210171084610BD2DE9F0474C
:1098F0000646806888B0D0F83C01C0F3400038B11B
:1099000008B03046BDE8F0470022114600F046BBE3
:10991000012907D908B03046BDE8F0471DA2022151
:1099200000F014BB2049DFF884A0A1EB0A001C2141
:10993000B0FBF1F5002428E0C4EBC4010AEB81037D
:109940004FF000091F68D3E901103A793F78411AB6
:10995000B3F81880C01B5B69C0B2642712FB07F71D
:10996000B7FBF1FC642710FB07F7B7FBF1F7CDE974
:109970000621CDE9041CCDE902700D4A08213046CC
:10998000CDE9008900F0E2FA641CAC42D4D308B0FF
:10999000BDE8F08742616420617267756D656E7421
:1099A00020636F756E740000A0F3020068F302007C
:1099B000C8E402002DE9FF5F8B46164814499A4619
:1099C000091A0F09914652F8046C0025804607E0F9
:1099D00008EB05143046A168FCF78FFD18B16D1C2B
:1099E000BD42F5D30BE0210009D0009804B04B46EE
:1099F0005A46D446BDE8F04F5DF804EB6047009846
:109A000004B03346BDE8F05F03A2022100F09EBA25
:109A100000F30200E0F20200496E76616C69642096
:109A20006261636B656E643A2025730D0A00000065
:109A300070B515468268D2F83C41C4F3400424B1A5
:109A40001A46294600F0AAFA06E039B1516804A284
:109A50000B68022100F07AFA012070BD002070BD71
:109A600025733A2077726F6E6720706172616D6541
:109A700074657220636F756E740D0A0010B504462C
:109A800002290CD1A068D0F83C01C0F3400030B1ED
:109A900020460022BDE81040114600F07FBA064A79
:109AA00006A1206900F0F6FC034A2069BDE81040D9
:109AB000093202A100F0EEBCE0DA020025730000DA
:109AC000012907D0022909D18168D1F83C11C1F3DD
:109AD000400119B10022114600F060BA01A2022132
:109AE00000F034BA506C656173652073706563690A
:109AF0006679206120737562636F6D6D616E642E8F
:109B00000D0A00001CB5012905D002290BD014D97B
:109B10004FF0010112E002B04FF00002BDE810402A
:109B2000114600F03BBA536808A1CDE90013136851
:109B30000CA2022100F00AFA1CBD002102B0002391
:109B4000BDE810401A46FFF773BF000020756E6B2A
:109B50006E6F776E20706172616D657465723A2008
:109B60000000000025733A257325730D0A000000DC
:109B700010B50446012901D0012100E00021002395
:109B80001A46FFF755FF002809D1A168C1F82C013A
:109B9000E06840680068BDE8104001F03EBE10BDBE
:109BA0003EB50546012901D0012100E00021002336
:109BB0001A46FFF73DFF002818D1E868406804689E
:109BC000204601F027FEC0B2642110FB01F2A1681B
:109BD000B2FBF1F2D2B20092CDE90101A86804A271
:109BE0000821D0F82C31284600F0B0F93EBD000025
:109BF0004C6F7374206C6F67733A2025750D0A4D96
:109C00006178206C6F672071756575652075746962
:109C10006C697A6174696F6E3A2025752525205B21
:109C200025752F25755D0D0A000000007CB51446D2
:109C30000546012903D0022908D0012107E002B01E
:109C40000022BDE87040114600F0A8B900210023B1
:109C50001A46FFF7EDFE002809D1616804A0CDE99E
:109C6000000109A202212846236800F06FF97CBD9B
:109C700020756E6B6E6F776E20706172616D6574AA
:109C800065723A200000000025733A257325730D94
:109C90000A00000010B50446012901D0012100E0AE
:109CA000002100231A46FFF7C3FE002806D1A06852
:109CB000D0F83C1121F00401C0F83C1110BD10B5E2
:109CC0000446012901D0012100E0002100231A46A9
:109CD000FFF7AEFE002806D1A068D0F83C1141F095
:109CE0000401C0F83C1110BD7CB514460D46064673
:109CF000022901D9012100E0002100231A46FFF7C3
:109D000097FE002811D1022D05D03046FDF7E0FA6C
:109D100060B10BA30BE061680AA0CDE900010FA2BE
:109D200002213046236800F011F97CBD0EA302B079
:109D30003046BDE870400DA2082100F007B90000D0
:109D40006F6E000020756E6B6E6F776E20706172A3
:109D5000616D657465723A200000000025733A2534
:109D60007325730D0A0000006F6666004563686F17
:109D7000207374617475733A2025730D0A00000016
:109D800010B50446012901D0012100E00021002383
:109D90001A46FFF74DFE002806D1A068D0F83C1106
:109DA00021F00801C0F83C1110BD10B5044601298E
:109DB00001D0012100E0002100231A46FFF738FE00
:109DC000002806D1A068D0F83C1141F00801C0F885
:109DD0003C1110BD7FB50446012901D0012100E0EE
:109DE000002100231A46FFF723FE002827D1A06890
:109DF0000026D0F83451F5B101E0082E1BD2002323
:109E0000092201A9284601F096FC9DF80C20A168C2
:109E1000092328469431521C01F08DFCA06833467A
:109E200094300090029D761C05A20821204600F087
:109E30008DF8002DE1D1A168002081F894007FBD4C
:109E40005B2533645D2025730D0A00007CB5154643
:109E50000446012903D0022917D9012116E0A1687F
:109E600001F10C020D3103F05DF800281ED0A1684D
:109E700050200FA24873A1681820087302B0204632
:109E8000BDE87040042100F061B8002100231A46AB
:109E9000FFF7CEFD002809D1696814A0CDE90001C3
:109EA00018A2022120462B6800F050F87CBD00006B
:109EB0004E6F20726573706F6E73652066726F6D82
:109EC00020746865207465726D696E616C2C206108
:109ED0007373756D65642038307832342073637223
:109EE00065656E2073697A650D0A000020756E6BDA
:109EF0006E6F776E20706172616D657465723A2065
:109F00000000000025733A257325730D0A00000038
:109F100010B50446012901D0012100E000210023F1
:109F20001A46FFF785FD00280AD1064A06A12069D6
:109F300000F0B0FAA16850204873A1681820087397
:109F400010BD0000F6DA0200257300000FB438B52A
:109F5000044607A80090A068D0F83C21520717D506
:109F6000C27B8A4214D0B0F80F50204603F064FB45
:109F70006A462069069900F0A6FAE9B2204603F085
:109F80005BFB290A204603F039FB38BC5DF814FB63
:109F90006A462069069900F096FAF6E72DE9F04F37
:109FA000804689B016460C468948FDF7C7FB054632
:109FB00087483338FDF7C2FB281A1FFA80F9844816
:109FC00084A220380090D8F808000821406803686F
:109FD0004046FFF7BBFFD8F8080040680068FDF76F
:109FE000ADFB05467A482038FDF7A8FB284482B22D
:109FF000D8F808000023406841684046FEF70CFA94
:10A0000076A208214046FFF7A1FF16B30CB3002546
:10A010001DE000BF05EB450A04EB8A0BDBF80400EA
:10A02000FDF78CFB074654F82A00FDF787FB39182B
:10A0300049450BD9DBF80400FDF780FB074654F8CF
:10A040002A00FDF77BFB38441FFA80F96D1CB542EE
:10A05000E0D35F483338FDF771FB4844801C1FFA9A
:10A0600080F95B4800904B465FA208214046FFF70D
:10A070006DFF09F1030087B2079000233A465CA107
:10A080004046FEF7C9F9002C52D000254EE000BF33
:10A0900005EB450A04EB8A0B54F82A00DBF8043080
:10A0A0006BB350B34A4957A23339CDE900100821A8
:10A0B0004046FFF74BFF09F102000090DBF8040077
:10A0C000FDF73CFB074654F82A00FDF737FB074431
:10A0D0003F483338FDF732FB39180098401A801E8C
:10A0E000C1B24046FEF734F83A224949D8F8100088
:10A0F00000F0D0F90098401C0AE0009301E040B164
:10A1000000904B4638A208214046FFF71FFF0798F2
:10A1100087B2DBF8081029B100233A464046FEF723
:10A120007BF902E04046FDF741FF6D1CB542AFD31D
:10A13000D8F8080040688068002845D08146002093
:10A140000446064603AD02903246761C02AB01215E
:10A1500048460095FDF77AFD029850B10068FDF77A
:10A16000EDFAA042F0D902980068FDF7E7FA84B250
:10A17000EAE7012E28D027A208214046FFF7E6FE95
:10A1800000273A467F1C02AB012148460095FDF7A7
:10A190005DFD0298002817D0A11C8EB200680090C7
:10A1A000334611A208214046FFF7D0FE0298F61C64
:10A1B000B2B2416821B100234046FEF72DF9E0E735
:10A1C0004046FDF7F3FEDCE709B0BDE8F08F000084
:10A1D000FCDA020025732573000000004F707469DB
:10A1E0006F6E733A0D0A00002020252D2A733A0065
:10A1F00053686F7720636F6D6D616E642068656C66
:10A20000702E0000202025732573257300000000A8
:10A210009C700200537562636F6D6D616E64733A7A
:10A220000D0A00008068D0F83C01C0F34000704780
:10A230008068D0F83C01C0F3400070472DE9F04140
:10A240001E460546069F00F013F804000DD166B1C6
:10A250003946E86800F008FE002802DA0420BDE86C
:10A26000F081E8680121C06841712046F7E70000ED
:10A2700070B50446C068154623464068846060682F
:10A2800002681668254AB047002845D1606901F088
:10A2900041FA002840D1A168C1F83001A168C1F895
:10A2A00034014FF4A071A068FCF715F9A068D0F84C
:10A2B0003C1141F02001C0F83C11A068D0F83C11DD
:10A2C00065F38201C0F83C11A068D0F83C1141F060
:10A2D0000801C0F83C11A1680120124B0870A16868
:10A2E0005020114A4873A1681820087300210C48B7
:10A2F000D21A06E003EBC1046468246840F82140E8
:10A30000491CB1EBD20FF5D3072A04D9D108074B6A
:10A310000422FCF76BF8002070BD0000597A02009F
:10A320005023002088F20200E0F202001DCF02005C
:10A330000023FDF75FBC000010B5044680681021C3
:10A3400000F59E70FFF774FAA0680078F8B1012854
:10A350001DD002281BD12046FDF7D2F8002120464F
:10A36000FCF7DCFF98B110A2032120462368FFF719
:10A37000EDFD2046FCF7ACFF48B1A3680AA2082116
:10A3800020461433FFF7E2FD2046FDF7ABFE2069BF
:10A3900000F08DF8A068BDE810406FF0100100F5E6
:10A3A0009E70FFF730BA00002573000070B50446B8
:10A3B00080680078012801D0082070BD60680168BD
:10A3C0008A680021904705000FD10821204603F03C
:10A3D00033F90121204603F011F905A1206900F0AD
:10A3E00059F802212046FDF795F9284670BD000076
:10A3F0000D0A0A00F0B505460478154889B01646DE
:10A4000040F82420124A08690832A2F10C0742F8E9
:10A410002400487F385520226846FCF735F804941C
:10A420002878385C48B10EB10A4A00E0002269463B
:10A43000281D02F065F809B0F0BD0EB1064A00E033
:10A440000022694605F10C0001F0ACFEF3E70000C4
:10A4500060220020D5D3020021D2020030B403785C
:10A46000054CE35C1BB130BC001D02F005B930BCEB
:10A470000C3001F081BF00005C2200200178044A0A
:10A48000515C11B1001D02F04DB90C3001F0D6BF86
:10A490005C2200200FB408B50399002904D004AA57
:10A4A00000926A4600F00FF801B05DF814FB10B599
:10A4B00082680446002A05D0D4E90403216898473D
:10A4C0000020A06010BD2DE9FC4791460C0080469D
:10A4D00076D014F8011B39B125290ED04046FCF77F
:10A4E0007FFC20780028F4D198F80C00002867D071
:10A4F0004046BDE8FC47FFF7DABF00200122217883
:10A500002B291BD02D2902D0302908D102E040F0A0
:10A51000010001E040F00200641C002AEFD1002598
:10A520002A290ED02178A1F130020A2A11D205EB96
:10A53000850201EB4205641C303DF1E740F0040068
:10A54000EAE7D9F800100B1DC9F800300968641C4F
:10A550000D44217800232E290BD114F8011FA1F1FD
:10A5600030020A2A05D203EB830201EB4203303B9F
:10A57000F3E76C290DD068290BD0692921D00BDCB9
:10A58000252918D0582931D063290ED0642915D136
:10A5900017E014F8011FECE7702969D0732932D055
:10A5A00075291BD0782909D120E0D9F80000011DB8
:10A5B000C9F8001001784046FCF712FC641C90E7D3
:10A5C0006CE0D9F800100A1DC9F800200968CDE92F
:10A5D00000500A224046FEF7DBF9EFE7D9F80010F9
:10A5E0000A1DC9F8002009680A2206E0D9F80010FF
:10A5F0000A1DC9F8002009681022CDE90050404624
:10A6000002F08AFFDAE7D9F8001000270A1DC9F81E
:10A6100000200E68C00705D112E04046761C7F1C62
:10A62000FCF7DEFB31780029F7D104E02021404619
:10A630006D1EFCF7D5FBBD42C0D9002DF6D1BDE79C
:10A640004EB13046FBF752FF074604E0202140465A
:10A650006D1EFCF7C5FBBD4206D9002DF6D103E007
:10A660004046761CFCF7BCFB31780029F8D1A5E701
:10A67000D9F80000011DC9F80010056830214046D6
:10A68000FCF7AEFB78214046FCF7AAFB082000212E
:10A69000CDE90001034610222946B0E7BDE8FC875A
:10A6A0002DE9F84F8946050032483349304FA0EB79
:10A6B00001004FEAD0004FF0010101EB004478881F
:10A6C0009A46164626D0296800292FD0002E38D069
:10A6D0006A6849464FF010081268531E13EA090FC2
:10A6E00010D172432846FCF767F9002834D0286857
:10A6F00053463246046901B049462846A446BDE89F
:10A70000F04F6047002831D020461C4B1CA2CDF8EA
:10A71000008028E038B10E2000902046174B22A27E
:10A7200023A100F01EFE0E20BDE8F88F38B10820EE
:10A7300000902046114B29A21DA100F012FE082016
:10A74000F2E738B10920009020460C4B26A218A150
:10A7500000F007FE0920E7E7788838B1074B234A65
:10A760002046CDF8008012A100F0FBFD1020DBE7B1
:10A77000A823002030F3020000F3020077DB020080
:10A78000616464725F69735F706167655F616C6962
:10A79000676E656428705F66732C20706167655F03
:10A7A0006164647229000000705F6673000000003D
:10A7B000257320636865636B206661696C6564203E
:10A7C000696E202573282920776974682076616C6A
:10A7D000756520307825782E00000000705F667364
:10A7E0002D3E705F617069006C656E0010E80200BC
:10A7F000F8B503001448154E124CA0EB06004FEAC2
:10A80000D0004FF0010664884FF00E0506EB0040C3
:10A8100009D069B119600C6801B0A446BDE8F040E8
:10A8200011461846604754B1094B0AA2009503E04F
:10A830002CB1074B09A200950AA100F092FD0E2051
:10A84000F8BD0000A823002030F3020000F302004E
:10A850002CDB0200705F667300000000705F6170A7
:10A8600069000000257320636865636B2066616979
:10A870006C656420696E20257328292077697468C7
:10A880002076616C756520307825782E00000000F8
:10A890002DE9F04128B1016819B1C969BDE8F0415D
:10A8A00008470D4D0D480024461B14270DE000BF3E
:10A8B00004EB840005EB8000016829B1C969884771
:10A8C00010B10120BDE8F081641CB6FBF7F0A04296
:10A8D000EED80020F6E700007C2300209023002023
:10A8E0002DE9F84F914605003548364A334EA0EB26
:10A8F00002004FEAD0004FF0010202EB00448A460A
:10A90000708898464FF00E011FD0B9F1000F22D089
:10A91000296859B3B8F1000F33D05046FCF746F818
:10A920001027002838D0424651462846FCF744F804
:10A93000002838D0286843464A46846801B051460A
:10A940002846A446BDE8F04F604760B120461E4B44
:10A950001EA2009104E030B11B4B20461DA20091C5
:10A960001EA100F0FEFC0E20BDE8F88F38B10820D3
:10A9700000902046144B24A218A100F0F2FC0820FD
:10A98000F2E738B10920009020460F4B21A213A115
:10A9900000F0E7FC0920E7E7708868B120460A4B21
:10A9A0001DA2009705E0708830B1074B204620A219
:10A9B00000970AA100F0D5FC1020D5E7A8230020BD
:10A9C00030F3020000F3020052DB0200705F667396
:10A9D00000000000705F64657374000025732063DD
:10A9E0006865636B206661696C656420696E20250B
:10A9F00073282920776974682076616C756520302A
:10AA00007825782E00000000705F66732D3E705F21
:10AA1000617069006C656E00616464725F69735F88
:10AA2000616C69676E656433322873726329000054
:10AA3000616464725F69735F77697468696E5F628D
:10AA40006F756E647328705F66732C207372632C4D
:10AA5000206C656E29000000044801214174007AD1
:10AA600008B100207047012070470000082B00202B
:10AA7000012801D0032808D10449002201284A7482
:10AA800000D00020087401F0D9BF7047082B0020C7
:10AA900070B50246022801D0032A45D1234C207A02
:10AAA000002841D0012833D0022831D1204800238A
:10AAB000022A006802D0032A2AD11BE0E360017950
:10AAC00011B1012924D10DE0D0E90565711B4FF4C6
:10AAD0008056B14200D33146294481614569A9427B
:10AAE0000ED015E00169491C0161426991420FD104
:10AAF000237213E0E168491CE160082908D9E3608A
:10AB00002372022A0AD00D21FDF7D2FB01F08CFF3F
:10AB1000607C28B1BDE8704001F070BA0021F3E715
:10AB2000BDE8704001F08ABF70BD0000082B002016
:10AB3000A42200202DE9F84F914605004348444ADD
:10AB4000414EA0EB02004FEAD0004FF0010202EBB1
:10AB500000448B467088DDF828A098464FF00E011F
:10AB60001CD0B9F1000F1FD02968002926D0092177
:10AB7000B8F1000F2DD06A685368B8FBF3F703FBF8
:10AB80001782002A2CD030B1324B204632A20091DD
:10AB90003CA100F0E6FB0920BDE8F88F60B120463B
:10ABA0002C4B43A2009104E030B12A4B204642A234
:10ABB000009134A100F0D5FB0E20EDE738B108205C
:10ABC00000902046234B3EA22EA100F0CAFB082095
:10ABD000E2E70028DFD020461E4B3CA20091D7E7D9
:10ABE0005846FBF7E3FE102798B14846FBF7DEFE18
:10ABF000B8B1424659462846FBF7DEFED8B1CDF83B
:10AC000000A0286843464A46C46859462846A047DB
:10AC1000C2E77088002815D020460E4B2CA2009762
:10AC200005E0708870B10B4B20462FA2009715A14C
:10AC300000F097FB06E0708820B12046054B33A258
:10AC40000097F4E71020A7E7A823002030F30200C4
:10AC500000F3020064DB020021286C656E202520D1
:10AC6000705F66732D3E705F666C6173685F696EBE
:10AC7000666F2D3E70726F6772616D5F756E69747D
:10AC800029000000257320636865636B2066616995
:10AC90006C656420696E20257328292077697468A3
:10ACA0002076616C756520307825782E00000000D4
:10ACB000705F667300000000705F737263000000D5
:10ACC000705F66732D3E705F617069006C656E0029
:10ACD000616464725F69735F616C69676E65643338
:10ACE0003228646573742900616464725F69735FFC
:10ACF000616C69676E65643332282875696E7433D8
:10AD0000325F7429705F737263290000616464723A
:10AD10005F69735F77697468696E5F626F756E648F
:10AD20007328705F66732C20646573742C206C65C7
:10AD30006E2900002DE9FF411C46DDE90A78154621
:10AD40000E46684600F060F846EA450141EA840193
:10AD500041EA072242EA0841009A00EB8200C0F86B
:10AD60000017BDE8FF812DE9FF411C46DDE90A78A7
:10AD700015460E46684600F055F846EA450141EA98
:10AD8000840141EA072242EA0841009A00EB82006E
:10AD9000C0F80017BDE8FF811CB5002100910B46EB
:10ADA00001220191FFF7C6FF1CBD1CB500210091D7
:10ADB0000B4601220191FFF7D6FF1CBD1CB50022F6
:10ADC0000B46009211460192FFF7B4FF1CBD1CB563
:10ADD00000220B46009211460192FFF7C4FF1CBDF2
:10ADE0001CB5002100910B46012201911146FFF78D
:10ADF000A1FF1CBD1CB5002100910B460122019151
:10AE00001146FFF7B0FF1CBD0168202902D24FF0A8
:10AE1000A040704701F01F01016001487047000029
:10AE2000000300500168202902D24FF0A040704773
:10AE300001F01F010160014870470000000300504D
:10AE400001B56846FFF7E0FF009A01219140C0F884
:10AE5000081508BD01B56846FFF7E4FF009A012117
:10AE60009140C0F8081508BD2DE9F041054620487D
:10AE70000E460024D0F8103419460AE0CA68117949
:10AE8000A14205D1641C0A2CF6DB4FF0FF342BE005
:10AE900011680029F2D1611C26D0E9680C71D0F844
:10AEA000101459B1C968EA6809681160D0F8100433
:10AEB000C06805600027DFF83C8011E0C0F810543E
:10AEC000E96800200860F5E708EBC700C279B242E4
:10AED00000D33246E8683946007900F027FB7F1C32
:10AEE00000F0F6FAB842EFD82046BDE8F081000045
:10AEF000B42C002000F3020038B5416800228C68B1
:10AF00000868694600F027FC002803D1002120468C
:10AF1000FCF704FA38BD10B54068846860680168C1
:10AF20008A680121904718B10420A168087010BDFB
:10AF30000320FAE72DE9F3414468A668B068007879
:10AF400004281ED0032807D0002501A9206800F09E
:10AF50006FFC85F0010709E00125F6E73946304628
:10AF6000FCF7DCF901A9206800F062FC0028F5D1AB
:10AF7000019800F0CBFB002D03D000213046FCF7F8
:10AF8000CDF9BDE8FC81F0B595B01C4615460F46DD
:10AF900008461A9E00F0BAFB182109A8FBF79BFA95
:10AFA0000E96CDE909540023082203A9384600F083
:10AFB000C2FB05980690BDF81000ADF81C00BDF866
:10AFC0001200ADF81E0000208DF82100039808261D
:10AFD00000F00300012802D0022818D032E00398C4
:10AFE0003346850AC0F3C2008DF8200003980FA9EC
:10AFF000C0F38314A200384600F09DFB09A800901E
:10B0000006AB22460FA9284600F0DCFA1AE00398A6
:10B01000840DC0F3C2008DF82000082C01D2254613
:10B0200000E0082533462A460FA9384600F083FB86
:10B030002E44641B09AB06AA29460FA800F09AF912
:10B04000002CEAD1384600F067FB15B0F0BD704720
:10B05000084810B50178084A515C19B1001D01F08B
:10B0600061FB02E00C3001F0E9F9BDE8104000207E
:10B0700002F0F4B8B02200205C22002008B5034A98
:10B0800000924023024AFFF77EFF08BD9DCD0200DB
:10B090001C2B00200A4A012902EBC00007D002291C
:10B0A00007D0032907D0042907D0002070470220C9
:10B0B000704704207047007970474079704700005E
:10B0C00000F302002DE9F04F8DB0FBF799FE18B1A7
:10B0D00000200DB0BDE8F08F8D4C0020C4F818049E
:10B0E000BFF34F8F60680290A5684FF000092840B9
:10B0F00004EB80000CE000BFD4F8180470B921689C
:10B100000298814201D86160E2E7284004EB8000A8
:10B110000C3002A9FDF7D0FC0028EDD1002003AAD5
:10B12000A046029901EA050408EB8403491CDB6888
:10B1300042F82030401C02910228F2D3039800F01C
:10B140000300022802D0012850D0C2E00398502208
:10B15000810D8A46B2EB905F00D850210F4667F30D
:10B160009F50C0F3C206039008316A4800F085FA88
:10B170000400EAD000F0CAFA4B46082203A9204690
:10B1800000F0E1FA029909F1080B2940681A8000E1
:10B19000001D874223D95E4D0C3530B1C2B208EB99
:10B1A0008101381A91460C3104E02946FAB2002593
:10B1B00091462846C7B25B46204600F0C4FA0BEB26
:10B1C00009032DB13A4629464FEA040000F0BBFAC4
:10B1D00002990AF1030001EB900002903DE008EBB8
:10B1E00081015B463A4620460C31EFE70398C0F3F5
:10B1F0008310062800D30620039960F38911C1F358
:10B200008310C1F3C206801C03918100414800F005
:10B2100034FA04005DD000F079FA4B46082203A905
:10B22000204600F090FA09F1080900270FE0029883
:10B230004B4600EA0501401C08EB81010290042204
:10B2400020460C3100F07FFA09F104097F1C0398B5
:10B25000C0F38310B842EAD8D4B3D8F81054D8F861
:10B2600018044746F8B1204600F056FA4AE0E8686C
:10B270004179012915D10179BDF81000264A01EB69
:10B28000410152F8200007228A401040C840052E94
:10B2900000D10326B04204D3296828460A68214613
:10B2A0009047E8680568002DE1D1204600F034FAA7
:10B2B00000208DF800006846FBF772FCD7F81804F0
:10B2C00008B9029878609DF80000FBF78DFC19E042
:10B2D000FFE7D8F8104405E02168204689688847D0
:10B2E000E0680468002CF7D10C484088022809D394
:10B2F0000B480C49401AC008022101EB00400AA18A
:10B3000000F01CF8FBF77CFD80F00100E1E6000096
:10B31000B42C002084F30200C4230020B4230020B6
:10B3200048F3020000F302004261636B656E6473D0
:10B3300020666C75736865640000000000231A467F
:10B3400001F0A6BD08B5012300926A4601F0A0FDF8
:10B3500008BD1CB5CDE9002302236A4601F098FD23
:10B360001CBD3EB5069C8DE81C0003236A4601F017
:10B370008FFD3EBD2DE9F0470E4680461C469246A5
:10B3800008293ED894F80C900020207319461046E6
:10B3900001F086FA0025B54206D218F805201AA158
:10B3A0002046FFF777F803E019A12046FFF772F86F
:10B3B0006D1C082DEFD317A12046FFF76BF8002571
:10B3C000B54210D218F80570FBF70CF80068C05DA4
:10B3D00010F03E0F01D03A4600E02E220EA120468A
:10B3E000FFF758F803E00DA12046FFF753F86D1C56
:10B3F000082DE5D301222146504601F033FA84F8A6
:10B400000C90BDE8F0870000202530327800000065
:10B41000202020007C0000002563000020000000A8
:10B420002DE9F04723484FF00008FF21C0F80080C5
:10B43000C0E90181C0F81884C0F8148480F8208421
:10B440001D4800F067F9002831D11C4800F0C6FB08
:10B450001B49DFF87090DFF870A0A1EB0900C60867
:10B46000002414E000273D460CE0AC4209D059F816
:10B47000340059F835101422FBF756F8002800DD87
:10B480007F1C6D1CB542F0D32AF82470641CB442B2
:10B49000E8D30020414652460C4D05E002EB800403
:10B4A000618045F82010401CB042F7D30020BDE871
:10B4B000F0870000B42C002084F302006CDD020051
:10B4C00068F3020000F3020090230020C423002050
:10B4D00002480349401AC0087047000068F30200A0
:10B4E00000F302007FB505461146002401A873B1A0
:10B4F000FEF7E2F898B90B480199072250F82100AD
:10B5000005EB45018A401040C840C4B207E0FEF791
:10B51000D3F820B90448019900EBC100847904B044
:10B52000204670BDC423002000F3020070B5114B0B
:10B5300000EB400003EB81040F4B02F0070203EB2A
:10B540008101072303FA00F60D688240B5432A43C0
:10B5500000200A604FEA000103FA01F51540CD40D2
:10B56000ADB2854200D92846C91C0A29F4D36080AF
:10B5700070BD000090230020C423002013B568464E
:10B58000FEF79AF808B100201CBD0248009950F857
:10B5900031001CBD00F3020070B509480125D0F848
:10B5A000104480F8205407E0E06845712168204687
:10B5B00049688847E0680468002CF5D170BD000038
:10B5C000B42C00202DE9FF4781460C9D00200C463D
:10B5D0002F7B2873984616462946184601F060F9D5
:10B5E000072E42D2DFE806F004090F161F2A3600A4
:10B5F00049462846FEF74EFF37E04946284622686E
:10B60000FEF748FF31E0D4E9002349462846FEF71B
:10B6100041FF2AE0A0680090D4E90023494628466B
:10B62000FEF738FF21E0D4E90201CDE90001D4E9B9
:10B63000002349462846FEF72DFF16E004F10800D6
:10B6400007C88DE80700D4E9002349462846FEF7DD
:10B6500021FF0AE004F108000FC88DE80F00D4E9CB
:10B66000002349462846FEF715FF0022294640469A
:10B6700001F0F8F82F73BDE8FF872DE9F041058B45
:10B6800080462D1F4819C01CB0FBF5F0C6B24046DD
:10B69000FEF7DAF8041E19D0002020710120607135
:10B6A000E58000272546761EC4F800800BE0404662
:10B6B000FEF7CAF860B16179491C617128600546DE
:10B6C0007F1CC0F80080B742F1D32046BDE8F0816E
:10B6D000204600F002F80020F8E72DE9F041457916
:10B6E00001466B1E002201E00968521C9A42FBD3FE
:10B6F0000F680146002605E038460C68FEF7C6F8DC
:10B700002146761CAE42F7D3BDE8F0810121001D31
:10B71000FEF773B8FEF7D2B810B504460121001D3C
:10B72000FEF78CF810F0FF0F04D12046BDE8104062
:10B73000FFF7D3BF10BD1CB501920122009201AAF0
:10B74000FDF767FF1CBD1CB501920022009201AA03
:10B75000FDF75FFF1CBD2DE9F84304460027904626
:10B760000E468DF800706846FBF71AFA204600F086
:10B7700039F838B105279DF80000FBF735FA38464F
:10B78000BDE8F88320680568B8F1000F05D10168AD
:10B79000204600F046F821680860E268012A0CD0D3
:10B7A000022A0ED0042A11D06068082A13D005FBA3
:10B7B00002013046FAF768FEDDE76068405D3070F0
:10B7C000D9E7606830F815003080D4E7606850F839
:10B7D00025003060CFE700EBC501D1E90001C6E9E3
:10B7E0000001C8E7016808684968884201D1012062
:10B7F00070470020704701680A684968806888427D
:10B8000001D9491C00E00021914201D1012070477B
:10B8100000207047006880687047006800218160E0
:10B8200070478068884201D9481C704700207047E3
:10B830002DE9F84304464FF000080E468DF80080CD
:10B840006846FBF7ADF92046FFF7D5FF07000AD0A1
:10B85000207C40B14FF004089DF80000FBF7C4F9CC
:10B860004046BDE8F8832068456841682046FFF7F8
:10B87000D8FF2168486037B1206801682046FFF78B
:10B88000D0FF21680860E268012A14D0022A16D08D
:10B89000042A19D0082A1CD06068314605FB020032
:10B8A000FAF7F2FD204601F02BF921688A688242FE
:10B8B000D2D28860D0E7616830784855F2E7616895
:10B8C000308821F81500EDE76168306841F82500FF
:10B8D000E8E7D6E90001626802EBC502C2E90001AF
:10B8E000E0E700002DE9F04F8146806889B0D0F88C
:10B8F0003C01C0F3400038B109B04846BDE8F04F04
:10B9000000221146FEF74ABB012907D909B0484673
:10B91000BDE8F04F1DA20221FEF718BB2049DFF859
:10B9200084B0A1EB0B001C21B0FBF1F8002526E050
:10B93000C5EBC5010BEB81042068D4E9026A876876
:10B94000204600F03FF86421794364224243B1FB72
:10B95000F6F1B2FBF6F26369247CACB112A400BF2D
:10B96000CDE90664CDF800A00597CDE90120CDE929
:10B970000361104A08214846FEF7E8FA6D1C454568
:10B98000D6D309B0BDE8F08F0BA4E9E7426164208B
:10B99000617267756D656E7420636F756E740000FB
:10B9A000BCF30200A0F302004E6F206F7665726652
:10B9B0006C6F77008CE802004F766572666C6F776B
:10B9C0000000000038B5044600208DF800006846ED
:10B9D000FBF7E6F8204601F093F804469DF80000D6
:10B9E000FBF702F9204638BD2DE9F0411F0015464E
:10B9F0000E46044606D0A068FDF7FCFE10B11120EB
:10BA0000BDE8F081A068D0E903316068A3EB010CC8
:10BA1000421C944507D10020286017B1A068FDF7AB
:10BA2000E0FE0020ECE703EA000201EA0007BA4268
:10BA300001D3831A01E0181A0B1A28685B1C98427C
:10BA400000D203462B60206810443060A0682A684A
:10BA5000C1681144C160E4E72DE9F0410546806802
:10BA600017468846001DFDF7C5FE10B11120BDE840
:10BA7000F081A868816800690C1A3868A04200D279
:10BA800004463C60AA6869681069926808400A40E8
:10BA9000824201D9161A01E00E1A761CB44208D966
:10BAA0002968324601444046FAF7EEFCA41B002008
:10BAB000B0442968224601444046FAF7E5FCA868EC
:10BAC0003A68016911440161A868001DFDF789FE0B
:10BAD0000020CCE72DE9F0410546174688468068EE
