:020000040002F8
:10600000586B0020C1630200C9630200CB63020029
:10601000CD630200CF630200D163020000000000E4
:10602000000000000000000000000000D363020038
:10603000D563020000000000D7630200D9630200AC
:10604000C9670200DB630200296A0200DB63020009
:10605000DB630200DB630200B1650200DB63020068
:10606000DB630200DB630200DB630200DB63020030
:10607000DB630200DB630200DB630200DB63020020
:10608000DB63020021680200DB630200DB630200C5
:1060900045680200DB63020049680200DB6302001E
:1060A000DB630200DB630200DB630200DB630200F0
:1060B000DB630200DB630200000000000000000060
:1060C000DB630200DB630200DB630200DB630200D0
:1060D000DB630200DB630200DB630200DB630200C0
:1060E000DB630200DB630200DB63020000000000F0
:1060F00000000000DB63020000000000DB63020020
:10610000000000000000000000000000000000008F
:10611000000000000000000000000000000000007F
:10612000000000000000000000000000000000006F
:10613000000000000000000000000000000000005F
:10614000000000000000000000000000000000004F
:10615000000000000000000000000000000000003F
:10616000000000000000000000000000000000002F
:10617000000000000000000000000000000000001F
:10618000000000000000000000000000000000000F
:1061900000000000000000000000000000000000FF
:1061A00000000000000000000000000000000000EF
:1061B00000000000000000000000000000000000DF
:1061C00000000000000000000000000000000000CF
:1061D00000000000000000000000000000000000BF
:1061E00000000000000000000000000000000000AF
:1061F000000000000000000000000000000000009F
:10620000DFF80CD000F096F90048004755B00200C6
:10621000586B002030B450E8012F93B2C489234456
:106220008489A34228BF1B1B0489A34202BFBFF37A
:106230002F8F002007E0C3EA020340E80134002C5E
:10624000E9D14FF001000A6030BC704750E8012FDF
:10625000C2EA024240E801210029F7D1704730B478
:1062600050E8022F1FFAA2F3C488A34202BFBFF373
:106270002F8F00200DE0C48923448489A34228BFC6
:106280001B1BC2EA034340E80234002CE8D14FF064
:1062900001000A6030BC704750E8022FC2EA224277
:1062A00040E802210029F7D17047034653E8022F46
:1062B000D988B2EB324F4FF0000017BF92B241EADB
:1062C000014142EA014104E05A68B2EB324F08BF93
:1062D000012043E80212002AE8D1704730B4044696
:1062E00054E8000F0D4644E80053002BF8D1156028
:1062F00030BC704730B4044654E8000F40EA010552
:1063000044E80053002BF7D1156030BC704730B41F
:10631000044654E8000F00EA010544E80053002B4E
:10632000F7D1156030BC704730B4044654E8000F14
:1063300080EA010544E80053002BF7D1156030BC1A
:10634000704730B4044654E8000F00EB010544E800
:106350000053002BF7D1156030BC704730B40446B1
:1063600054E8000FA0EB010544E80053002BF7D1DF
:10637000156030BC704770B404464FF0000054E81C
:10638000006F0D68AE4207BF44E80023012044E8D7
:1063900000630E60002B1CBF0020F0E770BC70474C
:1063A00030B4044654E8000F88422CBF451A054615
:1063B00044E80053002BF5D1156030BC7047000055
:1063C0000648804706480047FEE7FEE7FEE7FEE78F
:1063D000FEE7FEE7FEE7FEE7FEE7FEE74D680200A8
:1063E000016202002DE9F05F0546002092469B46BF
:1063F00088460646814640241BE0284641464746DB
:10640000224600F087F853465A46C01A914110D3ED
:1064100011461846224600F016F82D1A67EB0108BF
:106420004F4622460120002100F00DF817EB00092D
:106430004E41201EA4F10104DFDC484631462A46C5
:106440004346BDE8F09F202A04DB203A00FA02F11F
:10645000002070479140C2F1200320FA03F3194352
:1064600090407047004870476024030010B5431AFD
:10647000934209D28318881803E010F8011D03F82D
:10648000011D521EF9D210BD40EA01039B0703D043
:1064900009E008C9121F08C0042AFAD203E011F863
:1064A000013B00F8013B521EF9D210BDD2B201E00F
:1064B00000F8012B491EFBD270470022F6E710B509
:1064C00013460A4604461946FFF7F0FF204610BD62
:1064D000421C10F8011B0029FBD1801A704710B52F
:1064E000002200E0521C835C8C5CA34201D1002B93
:1064F000F8D1D8B2E1B2401A10BD30B50446002040
:10650000034600E05B1C934203D2E05CCD5C401B81
:10651000F8D030BD202A04DB203A21FA02F0002115
:10652000704721FA02F3D040C2F1200291400843A3
:1065300019467047064C074D06E0E06840F001033D
:1065400094E8070098471034AC42F6D3FFF75CFE9E
:10655000483A0300683A030070B58C1810F8015BE4
:1065600015F0070301D110F8013B2A1106D110F8EC
:10657000012B03E010F8016B01F8016B5B1EF9D1F0
:106580002B0705D40023521E0DD401F8013BFAE776
:1065900010F8013BCB1A921C03E013F8015B01F8E1
:1065A000015B521EF9D5A142D8D3002070BD000076
:1065B0002DE9F04F00268DB0DFF8A081B14604969A
:1065C0004FF48075012437460596284606F048F9B1
:1065D00038B1D8F80403204203D0284606F036F933
:1065E00026432D1D64007F1CADB2082FEDD34FF460
:1065F000BE74204606F034F948B1204606F026F96C
:1066000046F0004604AA0221002006F009F9544C85
:1066100016F0FF0F15D00127002537420DD008EBEB
:106620008501D1F81005D1F81015C0F3052054F8F4
:106630002520C1F3014102B190477F006D1C082D58
:10664000EBD3002E7EDA0020CDF82890411E0DF10C
:10665000100B07AACDF82C9042F82010401C914650
:106660000228F9D300252E46A11911F8607F91F96F
:10667000000027F0C008401C40D007A9404605F0A4
:1066800026F840B34FEA971A404602F037FA54F81A
:1066900020701FB1BAF1030F03D006E0BAF1030F67
:1066A0002CD10AA9404605F01AF802A8CDF80880B6
:1066B00006F05AF8029900EB8100D0F8000704A90F
:1066C000C0F301400290404605F001F8002802980E
:1066D00002D0022802D011E003280FD1BAF1030F33
:1066E00008D10298022833D00221404606F016F85D
:1066F0006D1CEDB217B151464046B847761C042ECA
:10670000B2D3002D21D001AA0221002006F088F882
:1067100000205A460DF1040152F8206051F8203053
:10672000B34217D000200AAE4FEA090351F8207097
:1067300042F8207056F8207043F82070401C022860
:10674000F4D300E001E0002D8CD10DB0BDE8F08F56
:106750000321CAE7401C0228DED3F6E700600040B0
:106760000442002000F01F020121914040098000F6
:1067700000F1E020C0F88012704700F01F020121F4
:1067800091404009800000F1E020C0F800117047FE
:1067900000F01F02012191404009800000F1E0203B
:1067A000C0F8001270474907090E002806DA00F009
:1067B0000F0000F1E02080F8141D704700F1E02088
:1067C00080F800147047000070B54FF480763046B2
:1067D00005F020FB114CB50560B1304605F021FBFA
:1067E0000120C5F80803607920B901206071216893
:1067F000002088474FF48276304605F00BFB0028D6
:106800000AD0304605F00DFB0220C5F808032168C8
:10681000BDE870400120084770BD0000143400201E
:1068200007480021C0F84011C0F84411C0F84811D1
:10683000C0F84C11C0F80011C0F804110AF052BDA4
:10684000001001400AF09CBC06F096BD30B54FF038
:10685000805000228300D0F83011C3F80C21C3F817
:106860001021624B1A60624B1B68624C2360604BC4
:106870001B1D1B68241D23605D4B08331B68241DF2
:1068800023605B4B0C331B68241D2360584B103373
:106890001B68241D2360564B14331B68241D236082
:1068A000534B18331B68534C20342360504B1C331C
:1068B0001B68241D23604E4B20331B68241D23605E
:1068C0004B4B24331B68241D2360494B28331B6822
:1068D000241D2360464B2C331B68241D2360444B2E
:1068E00030331B68434C40342360414B34331B68C6
:1068F000241D23603E4B38331B68241D23603C4B12
:106900003C331B68241D2360394B40331B68241D16
:1069100023600124082902D1D0F8343113B10829A9
:1069200004D006E0354B3449196005E0D0F8343125
:1069300013B1082904D006E0314BFB21196005E0B2
:10694000D0F8343113B1082908D00EE090F858324D
:106950002C48016863F30301016002E0D0F8343190
:106960001BB929494FF40070086028480168C9071D
:1069700002D06FF0010101602548016841F4700107
:106980000160BFF34F8FBFF36F8F4FF01021D1F82D
:106990000002002803DBD1F80402002822DA1D4B94
:1069A0001C601D480468002CFCD01224C1F8004271
:1069B0000568002DFCD0C1F8044201680029FCD014
:1069C0001A6001680029FCD0BFF34F8F10487C3853
:1069D0000168124A01F4E06111430160BFF34F8F77
:1069E00000BFFDE70F490E48086030BD3805004084
:1069F0000404001020C50040488103008C5600406C
:106A000018F50040E40E00404096024000040040AB
:106A100088ED00E004E5014000E401400400FA05CF
:106A20000090D003103500200148006800470000A6
:106A30001C34002002E008C8121F08C1002AFAD145
:106A400070477047002001E001C1121F002AFBD1EE
:106A5000704700000121202803DA814005480140E9
:106A600003E0402802DA2038814009B10120704754
:106A700000207047FC06FFBD2DE9F843804643F235
:106A8000020659B9694608F0F9FAB04202D008B1D5
:106A900000F0BAF99DF80000800744D40021404678
:106AA00008F028FB05003ED0112D3CD01F4820499E
:106AB000401AC708022000EB07440D2D0AD00B2D09
:106AC0001DD0B5421FD11B4920464246BDE8F843C0
:106AD00006F0CAB820464246174906F0C5F8132109
:106AE000404676DF00281ED006F0CEFC024601B0FC
:106AF00020464346BDE8F04310A106F0BCB820464E
:106B000042461C49E2E7284606F0BEFC0246012048
:106B100000EB0740434618A106F0ADF82846BDE853
:106B2000F84300F071B9BDE8F8830000C03A0300F3
:106B3000783A0300742C0300002C030073645F6236
:106B40006C655F6761705F646973636F6E6E6563C8
:106B50007428292072657475726E6564202573200F
:106B60006F6E20636F6E6E5F68616E646C6520256A
:106B7000642E0000C02C0300417373657274696E4B
:106B8000672E20706D5F636F6E6E5F7365637572E5
:106B90006528292072657475726E656420257320DE
:106BA0006F6E20636F6E6E5F68616E646C6520252A
:106BB000642E000031B500252C462146684604F0BD
:106BC000EAFC00B16D1C641C142CF6D3284638BDB9
:106BD00010B560B159B102780B785208B2EB530F7F
:106BE00005D10622401C491CFFF787FC08B1002094
:106BF00010BD012010BD800701D00020704701208A
:106C00007047C3688B4206D811440069491E81420F
:106C100001D80120704700207047000010B5002007
:106C200005F05CFB00280ED109F08AFC002001F081
:106C3000ABFC0321044800F025FD002803D0BDE88B
:106C4000104000F0E1B810BDF435002010B501226D
:106C50000221002001F042FD08B1072810D10722CF
:106C60000221012001F03AFD08B1072808D10021D6
:106C70000A22084601F032FD08B1072800D10020A1
:106C800010BD70B58CB015460E4600236C46C3F19E
:106C90000F01415CE1545B1C102BF8D30D2104F172
:106CA0001000FFF70AFC0020C0F10F02315C224403
:106CB000401C11740328F7D3684646DF0020C0F15A
:106CC0000F01214491F820102954401C0328F6D3C9
:106CD0000CB070BD022001F039BC00000149C97838
:106CE00000F08EBED033002070B50024064D06E0C3
:106CF0006868012110F8340006F02AFC641C28782A
:106D00008442F5D3002070BD28340020F8B5154624
:106D10000C460646052A01D20720F8BD06F010FDF4
:106D200018B906F0D3FC0028F7D1124900224E60B2
:106D30000C708D60C1E90422C1E906220E4D0DE000
:106D400006EBC4002968009181788DF80110007865
:106D50000A4A694606F048FC0028DED1641EE4B207
:106D6000EED2BDE8F84004480021054A001D00F0BD
:106D700057B8000028340020CC200300C99F02002F
:106D80008591020072B606F01DF800BF05F04EFEB8
:106D90000028FBD111481249401AC408012000EB19
:106DA000044010A105F05CFF11480068C00700D046
:106DB00000BE022000EB04400EA105F051FFBFF31E
:106DC0004F8F0B48E43801680E4A01F4E06111432B
:106DD0000160BFF34F8F00BFFDE70000283B0300B9
:106DE000783A0300466174616C206572726F7200BC
:106DF000F0ED00E053797374656D2072657365740E
:106E0000000000000400FA050EB500210091CDE954
:106E100001106A4644F20100FFF7B4FF0EBD000006
:106E2000084B9B7823B12AB120B10068037C1BB1C9
:106E300008207047072070470023037441744261A3
:106E400018467047D842002070B509F0C5FA1048BE
:106E500000240B21047044700E4D817014206C606E
:106E60002C706C70FFF77EFC06211420FFF79BFC52
:106E70001420FFF782FC0848046006211120FFF768
:106E800092FC0548001F0068A860002070BD00004B
:106E9000D842002048340020081501402DE9FC4765
:106EA000DFF8789099F8023073B368B3052902D2FD
:106EB0000720BDE8FC87436933B3437C012B25D011
:106EC000002704460025884616468DF8005068467F
:106ED00000F038F801A80AF0E7FCC8B10121017000
:106EE0000F4944600968C0E90218C0E904769DF8BA
:106EF000040089F801009DF8000000F047F8142014
:106F0000FFF746FC2846D4E70820D2E70F46D8E72B
:106F100004259DF8000000F039F8F3E7D84200207E
:106F2000041501400649897839B130B1416921B170
:106F30000021017402210AF0B1B908207047000055
:106F4000D842002030B5EFF3108172B60D4A946834
:106F5000012324B10370002900D162B630BD9360D3
:106F60004FF0E023D3F88051074C25401560C3F85B
:106F70008041D3F8844154605A17C3F88421002219
:106F80000270E8E7E4430020FC06FFBD0B498A6875
:106F9000002A11D000280FD1EFF3108072B60B68D1
:106FA0004FF0E022C2F800314B68C2F804310022F1
:106FB0008A60002800D162B670470000E4430020D8
:106FC00070B5054608680C46411C04D005F001FC6C
:106FD000206805F08FFB6068411C02D0002105F09D
:106FE00077FB2968A069C1F82405607D227D2968A6
:106FF0001043C1F86C05D4E900122868C0F81425C4
:10700000C0F80C15207D012814D1A068411C02D0C5
:10701000002105F05DFBE068411C04D005F0D9FBC0
:10702000E06805F067FBD4E902122868C0F808257B
:10703000C0F8101570BD70B5054608680C46411CB7
:1070400004D005F0D0FB206805F05EFB6068411CB1
:1070500002D0002105F045FB2968A069C1F824058C
:10706000607D217D2A680843C2F86C05D4E90012CE
:107070002868C0F80C15C0F81425207D012814D10B
:10708000A068411C02D0002105F02BFBE068411CE8
:1070900004D005F0A8FBE06805F036FBD4E9021245
:1070A0002868C0F80825C0F8101570BD03F0A2BE0E
:1070B0002DE9F047814605884A484FF000088AB01C
:1070C00001784246284600F0B3FC99F805004007D5
:1070D00001D4002176E005F58077B8B201AB01223A
:1070E000072107F03DFC04003F48404A4FF00101F2
:1070F000A0EB02004FEAD00001EB00460AD0204688
:1071000006F0C2F9024630462B46394905F0B3FD78
:10711000214629E0284603F0D3FA4FF6FF710446D2
:1071200088422BD18A46029803F034FA044650452F
:1071300010D00146284603F0A3FA2846FFF7CEFDFB
:10714000E0B9284609F0A0FB2846FFF7C7FD002854
:10715000BFD013E007F0D0FD0446504508D13046BB
:1071600024A105F07DFD0421284609F0BBFBB0E712
:107170000146284603F084FA4FF00108B8B22246CF
:10718000072107F065FC07001BD0862F1ED006F0F4
:107190007BF9024630462B462349009405F073FDE7
:1071A0003946284609F09EFB0021484607F0CCFAF4
:1071B000B8F1000F02D0204603F06CFA0AB0BDE827
:1071C000F0870121484607F0BFFAF7E71822174970
:1071D00003A8FFF74BF9ADF80E5003A802F0F6F93B
:1071E000EFE70000D0330020C83A0300783A0300EC
:1071F000782F0300436F756C64206E6F7420616C90
:107200006C6F63617465206E657720706565725F71
:10721000696420666F7220696E636F6D696E6720A6
:10722000626F6E642E0000002430030048200300CB
:107230002DE9FC47002517880646158090F82D009B
:107240001446894630B13A462146484600F0A4FC2F
:10725000051E09D1B0784FF00C0A18B32088C84633
:10726000001DB84202D95046BDE8FC87684679DF68
:107270000028F9D12088032108F80010208819215E
:10728000401C80B2208008F800102088401C80B28A
:10729000208000EB0801BDF800000AF025FA2188E3
:1072A00008442080F0780222C8B1218896F9033082
:1072B00001F1030C4846BC45D5D8425421884FF013
:1072C000010C491C89B2218000F801C02188491CA9
:1072D00089B2218009F801302088401C2080706824
:1072E000B8B1218890F9003001F1030C4846BC4543
:1072F000B9D8425421880A22491C89B221804254BB
:107300002188491C89B2218009F801302088401C5D
:107310002080308950B1CDE900474B46062202213A
:1073200006F108000AF0D8FA051E9DD1308A50B146
:10733000CDE900474B460722032106F110000AF071
:10734000CBFA051E90D1308B50B1CDE900474B46AA
:107350001522142106F118000AF0BEFA051E83D189
:10736000306A30B13B462246494601F06EFD051EAB
:10737000DBD1706A30B13B462246494603F05EFFDE
:10738000051ED2D196F82C0038B13B46224649461C
:10739000304609F081FB051EC7D1307838B13B4635
:1073A00022464946304603F0F9FF051EBDD1284666
:1073B0005AE7F8B506464FF000001500ADF800009A
:1073C00015D009236A46304600F025F80446BDF87A
:1073D0000000064458B154B12846FFF779F8A0429E
:1073E00005D1224631462846FFF787F808B100202C
:1073F000F8BD0120F8BD18B504460020ADF8000026
:1074000013466A46204600F006F8002802D0BDF870
:107410000000204418BD70B588B182B100241588E1
:1074200003E0065D641C3444A4B2A54203D80619E7
:1074300076789E4201D08C42F3D38C4201D3002057
:1074400070BDA11C1180005D401E80B270BD2DE991
:10745000F0418AB006460020ADF814001346102013
:1074600088468DF804000D4606AA01A9184664DF77
:10747000A6B398BB9DF80400022804D0042807D0C6
:10748000102839D10DE003208DF81000022003E010
:1074900005208DF8100004208DF81100002404AFA1
:1074A0000FE007208DF810000620F5E73B5D05AAE8
:1074B00041463046FFF7AFFF641CE4B20546022C9C
:1074C00004D2BDF814000028F0D003E0BDF8140089
:1074D000002812D080B2064400240BE00CE03019E2
:1074E0009DF8042006A9FFF708F848B19DF80400AC
:1074F000204484B2AC42F2D300200AB0BDE8F0814F
:107500000120FAE780F83010704700002DE9F047BD
:107510000E00044606D02CB196F87A00002501280A
:1075200003D006E00E20BDE8F08796F89800012809
:1075300021D04FF00109A5702C2206F17801201D01
:10754000FEF794FF84F83050D6F8A4006063D6F8B4
:10755000A800A0634FF6FF70A4F8480204F50D7070
:10756000C4F84402C4F84A52A4F84E5284F8505267
:10757000207810B104E00720D5E7FF2084F85400FC
:1075800004F15501C4F8341294F82400EE274FF0AA
:107590001F0801281FD0A4F8388200BF04F50E721E
:1075A0003046FFF745FE0028BDD116F13C0F18D03C
:1075B00004F24311C4F83C1294F8240001280DD0C1
:1075C000A4F8408204F5107206F13C00FFF730FE8B
:1075D0000028A8D109E0A4F83872DFE7A4F84072C7
:1075E000F0E7C4F83C52A4F8405284F85190208B44
:1075F000A4F8480084F83C90256484F850506069F1
:1076000060644E4604F13C02002104F1540072DF34
:10761000002888D1267086E710B50288102A1BD072
:10762000112A20D0262A1DD1007A0C46012801D02B
:10763000022817D1A0780521401CB0FBF1F201FB14
:107640001201204600F01EF800280BD0A16B002983
:1076500008D0BDE810400847C27B012A02D18088CB
:10766000A1F8480210BD0C46002184F8521280880F
:10767000B4F848128842F5D120790028F2D10121CE
:10768000DFE770472DE9F05F044600780F4698B1B8
:10769000A7700025C4F84A52A4F84E5284F85052FC
:1076A000A079012608B1012F09D0E07980B1012F1E
:1076B00005D0022F03D00BE00820BDE8F09F616BDE
:1076C00021B184F851620820884701E084F85152C2
:1076D00004F24B2100200A5C0AB1304603E0401C52
:1076E0000628F8D300204FF002084FF0030B012FBB
:1076F00006D0022F0CD0032F0FD0042F15D110E08D
:10770000A17929B194F8241011B908B130460DE0DF
:10771000E17911B108B1404608E0207A08B1584635
:1077200004E0607A08B1042000E02846A070616B94
:1077300041B1032801D0042804D1607910B194F834
:107740005202A0B184F8535204F13C0018210746BC
:10775000FEF7B3FE04F12C0084F83C60814607F08C
:10776000F7FB58B194F82C0084F8510008E084F835
:10777000545284F8536207208847E5E784F8516043
:1077800094F8240050B1484607F0E2FB20B194F889
:10779000280084F8520001E084F8526084F85050C8
:1077A000A27804F24A2104F50D794FF0060A052A61
:1077B00062D2DFE802F07A030F22410084F83160E0
:1077C000C4F84452C4E9101584F83C808020A4F821
:1077D000480053E084F8318094F82420384612B1F0
:1077E0000722027001E080F800B0228A8281C4F88A
:1077F00044524160E168B96040E06069B860208B44
:10780000B88194F824003D4610B184F83CA001E012
:1078100084F83C6020460AF023F850B185F81480C3
:107820000421204602F0E6F830BB052184F831102F
:1078300020E084F831B01DE0E069B860208CB881A8
:1078400094F824003D4610B184F83CA001E084F88F
:107850003C6020460AF004F848B185F81480042101
:10786000204602F0C7F838B984F831A002E00420BD
:1078700084F83100C4F84492A07878B13A4604F113
:107880005400D4F8441272DF00287FF416AF94F845
:10789000301094F8540073DF0028F6D1616B11B1F9
:1078A00094F831008847002007E784F83150F5E765
:1078B00070B5040012D001461C221448FEF7D6FD14
:1078C0001248134D0560206850B17ADF002806D1B8
:1078D0002068016829604068686005E00E2070BD7E
:1078E0000B487BDF0028FAD108484FF6FF711438A7
:1078F000084A20F8041B05492C3901600021FFF7D4
:107900008FFA0028EBD0032070BD0000203A002041
:107910001C330020F9170300054808B5C168009121
:107920008168684603F05BFE0098FFF743F908BDE5
:107930003C3A002010B5044600F09AF8002805D023
:107940002146BDE81040024803F025BE10BD0000EE
:107950004C3A002070B515460E46044609F08CFFDF
:10796000002809D0054800EB840080692A4631468A
:10797000BDE8704002F06AB870BD00003C3A0020DB
:1079800010B5044600F074F8002805D02146BDE883
:107990001040024803F0FFBD10BD0000503A002027
:1079A00070B50546002400F063F838B12946044854
:1079B00003F0F1FD08B1022400E00124204670BD6F
:1079C000483A002070B50546002400F051F838B15F
:1079D0002946044803F0DFFD08B1022400E0012439
:1079E000204670BD443A002010B51821034803F02A
:1079F000ADFD182800D0C0B210BD00003C3A0020F8
:107A000070B505460C46084609F036FF60B12846B9
:107A100000F02EF840B10548294600EB8400BDE88F
:107A20007040183003F0B7BD002070BD3C3A002014
:107A300070B5054614460E46084609F01DFF00289D
:107A400012D0284600F014F800280DD00748294627
:107A500000EB860018301CB1BDE8704003F0A6BDF5
:107A6000BDE8704003F057BD70BD00003C3A0020F7
:107A7000142801D3002070470146014803F08BBD54
:107A8000403A002070B540B10C4D297839B1044618
:107A900008F0D8FB28B1002070BD0E2070BD082072
:107AA00070BDE868062807D20549226801EB80010D
:107AB000401C0A60E860EEE7042070BD243300201B
:107AC000B43A002040B1054900220123CA600B707E
:107AD000C1E90102104670470E2070472433002090
:107AE00070B504002DD000292BD020480078002844
:107AF00027D020880D46112815D0302804D03228F0
:107B000007D033281ED109E0211D284606F064FC69
:107B100018E0211D284606F01FFA13E0211D284613
:107B200006F016FB0EE0A088B5F8CA12884209D10B
:107B3000002085F8C70285F8C8024FF6FF70A5F847
:107B4000CA0270BD95F8C8020028FAD020883028F3
:107B5000F7D34F28F5D8A088B5F8CA128842F0D1DB
:107B60002846BDE8704001F0BFBB00002433002070
:107B700048B1084A137843B1D26832B190F8C722AD
:107B80002AB1112070470E2070470820704701F07D
:107B9000ABBB0000243300207CB5054608880C46AA
:107BA0000930904201D90C207CBD68466DDF002869
:107BB000FAD121880820685420881B21401C80B2FB
:107BC000208029542088401C80B220802844DDF881
:107BD00001100160BDF8051081802088801D80B2F1
:107BE00020809DF80010490800D0012129542088E8
:107BF000401C208000207CBD10B504468088FFF723
:107C0000CFFE012814D02188262911D0022801D0C6
:107C10001D291CD10E49204600F0B0F90C49204620
:107C20000C3100F0FDFA2046BDE8104006F008B81F
:107C3000074920466C3900F06BFA054920461C398B
:107C400000F0D5FB2046BDE8104006F00FB910BD8E
:107C50009435002010B51A4C0188606810290ED0A8
:107C600011292BD1401E606028D1FEF7EFFF0028BC
:107C700024D02168002921D0BDE810400847D0B9A0
:107C800000210122084600F029FD08B107280FD184
:107C900007220221012000F021FD08B1072807D1A9
:107CA00004220221002000F019FD20B1072802D093
:107CB000216801B188476068401C606010BD000009
:107CC000143300202DE9F04701883B4E40F2F319B0
:107CD0004FF6FF7510291BD011293ED0122954D020
:107CE000502946D1C188F289841D914241D16189D0
:107CF00002293ED18688304602F090FD050038D03A
:107D000004F10C0000F0DFFBA8B3294630464EE03A
:107D1000C17B8788044601292BD1A846284602F05A
:107D20007DFD050017D02F80002028722348434690
:107D30004A460168C5F80A104068C5F80E0004F10B
:107D4000100105F10A0002F029FE6872F08900288E
:107D50000FD129462AE0042013E0808802F05EFD5E
:107D6000040006D06068FFF7DDF808B108F09EFD5A
:107D70002580BDE8F087FFE76868FFF7D3F80028A3
:107D8000F7D0BDE8F04708F091BD87880646384631
:107D900002F044FD0400ECD02B464A4606F10801EF
:107DA00004F10A0002F0FAFD607221463846BDE88F
:107DB000F04701F091B80000203A00201C33002069
:107DC0002DE9F04F0746858802883D48012197B08C
:107DD0008346102A09D0112A49D01A2A6CD1387A40
:107DE000B1EB101F45D2012244E0354C083CA0689D
:107DF000C0430B9061680BA803F0F1FB0B990CA832
:107E000001F004F82C220CA96846FEF72FFB00268F
:107E1000E946A04610E000BF09EB46005FF0000411
:107E2000B0F804A008EB84005146001D03F073FB7A
:107E3000641C1D2CF6D3761C0098B042ECD8142D8F
:107E400005D317B00420BDE8F04FFEF7DDBF29468B
:107E5000584603F0ABFB294608F1040003F0A6FBEB
:107E6000F87B012828D016482946001D15E0294630
:107E70001AE000220221B1EB101F01D2012600E01E
:107E800000260F49083901F11000041D294682B16E
:107E900003F08CFB36B12946204617B0BDE8F04F01
:107EA00003F084BB2946204617B0BDE8F04F03F02D
:107EB00032BB03F030FBF5E717B0BDE8F08F0000F0
:107EC000443A002010B504460748007800280AD03C
:107ED000204602F0D1FA204608F082FE2046BDE896
:107EE000104001F0F5BE10BD6033002030B10180BC
:107EF00012B11168C0F80210002070470E207047C0
:107F000070B5E8B10F4C0288438820680E4D00EB35
:107F10008001401C00F00700206005EB8101022079
:107F20004B81C881081D086100248C8101200872E2
:107F300008714C710A80887009F00EFA204670BDF5
:107F40000E2070BDF0330020B040002008B598B17D
:107F500091B101228DF8022041F60D02ADF800200A
:107F6000096881604FF6FF710180002141808180A6
:107F70006846FFF787FD08BD0E2008BD0A4601468A
:107F8000100029D0002927D00A88112A1AD0382AAF
:107F900003D0392A20D106F0A9B900888A889042F6
:107FA0001AD1C888A0F58071053909D0A0F5807173
:107FB0000F3905D009490879401C00F007004860D6
:107FC00009F0CAB9028889888A4205D14FF6FF7143
:107FD000018000214180818070470000F033002043
:107FE00030B50446008C8BB0A0F57F42FF3A23D019
:107FF00005AA204602F046F90546ADF8000000202B
:1080000001900290039004902189ADF804100121A1
:10801000ADF808008DF8061005A8CDF80CD0049036
:10802000208C01A9AEDF002804D1BDF80010A942C0
:1080300000D00C200BB030BD0820FBE7F0B50446A3
:108040008FB008682060087960714FF6FF70208457
:10805000002084F82200A4F84C001427012684F89C
:108060004E708DF8226041F60D000D46ADF82000EF
:10807000A21D08A93046A8DF002847D12021684664
:10808000FEF71BFA42F63720ADF80000ADF8047099
:1080900009AA0021204602F0F5F8ADF8060009A86B
:1080A00002908DF80C609DF80D0004F1080240F07C
:1080B00010008DF80D00287B8DF81300E0886946CC
:1080C00000F024FD002821D1A868F0B120216846E5
:1080D000FEF7F3F942F63820ADF80460ADF8000081
:1080E000ADF80660A86802909DF80D0004F110023A
:1080F00040F002008DF80D00687B8DF81100E088DB
:10810000694600F003FD002800D100200FB0F0BD4B
:1081100038B50288102A15D0112A15D0502A16D148
:1081200030F8062F8B899A4211D10C4641890229D9
:108130000DD1216800290AD00C3000F0C4F938B103
:10814000002006E0808801E04FF6FF70088438BD0B
:1081500001208DF80000226869462046904738BD0E
:1081600030B50A788DB0002A36D18A88A2F5C0537E
:108170000D3B31D18A79012A2ED18DF800204A8811
:10818000ADF80220002242F637240B7A13E000BF3C
:1081900002EBC20501EB4505ED89A5420AD102EBD0
:1081A000C20201EB42010A8BADF80420C98AADF886
:1081B000061002E0521C9342EAD80188A1F57F42E2
:1081C000FF3A06D0418821B9818811B90199C0F8D8
:1081D00002108268694690470DB030BD30B1018011
:1081E00012B11168C0F80210002070470E207047CD
:1081F00008B598B191B101228DF8022041F6140220
:10820000ADF80020096881604FF6FF710180002100
:10821000418081806846FFF735FC08BD0E2008BD0F
:108220000A0001461BD0002919D010460A88112ADD
:108230000BD0382A03D0392A11D106F090B8008823
:10824000898888420BD109F0A1B8028889888A42BE
:1082500005D14FF6FF710180002141808180704778
:1082600070B518B30288A2F57F41FF391CD0104CBD
:108270004388104D206800EB8001401C00F007008F
:10828000206005EB810102204B81C881081D086137
:1082900000248C810120087208714C710A8088705A
:1082A00009F074F8204670BD082070BD0E2070BD26
:1082B000F83300205041002070B58EB00D46040008
:1082C00061D0002D5FD0286820604FF6FF70E082FB
:1082D000E888208301268DF8366041F61400ADF859
:1082E0003400221D0DA93046A8DF002849D12021E5
:1082F0006846FEF7E2F842F65320ADF8000014207D
:10830000ADF804008DF80C609DF80D0008AE40F04B
:1083100010008DF80D0028798DF8130008AA05F1DA
:1083200008012046029607F0B3FFADF80600A088CA
:10833000A21D694600F0EAFB002822D120216846F0
:10834000FEF7BBF842F654200221ADF80000ADF86C
:108350000410E8888DF82000000A8DF821009DF8AF
:108360000D00ADF8061040F0020002968DF80D00E9
:1083700068798DF81100A08804F10E02694600F0BA
:10838000C5FB0EB070BD0E20FBE730B58BB004000E
:1083900029D041B3E08AA0F57F42FF3A25D005AA53
:1083A000204607F075FF0546ADF80000002001905B
:1083B000029003900490E188ADF804100121ADF81B
:1083C00008008DF8061005A8CDF80CD00490E08ABE
:1083D00001A9AEDF002804D1BDF80010A94200D0E9
:1083E0000C200BB030BD0E20FBE70820F9E738B5B4
:1083F00000291FD000281DD00288102A15D0112A6C
:1084000015D0502A16D130F8062F4B899A4211D137
:108410000C46418902290DD1216800290AD00C306F
:1084200000F051F838B1002006E0808801E04FF6F6
:10843000FF70C88238BD01208DF8000022686946AF
:108440002046904738BD000030B50A7885B0002A34
:1084500037D18A88A2F5C053143B32D18A79012AD8
:108460002FD14A88ADF80220002242F653240B7A1D
:1084700013E000BF02EBC20501EB4505ED89A54203
:108480000AD102EBC20201EB42010A8BADF80420D3
:10849000C98AADF8061002E0521C9342EAD801885E
:1084A000A1F57F42FF3A06D0418821B9818811B9F0
:1084B0000199C0F8021001218DF800108268694608
:1084C000904705B030BD007800F001007047000013
:1084D000084908B5085C0090684604F037F9D0F800
:1084E00010050099C84010F0010000D0012080F074
:1084F000010008BD491E03002DE9FC410646C007E6
:108500004FF000050ED0104F00240122385D009579
:1085100000231146019504F065F8641C042CF4D383
:1085200000F04EF8B0070DD5074E0024361D00228E
:10853000305D032300951146019504F053F8641C47
:10854000042CF4D3BDE8FC81451E0300094908B59D
:10855000085C0090684604F0F9F8D0F80425009B08
:108560000121994021EA0203C0F808351140C0F802
:108570000C1508BD451E03000249085C012104F0EA
:108580003CB90000451E03000249085C002104F0CC
:1085900034B90000451E0300084908B5085C009086
:1085A000684604F0D3F8D0F804050099C84010F0EC
:1085B000010000D0012080F0010008BD451E03002D
:1085C00010B500242046FFF7D7FF641C042CF9D314
:1085D00010BD10B500242046FFF7D6FF641C042C04
:1085E000F9D310BD10B50246064B4FF0FF30002105
:1085F0005C5C944201D1084610BD491C0429F7D3A4
:1086000010BD0000491E030070B50C4E0C004FF069
:10861000000530600BD0012000F05AF808B10220AC
:1086200004E0002000F054F800B10B2020707068C6
:1086300010B9FEF70BFB0546284670BD1433002029
:108640002DE9F0470D468146FFF7CCFF044604288C
:1086500036D2DFF874801B481C4EA8F10C0725B3F6
:10866000012D0ED0022D2BD104EB4400304445786F
:10867000002D25D0B968002922D02846BDE8F04752
:10868000084704EB4401755C0E44717849B10E4A09
:108690004FF40041093A8068FEF700FC08B987F8FA
:1086A0000390B17808F80410E2E78068FEF73AFC1E
:1086B00004EB4401314418F804008D78A842D7D067
:1086C000BDE8F087501E030010330020D039002091
:1086D000042801D2FFF7FCBE0020704770B50023CC
:1086E000042810D20D4D00EB4004012A02D10129CB
:1086F0000CD00022094E00EB4000304461B101294A
:1087000006D0022906D00723184670BD0E30C2B22B
:108710002A55F9E74270F7E78270F5E7D039002073
:1087200070B506461E480024C0E90161B00720D597
:108730000025012211462846FFF7D0FF6D1C044694
:10874000042D02D2002CF4D013E094B940F26662FA
:1087500004211448FEF7DAFA04000AD1FEF7C4FA3D
:10876000040006D10F48104A0021001FFEF758FBF5
:108770000446F00712D00120FFF7BEFE74B9094885
:108780000A4A00210C38FEF74BFB040006D10548CD
:10879000074A01210838FEF743FB0446204670BD16
:1087A000043300205C1E0300418A020095AA0200E7
:1087B000D56C02002DE9F05F6E4C0546002660780E
:1087C000B34618B184F801B002F04CF96A4F4FF487
:1087D0007A694FF4C87A4FF00108182D69D2DFE8A2
:1087E00005F00C1313384754696E727B727BC58495
:1087F00084848484B3B6B9BCC5C502F033F9386843
:10880000FEF790FB06465CE00020FFF7C5FE00285F
:108810004FF0000008D0FFF7AFFE022D02D14FF459
:10882000E16008E0484606E0FFF7AEFE022D01D108
:10883000C82000E05046410CC0034FF4FA72801883
:1088400041F10001257052000023FDF7CBFD0146E8
:108850002AE00020FFF7A0FE00284FF0000004D01F
:10886000FFF78AFE4FF44870E5E7FFF78DFEDFE77C
:108870000020FFF791FE00284FF0000002D0FFF724
:108880007BFECFE7FFF780FED4E70020FFF784FEF2
:1088900000284FF0000002D0FFF76EFE01E0FFF766
:1088A00073FE257041F69A1100223868FEF7F6FA39
:1088B000064646E00020FFF749FE257008E000204C
:1088C00051E025703DE084F801800120FFF73EFE75
:1088D000002240F6CD41E8E784F801800120FFF74F
:1088E00035FE00224FF48041DFE77868FEF71AFB7F
:1088F0000646D5F1110000D02EB10220FFF73CFE54
:1089000084F802B01DE0012816D980B2C82148437E
:10891000C117C90341EA5041C0034FF4FA728018ED
:1089200041F1000152000023FDF75CFD01460022E9
:108930007868FEF7B3FA06460220FFF725FE84F8B2
:1089400002803046BDE8F09F02F08CF8B9E702F0F3
:1089500089F8B4E702F086F804E002F083F800201A
:10896000FFF712FE0120FFF70FFEAAE7FFF731FE27
:10897000A7E7000004330020501E03002DE9F84350
:108980000546861C00208DF8000090460F464FF0EB
:1089900001096846FEF7D6FA1B4C20683860D4E916
:1089A0000001401AA16804F21C47081A0EE00121D8
:1089B000384602F00EFE02F0FFFA0146384602F099
:1089C00008FED4E90001401AA168081A401C86423A
:1089D000EDD8B8F1000F03D0052065F3891002E04F
:1089E000062065F39F50A2682168114004EB8101C5
:1089F000C8602068304420609DF80000FEF7C6FA89
:108A00004846BDE8F88300003447002030B482684F
:108A10000468531C8360A154D0E901128A4202D336
:108A200030BC03F07CBA30BC70470000034803C878
:108A3000814201D101207047002070473447002057
:108A400000780221FFF7FCBD1CB5044601F038FE9A
:108A500000236A46092106F0C5F8052805D1034818
:108A6000012241792046FEF7E3FF1CBD343300208C
:108A70001CB50021009142F6A621ADF8001001219D
:108A80008DF80210034901AA096801916946A0DF27
:108A90001CBD0000F81E030005494FF0FF320828F6
:108AA00041F8202002D3084480F858207047000085
:108AB00004420020F0B54FF0FF3512B10023082624
:108AC00001E008230C260C4C05E000BF54F823708D
:108AD0007F1C04D05B1CB342F8D32846F0BD261897
:108AE0005DB286F8305044F82310002AF5D1E11821
:108AF00081F85800F1E700000442002002490844D0
:108B000090F9300070470000044200202DE9F04346
:108B10008146887891B090460C4600B901208DF8C6
:108B20003E002088ADF83C0000250095607C694639
:108B300008F03EF86E46A07C711C08F039F8E07B26
:108B400000289DF8020002D040F0080001E020F06B
:108B500008008DF80200217C11B140F0100001E006
:108B600020F010008DF80200217B11B140F00100CF
:108B700001E020F001008DF80200217D09B1022101
:108B800000E0012161F342008DF802001C2102A8DF
:108B9000FDF793FC607BC10601D4800617D50E95C6
:108BA0000EAFE07C791C08F003F89DF838000797B9
:108BB00020F00F00401C20F0F00010308DF838003D
:108BC0009DF83A0020F00600801C8DF83A00607B8A
:108BD0008DF80800A07B8DF80900142109A8FDF785
:108BE0006CFC0FA8CDE90906A088ADF83000A0689C
:108BF00020B1E088ADF82C00A0680D90A06998B372
:108C000001950088ADF81000A06901AD01A9408868
:108C1000ADF81200A069406806950390A069007B3A
:108C200007F0C6FFA069691C407B07F0C1FFA0697F
:108C3000807A00289DF8060002D040F0080001E08C
:108C400020F008008DF80600A169C97A11B140F042
:108C5000100001E020F010008DF80600A169097AEB
:108C600019B140F0010002E00DE020F001008DF8A4
:108C70000600A169897B09B1022100E0012161F3AD
:108C800042008DF80600E06900B10590434609AA4C
:108C900002A94846AADF11B0BDE8F08308B5024634
:108CA00090F8C6020B4600EB8001C1EB801002EB8E
:108CB000400092F8C52242B1521ED2B202EBC2016C
:108CC00000EB4102518A491C00E0C188ADF8001058
:108CD0000089ADF80200694618469DDF08BD70B5F1
:108CE00004464FF6FF750A462846AC4209D14FF4B8
:108CF00080742146104602F029FC80B2A0420BD0BD
:108D000070BDFF2CFCD82146104602F00FFC90F0FD
:108D1000010F01D0204670BD284670BD70B5084CCB
:108D2000050009D010342168002907D008682060A8
:108D3000496828468847F6E70834F4E770BD000024
:108D4000F0410020054A012120B1012805D1917090
:108D5000FFF7E4BF51700020FAE77047F0410020B0
:108D60002DE9F05F26484168F1B3DFF898B00E684E
:108D70008146DBF8004087688078E11B21F07F4561
:108D8000ED1CB0B9DFF880804FF48030C8F84403A0
:108D9000C8F804031120FDF7E5FC1120FDF7EDFCF8
:108DA0004FF0010AC8F800A02F2004F0C9FB89F891
:108DB00002A0B54200D23546124BE8193C3320F0F0
:108DC0007F401860DBF800105A46091B21F07F41F4
:108DD000001B20F07F40C91C81420FD91068186029
:108DE0002F2004F0ADFB00E004E0BDE8F05F1120AF
:108DF000FDF7CEBCBDE8F05F07F0EEBABDE8F09F2E
:108E000048340020041501400010014073B58CB0B7
:108E10000646002000900D9880B100246D46214642
:108E20000DA802F0B8FB30B1009805EB400084803B
:108E30000098401C0090641C142CF0D32C2269462E
:108E40003046FDF713FB0EB070BD2DE9F0411788D9
:108E50000646B81D14460D46984202D90C20BDE8BE
:108E6000F0813188072206290AD34FF4486C4FF667
:108E7000FF73614501D9994202D17088062801D259
:108E80001046ECE7604501D99842F9D1994203D0E8
:108E9000984201D08142F3D80520E855208812215C
:108EA000401C80B2208029542088401C80B2208041
:108EB0004119308808F018FC2188084480B22080CD
:108EC0004119708808F010FC218808442080002097
:108ED000C5E7FDF799BF000038B54A7A0F4B62B17C
:108EE00000220A725969002906D001228DF800205B
:108EF000ADF802006846884738BD0A7A62B19B68BF
:108F00004C68024619462046FDF7C8FF0028F3D0FA
:108F1000BDE8384007F0CABC5B68F1E7203A0020A2
:108F2000F0B587B016460F4604461D4618220B4979
:108F30006846FDF79BFA0A488DF80870ADF80240C4
:108F4000ADF80A608DF80C50017800222046FEF73B
:108F50006FFD684600F03AFB07B0F0BD60200300EB
:108F6000D0330020FDF788BD70B588B006460020DC
:108F700005900690ADF81410ADF81610019002900F
:108F800001AA05A9304690DF050021D004F07CFA43
:108F90000346114811493246401AC108012000EB2E
:108FA000014004460E4903F066FEBDF8042012B9E4
:108FB000BDF8060028B1BDF80630204609A103F02F
:108FC0005AFEBDF808201AB12046164903F04CFE9F
:108FD00008B0284670BD0000983A0300783A0300B4
:108FE0003428030054686520726571756573746573
:108FF000642054582F5258207061636B6574206C44
:10900000656E67746820697320746F6F206C6F6E73
:10901000672062792025752F2575206F637465742C
:10902000732E00008028030010B504460146054851
:10903000FFF796F821460348BDE810400C30FFF7D3
:1090400003BA00009435002070B504460948012198
:1090500002F0DAFABFF35F8F0025002808D120461E
:1090600001F024FF002803D1BFF35F8F01480560A2
:1090700070BD0000403300207FB50C4610B10120C8
:1090800004B070BD2079002638B141F61D55012885
:109090001BD0022826D00F20F2E702202071029672
:1090A0000396E0680190694601A807F031F850B1D5
:1090B00002988188E18000882081BDF80010029824
:1090C00007F0A4F8DCE70A20DAE70A4B6A46002139
:1090D000A01D06F0D9FF38B1064918398E61CE615E
:1090E0000A28CDD12846CBE702488188019807F0AD
:1090F0008DF8F5E7743400202DE9F843054690F823
:10910000C6020F4600EB8001C1EB801005EB400664
:1091100095F8C542914604EBC40006EB4001327954
:10912000601C0A31904226D16B460022284601F08D
:1091300057FC18B310E0401EA04201D1002004E00B
:1091400004EBC40006EB40001C30804602466B4630
:10915000284601F045FC30B1002038706946484689
:109160009EDFBDE8F88395F8C5024146401C641CAB
:1091700085F8C502E4B23079A042DCD8012038700D
:109180000020EEE72DE9F0470025DFF88C803CE079
:109190006068002100EBC506012032789146FDF79A
:1091A00052F9D4E9062300EA020701EA030C57EA60
:1091B0000C0728D082438B434846C4E9062304F0B9
:1091C0007DFA32788246914601200021FDF73BF975
:1091D000D4E9042300EA020401EA03074A465046A0
:1091E0000021FDF730F944404F403C430BD17078EB
:1091F000012801D0012100E00021726881EA0A0102
:109200000AB1484690476D1CEDB298F800004446FC
:109210008542BDD3BDE8F087283400202DE9F04712
:10922000894690F8C612904601EB8102C2EB81118B
:1092300000EB4107384607F005F806002FD0194C1F
:10924000A06806282BD2184D762205EBC0103946AF
:10925000A0F80280001DFDF709F90027B9F1000F01
:1092600004D0A06805EBC010077004E0A1680220DC
:1092700005EBC1110870A06805EBC011401CCE675A
:10928000A060E16888420AD1002604E005EBC61020
:10929000C16F8847761CE0688642F7D3A760BDE8B7
:1092A000F087000024330020CC3A002070B50E4631
:1092B00090F8C612154601EB8102C2EB8111A0B0F5
:1092C00000EB410006F0BEFF040009D07C220549F6
:1092D0006846FDF7CBF8ADF8025068460196A04706
:1092E00020B070BD7C1E030070B50E4604464FF4DE
:1092F0003371FDF7E2F811480025A4F8CA628560D1
:1093000084F8C9520E4884F8C65284F8C5520068E1
:1093100020602246012130469BDF0121112806D022
:10932000002809D184F8C71284F8C85203E084F8F1
:10933000C71284F8C812002070BD0000243300203A
:10934000B43A002010B50021024802F05DF980F324
:10935000100010BD504B00200E4910B50A784C7813
:109360000023A24212D0521CD2B20A70022A00D1AB
:109370000B70084A0B780C3252F823200260886880
:10938000104420F07F408860012010BD0360002061
:1093900010BD00004834002013460A460021FFF7A4
:1093A000BFBD00002DE9F843104D0F4680461E4614
:1093B00091466946286802F082F8040014D01C2106
:1093C000FDF77BF801202071C4F81490380BC4F825
:1093D0000080C4E902606946286802F091F806F04E
:1093E000BFFD0020BDE8F8830420FBE770210300E7
:1093F00010B503780022072B06D2DFE803F005043E
:109400000610202930000A7010BD01230B7003895B
:109410008B818388CB81C06888600A7410BD02226A
:109420000A7002898A818288CA81C2688A60807DC6
:10943000062802D00020087410BD0120FBE703229B
:109440000A70C2888A810289CA81C068886010BD9A
:1094500004230B70C0888881CA818A6010BD0520F2
:10946000087010BD70B5064D0646002455F824104E
:1094700009B130468847641C042CF7D370BD000046
:109480000C44002030B50446006887B00D46806863
:1094900000281FD018216846FDF70FF80195A06835
:1094A0000590207910B1012810D107E001208DF836
:1094B000000020690290E068039005E002208DF82A
:1094C0000000E068000302906069049020688168F1
:1094D0006846884707B030BD2DE9F04186B0164692
:1094E0000C00804629D0112C27D0082C25D018211B
:1094F0006846FCF7E2FFADF80280404601F0E0F874
:10950000ADF804001B481C490027401AC5080D2C63
:1095100016D0204603F0B8FF0246012000EB0540BC
:109520004346164903F0A7FB07208DF8000002947C
:109530008DF80C70684600F057F806B0BDE8F08171
:10954000022000EB054042460D4903F08DFB03204D
:109550008DF8000026B13078C00701D0012000E06E
:1095600002208DF8080041F201108DF80C70ADF862
:109570000A00DFE7D03A0300783A030044320300E0
:109580003431030010B50446408801F099F8A080FA
:10959000024801682046BDE8104008473C330020DF
:1095A0002DE9F04107460024064E074D05E000BFB7
:1095B00056F8241038468847641CE8788442F7DB64
:1095C000BDE8F081644000206033002010B50446FF
:1095D000408801F075F8A080024801682046BDE887
:1095E000104008471420030001490968084700009B
:1095F000B820030070B586B0044618216846FCF711
:109600005CFFA0890125A0F54040ADF8040020785A
:10961000324E062835D2DFE800F0340303032E4E25
:10962000A08900F08BF930B9E08943F6FE71A0F50E
:109630004040884225D8A07B8DF808002078032878
:1096400011D000208DF80900A0680390606860B117
:1096500009208DF80000606804908DF81450684669
:1096600005F012FA0DE00120ECE708208DF800006B
:109670008DF81050F3E7A08900F060F908B1E08997
:1096800030B17078002801D005F048FB06B070BDFD
:10969000606840B10B208DF80000606802908DF882
:1096A0000C507570DBE70A208DF80000BDF804004F
:1096B00005F0D2FBF5E7606858B114208DF8000082
:1096C000606802908DF80C504FF6FF70ADF8040002
:1096D000C5E713208DF80000F6E700004C330020AA
:1096E00038B504460E480078A8B1A4F57F40FF388D
:1096F0000FD0684606F066FB78B1052101700121A4
:109700000171C480684606F06BFB06F01BFC00206C
:1097100038BD042038BD022038BD082038BD000007
:109720007C3400200C4808B5007888B1684606F003
:1097300049FB78B106210170684606F051FB0748E5
:10974000017809B10121017306F0FCFB002008BD7E
:10975000022008BD082008BD7C340020D044002031
:10976000F0B587B014216846FCF7A7FE2B4C207893
:1097700018B16846FFF776FE4EE0201D01F026FF87
:10978000B8BB4FF0102041690004026940694B1CCE
:1097900001D100FB02F1224800220161A1F54051F4
:1097A000C160204902F050FD002820D11F481C2331
:1097B0008C221D49006801F06FFE04F0F7FE051EC3
:1097C00014D0022812D000270126062D12D005A899
:1097D00006F0F8FA88B106700C2D18D2DFE805F013
:1097E000170F170F17161716171113110B2007B0A5
:1097F000F0BD11E026706760BBE70820F7E707714E
:1098000005E0032100E00221017100E0067105A8D6
:1098100006F0E6FA06F096FB0020E8E77C3400202C
:1098200014350020802103001C440020E8200300A0
:1098300038B5040014D0694606F06AFCA0B1BDF842
:10984000000000EB8001094800EB8100C16849B1CC
:10985000A17A39B1C168491EC1600020A07238BD2B
:10986000052038BD062038BD0A2038BDA844002098
:109870001FB501A9684606F007FC04B010BD07B586
:1098800013460A466946002006F0FEFB0EBD07B5EA
:1098900013460A460021684606F0F6FB0EBD20B1CD
:1098A00019B100680860002070470520704700006B
:1098B000F8B50D46040018D0BDB1694606F028FC85
:1098C000A8B1BDF800000B4900EB800001EB80005F
:1098D00001210C30666801F07CFE2E6060680C305F
:1098E00068600120A0720020F8BD0520F8BD0A20A4
:1098F000F8BD0000A844002018B10323002208F09E
:1099000079B9052070470223002208F073B90000DE
:10991000084910B50A69042A0AD0074A096942F8B9
:10992000210004480121103001F053FE002010BD39
:109930000C2010BD5C3400200C44002043F6FE7166
:10994000A0F54040884201D80120704700207047B0
:1099500070B51C4802F014F8041E01D0FDF754FA4B
:109960001948FCF7B5FD40B1174A0021154802F02F
:1099700057F8041E01D0FDF747FA144E4FF6FF7555
:109980003088A84209D07088A84206D106F10802A2
:1099900003210C4802F044F804467088A84209D01C
:1099A0003088A84206D1094A0321121D054802F059
:1099B00037F80446200003D0BDE87040FDF724BA14
:1099C00070BD00004C380020441E0300502D0020C4
:1099D00010B504460078182802D1FEF705F820706B
:1099E00010BD10B504460078182802D1FDF7FCFF21
:1099F000207010BD70B50D460446B0F83812D0F88E
:109A000034020122FDF7F7FC00B1057004F13C02BD
:109A100004F50D7104F1540072DF70BD70B513468A
:109A200000220546112900D10122074C33B12179CA
:109A3000FDF7FEFF00226178284600E06178BDE86E
:109A40007040FDF7F5BF0000D8330020F7B517468A
:109A50000E0011D00098002560B100242146684610
:109A600001F099FD18B1A0B23946B0476D1C641CD5
:109A7000142CF3D32846FEBD0020FEBD406806F03E
:109A8000C1B900000EB514A19DF8080020F00F0028
:109A9000401C20F0F00010308DF80800092202A8C8
:109AA0007CDF08B1FDF7B0F90020009001900D486F
:109AB000018EADF80010418EADF80210818EADF828
:109AC0000410C08EADF8060068467ADF002801D089
:109AD000FDF79AF90EBD00006E52462052656C618A
:109AE000790000004C38002070B508B1012070BD2D
:109AF0001B4C0025207B08B1257301E000F0A4F881
:109B0000207808282AD2DFE800F02904080C102960
:109B10001422BDE8704000F025B8BDE8704000F0A8
:109B200081B8BDE8704000F063B8BDE8704000F057
:109B30003FB8062020706088094900EB8000283972
:109B400001EB80004068BDE8704004F00FBD0720C5
:109B500020706560BDE8704004F016BD0F2070BD38
:109B6000D04400201149F0B48A1C00200346A1F122
:109B700028050C18A67A4EB1A37200EB800405EB01
:109B80008404E66816B9247C012C0AD0401C80B2FB
:109B90000228EED30B704B804B60F0BC41F61D5099
:109BA00070471080F0BC00F03DB80000D0440020A9
:109BB0000C48418801EB8102A0F1280101EB8201F0
:109BC000CA6852B1052101700748022181800168ED
:109BD00000230122054802F09BBA04220270496862
:109BE000F6E70000D0440020843400201435002023
:109BF00038B50A49084803240B684268898803EB92
:109C0000810153880470DB1C00201B0400909B0B17
:109C1000034802F0F9FB38BDD04400208434002012
:109C200014350020074910B54888091D06F0C0FA10
:109C300018B1BDE81040FFF7DBBFBDE81040FFF7EB
:109C4000B7BF0000D0440020F0B51F481F490125D0
:109C5000067802248B88A0F12802082E19D2DFE8AA
:109C600006F00418181B222F2F170189491C0181A7
:109C70000021418080F80C1001EB810312F82330A1
:109C800043B100234418491C89B2A3720229F3D3BB
:109C90000570F0BD0123F5E742685288D21C1A44D2
:109CA0008A800470F0BD46880D6806EB860602EBDC
:109CB000860256680E60556013818C80062100E094
:109CC00007210170F0BD0000D04400208434002042
:109CD0002DE9F041044680882188394E86B0074638
:109CE000352937D0502923D0522902D054295DD1AB
:109CF00002E001F07FF859E0182232496846FCF78B
:109D0000B5FBADF80270384600F0DAFCADF804009F
:109D100000F09CF9002231793846FDF789FE0022D7
:109D2000F1783846FDF784FE6846FFF72BFC3DE0EE
:109D3000207B01283AD1A07A012837D12089A0F5CB
:109D40002451023932D10121384601F0A7F807F039
:109D50003BFD2BE04FF0000842467179FDF768FEAD
:109D6000E288B2F5857F1DD017481849401AC0080F
:109D7000022101EB004512B1284615A10BE06289D2
:109D8000012A03D0284621A102F06EFFA289012AF0
:109D900004D028462CA102F067FF03E0A07B00B1AD
:109DA000012080464146384607F0BEF90022354979
:109DB000B078FDF7CFFD06B0BDE8F04106F0C6BDB6
:109DC00034330020541F0300803A0300783A030024
:109DD000556E6578706563746564204741545420FE
:109DE000737461747573207768696C652067657436
:109DF00074696E6720434152206368617220766106
:109E00006C75653A20307825780000004D756C74CB
:109E100069706C65202825642920434152206368BD
:109E20006172616374657269737469637320666FCC
:109E3000756E642C207573696E6720746865206682
:109E4000697273742E000000556E657870656374D6
:109E50006564204341522063686172616374657276
:109E600069737469632076616C7565206C656E67D3
:109E7000746820282564292C2073746F7265203043
:109E80002E000000AD70020070B504460078002876
:109E900014D1608800F0AEFF6588284600F098F97C
:109EA00028B107480122C1782846FDF7C1FD608826
:109EB000FEF7CAFDBDE8704007F086BC70BD00002B
:109EC0003433002070B51A4C00252570FDF78CFD49
:109ED0006070FDF789FDA070FDF786FDE070FDF76D
:109EE00083FD2071FDF780FD607162780121182AE1
:109EF00012D0A278182A0FD0E278182A0CD0227932
:109F0000182A09D0182807D004F10C000560BFF307
:109F10005F8F2170002070BD0648074A801AC00874
:109F200001EB0040054902F09BFE032070BD0000DC
:109F300034330020803A0300783A03004C250300B4
:109F40007CB504460078082837D1607A58BB207A5F
:109F50001C4E4FF6FF75012811D0072802D00828A3
:109F60002BD121E0A08800F0F5FA0446A84224D0C5
:109F7000012100F093FF2046FEF766FD1DE0A0885A
:109F80006A46012104F0A2FC68B90198007850B13A
:109F9000A08800F0DFFAA8420FD00122F178FDF787
:109FA00047FD06F0D3FC08E0F068012805D1BFF3B7
:109FB0005F8F044900200C310860BDE87C4007F049
:109FC00003BC0000343300202DE9F04180460246F6
:109FD00001200021FCF737FA1A4F05460E46786833
:109FE000FCF7A0FF00280CD1174CD4E9062110463D
:109FF0002A4001EA06031A4305D0A843B143C4E945
:10A000000601BDE8F081404603F058FB30B1D4E9C9
:10A01000040128433143C4E9040105E0D4E90410F4
:10A02000A943B043C4E90410D4E9060128433143ED
:10A03000C4E90601A1687868BDE8F0410022FCF798
:10A040002DBF0000CC200300283400201CB5054A99
:10A05000D2E90212CDE900120022694604F0FCFDAB
:10A060001CBD0000701F030003484FF6FF71818084
:10A070000121017000207047443300202DE9FC418C
:10A08000804600F01DFB002403250127A0F57F4139
:10A090002646FF3908D06A46082104F017FC18B993
:10A0A0000198841D8688056832462B462146404625
:10A0B000B1DF042804D0082804D00B2808D002E01F
:10A0C000112000E00020002F00D10B20BDE8FC8112
:10A0D0000027A80701D50125E6E7344303D0002473
:10A0E00026460325E0E7064806494246401AC008CE
:10A0F000012101EB0040044902F0B6FDE5E7000054
:10A10000883A0300783A0300BC2703002DE9FC419C
:10A11000804600F0D5FAA0F57F410646FF390ED003
:10A1200001252A466D1C0027ADB26B46082130463A
:10A1300004F016FC040006D0072C33D033E043F2C1
:10A140000200BDE8FC81019903230A1D0B60404613
:10A15000891DB2DF040004D00C2C09D0052C09D0D5
:10A1600009E032460821104604F072FC04461AE069
:10A17000012700E000240821304604F05FFC70B1A4
:10A1800003F082F90346094809493246401AC008DB
:10A19000012101EB0040074902F06DFD0324002F6F
:10A1A000BFD100E00C242046CBE70000883A030032
:10A1B000783A03003C27030004488088A0F57F41DB
:10A1C000FF3901D006F0CCBB7047000044330020BB
:10A1D0000EB502A9019100F073FA6A46012104F05C
:10A1E00075FB08B100200EBD019800780EBD00007F
:10A1F0002DE9F04107464FF6FF761048B3DF78B1FE
:10A2000003F042F902460E480E49401AC0080121E7
:10A2100001EB00400C4902F027FD0320BDE8F0816E
:10A22000064C43F20305A41E324661883846AFDF70
:10A23000A842F3D16088401C6080F5E746330020D7
:10A24000883A0300783A0300F0260300428800EBC6
:10A2500082020C328A4201D9022070478188A1F51E
:10A260007F42FF3A03D0008808B1002070470120E8
:10A270007047884204D20068401C01D0012070471A
:10A28000002070472DE9F0410446407990460025B2
:10A2900000B1042594F8220008B145F00205CAB2C5
:10A2A000FF2908D9090A88F8012045F0010588F836
:10A2B0000210032602E088F801200226B4F84C00C0
:10A2C00008B145F0100500271BE000BF94F84E10C0
:10A2D000B21C91420BD2B4F84C0004EB4701C01BF6
:10A2E000420004F124002431FCF7C0F80DE004EB37
:10A2F000470008EB0601808C0870000A4870D6B24F
:10A300007F1CB4F84C00B842E0DC34F84C0FC01BA2
:10A31000208088F800503046BDE8F08170B50646D0
:10A320002448254A0C46801A0978C008032202EB0B
:10A330000040012919D002293AD1A2881FA102F0B8
:10A3400093FCA1882148FDF74BFE002830D0082857
:10A350002ED013282CD011282AD043F20141884254
:10A3600026D0BDE87040FCF74FBD194D2988A1F5F6
:10A370007F42FF3A1CD162882A8016A102F074FC49
:10A38000FFF7E6FA221D29883046FDF7AFFD08B138
:10A39000FCF73AFD0021288804F0ACFE112802D019
:10A3A00008B1FCF731FD3046FDF7AAFD0028D8D1F1
:10A3B00070BD0000283B0300783A030048656172D5
:10A3C000742052617465203D2025640028350020EA
:10A3D000502D002048525320646973636F76657274
:10A3E0006564206F6E20636F6E6E5F68616E646C73
:10A3F00065203078257800003EB5027802230C46AF
:10A40000B3EB520F17D1B0F80110ADF80010C178BE
:10A410008DF802108188ADF8041080798DF806005F
:10A4200002AA01A92046FCF72CFC032202A96846D7
:10A43000FCF763F808B100203EBD01203EBD0000DE
:10A4400070B50D460446142810D2FDF711FB68B113
:10A45000084904EB840001EB4000D0F802102960A9
:10A46000C188A980007AA871002070BD43F2020063
:10A4700070BD0000CC3D002070B5018892B010295D
:10A4800061D1011D2C226846FBF7F0FF9DF8040006
:10A490004FF6FF7603213446B1EB500F2BD004F07A
:10A4A00099FB9DF804006D4640080ED001280CD0A1
:10A4B000022820D118E00D99281D1131FCF788FBE6
:10A4C00018B100BFBDF82C4015E00CAA0BA907205D
:10A4D00004F054FB0028EED10DE00D99281D491C15
:10A4E000FFF78AFF0028EDD10CAA0BA9072004F082
:10A4F00045FB0028F1D1BDF80000B44200EB80011B
:10A50000124820F8114000EB41000199C0F80210F8
:10A51000BDF80810C1809DF80A10017213D0BDF873
:10A520000000ADF82E000020ADF83040084E8DF848
:10A530002C000BAD044600BF56F82410284688476F
:10A54000641C022CF8D312B070BD0000CC3D00207A
:10A55000841F03002DE9F0414FF6FF760546B04217
:10A5600013D00B4F002400BF04EB840037F8100019
:10A57000A84206D12046FDF77BFA10B12046BDE87F
:10A58000F081641CA4B2142CEED33046F7E700002F
:10A59000CC3D00203EB50C46054604F01BFB0BE00D
:10A5A000BDF80000A04207D02846029900F00EF83E
:10A5B00010B1BDF800003EBD01AA6946072004F0B5
:10A5C000DDFA0028ECD14FF6FF703EBD2DE9F041D9
:10A5D0000C46054600F1110701F111061022491C35
:10A5E000401CFBF78AFF48B9681C00F01FFA28B12D
:10A5F000601C00F01BFA08B1012400E00024314681
:10A600003846FCF7E5FA3B780222B2EB530F0CD048
:10A610000321B1EB530F08D03378B2EB530F04D0C2
:10A62000B1EB530F01D0012100E00021084201D11C
:10A630008C4302D00120BDE8F0810020FBE70188B7
:10A6400011B9421892780AB101207047491C0829B3
:10A65000F7D30020704710B50C460346FFF7EFFF15
:10A6600000280AD018882188884205D10822A11C18
:10A67000981CFBF742FF08B1002010BD012010BD5F
:10A68000142804D2024A00EB800022F81010704710
:10A69000CC3D002070B50546FFF75CFF0446284618
:10A6A00004F018F9002808D1142C06D2034B04EB4F
:10A6B00084024FF6FF7123F8121070BDCC3D0020CC
:10A6C00010B50446142808D2FDF7D2F928B1044980
:10A6D00004EB840031F8100010BD4FF6FF7010BD80
:10A6E000CC3D00203EB5044604F074FA0EE001991A
:10A6F00020464631FFF7AFFF28B9019920462A319D
:10A70000FFF7A9FF10B1BDF808003EBD6A4602A9D7
:10A71000072004F033FA0028E9D14FF6FF703EBD60
:10A7200010B50A4941600A4800F050FF58B902F0DC
:10A7300035FE07491C238C22087404488C39001FFD
:10A74000006800F0A9FE002010BD00007421030085
:10A750007C4500202DE9F0412D4F002518B17D608A
:10A760000120BDE8F0810879012258B1294E012865
:10A770000CD0274C4FF002080834022821D00328BF
:10A7800042D128E00A7103F0FFFE3BE05FF00000D9
:10A7900000EB800116F82110022908D0401C80B27D
:10A7A0000228F5D33A707D6041F61D50D9E700EBE1
:10A7B000800006F8205006EB8000406803F0D6FECB
:10A7C00020E00D71A4F804800023012212482168C2
:10A7D00001F09EFC16E00D71206803F0C7FE0D49E4
:10A7E00023682831498801EB810206EB8201D1F808
:10A7F00004C0C4F800C04B60A3880B81A4F8048097
:10A8000006F822500028ACD07D600E20A9E7000099
:10A810007C340020A8440020143500200146034861
:10A8200002888A4200D00020704700000C3A0020C5
:10A830002DE9FC5F0E008346DDE90C47C6F1000000
:10A8400098469246814600D40846012503E000BFA1
:10A8500090FBFAF06D1C5045FADAA84500D9454640
:10A8600024B1002E01DB780700D5641EB80702D59D
:10A87000B8F1000F0AD0F80708D13CB1A54205D2C3
:10A8800020215846641EFEF7C1F8F6E7002E02DAD2
:10A890004E462D2102E0780703D52B215846FEF7BE
:10A8A000B5F807F0030002280BD1B8F1000F08D16A
:10A8B0003CB1A54205D230215846641EFEF7A6F8E9
:10A8C000F6E7CDE90047434652463146584606F082
:10A8D00021FFBDE8FC9F000070B50D4604460068EE
:10A8E0004FF4887102F0F0FD4FF49071206802F08F
:10A8F000EBFD4FF49271206802F0E6FD4FF4A27177
:10A90000206802F0E1FD20681249C0F804132068B5
:10A91000690740F30730090E002806DA00F00F003F
:10A9200000F1E02080F8141D03E000F1E02080F841
:10A9300000142068012140F3073000F01F0291400D
:10A940004009800000F1E020C0F88012C0F800113A
:10A9500070BD000010030200024600201268530779
:10A9600013D502F00300012802D002280CD105E023
:10A97000C2F383100B68801C184404E002230868AB
:10A9800003EB925210440860012070470248007A9D
:10A99000002800D0012070477C450020F0B5848855
:10A9A000A518944200D82246A41AC288D6189A4202
:10A9B00000D81346D21A4B880788BB420CD3408874
:10A9C000834209D88888A04206D3A84204D8C88800
:10A9D000904201D3B04201D90020F0BD0120F0BD6A
:10A9E00010B509892AB1D088491C814218D10020AC
:10A9F00010BD90F8C62202EB8204C4EB821200EB79
:10AA0000420212899142F2D0491C198090F8C61274
:10AA100001EB8102C2EB811100EB4100008902E0F1
:10AA20001980D088401E5880012010BD0021425C52
:10AA30000AB101207047491C1029F8D30020704743
:10AA400090F83A00C0F3C100012803D0032801D0D8
:10AA50000020704701207047800701D00020704718
:10AA6000012070470A4810B5807860B1002401E0E9
:10AA7000022C06D02046FDF77FFD641C042CF7D382
:10AA800010BD0324F6E7BDE81040FDF799BD0000B6
:10AA90000433002003480179C90702D00078FDF78C
:10AAA00089BE7047043300201721018041800021B6
:10AAB000017141711B218171C17170472DE9FE4FF8
:10AAC0002E4F984692460D00814601D000260DE09B
:10AAD000684600F0B7FC6A460021484603F04EFE87
:10AAE0003878009E10B99DF8090098B15246314659
:10AAF000484606F0E9F90446014600224846FEF7BA
:10AB00008DFF0D2C37D008DCA4B3082C33D00B2CD0
:10AB100009D130E00520BDE8FE8F112C1ED0A4F530
:10AB20004050023827D0204602F0AEFC02461448BE
:10AB300014494B46401AC008012101EB004012495C
:10AB400002F099F85FF00305B8F1000F04D0324627
:10AB500021464846FEF7C0FC2846DCE72A46F9783D
:10AB60004846FCF765FF5246B9784846FCF760FF57
:10AB70000025E9E7FFE72546E6E70000D833002097
:10AB8000D03A0300783A0300EC3103007EDF04285A
:10AB900000D111207047000070B50D001446064624
:10ABA00017D01648C1783046FCF742FF3046FFF711
:10ABB00087FD0146A0F57F40FF3800D074B12946DB
:10ABC0003046FFF7E3FF04462878C0070BD0012288
:10ABD0000AE0BDE870400021FFF7D8BF304600F022
:10ABE0000FF8044605E002222CB10021304605F0A2
:10ABF0001BFE204670BD0121F8E70000D033002085
:10AC00007CB50E4605466A460721304603F05EFED7
:10AC1000040013D0052C1DD0112C2BD002F034FCD5
:10AC20000246194819493346401AC008012101EB70
:10AC30000040174902F01FF803241BE0019C94F820
:10AC40004400183410F0010001D0019C34340CB1E0
:10AC500010B106E011240DE004F11200FFF7EFFC43
:10AC600038B1224604F11201284685DF040008D0DD
:10AC700000E00B2400210022284605F0D5FD2046E7
:10AC80007CBD0121F7E70000C83A0300783A0300D1
:10AC90007C30030070B50E460C4915460446097811
:10ACA000FCF7AEFE00280FD0204603F00DFD002873
:10ACB0002A463146204603D0BDE8704003F00ABD65
:10ACC000BDE87040FEF768BB70BD0000D0330020C7
:10ACD00070B5094D0646A978FCF792FE0446E9785E
:10ACE0003046FCF78DFE014622463046BDE87040F6
:10ACF0000123FFF7E3BE0000D83300202DE9F04721
:10AD0000394E002780463D46DFF8E090D6F804A093
:10AD100057E003D00446D0F81C8035E099F80020B5
:10AD200002EB4201521CD2B289F8002009EBC101AA
:10AD300099F80230091D9A4201D189F800504868FB
:10AD40000A780446012A12D0022A02D0032A3BD1F3
:10AD500008E006F073FA00B10127257434E00574A9
:10AD6000C06900E070680028F9D170602CE0207C98
:10AD700050BB88686060C868A0600869E060486986
:10AD8000A061F07800B165606268B168184B501A34
:10AD900020F07F40984202D2A168084406E0881A59
:10ADA000A16820F07F40814202D9081A206000E0AB
:10ADB000256065600120A56020742046E56106F0ED
:10ADC0001FFAB8F10000A4D199F8001099F8010019
:10ADD0008142A3D117B97168514502D00120BDE865
:10ADE000F0870020FBE7000048340020D842002014
:10ADF000FFFF7F00F0B587B00546002718216846A1
:10AE0000FBF75BFBA5F57F40ADF80250FF3825D07E
:10AE10002846FFF733F9040022D01B481B49401A8B
:10AE2000C6080B2C22D0112C1ED0A4F5405002389D
:10AE30000ED0204602F028FB0246012000EB06401F
:10AE40002B46134901F017FF2146284605F036FD31
:10AE500010483A4681782846FCF7EAFD07B0F0BD75
:10AE60000E208DF800000BE00127F1E70F208DF890
:10AE70000000022000EB06402A46074901F0F4FEDC
:10AE80006846FEF77FFBE3E7803A0300783A030069
:10AE90001C26030034330020702603000A460249B2
:10AEA0004978FCF7C5BD0000343300202DE9F0419E
:10AEB000002786B080463E46FFF728F9040022D0DE
:10AEC000112C22D01B481C49401AC508862C1ED0C4
:10AED000A4F5405002380ED0204602F0D5FA0246C2
:10AEE000012000EB0540434614A101F0C4FE2146B9
:10AEF000404605F0E3FC39464046FFF7CFFF06B079
:10AF00003046BDE8F0810126F5E70127F3E7182276
:10AF10001A496846FBF7AAFA0220ADF8028000EB56
:10AF20000540424616A101F09FFE6846FEF72AFB47
:10AF3000E1E70000803A0300783A03006773636D2D
:10AF40005F6C6F63616C5F64625F63616368655FC0
:10AF500075706461746528292072657475726E65F8
:10AF60006420257320666F7220636F6E6E5F686168
:10AF70006E646C653A20256400000000241F030005
:10AF8000466C6173682066756C6C2E20436F756C1F
:10AF900064206E6F742073746F72652064617461D5
:10AFA00020666F7220636F6E6E5F68616E646C65A1
:10AFB0003A202564000000002DE9FF4100262348C7
:10AFC00000F001FB2148001F074600F0FCFA204C6E
:10AFD00060680090A56800E000986946284004EB8E
:10AFE00080000C30FFF7B8FC0028F5D101AA0099C9
:10AFF00001EA050304EB8303491CDB6842F82030B7
:10B00000401C00910228F2D3019800F003000128AF
:10B010000BD0022810D10198032101EB9050009928
:10B02000BDF80A6001EB900005E00198BDF80A60E8
:10B03000C0F3831008440090384600F0C1FA08B10C
:10B040000098606004B03046BDE8F0814C4B0020B1
:10B0500034470020ACB04FF40041002001F07CFEEA
:10B0600008B1FBF7D1FE01F0D3FCFBF7EDFE08B110
:10B07000FBF7CAFE00210320FDF752FB08B1FBF7E6
:10B08000C3FE69460020FDF7BFFA08B1FBF7BCFE1E
:10B090009DF8000002287DD05FF0000501F072FFEE
:10B0A00008B1FBF7B1FE02F02DF908B1FBF7ACFED9
:10B0B000002769460120009701F0B4FF08B1FBF7B3
:10B0C000A3FE684602F02EF808B1FBF79DFE05F0DE
:10B0D000F7F9FEF7D7FC0021454800F00AFB08B15C
:10B0E000FBF792FE1C216846FBF7E7F94FF420308E
:10B0F000CDE900704FF47020032602908DF80C60AB
:10B100004FF6FF70ADF80E0001243A488DF810405C
:10B11000CDE905706846FCF7CBFB08B1FBF774FE80
:10B120003548FCF7CFFC08B1FBF76EFE03F0DAFE02
:10B13000324800902E4869461838FCF707FF08B1DE
:10B14000FBF762FE2E480090294869460C38FDF74F
:10B150004FF808B1FBF758FE05F0E2FCAC21684659
:10B16000FBF7ABF902208DF800008DF802400621B4
:10B170008DF80310ADF81000224805904FF496703A
:10B18000229044F2506023908DF87C401E4869461E
:10B19000299000E020E016484830FCF7B7F908B1E4
:10B1A000FBF732FE124801214830FCF7ABF9174893
:10B1B0001749401AC00806EB0040044615A101F0EB
:10B1C0004FFD5DB1204619A101F04AFD04F014FDC8
:10B1D00030B1FBF719FE03E001255FE7FBF71EFD29
:10B1E00001F024FC0028FBD101F0E0FEF8E70000AC
:10B1F000AC350020D38E0200299002001DA302006E
:10B20000F1020300542D0020E5DB0200283B03007F
:10B21000783A030052656C6179206578616D706CD5
:10B220006520737461727465642E000045726173E9
:10B230006520626F6E6473210000000070B51446D3
:10B2400082880E4605462088111D0144921C9942B1
:10B2500001D8FE2A01D90C2070BD521C325420881E
:10B26000FF21401C80B2208031542088401C80B2D5
:10B2700020808119288806F037FA2188084480B296
:10B280002080AA8842B1A96841B13044FBF7EEF8AA
:10B290002088A98808442080002070BD072070BD48
:10B2A0002DE9F047C5881E1DB6FBF5F78946B6FBAC
:10B2B000F5F1044605FB176C407916686843DDF824
:10B2C00020A0F718001F874200D9C61A166001E0B7
:10B2D0002468491E0029FBD1A5EB0C078846B7421C
:10B2E00016D818E004EB0C00001D09EB0803BAF1B6
:10B2F000000F3A4602D00146184600E01946FBF717
:10B30000B5F82468F61B4FF0000CB844B54201D9DB
:10B31000374600E02F46002EE4D1BDE8F08700005C
:10B3200030B5024651B101F035FD0021074C08E06F
:10B3300034F821301568AB4202D11160002030BDD5
:10B34000491C8142F4D3052030BD000000000000FC
:10B3500010B50F4B00224FF6FF7400BF02EB420105
:10B3600003EB81014988A1420DD102EB420103EBBD
:10B3700081020146104600F08BFA002806D0BDE895
:10B380001040FBF741BD521C032AE7D310BD00005B
:10B39000D0350020BFF35F8F00F0FDB8F8B50F4641
:10B3A000017814460546012901D1687830B120881A
:10B3B000821C9A4232D8012902D006E00720F8BD4B
:10B3C00069780144891C994228D8181A801E86B2CF
:10B3D000ADF800602188B81C084469467DDF00286C
:10B3E000EDD12978022904D06878BDF80020904278
:10B3F00005D3BDF80000B04201D809200AE00820BA
:10B40000012905D16978B14202D8ADF8001001E0F8
:10B41000ADF80060BDF80010FE2901D90C20F8BD80
:10B420002288491CB9542188491C89B2218078544A
:10B430002088401C2080BDF8001008442080002097
:10B44000F8BD0000034A00219268C0E90021816034
:10B4500070470000D833002070B54FF6FF750E46D8
:10B46000A84201D1002000E0401C84B208E021463F
:10B47000304600F090F808B1204670BD641CA4B2BC
:10B48000FF2CF4D9284670BD10B5FAF70EFF08B1AD
:10B49000002010BD112010BD10B531B1B2FBF3F486
:10B4A00003FB14241CB1092010BD0E2010BD016047
:10B4B0000021416081608281C381084610BD70B562
:10B4C0000C460546FAF7A6FE002802D02188286817
:10B4D000084470BD10B50A8849888A4203D1FAF73A
:10B4E000DBFE012010BD002010BD70B50C460546E6
:10B4F000FAF7B5FE002802D061882868084470BDBC
:10B5000010B50A8849888A4203D1FAF79FFE0120C4
:10B5100010BD002010BD01F01F0301229A40D2434C
:10B52000490900EB8100114600F059B80A4601F0C4
:10B530001F030121994010B552090C4600EB82000F
:10B5400000F05DF8204000D0012010BD2DE9F04151
:10B5500080460D460024481E012101EB501716E0DD
:10B5600058F82400C04390FAA0F0B0FA80F02028E8
:10B570000CD200EB4416AE4208D231464046FFF7EB
:10B58000D5FF0028ECD13046BDE8F081641CA7420D
:10B59000E6D82846F8E74A0950F8220001F01F02D1
:10B5A00001219140084000D00120704701F01F03A5
:10B5B00001229A40490900EB8100114600F029B8A8
:10B5C000002100F017B8012100F023B8012100F09C
:10B5D00016B808B56A46FAF7B4FE009808BD08B573
:10B5E0006A46FAF794FE009808BD08B56A46FAF76D
:10B5F000A8FE08BD08B56A46FAF789FE08BD08B579
:10B600006A46FAF777FE08BD08B56A46FAF766FE9D
:10B6100008BD08B56A46FAF76DFE009808BD08B582
:10B620006A46FAF79BFE009808BD38B50446002527
:10B630008DF800506846FBF785FC21686268086851
:10B6400090420ED9401E08600178238AE26801FB0F
:10B650000325227A2168101AC0B20A79824200D2E8
:10B6600008719DF80000FBF791FC284638BD38B5FD
:10B67000054600208DF800000C466846FBF762FC8A
:10B68000E868298A201AB0FBF1F12A681068431C87
:10B69000136001709DF80000FBF778FC38BD10B511
:10B6A00030B1017A42680368891AC9B21A6006E0AB
:10B6B0000E2010BD03681A68541C1C601170491ECE
:10B6C000C9B2F7D2006800210171084610BDC20856
:10B6D00000F007030120895C98400840704710B5CE
:10B6E000C20800F00703885C01249C402043885472
:10B6F00010BD70B5040010D017202162208060803A
:10B700001B202071002504EBC500801DFFF7CCF93C
:10B710006D1C032DF7D3002070BD0E2070BD0000FE
:10B720002DE9F04185888EB00C46032D7ED201882C
:10B73000474E4FF00008242940D006DC102909D0DC
:10B7400011290CD023295FD154E03A290DD0552975
:10B750005AD12EE00146204602F0A6FC54E004EB4C
:10B76000C500801DFFF7A0F94EE0294604EBC10794
:10B77000408937F8062F824200D810467880172873
:10B7800000D217207880206A70B1787960B1D6E94C
:10B790000002CDE90002ADF802107888ADF804008F
:10B7A000226A20466946904787F8058087F804801A
:10B7B0002AE00146204602F043FD25E0011D2C222F
:10B7C0006846FAF753FEBDF80000BDF8042004EB0C
:10B7D000C0014A73226ABAB1D6E90423CDE90B232A
:10B7E000ADF82E00487B8DF83000226A20460BA968
:10B7F000904709E004EBC503017A187B884200D228
:10B8000001462846FDF7B0FB04EBC504A07A0028EA
:10B810001AD0E1882846A5DF012590B1112813D060
:10B8200001F032FE02460B480B4900E00CE0401AE2
:10B83000C0080EB005EB0040BDE8F04107A101F0E3
:10B8400013BA84F80A80E5720EB0BDE8F0810000FA
:10B850008C1F0300983A0300783A030073645F6218
:10B860006C655F67617474635F65786368616E6758
:10B87000655F6D74755F72657175657374282920D5
:10B8800072657475726E65642025732E0000000069
:10B8900020B10278DE2A03D0082070470E207047BE
:10B8A00041800020704760B159B10278DE2A0AD089
:10B8B00009684160DE2101704FF6FF714180002070
:10B8C00070470E207047082070477FB50546002955
:10B8D0004DD0002D4BD008780C46DE2847D1A888E3
:10B8E0006188884202D1204605F0CCFF28880128D3
:10B8F00025D002283BD011283AD0512837D135F82D
:10B90000040F6188884232D1A978A81C02292ED15F
:10B91000017A042903D0062901D0052927D1002165
:10B92000009102228DF8002001914FF4C072029123
:10B930000391ADF80420007A05280FD010E0297A91
:10B940002046012913D1A988428891420FD10121B3
:10B95000017204B0BDE8704005F094BFADF804106A
:10B9600028886946B0DF002801D0616888477FBD1C
:10B97000A88861888842FAD14FF6FF7060807FBD49
:10B9800010B504462021FAF798FD002084F8200025
:10B9900044F8220F6060207210BD2DE9F04104468A
:10B9A00000F13A0700F1300590F8386090F82E0069
:10B9B00086B001F10208002814D08BDF14216846FC
:10B9C000FAF77BFD33462A46394640468CDF06218E
:10B9D0008DF800100190002804D0A16C002901D03E
:10B9E0006846884706B0BDE8F0814FF4C871C1864B
:10B9F000062101861821418600218186704710F8B2
:10BA00003A1FA02242805022828021F01801002299
:10BA1000C28041F0040101700121417070470000B3
:10BA20002DE9F04140B13AB10025042631B1032996
:10BA30002ED00720BDE8F0810E20FBE7074600F17D
:10BA4000200490461046FAF743FD10F0FF0001D0A5
:10BA5000202801D90C20EDE72078F8B95FF0000626
:10BA600007EB46104146FAF73AFDF8B1761C16F09E
:10BA7000FF06F5D04046FAF72BFD024620784146F6
:10BA800007EB4013401C20701846FAF7EFFC0DE05E
:10BA900000F1220410F82A3F022B01D33046C9E7F7
:10BAA0001688002134F82170B74201D12846C1E739
:10BAB000491CC9B20229F5D304EB83015B1C037056
:10BAC00010680860F2E730B121220021115480F89B
:10BAD0002B10084670470E20704730B515460B46B0
