:020000040002F8
:10600000F0120120C1630200C9630200CB630200E9
:10601000CD630200CF630200D163020000000000E4
:10602000000000000000000000000000D363020038
:10603000D563020000000000D7630200D9630200AC
:1060400091670200DB630200F1690200DB6302007A
:10605000DB630200DB63020079650200DB630200A0
:10606000DB630200DB630200DB630200DB63020030
:10607000DB630200DB630200DB630200DB63020020
:10608000DB630200E9670200DB630200DB630200FE
:106090000D680200DB63020011680200DB6302008E
:1060A000DB630200DB630200DB630200DB630200F0
:1060B000DB630200DB630200000000000000000060
:1060C000DB630200DB630200DB630200DB630200D0
:1060D000DB630200DB630200DB630200DB630200C0
:1060E000DB630200DB630200DB63020000000000F0
:1060F00000000000DB63020000000000DB63020020
:10610000000000000000000000000000000000008F
:10611000000000000000000000000000000000007F
:10612000000000000000000000000000000000006F
:10613000000000000000000000000000000000005F
:10614000000000000000000000000000000000004F
:10615000000000000000000000000000000000003F
:10616000000000000000000000000000000000002F
:10617000000000000000000000000000000000001F
:10618000000000000000000000000000000000000F
:1061900000000000000000000000000000000000FF
:1061A00000000000000000000000000000000000EF
:1061B00000000000000000000000000000000000DF
:1061C00000000000000000000000000000000000CF
:1061D00000000000000000000000000000000000BF
:1061E00000000000000000000000000000000000AF
:1061F000000000000000000000000000000000009F
:10620000DFF80CD000F07AF9004800470DAB02002F
:10621000F012012030B450E8012F93B2C489234416
:106220008489A34228BF1B1B0489A34202BFBFF37A
:106230002F8F002007E0C3EA020340E80134002C5E
:10624000E9D14FF001000A6030BC704750E8012FDF
:10625000C2EA024240E801210029F7D1704730B478
:1062600050E8022F1FFAA2F3C488A34202BFBFF373
:106270002F8F00200DE0C48923448489A34228BFC6
:106280001B1BC2EA034340E80234002CE8D14FF064
:1062900001000A6030BC704750E8022FC2EA224277
:1062A00040E802210029F7D17047034653E8022F46
:1062B000D988B2EB324F4FF0000017BF92B241EADB
:1062C000014142EA014104E05A68B2EB324F08BF93
:1062D000012043E80212002AE8D1704730B4044696
:1062E00054E8000F0D4644E80053002BF8D1156028
:1062F00030BC704730B4044654E8000F40EA010552
:1063000044E80053002BF7D1156030BC704730B41F
:10631000044654E8000F00EA010544E80053002B4E
:10632000F7D1156030BC704730B4044654E8000F14
:1063300080EA010544E80053002BF7D1156030BC1A
:10634000704730B4044654E8000F00EB010544E800
:106350000053002BF7D1156030BC704730B40446B1
:1063600054E8000FA0EB010544E80053002BF7D1DF
:10637000156030BC704770B404464FF0000054E81C
:10638000006F0D68AE4207BF44E80023012044E8D7
:1063900000630E60002B1CBF0020F0E770BC70474C
:1063A00030B4044654E8000F88422CBF451A054615
:1063B00044E80053002BF5D1156030BC7047000055
:1063C0000648804706480047FEE7FEE7FEE7FEE78F
:1063D000FEE7FEE7FEE7FEE7FEE7FEE715680200E0
:1063E000016202002DE9F05F0546002092469B46BF
:1063F00088460646814640241BE0284641464746DB
:10640000224600F06BF853465A46C01A914110D309
:1064100011461846224600F016F82D1A67EB0108BF
:106420004F4622460120002100F00DF817EB00092D
:106430004E41201EA4F10104DFDC484631462A46C5
:106440004346BDE8F09F202A04DB203A00FA02F11F
:10645000002070479140C2F1200320FA03F3194352
:106460009040704700487047C011030040EA0103A4
:106470009B0703D009E008C9121F08C0042AFAD2FA
:1064800003E011F8013B00F8013B521EF9D27047BE
:10649000D2B201E000F8012B491EFBD27047002266
:1064A000F6E710B513460A4604461946FFF7F0FF13
:1064B000204610BD421C10F8011B0029FBD1801A98
:1064C000704730B504460020034600E05B1C934251
:1064D00003D2E05CCD5C401BF8D030BD202A04DB49
:1064E000203A21FA02F00021704721FA02F3D0404D
:1064F000C2F120029140084319467047064C074DEF
:1065000006E0E06840F0010394E807009847103483
:10651000AC42F6D3FFF778FE44260300642603005E
:1065200070B58C1810F8015B15F0070301D110F855
:10653000013B2A1106D110F8012B03E010F8016B82
:1065400001F8016B5B1EF9D12B0705D40023521E05
:106550000DD401F8013BFAE710F8013BCB1A921C6D
:1065600003E013F8015B01F8015B521EF9D5A1426B
:10657000D8D3002070BD00002DE9F04F00268DB06B
:10658000DFF8A081B14604964FF4807501243746A8
:106590000596284605F0E0FB38B1D8F80403204200
:1065A00003D0284605F0CEFB26432D1D64007F1C3A
:1065B000ADB2082FEDD34FF4BE74204605F0CCFBEE
:1065C00048B1204605F0BEFB46F0004604AA022171
:1065D000002005F0A1FB544C16F0FF0F15D0012749
:1065E000002537420DD008EB8501D1F81005D1F810
:1065F0001015C0F3052054F82520C1F3014102B164
:1066000090477F006D1C082DEBD3002E7EDA002012
:10661000CDF82890411E0DF1100B07AACDF82C9053
:1066200042F82010401C91460228F9D300252E463E
:10663000A11911F8607F91F9000027F0C008401CF3
:1066400040D007A9404604F046FD40B34FEA971AF0
:10665000404602F0C9F954F820701FB1BAF1030F97
:1066600003D006E0BAF1030F2CD10AA9404604F08A
:106670003AFD02A8CDF8088005F0F2FA029900EB85
:106680008100D0F8000704A9C0F301400290404601
:1066900004F021FD0028029802D0022802D011E067
:1066A00003280FD1BAF1030F08D10298022833D082
:1066B0000221404605F0AEFA6D1CEDB217B151460D
:1066C0004046B847761C042EB2D3002D21D001AA33
:1066D0000221002005F020FB00205A460DF10401A4
:1066E00052F8206051F82030B34217D000200AAE93
:1066F0004FEA090351F8207042F8207056F82070D4
:1067000043F82070401C0228F4D300E001E0002D83
:106710008CD10DB0BDE8F08F0321CAE7401C0228E0
:10672000DED3F6E7006000409CE9002000F01F0285
:10673000012191404009800000F1E020C0F8801262
:10674000704700F01F02012191404009800000F1D4
:10675000E020C0F80011704700F01F0201219140B5
:106760004009800000F1E020C0F80012704749079E
:10677000090E002806DA00F00F0000F1E02080F892
:10678000141D704700F1E02080F8001470470000ED
:1067900070B54FF48076304604F0E0FD114CB5053D
:1067A00060B1304604F0E1FD0120C5F808036079CE
:1067B00020B9012060712168002088474FF482765B
:1067C000304604F0CBFD00280AD0304604F0CDFD61
:1067D0000220C5F808032168BDE870400120084781
:1067E00070BD000068E1002007480021C0F840119A
:1067F000C0F84411C0F84811C0F84C11C0F800119D
:10680000C0F8041109F084BC0010014009F0CEBBAF
:1068100006F02EB830B54FF0805000228300D0F83B
:106820003011C3F80C21C3F81021624B1A60624B7F
:106830001B68624C2360604B1B1D1B68241D23607A
:106840005D4B08331B68241D23605B4B0C331B68B6
:10685000241D2360584B10331B68241D2360564BA6
:1068600014331B68241D2360534B18331B68534C8F
:1068700020342360504B1C331B68241D23604E4B77
:1068800020331B68241D23604B4B24331B68241DBD
:106890002360494B28331B68241D2360464B2C334F
:1068A0001B68241D2360444B30331B68434C403429
:1068B0002360414B34331B68241D23603E4B383327
:1068C0001B68241D23603C4B3C331B68241D236044
:1068D000394B40331B68241D23600124082902D151
:1068E000D0F8343113B1082904D006E0354B3449CF
:1068F000196005E0D0F8343113B1082904D006E05E
:10690000314BFB21196005E0D0F8343113B108296F
:1069100008D00EE090F858322C48016863F3030168
:10692000016002E0D0F834311BB929494FF40070FE
:10693000086028480168C90702D06FF001010160B2
:106940002548016841F470010160BFF34F8FBFF328
:106950006F8F4FF01021D1F80002002803DBD1F82F
:106960000402002822DA1D4B1C601D480468002C1C
:10697000FCD01224C1F800420568002DFCD0C1F8FB
:10698000044201680029FCD01A6001680029FCD08B
:10699000BFF34F8F10487C380168124A01F4E06160
:1069A00011430160BFF34F8F00BFFDE70F490E4851
:1069B000086030BD380500400404001020C50040C8
:1069C000488103008C56004018F50040E40E00405A
:1069D000409602400004004088ED00E004E50140DC
:1069E00000E401400400FA050090D00360E20020BA
:1069F000014800680047000070E1002002E008C87C
:106A0000121F08C1002AFAD170477047002001E028
:106A100001C1121F002AFBD170470000012120286C
:106A200003DA81400548014003E0402802DA2038BB
:106A3000814009B10120704700207047FC06FFBD6E
:106A40002DE9F843804643F2020659B9694607F03A
:106A500005FAB04202D008B100F0ECF99DF8000050
:106A6000800744D40021404607F034FA05003ED0A8
:106A7000112D3CD01F482049401AC708022000EBC6
:106A800007440D2D0AD00B2D1DD0B5421FD11B4937
:106A900020464246BDE8F84305F062BB2046424628
:106AA000174905F05DFB1321404676DF00281ED014
:106AB00005F066FF024601B020464346BDE8F043BC
:106AC00010A105F054BB204642461C49E2E7284687
:106AD00005F056FF0246012000EB0740434618A18F
:106AE00005F045FB2846BDE8F84300F0A3B9BDE832
:106AF000F8830000AC26030074260300EC180300A2
:106B00007818030073645F626C655F6761705F642F
:106B10006973636F6E6E656374282920726574757E
:106B2000726E6564202573206F6E20636F6E6E5FDA
:106B300068616E646C652025642E000038190300BE
:106B4000417373657274696E672E20706D5F636F39
:106B50006E6E5F7365637572652829207265747542
:106B6000726E6564202573206F6E20636F6E6E5F9A
:106B700068616E646C652025642E000010B560B1FC
:106B800059B102780B785208B2EB530F05D10622A7
:106B9000401C491CFFF795FC08B1002010BD0120E6
:106BA00010BD800701D00020704701207047C368E6
:106BB0008B4206D811440069491E814201D8012048
:106BC00070470020704710B501220221002001F01B
:106BD000EBFC08B1072810D107220221012001F0A7
:106BE000E3FC08B1072808D100210A22084601F079
:106BF000DBFC08B1072800D1002010BD00B5ABB008
:106C0000AC216846FFF74BFC022101208DF80010F3
:106C10008DF8020006228DF803200322ADF8102023
:106C20000D4A05922822229244F250628DF87C008F
:106C30002392CDE927108DF89800084829906946DD
:106C4000074800F071FC08B100F0F4F80121044895
:106C500000F066FC2BB000BD24E00020DDD0020077
:106C6000ECE2002010B560B10B480C49401AC00896
:106C7000032101EB00400AA105F06EFA07F076FE51
:106C800003E00321094800F028FD002803D0BDE8F7
:106C9000104000F0CFB810BD0C270300742603008D
:106CA000457261736520626F6E647300ECE20020D0
:106CB00070B58CB015460E4600236C46C3F10F012B
:106CC000415CE1545B1C102BF8D30D2104F1100042
:106CD000FFF7E5FB0020C0F10F02315C2244401CAD
:106CE00011740328F7D3684646DF0020C0F10F0176
:106CF000214491F820102954401C0328F6D30CB0ED
:106D000070BD022001F052BB0149C97800F044BFB8
:106D1000ECE0002070B50024064D06E06868012113
:106D200010F8340005F090FE641C28788442F5D3F6
:106D3000002070BD78E10020F8B515460C460646E7
:106D4000052A01D20720F8BD05F076FF18B905F035
:106D500039FF0028F7D1124900224E600C708D6077
:106D6000C1E90422C1E906220E4D0DE006EBC40084
:106D70002968009181788DF8011000780A4A6946E7
:106D800005F0AEFE0028DED1641EE4B2EED2BDE80E
:106D9000F84004480021054A001D00F057B80000E3
:106DA00078E10020380E0300619D020091900200FE
:106DB00072B605F083FA00BF05F0B4F80028FBD1E5
:106DC00011481249401AC408012000EB044010A1E8
:106DD00005F0C2F911480068C00700D000BE0220CB
:106DE00000EB04400EA105F0B7F9BFF34F8F0B483D
:106DF000E43801680E4A01F4E06111430160BFF319
:106E00004F8F00BFFDE700000C270300742603002E
:106E1000466174616C206572726F7200F0ED00E083
:106E200053797374656D207265736574000000009A
:106E30000400FA050EB500210091CDE901106A4663
:106E400044F20100FFF7B4FF0EBD0000084B9B7831
:106E500023B12AB120B10068037C1BB10820704720
:106E6000072070470023037441744261184670473D
:106E700070EA002070B508F033F9104800240B21A7
:106E8000047044700E4D817014206C602C706C7016
:106E9000FFF74CFC06211420FFF769FC1420FFF7D4
:106EA00050FC0848046006211120FFF760FC0548EB
:106EB000001F0068A860002070BD000070EA00207C
:106EC00098E10020081501402DE9FC47DFF8789093
:106ED00099F8023073B368B3052902D20720BDE8E0
:106EE000FC87436933B3437C012B25D0002704463C
:106EF0000025884616468DF80050684600F038F8A0
:106F000001A809F0A9FBC8B1012101700F49446033
:106F10000968C0E90218C0E904769DF8040089F800
:106F200001009DF8000000F047F81420FFF714FC62
:106F30002846D4E70820D2E70F46D8E704259DF875
:106F4000000000F039F8F3E770EA00200415014072
:106F50000649897839B130B1416921B10021017404
:106F6000022109F0B1B808207047000070EA002043
:106F700030B5EFF3108172B60D4A9468012324B145
:106F80000370002900D162B630BD93604FF0E0235A
:106F9000D3F88051074C25401560C3F88041D3F8E1
:106FA000844154605A17C3F8842100220270E8E734
:106FB0007CEB0020FC06FFBD0B498A68002A11D03B
:106FC00000280FD1EFF3108072B60B684FF0E0226B
:106FD000C2F800314B68C2F8043100228A600028F0
:106FE00000D162B6704700007CEB002070B505460A
:106FF00008680C46411C04D004F067FE206804F0C9
:10700000F5FD6068411C02D0002104F0DDFD296817
:10701000A069C1F82405607D227D29681043C1F86C
:107020006C05D4E900122868C0F81425C0F80C15C6
:10703000207D012814D1A068411C02D0002104F059
:10704000C3FDE068411C04D004F03FFEE06804F09A
:10705000CDFDD4E902122868C0F80825C0F8101543
:1070600070BD70B5054608680C46411C04D004F09C
:1070700036FE206804F0C4FD6068411C02D0002187
:1070800004F0ABFD2968A069C1F82405607D217D6D
:107090002A680843C2F86C05D4E900122868C0F8D1
:1070A0000C15C0F81425207D012814D1A068411CBE
:1070B00002D0002104F091FDE068411C04D004F0EE
:1070C0000EFEE06804F09CFDD4E902122868C0F8C6
:1070D0000825C0F8101570BD03F0E8BB2DE9F04796
:1070E000814605884A484FF000088AB00178424638
:1070F000284600F069FD99F80500400701D40021F9
:1071000076E005F58077B8B201AB0122072106F0E1
:1071100017FB04003F48404A4FF00101A0EB02007A
:107120004FEAD00001EB00460AD0204605F028FCCB
:10713000024630462B46394905F019F8214629E028
:10714000284603F0CFF84FF6FF71044688422BD152
:107150008A46029803F030F80446504510D00146A4
:10716000284603F09FF82846FFF7CEFDE0B92846F1
:1071700008F0ACF92846FFF7C7FD0028BFD013E0A0
:1071800006F0AAFC0446504508D1304624A104F07C
:10719000E3FF0421284608F0C7F9B0E70146284676
:1071A00003F080F84FF00108B8B22246072106F03C
:1071B0003FFB07001BD0862F1ED005F0E1FB0246E7
:1071C00030462B462349009404F0D9FF394628461F
:1071D00008F0AAF90021484606F0A6F9B8F1000F18
:1071E00002D0204603F068F80AB0BDE8F08701211C
:1071F000484606F099F9F7E71822174903A8FFF760
:1072000035F9ADF80E5003A802F0D2F8EFE7000010
:10721000ECE00020B426030074260300F01B0300FA
:10722000436F756C64206E6F7420616C6C6F63616A
:107230007465206E657720706565725F696420668D
:107240006F7220696E636F6D696E6720626F6E6426
:107250002E0000009C1C0300CC0D030070B50446FA
:1072600090B0087B0D468DF83800202105A8FFF767
:1072700016F942F61920ADF814000120ADF81800F7
:10728000ADF81A000EA80790617C9DF82100A21DA0
:1072900061F3041040F002008DF82100A87B8DF806
:1072A0002700687B8DF82500A08805A901F0D4FB94
:1072B00000281CD1A968E1B10FA800F0F9FF06462B
:1072C00014216846FFF7EBF842F60810ADF800000D
:1072D000E87B8DF806000FA8ADF80A60ADF80E60E7
:1072E0000490E08804F10E02694601F07BFE10B0C4
:1072F00070BD0020E081FAE710B50D490D4808F097
:107300008EF9C1B24FF6FE720B4800F0FDFA00286C
:107310000DD008280BD0132809D0112807D043F22C
:107320000141884203D0BDE81040FFF783BD10BD86
:1073300050E5002004E00020A8E200200A460146B3
:107340001046AEDF70472DE9FC470025178806463A
:10735000158090F82D001446894630B13A462146F2
:10736000484600F05BFC051E09D1B0784FF00C0ACE
:1073700018B32088C846001DB84202D95046BDE85F
:10738000FC87684679DF0028F9D12088032108F8B6
:10739000001020881921401C80B2208008F80010BD
:1073A0002088401C80B2208000EB0801BDF800005E
:1073B00009F072F8218808442080F0780222C8B1D0
:1073C000218896F9033001F1030C4846BC45D5D815
:1073D000425421884FF0010C491C89B2218000F8E9
:1073E00001C02188491C89B2218009F80130208818
:1073F000401C20807068B8B1218890F9003001F1FC
:10740000030C4846BC45B9D8425421880A22491C7D
:1074100089B2218042542188491C89B2218009F80F
:1074200001302088401C2080308950B1CDE90047D0
:107430004B460622022106F1080009F025F9051E37
:107440009DD1308A50B1CDE900474B460722032138
:1074500006F1100009F018F9051E90D1308B50B1DB
:10746000CDE900474B461522142106F1180009F01A
:107470000BF9051E83D1306A30B13B46224649469E
:1074800001F069FC051EDBD1706A30B13B46224633
:10749000494603F0F9FB051ED2D196F82C0038B10D
:1074A0003B4622464946304608F08CF9051EC7D1B6
:1074B000307838B13B4622464946304603F072FCEC
:1074C000051EBDD128465AE718B504460020ADF880
:1074D000000013466A46204600F006F8002802D055
:1074E000BDF80000204418BD70B588B182B10024F9
:1074F000158803E0065D641C3444A4B2A54203D899
:10750000061976789E4201D08C42F3D38C4201D387
:10751000002070BDA11C1180005D401E80B270BDB6
:1075200080F83010704700002DE9F0470E00044647
:1075300006D02CB196F87A000025012803D006E089
:107540000E20BDE8F08796F89800012821D04FF072
:107550000109A5702C2206F17801201DFEF786FF97
:1075600084F83050D6F8A4006063D6F8A800A06371
:107570004FF6FF70A4F8480204F50D70C4F84402F9
:10758000C4F84A52A4F84E5284F85052207810B1F0
:1075900004E00720D5E7FF2084F8540004F15501EA
:1075A000C4F8341294F82400EE274FF01F08012885
:1075B0001FD0A4F8388200BF04F50E723046FFF7E2
:1075C000C2FE0028BDD116F13C0F18D004F24311C1
:1075D000C4F83C1294F8240001280DD0A4F840828D
:1075E00004F5107206F13C00FFF7ADFE0028A8D1AB
:1075F00009E0A4F83872DFE7A4F84072F0E7C4F8B5
:107600003C52A4F8405284F85190208BA4F84800D2
:1076100084F83C90256484F85050606960644E465C
:1076200004F13C02002104F1540072DF002888D1EB
:10763000267086E710B50288102A1BD0112A20D0A8
:10764000262A1DD1007A0C46012801D0022817D124
:10765000A0780521401CB0FBF1F201FB120120468D
:1076600000F03BF800280BD0A16B002908D0BDE842
:1076700010400847C27B012A02D18088A1F8480245
:1076800010BD0C46002184F852128088B4F84812CC
:107690008842F5D120790028F2D10121DFE7704737
:1076A00010B5044690F8540074DF012084F85202AB
:1076B000002084F8540284F850000621204602F08D
:1076C0004BF8002808D1A178204600F006F810B148
:1076D000A16B01B18847002010BD2DE9F05F044681
:1076E00000780F4698B1A7700025C4F84A52A4F854
:1076F0004E5284F85052A079012608B1012F09D0CA
:10770000E07980B1012F05D0022F03D00BE00820D3
:10771000BDE8F09F616B21B184F851620820884771
:1077200001E084F8515204F24B2100200A5C0AB1B6
:10773000304603E0401C0628F8D300204FF0020832
:107740004FF0030B012F06D0022F0CD0032F0FD0C8
:10775000042F15D110E0A17929B194F8241011B9A2
:1077600008B130460DE0E17911B108B1404608E0BA
:10777000207A08B1584604E0607A08B1042000E09D
:107780002846A070616B41B1032801D0042804D1C0
:10779000607910B194F85202A0B184F8535204F108
:1077A0003C0018210746FEF77AFE04F12C0084F80D
:1077B0003C60814606F0BCFA58B194F82C0084F87D
:1077C000510008E084F8545284F853620720884737
:1077D000E5E784F8516094F8240050B1484606F07B
:1077E000A7FA20B194F8280084F8520001E084F848
:1077F000526084F85050A27804F24A2104F50D79C1
:107800004FF0060A052A62D2DFE802F07A030F225F
:10781000410084F83160C4F84452C4E9101584F87A
:107820003C808020A4F8480053E084F8318094F82C
:107830002420384612B10722027001E080F800B01F
:10784000228A8281C4F844524160E168B96040E014
:107850006069B860208BB88194F824003D4610B16F
:1078600084F83CA001E084F83C60204608F0D0FE9B
:1078700050B185F814800421204601F06DFF30BB23
:10788000052184F8311020E084F831B01DE0E06972
:10789000B860208CB88194F824003D4610B184F87B
:1078A0003CA001E084F83C60204608F0B1FE48B1FD
:1078B00085F814800421204601F04EFF38B984F881
:1078C00031A002E0042084F83100C4F84492A0788A
:1078D00078B13A4604F15400D4F8441272DF00281B
:1078E0007FF416AF94F8301094F8540073DF00283A
:1078F000F6D1616B11B194F831008847002007E799
:1079000084F83150F5E70000F7B594B0174605004C
:107910003CD0287C9DF854100024884252D0002688
:107920004FF0010E0D9615A8ADF834E00E90ADF8AD
:107930003660E9880DAA4FF6FF70ACDF040026D14F
:107940009DF854002874687CA0B30F961096119689
:107950001296E888ADF83C00BDF83600ADF840005E
:107960000DA811900E981290A7F57F408DF83EE07B
:10797000FE3805D039460FA8FFF7E0FC044621E0A9
:10798000684600F09DF800256F460FE00E2017B006
:10799000F0BD00BF07EB4506B08800F0DFF8022815
:1079A00003D144B10FA9B088AEDF6D1C0098A84286
:1079B000F0D807E005E0B1880FA8FFF7BFFC044648
:1079C000F3E708242046E2E738B50D46040018D056
:1079D000BDB12868206028796074FF2020740120E0
:1079E0008DF8020041F60F00ADF80000221D694637
:1079F0000120A8DF002803D129462046FFF72EFCEE
:107A000038BD0E2038BD38B5002924D0002822D03A
:107A10000288502A1FD10546487C0C4600281AD0FF
:107A2000E9886289A81D914215D14189022912D1A4
:107A3000216800290FD00C3000F036FC08B100207E
:107A400000E001208DF80000A888ADF8020022684F
:107A500069462046904738BD70B5040012D00146F3
:107A60001C221448FEF702FD1248134D05602068E1
:107A700050B17ADF002806D120680168296040688B
:107A8000686005E00E2070BD0B487BDF0028FAD14E
:107A900008484FF6FF711438084A20F8041B0549BE
:107AA0002C3901600021FFF7D1F90028EBD0032029
:107AB00070BD000010E6002048E00020A90503008A
:107AC0000149496801F028B92CE6002010B50446A8
:107AD00000F09AF8002805D02146BDE81040024881
:107AE00003F05DBA10BD00003CE6002070B51546FD
:107AF0000E46044608F098FD002809D0054800EB22
:107B0000840080692A463146BDE8704001F050BECD
:107B100070BD00002CE6002010B5044600F074F89B
:107B2000002805D02146BDE81040024803F037BACE
:107B300010BD000040E6002070B50546002400F0AE
:107B400063F838B12946044803F029FA08B1022441
:107B500000E00124204670BD38E6002070B50546DF
:107B6000002400F051F838B12946044803F017FA10
:107B700008B1022400E00124204670BD34E6002054
:107B800010B51821034803F0E5F9182800D0C0B259
:107B900010BD00002CE6002070B505460C460846D6
:107BA00008F042FD60B1284600F02EF840B10548CB
:107BB000294600EB8400BDE87040183003F0EFB9AF
:107BC000002070BD2CE6002070B5054614460E4618
:107BD000084608F029FD002812D0284600F014F8C5
:107BE00000280DD00748294600EB860018301CB14C
:107BF000BDE8704003F0DEB9BDE8704003F08FB916
:107C000070BD00002CE60020142801D3002070472E
:107C10000146014803F0C3B930E600207CB50546B3
:107C200008880C460930904201D90C207CBD68467A
:107C30006DDF0028FAD121880820685420881B2194
:107C4000401C80B2208029542088401C80B22080B3
:107C50002844DDF801100160BDF8051081802088FE
:107C6000801D80B220809DF80010490800D00121BD
:107C700029542088401C208000207CBD1FB504466C
:107C800001208DF8060041F60A00ADF80400494ACB
:107C900001A90120A8DF00287DD122885AB14548DA
:107CA000801C009094F83C3042F62920616800F076
:107CB000A3FE00287BD122895AB13E480A300090A9
:107CC00094F83C3042F62420E16800F095FE00284C
:107CD0006DD1228A5AB137481230009094F83C3066
:107CE00042F62520616900F087FE00285FD1228BD3
:107CF0005AB130481A30009094F83C3042F62720B0
:107D0000E16900F079FE002851D1228C5AB129484E
:107D10002230009094F83C3042F62620616A00F050
:107D20006BFE002843D1228D5AB122482A300090A0
:107D300094F83C3042F62820E16A00F05DFE00280D
:107D400035D1216B79B102A808F00EF91948082243
:107D50003230009094F83C3002A942F6232000F023
:107D60004BFE002823D1606B60B112493A3100917B
:107D70000279016894F83C3042F62A2000F03CFE7B
:107D8000002814D1A16B89B102A806F05EFE094853
:107D90004230009000E00AE094F83C30072202A94B
:107DA00042F6502000F028FE002800D1002004B048
:107DB00010BD00000AE1002038B5018804462129E1
:107DC00032D015DC1F48204A204DA0EB02004FEABC
:107DD000D0004FF0030202EB0040102910D011290F
:107DE00005D11BA104F0B8F94FF6FF70288038BD0B
:107DF0003B2923D05629FAD18088132176DF0DE064
:107E000017A104F0A9F9072000F0F0FB08B1FFF773
:107E100011F8A1882980154803F028FA0028E6D037
:107E2000BDE83840FFF706B800200090A0886946FA
:107E30008FDF0028DBD0FEF7FDFF38BD80881321DF
:107E400076DFEBE70C2703007426030000E0002038
:107E5000446973636F6E6E65637465642E00000021
:107E6000436F6E6E65637465642E000044E5002008
:107E700010B51A4C0188606810290ED011292BD139
:107E8000401E606028D1FEF79EFE002824D02168A5
:107E9000002921D0BDE810400847D0B900210122B7
:107EA000084600F081FB08B107280FD10722022104
:107EB000012000F079FB08B1072807D10422022134
:107EC000002000F071FB20B1072802D0216801B129
:107ED00088476068401C606010BD000040E00020E2
:107EE0002DE9F04701883B4E40F2F3194FF6FF753C
:107EF00010291BD011293ED0122954D0502946D127
:107F0000C188F289841D914241D1618902293ED103
:107F10008688304602F094FA050038D004F10C004F
:107F200000F0C2F9A8B3294630464EE0C17B8788ED
:107F3000044601292BD1A846284602F081FA050003
:107F400017D02F8000202872234843464A460168F4
:107F5000C5F80A104068C5F80E0004F1100105F1DB
:107F60000A0002F02DFB6872F08900280FD1294623
:107F70002AE0042013E0808802F062FA040006D0B0
:107F80006068FEF7E5FF08B107F0B2FA2580BDE8AA
:107F9000F087FFE76868FEF7DBFF0028F7D0BDE851
:107FA000F04707F0A5BA87880646384602F048FA37
:107FB0000400ECD02B464A4606F1080104F10A0001
:107FC00002F0FEFA607221463846BDE8F04700F044
:107FD00009BF000010E6002048E000202DE9F04F26
:107FE0000746858802883D48012197B08346102ABC
:107FF00009D0112A49D01A2A6CD1387AB1EB101F56
:1080000045D2012244E0354C083CA068C0430B90A7
:1080100061680BA802F0E7FF0B990CA800F07CFE4A
:108020002C220CA96846FEF721FA0026E946A04654
:1080300010E000BF09EB46005FF00004B0F804A0B8
:1080400008EB84005146001D02F069FF641C1D2CE2
:10805000F6D3761C0098B042ECD8142D05D317B097
:108060000420BDE8F04FFEF7E5BE2946584602F071
:10807000A1FF294608F1040002F09CFFF87B0128CB
:1080800028D016482946001D15E029461AE000228E
:108090000221B1EB101F01D2012600E000260F499A
:1080A000083901F11000041D294682B102F082FF57
:1080B00036B12946204617B0BDE8F04F02F07ABF2E
:1080C0002946204617B0BDE8F04F02F028BF02F065
:1080D00026FFF5E717B0BDE8F08F000034E600207A
:1080E00010B504460748007800280AD0204601F061
:1080F000D5FF204607F084FC2046BDE8104001F083
:10810000B3BC10BD7CE0002070B58EB00D460400FD
:1081100061D0002D5FD0286820604FF6FF70E082AC
:10812000E888208301268DF8366041F61400ADF80A
:108130003400221D0DA93046A8DF002849D1202196
:108140006846FEF7ACF942F65320ADF80000142063
:10815000ADF804008DF80C609DF80D0008AE40F0FD
:1081600010008DF80D0028798DF8130008AA05F18C
:1081700008012046029606F083FFADF80600A088AD
:10818000A21D694600F068FC002822D12021684623
:10819000FEF785F942F654200221ADF80000ADF853
:1081A0000410E8888DF82000000A8DF821009DF861
:1081B0000D00ADF8061040F0020002968DF80D009B
:1081C00068798DF81100A08804F10E02694600F06C
:1081D00043FC0EB070BD0E20FBE730B58BB0040041
:1081E00029D041B3E08AA0F57F42FF3A25D005AA05
:1081F000204606F045FF0546ADF80000002001903E
:10820000029003900490E188ADF804100121ADF8CC
:1082100008008DF8061005A8CDF80CD00490E08A6F
:1082200001A9AEDF002804D1BDF80010A94200D09A
:108230000C200BB030BD0E20FBE70820F9E738B565
:1082400000291FD000281DD00288102A15D0112A1D
:1082500015D0502A16D130F8062F4B899A4211D1E9
:108260000C46418902290DD1216800290AD00C3021
:1082700000F01AF838B1002006E0808801E04FF6DF
:10828000FF70C88238BD01208DF800002268694661
:108290002046904738BD70B504460D460846FEF7A7
:1082A00009F92080656070BD007800F0010070471A
:1082B0000A78027049784170022070471FB504F0B7
:1082C0009DFA08B1FEF7B6FD00246946012000942E
:1082D00004F024F908B1FEF7ADFD01949DF8040007
:1082E000039420F00F00401C20F0F00010308DF8B7
:1082F000040001208DF80500ADF80C403820ADF8E1
:108300000E00029401A94120009A69DF08B1FEF72E
:1083100091FD684604F082F9002801D0FEF78AFD3D
:108320001FBD00000149085C704700004C0C0300B1
:10833000084908B5085C0090684603F083FCD0F853
:1083400010050099C84010F0010000D0012080F015
:10835000010008BD4C0C03002DE9FC410646C00796
:108360004FF000050ED0104F00240122385D00951B
:1083700000231146019503F0B1FB641C042CF4D3D7
:1083800000F04EF8B0070DD5074E0024361D002230
:10839000305D032300951146019503F09FFB641C9B
:1083A000042CF4D3BDE8FC81480C0300094908B54E
:1083B000085C0090684603F045FCD0F80425009B5B
:1083C0000121994021EA0203C0F808351140C0F8A4
:1083D0000C1508BD480C03000249085C012103F09C
:1083E00088BC0000480C03000249085C002103F02F
:1083F00080BC0000480C0300084908B5085C0090E8
:10840000684603F01FFCD0F804050099C84010F03E
:10841000010000D0012080F0010008BD480C0300DD
:1084200010B500242046FFF7D7FF641C042CF9D3B5
:1084300010BD10B500242046FFF7D6FF641C042CA5
:10844000F9D310BD10B50246064B4FF0FF300021A6
:108450005C5C944201D1084610BD491C0429F7D345
:1084600010BD00004C0C030070B50C4E0C004FF01A
:10847000000530600BD0012000F06AF808B102203E
:1084800004E0002000F064F800B10B202070706858
:1084900010B9FEF798FB0546284670BD40E0002065
:1084A00010B5002000F0DCF908B1062806D1012043
:1084B00000F0D6F908B1062800D1002010BD000058
:1084C0002DE9F0470D468146FFF7BCFF044604281E
:1084D00036D2DFF874801B481C4EA8F10C0725B378
:1084E000012D0ED0022D2BD104EB440030444578F1
:1084F000002D25D0B968002922D02846BDE8F047D4
:10850000084704EB4401755C0E44717849B10E4A8A
:108510004FF40041093A8068FEF7D6FC08B987F8A5
:108520000390B17808F80410E2E78068FEF710FDC8
:1085300004EB4401314418F804008D78A842D7D0E8
:10854000BDE8F087500C03003CE00020C0E50020AF
:10855000042801D2FFF7ECBE002070470146104806
:1085600010B50088042907D007290ED00A2915D193
:10857000BDE8104007F030BA132176DF0CE0002888
:108580000CD0BDE81040FEF755BCA0F57F41FF3987
:1085900004D10448FFF784F80828F0D110BD00008A
:1085A00000E00020ECE2002070B50023042810D287
:1085B0000D4D00EB4004012A02D101290CD000220C
:1085C000094E00EB4000304461B1012906D0022978
:1085D00006D00723184670BD0E30C2B22A55F9E7FF
:1085E0004270F7E78270F5E7C0E50020044A0146D3
:1085F00000201279D20702D0084600F04DB870472B
:1086000030E0002070B506461E480024C0E9016134
:10861000B00720D50025012211462846FFF7C4FFE8
:108620006D1C0446042D02D2002CF4D013E094B942
:1086300040F2666204211448FEF77EFB04000AD172
:10864000FEF768FB040006D10F48104A0021001F06
:10865000FEF7FCFB0446F00712D00120FFF77CFE7A
:1086600074B909480A4A00210C38FEF7EFFB0400F0
:1086700006D10548074A01210838FEF7E7FB044602
:10868000204670BD30E000205C0C03002D89020004
:1086900055A60200036D02002DE9F05F6E4C054601
:1086A00000266078B34618B184F801B001F0BAFF33
:1086B0006A4F4FF47A694FF4C87A4FF00108182DC9
:1086C00069D2DFE805F00C1313384754696E727BEA
:1086D000727BC58484848484B3B6B9BCC5C501F0FB
:1086E000A1FF3868FEF734FC06465CE00020FFF787
:1086F00083FE00284FF0000008D0FFF76DFE022D2A
:1087000002D14FF4E16008E0484606E0FFF76CFE56
:10871000022D01D1C82000E05046410CC0034FF4A7
:10872000FA72801841F10001257052000023FDF714
:1087300059FE01462AE00020FFF75EFE00284FF0B8
:10874000000004D0FFF748FE4FF44870E5E7FFF75C
:108750004BFEDFE70020FFF74FFE00284FF0000040
:1087600002D0FFF739FECFE7FFF73EFED4E7002047
:10877000FFF742FE00284FF0000002D0FFF72CFE6A
:1087800001E0FFF731FE257041F69A1100223868AA
:10879000FEF79AFB064646E00020FFF707FE25702D
:1087A00008E0002051E025703DE084F801800120C0
:1087B000FFF7FCFD002240F6CD41E8E784F8018098
:1087C0000120FFF7F3FD00224FF48041DFE77868D6
:1087D000FEF7BEFB0646D5F1110000D02EB10220F7
:1087E000FFF7FAFD84F802B01DE0012816D980B227
:1087F000C8214843C117C90341EA5041C0034FF49F
:10880000FA72801841F1000152000023FDF7EAFDE1
:10881000014600227868FEF757FB06460220FFF764
:10882000E3FD84F802803046BDE8F09F01F0FAFED7
:10883000B9E701F0F7FEB4E701F0F4FE04E001F05F
:10884000F1FE0020FFF7D0FD0120FFF7CDFDAAE7E4
:10885000FFF7EFFDA7E7000030E00020500C030019
:10886000012107F079BF00002DE9F8430546861C79
:1088700000208DF8000090460F464FF00109684631
:10888000FEF776FB1B4C20683860D4E90001401AE3
:10889000A16804F21C47081A0EE00121384602F0D4
:1088A0009CFB02F0E5F80146384602F096FBD4E95D
:1088B0000001401AA168081A401C8642EDD8B8F1A0
:1088C000000F03D0052065F3891002E0062065F350
:1088D0009F50A2682168114004EB8101C8602068A4
:1088E000304420609DF80000FEF766FB4846BDE876
:1088F000F8830000CCEE002030B482680468531C7A
:108900008360A154D0E901128A4202D330BC02F044
:10891000AABD30BC70470000034803C8814201D1A2
:108920000120704700207047CCEE00200078022123
:10893000FFF7C6BD1CB5044601F0D4FC00236A460F
:10894000092105F03FF8052805D1034801224179A6
:108950002046FFF739F91CBD50E000201CB500216E
:10896000009142F6A621ADF8001001218DF8021009
:10897000034901AA096801916946A0DF1CBD0000F6
:108980007C0C030005494FF0FF32082841F82020F5
:1089900002D3084480F85820704700009CE900206A
:1089A000F0B54FF0FF3512B10023082601E008238F
:1089B0000C260C4C05E000BF54F823707F1C04D03B
:1089C0005B1CB342F8D32846F0BD26185DB286F88A
:1089D000305044F82310002AF5D1E11881F85800EE
:1089E000F1E700009CE900200249084490F93000BA
:1089F000704700009CE900202DE9F04188B01E4638
:108A0000DDF8388014460D00074602D10020FEF73D
:108A100011FA14B90020FEF70DFA20216846FDF77F
:108A20003EFD9DF80D00ADF8044040F002008DF8C9
:108A30000D000848ADF80070ADF8064002958DF8BD
:108A4000116042466946008800F006F808B0BDE8AB
:108A5000F08100000AE100202DE9F043814688788A
:108A600091B090460C4600B901208DF83E00208858
:108A7000ADF83C0000250095607C694606F094FF47
:108A80006E46A07C711C06F08FFFE07B00289DF8ED
:108A9000020002D040F0080001E020F008008DF84C
:108AA0000200217C11B140F0100001E020F0100024
:108AB0008DF80200217B11B140F0010001E020F0AF
:108AC00001008DF80200217D09B1022100E00121A1
:108AD00061F342008DF802001C2102A8FDF7DFFCC3
:108AE000607BC10601D4800617D50E950EAFE07CE1
:108AF000791C06F059FF9DF83800079720F00F0009
:108B0000401C20F0F00010308DF838009DF83A003D
:108B100020F00600801C8DF83A00607B8DF808007C
:108B2000A07B8DF80900142109A8FDF7B8FC0FA857
:108B3000CDE90906A088ADF83000A06820B1E08832
:108B4000ADF82C00A0680D90A06998B3019500883D
:108B5000ADF81000A06901AD01A94088ADF8120080
:108B6000A069406806950390A069007B06F01CFF91
:108B7000A069691C407B06F017FFA069807A002875
:108B80009DF8060002D040F0080001E020F0080047
:108B90008DF80600A169C97A11B140F0100001E01A
:108BA00020F010008DF80600A169097A19B140F093
:108BB000010002E00DE020F001008DF80600A1693F
:108BC000897B09B1022100E0012161F342008DF8A7
:108BD0000600E06900B10590434609AA02A948468B
:108BE000AADF11B0BDE8F08370B504464FF6FF75FB
:108BF0000A462846AC4209D14FF4807421461046FB
:108C000002F0A8F980B2A0420BD070BDFF2CFCD8B6
:108C10002146104602F08EF990F0010F01D0204657
:108C200070BD284670BD000070B5084C050009D025
:108C300010342168002907D0086820604968284658
:108C40008847F6E70834F4E770BD000088E90020A3
:108C5000054A012120B1012805D19170FFF7E4BF39
:108C600051700020FAE7704788E900202DE9F05F95
:108C700026484168F1B3DFF898B00E688146DBF80A
:108C8000004087688078E11B21F07F45ED1CB0B97A
:108C9000DFF880804FF48030C8F84403C8F804033C
:108CA0001120FDF743FD1120FDF74BFD4FF0010AA8
:108CB000C8F800A02F2003F0BFFE89F802A0B5423B
:108CC00000D23546124BE8193C3320F07F40186043
:108CD000DBF800105A46091B21F07F41001B20F0F1
:108CE0007F40C91C81420FD9106818602F2003F003
:108CF000A3FE00E004E0BDE8F05F1120FDF72CBD0D
:108D0000BDE8F05F06F0ECB9BDE8F09F98E1002007
:108D1000041501400010014073B58CB006460020D8
:108D200000900D9880B100246D4621460DA802F0F8
:108D300036F930B1009805EB400084800098401C63
:108D40000090641C142CF0D32C2269463046FDF7A9
:108D50008DFB0EB070BD2DE9F04117880646B81D99
:108D600014460D46984202D90C20BDE8F0813188A6
:108D7000072206290AD34FF4486C4FF6FF7361456A
:108D800001D9994202D17088062801D21046ECE739
:108D9000604501D99842F9D1994203D0984201D057
:108DA0008142F3D80520E85520881221401C80B26A
:108DB000208029542088401C80B2208041193088AE
:108DC00007F06AFB2188084480B22080411970882E
:108DD00007F062FB2188084420800020C5E7FEF7E9
:108DE00029B8000038B54A7A0F4B62B100220A72E6
:108DF0005969002906D001228DF80020ADF8020043
:108E00006846884738BD0A7A62B19B684C6802465A
:108E100019462046FEF758F80028F3D0BDE8384040
:108E200006F066BB5B68F1E710E60020F0B587B09E
:108E300016460F4604461D4618220B496846FDF7A4
:108E400015FB0A488DF80870ADF80240ADF80A60CD
:108E50008DF80C50017800222046FEF7B5FE6846DA
:108E600000F0A6FA07B0F0BDE40D0300ECE000202E
:108E7000FDF7E6BD70B588B0064600200590069067
:108E8000ADF81410ADF816100190029001AA05A9D2
:108E9000304690DF050021D003F072FD03461148F3
:108EA00011493246401AC108012000EB0140044636
:108EB0000E4903F05CF9BDF8042012B9BDF80600B4
:108EC00028B1BDF80630204609A103F050F9BDF8DD
:108ED00008201AB12046164903F042F908B0284686
:108EE00070BD00008C26030074260300AC14030040
:108EF0005468652072657175657374656420545893
:108F00002F5258207061636B6574206C656E6774B6
:108F10006820697320746F6F206C6F6E67206279B0
:108F20002025752F2575206F63746574732E0000DE
:108F3000F814030070B504460948012102F068F8EE
:108F4000BFF35F8F0025002808D1204601F00AFDFD
:108F5000002803D1BFF35F8F0148056070BD00009A
:108F60005CE000207FB50C4610B1012004B070BD5C
:108F70002079002638B141F61D5501281BD0022862
:108F800026D00F20F2E70220207102960396E068B7
:108F90000190694601A805F08FFF50B102988188C1
:108FA000E18000882081BDF80010029806F002F8E8
:108FB000DCE70A20DAE70A4B6A460021A01D05F02B
:108FC00037FF38B1064918398E61CE610A28CDD1F4
:108FD0002846CBE702488188019805F0EBFFF5E7CA
:108FE000C4E10020F0B587B00C46074616461421B0
:108FF00001A8FDF754FAA07800B901208DF81A00F5
:109000002088ADF8180006A80190A079694606F0FE
:10901000CBFC6D46E079691C06F0C6FCE0780028C0
:109020009DF8020002D040F0080001E020F00800A6
:109030008DF80200217911B140F0100001E020F01C
:1090400010008DF80200617911B140F0010001E0DB
:1090500020F001008DF80200217A09B1022100E020
:10906000012161F342008DF8020002956089ADF89C
:109070000C00A089ADF80E00E089ADF81000206961
:109080000590324601A93846ABDF07B0F0BD0000BD
:109090002DE9F0470025DFF88C803CE06068002176
:1090A00000EBC506012032789146FDF7CCF9D4E9F2
:1090B000062300EA020701EA030C57EA0C0728D04E
:1090C00082438B434846C4E9062303F073FD32789C
:1090D0008246914601200021FDF7B5F9D4E9042329
:1090E00000EA020401EA03074A4650460021FDF760
:1090F000AAF944404F403C430BD17078012801D07D
:10910000012100E00021726881EA0A010AB14846A3
:1091100090476D1CEDB298F8000044468542BDD3DF
:10912000BDE8F08778E1002010B50021024801F089
:109130006FFF80F3100010BDE8F200200E4910B55B
:109140000A784C780023A24212D0521CD2B20A7084
:10915000022A00D10B70084A0B780C3252F82320F7
:1091600002608868104420F07F408860012010BDB4
:109170000360002010BD000098E1002013460A465D
:109180000021FFF753BE00002DE9F843104D0F46B4
:1091900080461E4691466946286801F094FE040008
:1091A00014D01C21FDF77BF901202071C4F8149024
:1091B000380BC4F80080C4E902606946286801F0F1
:1091C000A3FE05F0A1FD0020BDE8F8830420FBE725
:1091D000D00E030010B503780022072B06D2DFE87B
:1091E00003F005040610202930000A7010BD012389
:1091F0000B7003898B818388CB81C06888600A7477
:1092000010BD02220A7002898A818288CA81C268DE
:109210008A60807D062802D00020087410BD0120DD
:10922000FBE703220A70C2888A810289CA81C0686A
:10923000886010BD04230B70C0888881CA818A6051
:1092400010BD0520087010BD70B5064D06460024FF
:1092500055F8241009B130468847641C042CF7D314
:1092600070BD0000A4EB002030B50446006887B054
:109270000D46806800281FD018216846FDF70FF9B9
:109280000195A0680590207910B1012810D107E060
:1092900001208DF8000020690290E068039005E04D
:1092A00002208DF80000E0680003029060690490DD
:1092B000206881686846884707B030BD2DE9F041D5
:1092C00086B016460C00804629D0112C27D0082CD9
:1092D00025D018216846FDF7E2F8ADF80280404637
:1092E00001F000F8ADF804001B481C490027401AA3
:1092F000C5080D2C16D0204603F042FB0246012083
:1093000000EB05404346164902F031FF07208DF877
:10931000000002948DF80C70684600F057F806B013
:10932000BDE8F081022000EB054042460D4902F005
:1093300017FF03208DF8000026B13078C00701D058
:10934000012000E002208DF8080041F201108DF8A4
:109350000C70ADF80A00DFE7BC260300742603009A
:10936000681E0300581D030010B50446408800F035
:10937000B9FFA080024801682046BDE810400847B8
:1093800058E000202DE9F04107460024064E074D25
:1093900005E000BF56F8241038468847641CE8787A
:1093A0008442F7DBBDE8F0813CE900207CE000204E
:1093B00010B50446408800F095FFA080024801687F
:1093C0002046BDE810400847980D03000149096890
:1093D00008470000240E030070B586B0044618212B
:1093E0006846FDF75CF8A0890125A0F54040ADF87E
:1093F00004002078324E062835D2DFE800F034032E
:1094000003032E4EA08900F08BF930B9E08943F6B2
:10941000FE71A0F54040884225D8A07B8DF8080059
:109420002078032811D000208DF80900A06803904F
:10943000606860B109208DF80000606804908DF8C4
:109440001450684604F010FA0DE00120ECE7082003
:109450008DF800008DF81050F3E7A08900F060F956
:1094600008B1E08930B17078002801D004F046FBE3
:1094700006B070BD606840B10B208DF800006068D8
:1094800002908DF80C507570DBE70A208DF8000013
:10949000BDF8040004F0D0FBF5E7606858B1142073
:1094A0008DF80000606802908DF80C504FF6FF7048
:1094B000ADF80400C5E713208DF80000F6E70000C2
:1094C00068E0002038B504460E480078A8B1A4F53D
:1094D0007F40FF380FD0684605F048FB78B1052182
:1094E000017001210171C480684605F04DFB05F053
:1094F000FDFB002038BD042038BD022038BD082007
:1095000038BD0000CCE100200C4808B5007888B1D7
:10951000684605F02BFB78B106210170684605F01E
:1095200033FB0748017809B10121017305F0DEFB27
:10953000002008BD022008BD082008BDCCE10020A5
:1095400068EC0020F0B587B014216846FCF7A7FF4F
:109550002B4C207818B16846FFF776FE4EE0201DB0
:1095600001F038FDB8BB4FF01020416900040269DA
:1095700040694B1C01D100FB02F12248002201612D
:10958000A1F54051C160204902F002F9002820D124
:109590001F481C238C221D49006801F081FC03F048
:1095A000F5FE051E14D0022812D000270126062D34
:1095B00012D005A805F0DAFA88B106700C2D18D281
:1095C000DFE805F0170F170F1716171617111311ED
:1095D0000B2007B0F0BD11E026706760BBE70820E4
:1095E000F7E7077105E0032100E00221017100E0C7
:1095F000067105A805F0C8FA05F078FB0020E8E739
:10960000CCE1002064E20020E00E0300B4EB002077
:10961000480E030038B5040014D0694605F04CFC30
:10962000A0B1BDF8000000EB8001094800EB81000B
:10963000C16849B1A17A39B1C168491EC160002031
:10964000A07238BD052038BD062038BD0A2038BDBF
:1096500040EC00201FB501A9684605F0E9FB04B005
:1096600010BD07B513460A466946002005F0E0FB29
:109670000EBD07B513460A460021684605F0D8FB23
:109680000EBD20B119B100680860002070470520A8
:1096900070470000F8B50D46040018D0BDB169460A
:1096A00005F00AFCA8B1BDF800000B4900EB8000F2
:1096B00001EB800001210C30666801F08EFC2E6009
:1096C00060680C3068600120A0720020F8BD0520A1
:1096D000F8BD0A20F8BD000040EC002018B10323BB
:1096E000002207F085B9052070470223002207F009
:1096F0007FB90000084910B50A69042A0AD0074A50
:10970000096942F8210004480121103001F065FC8C
:10971000002010BD0C2010BDACE10020A4EB002007
:1097200043F6FE71A0F54040884201D80120704701
:109730000020704710B504460078182802D1FEF7C3
:109740001FFA207010BD10B504460078182802D109
:10975000FEF716FA207010BD70B50D460446B0F83D
:109760003812D0F834020122FDF7AEFE00B10570C8
:1097700004F13C0204F50D7104F1540072DF70BD78
:1097800070B5134600220546112900D10122074C6D
:1097900033B12179FEF718FA00226178284600E0FB
:1097A0006178BDE87040FEF70FBA0000F4E00020D9
:1097B000F7B517460E0011D00098002560B10024BF
:1097C0002146684601F0EBFB18B1A0B23946B0471C
:1097D0006D1C641C142CF3D32846FEBD0020FEBD76
:1097E000406805F0E3B900000EB516A19DF8080029
:1097F00020F00F00401C20F0F00010308DF8080021
:10980000382202A87CDF08B1FDF714FB4FF4886012
:1098100078DF08B1FDF70EFB00204FF4C87100900F
:109820000190ADF80400ADF800104A00ADF8022038
:10983000ADF8061068467ADF002801D0FDF7FAFA85
:109840000EBD00006E52462052756E6E696E672026
:10985000537065656420616E6420436164656E6366
:10986000652053656E736F72204578616D706C650D
:10987000204170706C69636174696F6E0000000054
:1098800070B508B1012070BD1B4C0025207B08B1CC
:10989000257301E000F0A4F8207808282AD2DFE838
:1098A00000F02904080C10291422BDE8704000F0D3
:1098B00025B8BDE8704000F081B8BDE8704000F008
:1098C00063B8BDE8704000F03FB8062020706088A3
:1098D000094900EB8000283901EB80004068BDE8B1
:1098E000704003F033BD072020706560BDE8704014
:1098F00003F03ABD0F2070BD68EC00201149F0B4B0
:109900008A1C00200346A1F128050C18A67A4EB146
:10991000A37200EB800405EB8404E66816B9247C8E
:10992000012C0AD0401C80B20228EED30B704B8071
:109930004B60F0BC41F61D5070471080F0BC00F049
:109940003DB8000068EC00200C48418801EB810222
:10995000A0F1280101EB8201CA6852B10521017012
:10996000074802218180016800230122054801F097
:1099700073BE042202704968F6E7000068EC00201C
:10998000D4E1002064E2002038B50A4908480324E5
:109990000B684268898803EB810153880470DB1CE3
:1099A00000201B0400909B0B034801F0A9FF38BD69
:1099B00068EC0020D4E1002064E20020074910B5E3
:1099C0004888091D05F0C8FA18B1BDE81040FFF736
:1099D000DBBFBDE81040FFF7B7BF000068EC002018
:1099E000F0B51F481F490125067802248B88A0F195
:1099F0002802082E19D2DFE806F00418181B222FBF
:109A00002F170189491C01810021418080F80C1029
:109A100001EB810312F8233043B100234418491CA1
:109A200089B2A3720229F3D30570F0BD0123F5E7D3
:109A300042685288D21C1A448A800470F0BD46885D
:109A40000D6806EB860602EB860256680E605560CE
:109A500013818C80062100E007210170F0BD000019
:109A600068EC0020D4E100202DE9F0410446808814
:109A70002188394E86B00746352937D0502923D062
:109A8000522902D054295DD102E000F00FFF59E0C5
:109A9000182232496846FCF7E9FCADF802703846F6
:109AA00000F020FCADF8040000F09CF900223179B0
:109AB0003846FEF789F80022F1783846FEF784F838
:109AC0006846FFF751FC3DE0207B01283AD1A07A9F
:109AD000012837D12089A0F52451023932D1012142
:109AE000384600F037FF06F047FD2BE04FF0000846
:109AF00042467179FEF768F8E288B2F5857F1DD09D
:109B000017481849401AC008022101EB004512B15C
:109B1000284615A10BE06289012A03D0284621A11D
:109B200002F01EFBA289012A04D028462CA102F0D3
:109B300017FB03E0A07B00B1012080464146384678
:109B400006F0E6F900223549B078FDF7CFFF06B000
:109B5000BDE8F04105F090BD50E00020D80C0300B6
:109B60007426030074260300556E6578706563746F
:109B70006564204741545420737461747573207771
:109B800068696C652067657474696E67204341522B
:109B900020636861722076616C75653A20307825A3
:109BA000780000004D756C7469706C652028256420
:109BB0002920434152206368617261637465726950
:109BC000737469637320666F756E642C2075736996
:109BD0006E67207468652066697273742E000000D9
:109BE000556E6578706563746564204341522063E7
:109BF0006861726163746572697374696320766108
:109C00006C7565206C656E67746820282564292C46
:109C10002073746F726520302E000000D97002002E
:109C200070B504460078002814D1608800F03EFE2C
:109C30006588284600F098F928B107480122C178C4
:109C40002846FDF7C1FF6088FEF774FEBDE870404E
:109C500006F092BC70BD000050E0002070B51A4CB8
:109C600000252570FDF78CFF6070FDF789FFA0705F
:109C7000FDF786FFE070FDF783FF2071FDF780FFA1
:109C8000607162780121182A12D0A278182A0FD0A8
:109C9000E278182A0CD02279182A09D0182807D07F
:109CA00004F10C000560BFF35F8F2170002070BDD0
:109CB0000648074A801AC00801EB0040054902F037
:109CC0004BFA032070BD000050E000207426030012
:109CD00074260300C41103007CB5044600780828EC
:109CE00037D1607A58BB207A1C4E4FF6FF75012899
:109CF00011D0072802D008282BD121E0A08800F03D
:109D00003BFA0446A84224D0012100F023FE20465D
:109D1000FEF710FE1DE0A0886A46012103F0C6FC94
:109D200068B90198007850B1A08800F025FAA842DF
:109D30000FD00122F178FDF747FF05F09DFC08E008
:109D4000F068012805D1BFF35F8F044900200C3172
:109D50000860BDE87C4006F00FBC000050E0002029
:109D60002DE9F0418046024601200021FCF76BFB03
:109D70001A4F05460E467868FDF7EAF800280CD120
:109D8000174CD4E9062110462A4001EA06031A437B
:109D900005D0A843B143C4E90601BDE8F0814046BF
:109DA00002F008FF30B1D4E9040128433143C4E98B
:109DB000040105E0D4E90410A943B043C4E9041048
:109DC000D4E9060128433143C4E90601A168786853
:109DD000BDE8F0410022FDF777B80000380E03001F
:109DE00078E100201CB5054AD2E90212CDE9001243
:109DF0000022694603F020FE1CBD0000F40C0300A5
:109E000003484FF6FF7181800121017000207047E7
:109E100060E000202DE9FC41804600F063FA002458
:109E200003250127A0F57F412646FF3908D06A4661
:109E3000082103F03BFC18B90198841D8688056849
:109E400032462B4621464046B1DF042804D008287C
:109E500004D00B2808D002E0112000E00020002FE1
:109E600000D10B20BDE8FC810027A80701D5012502
:109E7000E6E7344303D0002426460325E0E70648FE
:109E800006494246401AC008012101EB004004493E
:109E900002F066F9E5E700007C2603007426030063
:109EA000341403002DE9FC41804600F01BFAA0F5B4
:109EB0007F410646FF390ED001252A466D1C00273A
:109EC000ADB26B460821304603F03AFC040006D0E0
:109ED000072C33D033E043F20200BDE8FC81019946
:109EE00003230A1D0B604046891DB2DF040004D025
:109EF0000C2C09D0052C09D009E032460821104667
:109F000003F096FC04461AE0012700E00024082133
:109F1000304603F083FC70B102F032FD034609487D
:109F200009493246401AC008012101EB00400749A7
:109F300002F01DF90324002FBFD100E00C242046BD
:109F4000CBE700007C26030074260300B413030053
:109F500004488088A0F57F41FF3901D005F096BB09
:109F60007047000060E000200EB502A9019100F0EA
:109F7000B9F96A46012103F099FB08B100200EBD32
:109F8000019800780EBD00002DE9F04107464FF61C
:109F9000FF761048B3DF78B102F0F2FC02460E48BB
:109FA0000E49401AC008012101EB00400C4902F0A3
:109FB000D7F80320BDE8F081064C43F20305A41E48
:109FC000324661883846AFDFA842F3D16088401C32
:109FD0006080F5E762E000207C2603007426030021
:109FE00068130300428800EB82020C328A4201D9D6
:109FF000022070478188A1F57F42FF3A03D0008894
:10A0000008B10020704701207047884204D20068E0
:10A01000401C01D001207047002070473EB50278F7
:10A0200002230C46B3EB520F17D1B0F80110ADF874
:10A030000010C1788DF802108188ADF80410807985
:10A040008DF8060002AA01A92046FCF731FE032282
:10A0500002A96846FCF735FA08B100203EBD012090
:10A060003EBD000070B50D460446142810D2FDF721
:10A07000CBFD68B1084904EB840001EB4000D0F847
:10A0800002102960C188A980007AA871002070BDE3
:10A0900043F2020070BD0000A4E6002070B5018804
:10A0A00092B0102961D1011D2C226846FCF7DEF91F
:10A0B0009DF804004FF6FF7603213446B1EB500FB4
:10A0C0002BD003F077FC9DF804006D4640080ED0BD
:10A0D00001280CD0022820D118E00D99281D11313B
:10A0E000FCF74CFD18B100BFBDF82C4015E00CAAE0
:10A0F0000BA9072003F032FC0028EED10DE00D99EA
:10A10000281D491CFFF78AFF0028EDD10CAA0BA9D6
:10A11000072003F023FC0028F1D1BDF80000B44271
:10A1200000EB8001124820F8114000EB410001993A
:10A13000C0F80210BDF80810C1809DF80A10017225
:10A1400013D0BDF80000ADF82E000020ADF830406F
:10A15000084E8DF82C000BAD044600BF56F82410B5
:10A1600028468847641C022CF8D312B070BD00004A
:10A17000A4E60020080D03002DE9F0414FF6FF761C
:10A180000546B04213D00B4F002400BF04EB8400FF
:10A1900037F81000A84206D12046FDF735FD10B172
:10A1A0002046BDE8F081641CA4B2142CEED33046E6
:10A1B000F7E70000A4E600203EB50C46054603F094
:10A1C000F9FB0BE0BDF80000A04207D02846029939
:10A1D00000F00EF810B1BDF800003EBD01AA6946BE
:10A1E000072003F0BBFB0028ECD14FF6FF703EBD0B
:10A1F0002DE9F0410C46054600F1110701F1110669
:10A200001022491C401CFCF75CF948B9681C00F09E
:10A21000F9F928B1601C00F0F5F908B1012400E05B
:10A22000002431463846FCF7A9FC3B780222B2EB09
:10A23000530F0CD00321B1EB530F08D03378B2EB9E
:10A24000530F04D0B1EB530F01D0012100E00021E6
:10A25000084201D18C4302D00120BDE8F0810020EA
:10A26000FBE7018811B9421892780AB101207047C2
:10A27000491C0829F7D30020704710B50C46034647
:10A28000FFF7EFFF00280AD018882188884205D1FF
:10A290000822A11C981CFCF714F908B1002010BD7D
:10A2A000012010BD142804D2024A00EB800022F8DD
:10A2B00010107047A4E6002070B50546FFF75CFF5C
:10A2C0000446284603F0F6F9002808D1142C06D2DB
:10A2D000034B04EB84024FF6FF7123F8121070BD9C
:10A2E000A4E6002010B50446142808D2FDF78CFC23
:10A2F00028B1044904EB840031F8100010BD4FF67A
:10A30000FF7010BDA4E600203EB5044603F052FBEA
:10A310000EE0019920464631FFF7AFFF28B90199B9
:10A3200020462A31FFF7A9FF10B1BDF808003EBD55
:10A330006A4602A9072003F011FB0028E9D14FF675
:10A34000FF703EBD10B50A4941600A4800F042FE68
:10A3500058B902F09FFA07491C238C22087404485C
:10A360008C39001F006800F09BFD002010BD00002C
:10A37000D40E030014ED00202DE9F0412D4F0025EF
:10A3800018B17D600120BDE8F0810879012258B143
:10A39000294E01280CD0274C4FF00208083402281F
:10A3A00021D0032842D128E00A7102F0DDFF3BE012
:10A3B0005FF0000000EB800116F82110022908D0A0
:10A3C000401C80B20228F5D33A707D6041F61D50E2
:10A3D000D9E700EB800006F8205006EB80004068CB
:10A3E00002F0B4FF20E00D71A4F8048000230122E4
:10A3F0001248216801F030F916E00D71206802F072
:10A40000A5FF0D4923682831498801EB810206EB3D
:10A410008201D1F804C0C4F800C04B60A3880B814E
:10A42000A4F8048006F822500028ACD07D600E20ED
:10A43000A9E70000CCE1002040EC002064E200200D
:10A440000146034802888A4200D00020704700007D
:10A45000FCE500202DE9FC5F0E008346DDE90C479A
:10A46000C6F1000098469246814600D40846012570
:10A4700003E000BF90FBFAF06D1C5045FADAA845E6
:10A4800000D9454624B1002E01DB780700D5641EB3
:10A49000B80702D5B8F1000F0AD0F80708D13CB1CF
:10A4A000A54205D220215846641EFEF725FAF6E79C
:10A4B000002E02DA4E462D2102E0780703D52B212B
:10A4C0005846FEF719FA07F0030002280BD1B8F13D
:10A4D000000F08D13CB1A54205D230215846641E78
:10A4E000FEF70AFAF6E7CDE9004743465246314601
:10A4F000584605F0E7FFBDE8FC9F000070B50D462B
:10A50000044600684FF4887102F05AFA4FF49071D3
:10A51000206802F055FA4FF49271206802F050FA68
:10A520004FF4A271206802F04BFA20681249C0F87B
:10A5300004132068690740F30730090E002806DA83
:10A5400000F00F0000F1E02080F8141D03E000F19E
:10A55000E02080F800142068012140F3073000F06B
:10A560001F0291404009800000F1E020C0F88012F5
:10A57000C0F8001170BD0000100302000246002068
:10A580001268530713D502F00300012802D00228F5
:10A590000CD105E0C2F383100B68801C184404E062
:10A5A0000223086803EB92521044086001207047B0
:10A5B0000248007A002800D00120704714ED0020E6
:10A5C000F0B58488A518944200D82246A41AC288FF
:10A5D000D6189A4200D81346D21A4B880788BB4235
:10A5E0000CD34088834209D88888A04206D3A84269
:10A5F00004D8C888904201D3B04201D90020F0BDF0
:10A600000120F0BD0021425C0AB101207047491CC5
:10A610001029F8D300207047800701D00020704730
:10A62000012070470A4810B5807860B1002401E02D
:10A63000022C06D02046FDF7CFFE641C042CF7D375
:10A6400010BD0324F6E7BDE81040FDF7E9BE0000A9
:10A6500030E0002003480179C90702D00078FEF7F6
:10A660001BB8704730E00020172101804180002195
:10A67000017141711B218171C17170472DE9FE4F3C
:10A680002E4F984692460D00814601D000260DE0DF
:10A69000684600F0DBFB6A460021484602F05EFF98
:10A6A0003878009E10B99DF8090098B1524631469D
:10A6B000484605F007FB0446014600224846FFF7DE
:10A6C0005FF80D2C37D008DCA4B3082C33D00B2C4A
:10A6D00009D130E00520BDE8FE8F112C1ED0A4F575
:10A6E0004050023827D0204602F04AF9024614486A
:10A6F00014494B46401AC008012101EB00401249A1
:10A7000001F035FD5FF00305B8F1000F04D03246CB
:10A7100021464846FEF7D2FD2846DCE72A46F9786E
:10A720004846FDF751FA5246B9784846FDF74CFACB
:10A730000025E9E7FFE72546E6E70000F4E0002012
:10A74000BC26030074260300101E030070B50E46DD
:10A750000C49154604460978FDF71EFA00280FD06B
:10A76000204602F0A1FE00282A463146204603D0AA
:10A77000BDE8704002F09EBEBDE87040FEF7FEBC32
:10A7800070BD0000ECE0002070B5094D0646A978C8
:10A79000FDF702FA0446E9783046FDF7FDF9014677
:10A7A00022463046BDE870400123FFF767BF000036
:10A7B000F4E000202DE9F047394E002780463D4661
:10A7C000DFF8E090D6F804A057E003D00446D0F8B4
:10A7D0001C8035E099F8002002EB4201521CD2B2F5
:10A7E00089F8002009EBC10199F80230091D9A424D
:10A7F00001D189F8005048680A780446012A12D02D
:10A80000022A02D0032A3BD108E005F02DFC00B15A
:10A810000127257434E00574C06900E070680028E1
:10A82000F9D170602CE0207C50BB88686060C868FB
:10A83000A0600869E0604869A061F07800B16560D7
:10A840006268B168184B501A20F07F40984202D2DB
:10A85000A168084406E0881AA16820F07F40814280
:10A8600002D9081A206000E0256065600120A5601B
:10A8700020742046E56105F0D9FBB8F10000A4D1B1
:10A8800099F8001099F801008142A3D117B97168B5
:10A89000514502D00120BDE8F0870020FBE7000011
:10A8A00098E1002070EA0020FFFF7F00F0B587B03C
:10A8B0000546002718216846FBF7F1FDA5F57F4006
:10A8C000ADF80250FF3825D02846FFF7A3FA040060
:10A8D00022D01B481B49401AC6080B2C22D0112C31
:10A8E0001ED0A4F5405002380ED0204602F048F8A1
:10A8F0000246012000EB06402B46134901F037FCCD
:10A900002146284604F0FCFD10483A468178284646
:10A91000FDF75AF907B0F0BD0E208DF800000BE0EE
:10A920000127F1E70F208DF80000022000EB064020
:10A930002A46074901F014FC6846FEF715FDE3E7D7
:10A9400074260300742603009412030050E00020D4
:10A95000E81203000A4602494978FDF735B90000BC
:10A9600050E000202DE9F041002786B080463E46A9
:10A97000FFF798FA040022D0112C22D01B481C4962
:10A98000401AC508862C1ED0A4F5405002380ED0BF
:10A99000204601F0F5FF0246012000EB054043464A
:10A9A00014A101F0E4FB2146404604F0A9FD39461C
:10A9B0004046FFF7CFFF06B03046BDE8F0810126E4
:10A9C000F5E70127F3E718221A496846FBF74EFD21
:10A9D0000220ADF8028000EB0540424616A101F0CE
:10A9E000BFFB6846FEF7C0FCE1E7000074260300E9
:10A9F000742603006773636D5F6C6F63616C5F64E3
:10AA0000625F63616368655F75706461746528295E
:10AA10002072657475726E656420257320666F728E
:10AA200020636F6E6E5F68616E646C653A202564AA
:10AA300000000000A80C0300466C61736820667576
:10AA40006C6C2E20436F756C64206E6F7420737471
:10AA50006F7265206461746120666F7220636F6E2F
:10AA60006E5F68616E646C653A20256400000000CA
:10AA70002DE9FF410026234800F0A9FA2148001FD4
:10AA8000074600F0A4FA204C60680090A56800E03A
:10AA900000986946284004EB80000C30FFF76EFDFB
:10AAA0000028F5D101AA009901EA050304EB83030C
:10AAB000491CDB6842F82030401C00910228F2D388
:10AAC000019800F0030001280BD0022810D1019852
:10AAD000032101EB90500099BDF80A6001EB900052
:10AAE00005E00198BDF80A60C0F3831008440090A7
:10AAF000384600F069FA08B10098606004B030464A
:10AB0000BDE8F081E4F20020CCEE00204FF40045D7
:10AB100088B02946002001F09BFB08B1FCF78AF9B8
:10AB200001F0F2F9FCF7A6F908B1FCF783F9424A03
:10AB300001214248FCF78AF908B1FCF77BF93F484C
:10AB40003F4A0121001DFCF781F908B1FCF772F9B9
:10AB50003C490320FDF756FD08B1FCF76BF9694647
:10AB60000020FDF781FC08B1FCF764F99DF80000B6
:10AB700002285ED05FF0000401F080FC08B1FCF711
:10AB800059F9FDF79BFBFEF72FFE00212E4800F040
:10AB9000B4FA08B1FCF74EF9FCF730F804F056FEB1
:10ABA00004F0D6FC1C216846FBF779FC00204FF42A
:10ABB0002031CDE900014FF4702102912249032692
:10ABC0001C398DF80C6049898DF810001F480590DC
:10ABD0001F480690ADF80E106846FCF73DFF08B11F
:10ABE000FCF728F903F06EF81A481B49401AC00810
:10ABF00006EB004019A101F0AFFA104E00224FF40D
:10AC000080313068FCF760F908B1FCF713F9294688
:10AC100000227068FCF758F908B1FCF70BF92046E0
:10AC2000FCF720F801F07EF90028FBD101F03AFC96
:10AC3000F8E70124A0E70000F9720200400C0300CD
:10AC400001F002005D850200D8E2002031D102004F
:10AC5000DF8D02000C2703007426030052756E6E10
:10AC6000696E6720537065656420616E642043617E
:10AC700064656E6365206578616D706C65207374C2
:10AC800061727465642E000070B5144682880E46A9
:10AC900005462088111D0144921C994201D8FE2AC4
:10ACA00001D90C2070BD521C32542088FF21401C59
:10ACB00080B2208031542088401C80B220808119CD
:10ACC000288805F0E9FB2188084480B22080AA8802
:10ACD00042B1A96841B13044FBF7C8FB2088A9887C
:10ACE00008442080002070BD072070BD2DE9F0478A
:10ACF000C5881E1DB6FBF5F78946B6FBF5F104467F
:10AD000005FB176C407916686843DDF820A0F7183A
:10AD1000001F874200D9C61A166001E02468491E48
:10AD20000029FBD1A5EB0C078846B74216D818E0DE
:10AD300004EB0C00001D09EB0803BAF1000F3A46C2
:10AD400002D00146184600E01946FBF78FFB246845
:10AD5000F61B4FF0000CB844B54201D9374600E06D
:10AD60002F46002EE4D1BDE8F087000030B5024642
:10AD700051B101F08BFA0021074C08E034F8213082
:10AD80001568AB4202D11160002030BD491C8142E0
:10AD9000F4D3052030BD000000000000BFF35F8F3A
:10ADA00000F0FDB8F8B50F460178144605460129B4
:10ADB00001D1687830B12088821C9A4232D80129AA
:10ADC00002D006E00720F8BD69780144891C994249
:10ADD00028D8181A801E86B2ADF800602188B81CE9
:10ADE000084469467DDF0028EDD12978022904D086
:10ADF0006878BDF80020904205D3BDF80000B0424D
:10AE000001D809200AE00820012905D16978B1425A
:10AE100002D8ADF8001001E0ADF80060BDF80010F8
:10AE2000FE2901D90C20F8BD2288491CB95421887B
:10AE3000491C89B2218078542088401C2080BDF8AC
:10AE40000010084420800020F8BD0000034A0021C3
:10AE50009268C0E90021816070470000F4E00020A2
:10AE600070B54FF6FF750E46A84201D1002000E0F4
:10AE7000401C84B208E02146304600F090F808B14A
:10AE8000204670BD641CA4B2FF2CF4D9284670BDC6
:10AE900010B5FBF70AFA08B1002010BD112010BD53
:10AEA00010B531B1B2FBF3F403FB14241CB109203B
:10AEB00010BD0E2010BD01600021416081608281C3
:10AEC000C381084610BD70B50C460546FBF7A2F9D4
:10AED000002802D021882868084470BD10B50A886F
:10AEE00049888A4203D1FBF7D7F9012010BD002021
:10AEF00010BD70B50C460546FBF7B1F9002802D02D
:10AF000061882868084470BD10B50A8849888A425B
:10AF100003D1FBF79BF9012010BD002010BD01F00B
:10AF20001F0301229A40D243490900EB81001146D8
:10AF300000F059B80A4601F01F030121994010B5ED
:10AF400052090C4600EB820000F05DF8204000D072
:10AF5000012010BD2DE9F04180460D460024481E19
:10AF6000012101EB501716E058F82400C04390FA75
:10AF7000A0F0B0FA80F020280CD200EB4416AE42CC
:10AF800008D231464046FFF7D5FF0028ECD13046C5
:10AF9000BDE8F081641CA742E6D82846F8E74A09D4
:10AFA00050F8220001F01F0201219140084000D01A
:10AFB0000120704701F01F0301229A40490900EB6C
:10AFC0008100114600F029B8002100F017B80121D6
:10AFD00000F023B8012100F016B808B56A46FBF767
:10AFE000B0F9009808BD08B56A46FBF790F90098DB
:10AFF00008BD08B56A46FBF7A4F908BD08B56A465E
:10B00000FBF785F908BD08B56A46FBF773F908BD7B
:10B0100008B56A46FBF762F908BD08B56A46FBF752
:10B0200069F9009808BD08B56A46FBF797F90098DA
:10B0300008BD38B5044600258DF800506846FBF77A
:10B0400097FF21686268086890420ED9401E086028
:10B050000178238AE26801FB0325227A2168101A0D
:10B06000C0B20A79824200D208719DF80000FBF755
:10B07000A3FF284638BD38B5054600208DF80000EE
:10B080000C466846FBF774FFE868298A201AB0FB73
:10B09000F1F12A681068431C136001709DF80000EC
:10B0A000FBF78AFF38BD10B530B1017A42680368FA
:10B0B000891AC9B21A6006E00E2010BD03681A682A
:10B0C000541C1C601170491EC9B2F7D200680021DF
:10B0D0000171084610BDC20800F007030120895C19
:10B0E00098400840704710B5C20800F00703885C1C
:10B0F00001249C402043885410BD10B560B101610B
:10B10000172120F8021B20F8021B1B2100F8021B4C
:10B11000FFF7AAFA002010BD0E2010BDF0B58588FB
:10B1200093B00C46002D39D1018800263F4F2429C9
:10B130003BD006DC102909D011290CD0232958D185
:10B140004FE03A290BD0552953D129E0014620463A
:10B1500001F0FCFF4DE0A01DFFF786FA49E0224612
:10B16000408934F8061F814200D8084660801728BD
:10B1700000D217206080106970B1607960B1D7E9A2
:10B180000001CDE90301ADF80E506088ADF8100064
:10B19000136903A9104698476671267113B0F0BD74
:10B1A0000146204602F026F823E0011D2C2206A8C5
:10B1B000FBF75CF9BDF81800BDF81C2004EBC001DA
:10B1C0004A732269AAB1D7E90423CDE90423ADF873
:10B1D0001200487B8DF814002269204604A990478C
:10B1E00007E0017A207B884200D201462846FDF71D
:10B1F00041FEA07A0028D1D0E1882846A5DF0125AC
:10B2000080B11128CAD001F0BBFB024608480949A9
:10B2100013B0401AC00805EB0040BDE8F04006A19D
:10B2200000F09EBFA672E572B8E70000100D0300A3
:10B230008C2603007426030073645F626C655F678D
:10B24000617474635F65786368616E67655F6D7470
:10B25000755F7265717565737428292072657475E0
:10B26000726E65642025732E0000000020B1027804
:10B27000DE2A03D0082070470E207047418000204E
:10B28000704760B159B10278DE2A0AD0096841607E
:10B29000DE2101704FF6FF714180002070470E20C3
:10B2A0007047082070477FB5054600294DD0002D16
:10B2B0004BD008780C46DE2847D1A88861888842A0
:10B2C00002D1204605F0B6F92888012825D00228A9
:10B2D0003BD011283AD0512837D135F8040F618876
:10B2E000884232D1A978A81C02292ED1017A0429DA
:10B2F00003D0062901D0052927D10021009102227F
:10B300008DF8002001914FF4C07202910391ADF8C5
:10B310000420007A05280FD010E0297A2046012960
:10B3200013D1A988428891420FD10121017204B042
:10B33000BDE8704005F07EB9ADF804102888694674
:10B34000B0DF002801D0616888477FBDA888618888
:10B350008842FAD14FF6FF7060807FBD00F18040D7
:10B360000068002800D00120704708B500F1804037
:10B37000002101600068009008BD000070B50B4C12
:10B38000207808B185250FE00020A0606060206172
:10B39000E060074801F032FB054601F07BFA08B98E
:10B3A00001F014FB01202070284670BD88E90020C0
:10B3B000518C020038B500258DF800506846FBF727
:10B3C000D7FD074CE068401EE060E06810B901F06E
:10B3D00025FBA5709DF80000FBF7EEFD38BD0000D1
:10B3E00088E90020F0B505460478154889B016466E
:10B3F00040F82420124A08690832A2F10C0742F8EA
:10B400002400487F385520226846FBF72FF8049423
:10B410002878385C48B10EB10A4A00E0002269463B
:10B42000281D01F077FD09B0F0BD0EB1064A00E01D
:10B430000022694605F10C0001F03EFCF3E7000034
:10B4400058E1002075030300C10103000FB408B5E3
:10B450000399002904D004AA00926A4600F00FF86C
:10B4600001B05DF814FB10B582680446002A05D0CF
:10B47000D4E90403216898470020A06010BD2DE99D
:10B48000FC4791460C00804676D014F8011B39B178
:10B4900025290ED04046FDF72FFA20780028F4D158
:10B4A00098F80C00002867D04046BDE8FC47FFF73D
:10B4B000DABF0020012221782B291BD02D2902D0B0
:10B4C000302908D102E040F0010001E040F0020024
:10B4D000641C002AEFD100252A290ED02178A1F181
:10B4E00030020A2A11D205EB850201EB4205641CE9
:10B4F000303DF1E740F00400EAE7D9F800100B1DF9
:10B50000C9F800300968641C0D44217800232E29F5
:10B510000BD114F8011FA1F130020A2A05D203EB66
:10B52000830201EB4203303BF3E76C290DD068291D
:10B530000BD0692921D00BDC252918D0582931D00E
:10B5400063290ED0642915D117E014F8011FECE728
:10B55000702969D0732932D075291BD0782909D177
:10B5600020E0D9F80000011DC9F80010017840461C
:10B57000FDF7C2F9641C90E76CE0D9F800100A1DD1
:10B58000C9F800200968CDE900500A224046FEF7BC
:10B5900061FFEFE7D9F800100A1DC9F8002009681B
:10B5A0000A2206E0D9F800100A1DC9F8002009682F
:10B5B0001022CDE90050404604F084FFDAE7D9F8C4
:10B5C000001000270A1DC9F800200E68C00705D129
:10B5D00012E04046761C7F1CFDF78EF93178002979
:10B5E000F7D104E0202140466D1EFDF785F9BD42EC
:10B5F000C0D9002DF6D1BDE74EB13046FAF75AFF5B
:10B60000074604E0202140466D1EFDF775F9BD4256
:10B6100006D9002DF6D103E04046761CFDF76CF903
:10B6200031780029F8D1A5E7D9F80000011DC9F843
:10B630000010056830214046FDF75EF9782140464C
:10B64000FDF75AF908200021CDE900010346102238
:10B650002946B0E7BDE8FC872DE9F8438846050098
:10B660002C482D499946A0EB01004FEAD0004FF03D
:10B670000101164601EB004424D0286800282CD094
:10B68000002E34D0696840464FF010070A68511EFA
:10B6900011EA080F11D1014672432846FBF787FAD9
:10B6A00000282ED028684B463246046901B0414636
:10B6B0002846A446BDE8F04360472046174B18A231
:10B6C000009722E00E2000902046144B1EA220A1DD
:10B6D00000F055FD0E20BDE8F883082000902046BC
:10B6E0000E4B26A21AA100F04AFD0820F3E709201C
:10B6F00000902046094B24A215A100F040FD09202E
:10B70000E9E7064B214A2046009711A100F037FDDA
:10B710001020E0E7FC26030074260300BB0E0300A4
:10B72000616464725F69735F706167655F616C69B2
:10B73000676E656428705F66732C20706167655F53
:10B740006164647229000000705F6673000000008D
:10B75000257320636865636B206661696C6564208E
:10B76000696E202573282920776974682076616CBA
:10B77000756520307825782E00000000705F6673B4
:10B780002D3E705F617069006C656E00D41E030011
:10B7900038B503001148124D4FF00E04A0EB050020
:10B7A0004FEAD0004FF0010505EB004009D061B130
:10B7B00019600C6801B0A446BDE830401146184637
:10B7C0006047084B08A2009402E0064B08A20094D0
:10B7D00009A100F0D4FC0E2038BD0000FC260300B7
:10B7E00074260300700E0300705F66730000000093
:10B7F000705F617069000000257320636865636B8A
:10B80000206661696C656420696E20257328292093
:10B81000776974682076616C756520307825782E9C
:10B8200000000000044801214174007A08B10020A2
:10B83000704701207047000014ED0020012801D05E
:10B84000032808D10449002201284A7400D00020AE
:10B85000087403F0FBB9704714ED002070B5024680
:10B86000022801D0032A45D1234C207A002841D058
:10B87000012833D0022831D120480023022A006851
:10B8800002D0032A2AD11BE0E360017911B101291A
:10B8900024D10DE0D0E90565711B4FF48056B1420B
:10B8A00000D33146294481614569A9420ED015E093
:10B8B0000169491C0161426991420FD1237213E071
:10B8C000E168491CE160082908D9E3602372022A73
:10B8D0000AD00D21FDF7C8FC03F05EF9607C28B1A9
:10B8E000BDE8704000F0DCBF0021F3E7BDE8704028
:10B8F00003F0ACB970BD000014ED0020DCE10020C5
:10B900002DE9F84F90468A463A493B4A0500A1EB9B
:10B9100002014FEAD1014FF00102DDF828901E46E6
:10B920004FF00E0002EB01441AD0B8F1000F1CD00A
:10B930002868002822D00920002E29D0696849688B
:10B94000B6FBF1F201FB1261002926D000902B4BCF
:10B9500020462BA235A100F012FC0920BDE8F88F8B
:10B9600000902046254B3CA203E00090234B20464C
:10B970003BA22EA100F003FC0E20EFE70820009070
:10B9800020461E4B38A229A100F0F9FB0820E5E76C
:10B9900000902046194B37A2DCE75046FBF701F92F
:10B9A000102798B14046FBF7FCF8A0B1324651464B
:10B9B0002846FBF7FCF898B1CDF80090286833468C
:10B9C0004246C46851462846A047C7E720460B4B6D
:10B9D00029A2009708E02046084B2DA2009703E01B
:10B9E000064B204633A2009710A100F0C8FB1020A0
:10B9F000B4E70000FC26030074260300A80E030031
:10BA000021286C656E202520705F66732D3E705F67
:10BA1000666C6173685F696E666F2D3E70726F67EA
:10BA200072616D5F756E6974290000002573206373
:10BA30006865636B206661696C656420696E2025AA
:10BA400073282920776974682076616C75652030C9
:10BA50007825782E00000000705F667300000000FB
:10BA6000705F737263000000705F66732D3E705FDD
:10BA7000617069006C656E00616464725F69735F18
:10BA8000616C69676E65643332286465737429007C
:10BA9000616464725F69735F616C69676E6564336A
:10BAA00032282875696E7433325F7429705F73723F
:10BAB00063290000616464725F69735F7769746809
:10BAC000696E5F626F756E647328705F66732C2099
:10BAD000646573742C206C656E2900002DE9FF41AC
