:020000040002F8
:10600000B0120120C1630200C9630200CB63020029
:10601000CD630200CF630200D163020000000000E4
:10602000000000000000000000000000D363020038
:10603000D563020000000000D7630200D9630200AC
:1060400091670200DB630200F1690200DB6302007A
:10605000DB630200DB63020079650200DB630200A0
:10606000DB630200DB630200DB630200DB63020030
:10607000DB630200DB630200DB630200DB63020020
:10608000DB630200E9670200DB630200DB630200FE
:106090000D680200DB63020011680200DB6302008E
:1060A000DB630200DB630200DB630200DB630200F0
:1060B000DB630200DB630200000000000000000060
:1060C000DB630200DB630200DB630200DB630200D0
:1060D000DB630200DB630200DB630200DB630200C0
:1060E000DB630200DB630200DB63020000000000F0
:1060F00000000000DB63020000000000DB63020020
:10610000000000000000000000000000000000008F
:10611000000000000000000000000000000000007F
:10612000000000000000000000000000000000006F
:10613000000000000000000000000000000000005F
:10614000000000000000000000000000000000004F
:10615000000000000000000000000000000000003F
:10616000000000000000000000000000000000002F
:10617000000000000000000000000000000000001F
:10618000000000000000000000000000000000000F
:1061900000000000000000000000000000000000FF
:1061A00000000000000000000000000000000000EF
:1061B00000000000000000000000000000000000DF
:1061C00000000000000000000000000000000000CF
:1061D00000000000000000000000000000000000BF
:1061E00000000000000000000000000000000000AF
:1061F000000000000000000000000000000000009F
:10620000DFF80CD000F07AF9004800474DAB0200EF
:10621000B012012030B450E8012F93B2C489234456
:106220008489A34228BF1B1B0489A34202BFBFF37A
:106230002F8F002007E0C3EA020340E80134002C5E
:10624000E9D14FF001000A6030BC704750E8012FDF
:10625000C2EA024240E801210029F7D1704730B478
:1062600050E8022F1FFAA2F3C488A34202BFBFF373
:106270002F8F00200DE0C48923448489A34228BFC6
:106280001B1BC2EA034340E80234002CE8D14FF064
:1062900001000A6030BC704750E8022FC2EA224277
:1062A00040E802210029F7D17047034653E8022F46
:1062B000D988B2EB324F4FF0000017BF92B241EADB
:1062C000014142EA014104E05A68B2EB324F08BF93
:1062D000012043E80212002AE8D1704730B4044696
:1062E00054E8000F0D4644E80053002BF8D1156028
:1062F00030BC704730B4044654E8000F40EA010552
:1063000044E80053002BF7D1156030BC704730B41F
:10631000044654E8000F00EA010544E80053002B4E
:10632000F7D1156030BC704730B4044654E8000F14
:1063300080EA010544E80053002BF7D1156030BC1A
:10634000704730B4044654E8000F00EB010544E800
:106350000053002BF7D1156030BC704730B40446B1
:1063600054E8000FA0EB010544E80053002BF7D1DF
:10637000156030BC704770B404464FF0000054E81C
:10638000006F0D68AE4207BF44E80023012044E8D7
:1063900000630E60002B1CBF0020F0E770BC70474C
:1063A00030B4044654E8000F88422CBF451A054615
:1063B00044E80053002BF5D1156030BC7047000055
:1063C0000648804706480047FEE7FEE7FEE7FEE78F
:1063D000FEE7FEE7FEE7FEE7FEE7FEE715680200E0
:1063E000016202002DE9F05F0546002092469B46BF
:1063F00088460646814640241BE0284641464746DB
:10640000224600F06BF853465A46C01A914110D309
:1064100011461846224600F016F82D1A67EB0108BF
:106420004F4622460120002100F00DF817EB00092D
:106430004E41201EA4F10104DFDC484631462A46C5
:106440004346BDE8F09F202A04DB203A00FA02F11F
:10645000002070479140C2F1200320FA03F3194352
:1064600090407047004870473011030040EA010334
:106470009B0703D009E008C9121F08C0042AFAD2FA
:1064800003E011F8013B00F8013B521EF9D27047BE
:10649000D2B201E000F8012B491EFBD27047002266
:1064A000F6E710B513460A4604461946FFF7F0FF13
:1064B000204610BD421C10F8011B0029FBD1801A98
:1064C000704730B504460020034600E05B1C934251
:1064D00003D2E05CCD5C401BF8D030BD202A04DB49
:1064E000203A21FA02F00021704721FA02F3D0404D
:1064F000C2F120029140084319467047064C074DEF
:1065000006E0E06840F0010394E807009847103483
:10651000AC42F6D3FFF778FEB4250300D425030080
:1065200070B58C1810F8015B15F0070301D110F855
:10653000013B2A1106D110F8012B03E010F8016B82
:1065400001F8016B5B1EF9D12B0705D40023521E05
:106550000DD401F8013BFAE710F8013BCB1A921C6D
:1065600003E013F8015B01F8015B521EF9D5A1426B
:10657000D8D3002070BD00002DE9F04F00268DB06B
:10658000DFF8A081B14604964FF4807501243746A8
:106590000596284605F022FC38B1D8F804032042BD
:1065A00003D0284605F010FC26432D1D64007F1CF7
:1065B000ADB2082FEDD34FF4BE74204605F00EFCAB
:1065C00048B1204605F000FC46F0004604AA02212E
:1065D000002005F0E3FB544C16F0FF0F15D0012707
:1065E000002537420DD008EB8501D1F81005D1F810
:1065F0001015C0F3052054F82520C1F3014102B164
:1066000090477F006D1C082DEBD3002E7EDA002012
:10661000CDF82890411E0DF1100B07AACDF82C9053
:1066200042F82010401C91460228F9D300252E463E
:10663000A11911F8607F91F9000027F0C008401CF3
:1066400040D007A9404604F088FD40B34FEA971AAE
:10665000404602F093F954F820701FB1BAF1030FCD
:1066600003D006E0BAF1030F2CD10AA9404604F08A
:106670007CFD02A8CDF8088005F034FB029900EB00
:106680008100D0F8000704A9C0F301400290404601
:1066900004F063FD0028029802D0022802D011E025
:1066A00003280FD1BAF1030F08D10298022833D082
:1066B0000221404605F0F0FA6D1CEDB217B15146CB
:1066C0004046B847761C042EB2D3002D21D001AA33
:1066D0000221002005F062FB00205A460DF1040162
:1066E00052F8206051F82030B34217D000200AAE93
:1066F0004FEA090351F8207042F8207056F82070D4
:1067000043F82070401C0228F4D300E001E0002D83
:106710008CD10DB0BDE8F08F0321CAE7401C0228E0
:10672000DED3F6E7006000405CE9002000F01F02C5
:10673000012191404009800000F1E020C0F8801262
:10674000704700F01F02012191404009800000F1D4
:10675000E020C0F80011704700F01F0201219140B5
:106760004009800000F1E020C0F80012704749079E
:10677000090E002806DA00F00F0000F1E02080F892
:10678000141D704700F1E02080F8001470470000ED
:1067900070B54FF48076304604F022FE114CB505FA
:1067A00060B1304604F023FE0120C5F8080360798B
:1067B00020B9012060712168002088474FF482765B
:1067C000304604F00DFE00280AD0304604F00FFEDB
:1067D0000220C5F808032168BDE870400120084781
:1067E00070BD000060E1002007480021C0F84011A2
:1067F000C0F84411C0F84811C0F84C11C0F800119D
:10680000C0F8041109F038BC0010014009F082BB47
:1068100006F070B830B54FF0805000228300D0F8F9
:106820003011C3F80C21C3F81021624B1A60624B7F
:106830001B68624C2360604B1B1D1B68241D23607A
:106840005D4B08331B68241D23605B4B0C331B68B6
:10685000241D2360584B10331B68241D2360564BA6
:1068600014331B68241D2360534B18331B68534C8F
:1068700020342360504B1C331B68241D23604E4B77
:1068800020331B68241D23604B4B24331B68241DBD
:106890002360494B28331B68241D2360464B2C334F
:1068A0001B68241D2360444B30331B68434C403429
:1068B0002360414B34331B68241D23603E4B383327
:1068C0001B68241D23603C4B3C331B68241D236044
:1068D000394B40331B68241D23600124082902D151
:1068E000D0F8343113B1082904D006E0354B3449CF
:1068F000196005E0D0F8343113B1082904D006E05E
:10690000314BFB21196005E0D0F8343113B108296F
:1069100008D00EE090F858322C48016863F3030168
:10692000016002E0D0F834311BB929494FF40070FE
:10693000086028480168C90702D06FF001010160B2
:106940002548016841F470010160BFF34F8FBFF328
:106950006F8F4FF01021D1F80002002803DBD1F82F
:106960000402002822DA1D4B1C601D480468002C1C
:10697000FCD01224C1F800420568002DFCD0C1F8FB
:10698000044201680029FCD01A6001680029FCD08B
:10699000BFF34F8F10487C380168124A01F4E06160
:1069A00011430160BFF34F8F00BFFDE70F490E4851
:1069B000086030BD380500400404001020C50040C8
:1069C000488103008C56004018F50040E40E00405A
:1069D000409602400004004088ED00E004E50140DC
:1069E00000E401400400FA050090D00358E20020C2
:1069F000014800680047000068E1002002E008C884
:106A0000121F08C1002AFAD170477047002001E028
:106A100001C1121F002AFBD170470000012120286C
:106A200003DA81400548014003E0402802DA2038BB
:106A3000814009B10120704700207047FC06FFBD6E
:106A40002DE9F843804643F2020659B9694607F03A
:106A500053FAB04202D008B100F0BAF99DF8000034
:106A6000800744D40021404607F082FA05003ED05A
:106A7000112D3CD01F482049401AC708022000EBC6
:106A800007440D2D0AD00B2D1DD0B5421FD11B4937
:106A900020464246BDE8F84305F0A4BB20464246E6
:106AA000174905F09FFB1321404676DF00281ED0D2
:106AB00005F0A8FF024601B020464346BDE8F0437A
:106AC00010A105F096BB204642461C49E2E7284645
:106AD00005F098FF0246012000EB0740434618A14D
:106AE00005F087FB2846BDE8F84300F071B9BDE822
:106AF000F88300001C260300E42503005C18030053
:106B0000E817030073645F626C655F6761705F64C0
:106B10006973636F6E6E656374282920726574757E
:106B2000726E6564202573206F6E20636F6E6E5FDA
:106B300068616E646C652025642E0000A81803004F
:106B4000417373657274696E672E20706D5F636F39
:106B50006E6E5F7365637572652829207265747542
:106B6000726E6564202573206F6E20636F6E6E5F9A
:106B700068616E646C652025642E000010B560B1FC
:106B800059B102780B785208B2EB530F05D10622A7
:106B9000401C491CFFF795FC08B1002010BD0120E6
:106BA00010BD800701D00020704701207047C368E6
:106BB0008B4206D811440069491E814201D8012048
:106BC00070470020704710B501220221002001F01B
:106BD000B5FC08B1072810D107220221012001F0DD
:106BE000ADFC08B1072808D100210A22084601F0AF
:106BF000A5FC08B1072800D1002010BD10B560B178
:106C00000B480C49401AC008032101EB00400AA1BF
:106C100005F0E4FA07F008FF03E003210A4800F05A
:106C20002AFD002803D0BDE8104000F0D1B810BD07
:106C30007C260300E4250300457261736520626FC2
:106C40006E64732100000000D8E2002070B58CB0A3
:106C500015460E4600236C46C3F10F01415CE1541A
:106C60005B1C102BF8D30D2104F11000FFF717FC6B
:106C70000020C0F10F02315C2244401C1174032833
:106C8000F7D3684646DF0020C0F10F01214491F898
:106C900020102954401C0328F6D30CB070BD0220EC
:106CA00001F046BB0149C97800F044BFE4E0002090
:106CB00070B50024064D06E06868012110F8340024
:106CC00005F004FF641C28788442F5D3002070BDD1
:106CD00070E10020F8B515460C460646052A01D29B
:106CE0000720F8BD05F0EAFF18B905F0ADFF002850
:106CF000F7D1124900224E600C708D60C1E9042268
:106D0000C1E906220E4D0DE006EBC4002968009192
:106D100081788DF8011000780A4A694605F022FF53
:106D20000028DED1641EE4B2EED2BDE8F84004488B
:106D30000021054A001D00F057B8000070E1002056
:106D40009C0D0300C59C02002590020072B605F060
:106D5000F7FA00BF05F028F90028FBD111481249C5
:106D6000401AC408012000EB044010A105F036FAD7
:106D700011480068C00700D000BE022000EB0440AC
:106D80000EA105F02BFABFF34F8F0B48E4380168D2
:106D90000E4A01F4E06111430160BFF34F8F00BF61
:106DA000FDE700007C260300E425030046617461D2
:106DB0006C206572726F7200F0ED00E053797374AD
:106DC000656D207265736574000000000400FA05AB
:106DD0000EB500210091CDE901106A4644F2010090
:106DE000FFF7B4FF0EBD0000084B9B7823B12AB11A
:106DF00020B10068037C1BB1082070470720704752
:106E000000230374417442611846704730EA002041
:106E100070B508F053F9104800240B210470447039
:106E20000E4D817014206C602C706C70FFF77EFC2E
:106E300006211420FFF79BFC1420FFF782FC084872
:106E4000046006211120FFF792FC0548001F00682E
:106E5000A860002070BD000030EA002090E1002012
:106E6000081501402DE9FC47DFF8789099F80230C9
:106E700073B368B3052902D20720BDE8FC874369D4
:106E800033B3437C012B25D00027044600258846D8
:106E900016468DF80050684600F038F801A809F051
:106EA0008FFBC8B1012101700F4944600968C0E936
:106EB0000218C0E904769DF8040089F801009DF8E5
:106EC000000000F047F81420FFF746FC2846D4E7FE
:106ED0000820D2E70F46D8E704259DF8000000F00F
:106EE00039F8F3E730EA00200415014006498978B3
:106EF00039B130B1416921B100210174022109F099
:106F000097B808207047000030EA002030B5EFF352
:106F1000108172B60D4A9468012324B103700029D0
:106F200000D162B630BD93604FF0E023D3F88051BA
:106F3000074C25401560C3F88041D3F88441546064
:106F40005A17C3F8842100220270E8E73CEB0020C6
:106F5000FC06FFBD0B498A68002A11D000280FD11A
:106F6000EFF3108072B60B684FF0E022C2F80031E8
:106F70004B68C2F8043100228A60002800D162B652
:106F8000704700003CEB002070B5054608680C46D1
:106F9000411C04D004F0DBFE206804F069FE606848
:106FA000411C02D0002104F051FE2968A069C1F8FB
:106FB0002405607D227D29681043C1F86C05D4E961
:106FC00000122868C0F81425C0F80C15207D01288F
:106FD00014D1A068411C02D0002104F037FEE06803
:106FE000411C04D004F0B3FEE06804F041FED4E993
:106FF00002122868C0F80825C0F8101570BD70B5D9
:10700000054608680C46411C04D004F0AAFE20681E
:1070100004F038FE6068411C02D0002104F01FFE1D
:107020002968A069C1F82405607D217D2A6808438C
:10703000C2F86C05D4E900122868C0F80C15C0F835
:107040001425207D012814D1A068411C02D0002104
:1070500004F005FEE068411C04D004F082FEE06804
:1070600004F010FED4E902122868C0F80825C0F820
:10707000101570BD03F03ABC2DE9F0478146058834
:107080004A484FF000088AB001784246284600F08E
:1070900069FD99F80500400701D4002176E005F567
:1070A0008077B8B201AB0122072106F097FB0400FC
:1070B0003F48404A4FF00101A0EB02004FEAD000E8
:1070C00001EB00460AD0204605F09CFC0246304603
:1070D0002B46394905F08DF8214629E0284603F072
:1070E00021F94FF6FF71044688422BD18A46029857
:1070F00003F082F80446504510D00146284603F0BC
:10710000F1F82846FFF7CEFDE0B9284608F0CCF9A3
:107110002846FFF7C7FD0028BFD013E006F02AFD80
:107120000446504508D1304624A105F057F8042103
:10713000284608F0E7F9B0E70146284603F0D2F800
:107140004FF00108B8B22246072106F0BFFB070046
:107150001BD0862F1ED005F055FC024630462B462C
:107160002349009405F04DF83946284608F0CAF93D
:107170000021484606F026FAB8F1000F02D020465A
:1071800003F0BAF80AB0BDE8F0870121484606F0DE
:1071900019FAF7E71822174903A8FFF767F9ADF8BE
:1071A0000E5003A802F0CEF8EFE70000E4E0002064
:1071B00024260300E4250300601B0300436F756C65
:1071C00064206E6F7420616C6C6F63617465206EF7
:1071D000657720706565725F696420666F722069EB
:1071E0006E636F6D696E6720626F6E642E000000C3
:1071F0000C1C0300300D030070B5044690B0087BF2
:107200000D468DF83800202105A8FFF748F942F611
:107210001920ADF814000120ADF81800ADF81A00DF
:107220000EA80790617C9DF82100A21D61F3041057
:1072300040F002008DF82100A87B8DF82700687BC4
:107240008DF82500A08805A901F0D0FB00281CD1ED
:10725000A968E1B10FA801F021F80646142168469B
:10726000FFF71DF942F60810ADF80000E87B8DF835
:1072700006000FA8ADF80A60ADF80E600490E08833
:1072800004F10E02694601F077FE10B070BD0020D7
:10729000E081FAE710B50D490D4808F092F9C1B246
:1072A0004FF6FE720B4800F0FDFA00280DD00828BA
:1072B0000BD0132809D0112807D043F2014188428E
:1072C00003D0BDE81040FFF783BD10BD30E50020BE
:1072D0000CE0002088E200200A4601461046AEDF9E
:1072E00070472DE9FC47002517880646158090F861
:1072F0002D001446894630B13A462146484600F0F2
:107300005BFC051E09D1B0784FF00C0A18B3208839
:10731000C846001DB84202D95046BDE8FC87684601
:1073200079DF0028F9D12088032108F8001020888F
:107330001921401C80B2208008F800102088401CD1
:1073400080B2208000EB0801BDF8000009F058F879
:10735000218808442080F0780222C8B1218896F95B
:10736000033001F1030C4846BC45D5D8425421886E
:107370004FF0010C491C89B2218000F801C021881E
:10738000491C89B2218009F801302088401C2080E6
:107390007068B8B1218890F9003001F1030C4846BB
:1073A000BC45B9D8425421880A22491C89B221809F
:1073B00042542188491C89B2218009F80130208873
:1073C000401C2080308950B1CDE900474B46062251
:1073D000022106F1080009F00BF9051E9DD1308A43
:1073E00050B1CDE900474B460722032106F11000BA
:1073F00009F0FEF8051E90D1308B50B1CDE9004761
:107400004B461522142106F1180009F0F1F8051E6B
:1074100083D1306A30B13B462246494601F065FCD3
:10742000051EDBD1706A30B13B462246494603F067
:107430006DFC051ED2D196F82C0038B13B46224691
:107440004946304608F090F9051EC7D1307838B16A
:107450003B4622464946304603F0E6FC051EBDD1B8
:1074600028465AE718B504460020ADF80000134638
:107470006A46204600F006F8002802D0BDF8000059
:10748000204418BD70B588B182B10024158803E08E
:10749000065D641C3444A4B2A54203D8061976786C
:1074A0009E4201D08C42F3D38C4201D3002070BDA8
:1074B000A11C1180005D401E80B270BD80F83010AC
:1074C000704700002DE9F0470E00044606D02CB1AD
:1074D00096F87A000025012803D006E00E20BDE8CA
:1074E000F08796F89800012821D04FF00109A57087
:1074F0002C2206F17801201DFEF7B8FF84F83050E9
:10750000D6F8A4006063D6F8A800A0634FF6FF7019
:10751000A4F8480204F50D70C4F84402C4F84A52B5
:10752000A4F84E5284F85052207810B104E007209D
:10753000D5E7FF2084F8540004F15501C4F8341253
:1075400094F82400EE274FF01F0801281FD0A4F85C
:10755000388200BF04F50E723046FFF7C2FE0028E5
:10756000BDD116F13C0F18D004F24311C4F83C12FF
:1075700094F8240001280DD0A4F8408204F510727C
:1075800006F13C00FFF7ADFE0028A8D109E0A4F801
:107590003872DFE7A4F84072F0E7C4F83C52A4F870
:1075A000405284F85190208BA4F8480084F83C9015
:1075B000256484F85050606960644E4604F13C02D2
:1075C000002104F1540072DF002888D1267086E77C
:1075D00010B50288102A1BD0112A20D0262A1DD1CE
:1075E000007A0C46012801D0022817D1A078052185
:1075F000401CB0FBF1F201FB1201204600F03BF809
:1076000000280BD0A16B002908D0BDE81040084726
:10761000C27B012A02D18088A1F8480210BD0C4625
:10762000002184F852128088B4F848128842F5D1BB
:1076300020790028F2D10121DFE7704710B5044618
:1076400090F8540074DF012084F85202002084F87E
:10765000540284F850000621204602F047F8002822
:1076600008D1A178204600F006F810B1A16B01B155
:107670008847002010BD2DE9F05F044600780F46D2
:1076800098B1A7700025C4F84A52A4F84E5284F865
:107690005052A079012608B1012F09D0E07980B1BC
:1076A000012F05D0022F03D00BE00820BDE8F09F8A
:1076B000616B21B184F851620820884701E084F8A9
:1076C000515204F24B2100200A5C0AB1304603E01B
:1076D000401C0628F8D300204FF002084FF0030B9F
:1076E000012F06D0022F0CD0032F0FD0042F15D15D
:1076F00010E0A17929B194F8241011B908B13046ED
:107700000DE0E17911B108B1404608E0207A08B1F6
:10771000584604E0607A08B1042000E02846A070D2
:10772000616B41B1032801D0042804D1607910B104
:1077300094F85202A0B184F8535204F13C0018218D
:107740000746FEF7ACFE04F12C0084F83C6081464D
:1077500006F03CFB58B194F82C0084F8510008E086
:1077600084F8545284F8536207208847E5E784F888
:10777000516094F8240050B1484606F027FB20B130
:1077800094F8280084F8520001E084F8526084F8EC
:107790005050A27804F24A2104F50D794FF0060A00
:1077A000052A62D2DFE802F07A030F22410084F852
:1077B0003160C4F84452C4E9101584F83C8080203C
:1077C000A4F8480053E084F8318094F82420384627
:1077D00012B10722027001E080F800B0228A828193
:1077E000C4F844524160E168B96040E06069B86043
:1077F000208BB88194F824003D4610B184F83CA059
:1078000001E084F83C60204608F0B6FE50B185F8EF
:1078100014800421204601F069FF30BB052184F863
:10782000311020E084F831B01DE0E069B860208CB0
:10783000B88194F824003D4610B184F83CA001E0E2
:1078400084F83C60204608F097FE48B185F8148023
:107850000421204601F04AFF38B984F831A002E043
:10786000042084F83100C4F84492A07878B13A46F4
:1078700004F15400D4F8441272DF00287FF416AFEC
:1078800094F8301094F8540073DF0028F6D1616B3F
:1078900011B194F831008847002007E784F831508F
:1078A000F5E70000F7B594B0174605003CD0287CFA
:1078B0009DF854100024884252D000264FF0010E4B
:1078C0000D9615A8ADF834E00E90ADF83660E98855
:1078D0000DAA4FF6FF70ACDF040026D19DF85400CE
:1078E0002874687CA0B30F96109611961296E888BB
:1078F000ADF83C00BDF83600ADF840000DA8119081
:107900000E981290A7F57F408DF83EE0FE3805D026
:1079100039460FA8FFF7E0FC044621E0684600F076
:107920009DF800256F460FE00E2017B0F0BD00BF98
:1079300007EB4506B08800F0DFF8022803D144B118
:107940000FA9B088AEDF6D1C0098A842F0D807E000
:1079500005E0B1880FA8FFF7BFFC0446F3E7082451
:107960002046E2E738B50D46040018D0BDB12868BE
:10797000206028796074FF20207401208DF80200B7
:1079800041F60F00ADF80000221D69460120A8DF76
:10799000002803D129462046FFF72EFC38BD0E20D3
:1079A00038BD38B5002924D0002822D00288502ABA
:1079B0001FD10546487C0C4600281AD0E988628908
:1079C000A81D914215D14189022912D121680029AF
:1079D0000FD00C3000F05EFC08B1002000E0012068
:1079E0008DF80000A888ADF802002268694620469C
:1079F000904738BD70B5040012D001461C221448CF
:107A0000FEF734FD1248134D0560206850B17ADF4F
:107A1000002806D12068016829604068686005E098
:107A20000E2070BD0B487BDF0028FAD108484FF6C6
:107A3000FF711438084A20F8041B05492C390160ED
:107A40000021FFF7D1F90028EBD0032070BD000022
:107A5000D0E5002040E000201105030001494968FD
:107A600001F024B9ECE5002010B5044600F09AF8C6
:107A7000002805D02146BDE81040024803F0D1BAE5
:107A800010BD0000FCE5002070B515460E4604460A
:107A900008F07EFD002809D0054800EB84008069CD
:107AA0002A463146BDE8704001F04CBE70BD000072
:107AB000ECE5002010B5044600F074F8002805D06D
:107AC0002146BDE81040024803F0ABBA10BD0000EB
:107AD00000E6002070B50546002400F063F838B1D8
:107AE0002946044803F09DFA08B1022400E001246D
:107AF000204670BDF8E5002070B50546002400F072
:107B000051F838B12946044803F08BFA08B1022431
:107B100000E00124204670BDF4E5002010B51821D6
:107B2000034803F059FA182800D0C0B210BD000075
:107B3000ECE5002070B505460C46084608F028FD27
:107B400060B1284600F02EF840B10548294600EB08
:107B50008400BDE87040183003F063BA002070BDA7
:107B6000ECE5002070B5054614460E46084608F0C0
:107B70000FFD002812D0284600F014F800280DD080
:107B80000748294600EB860018301CB1BDE870405C
:107B900003F052BABDE8704003F003BA70BD0000B4
:107BA000ECE50020142801D300207047014601486D
:107BB00003F037BAF0E500207CB5054608880C468E
:107BC0000930904201D90C207CBD68466DDF002849
:107BD000FAD121880820685420881B21401C80B2DB
:107BE000208029542088401C80B220802844DDF861
:107BF00001100160BDF8051081802088801D80B2D1
:107C000020809DF80010490800D0012129542088C7
:107C1000401C208000207CBD1FB5044601208DF84B
:107C2000060041F60A00ADF80400494A01A9012006
:107C3000A8DF00287DD122885AB14548801C0090D9
:107C400094F83C3042F62920616800F09FFE00283D
:107C50007BD122895AB13E480A30009094F83C30DA
:107C600042F62420E16800F091FE00286DD1228ABE
:107C70005AB137481230009094F83C3042F6252033
:107C8000616900F083FE00285FD1228B5AB1304831
:107C90001A30009094F83C3042F62720E16900F059
:107CA00075FE002851D1228C5AB12948223000900B
:107CB00094F83C3042F62620616A00F067FE002806
:107CC00043D1228D5AB122482A30009094F83C309A
:107CD00042F62820E16A00F059FE002835D1216BD8
:107CE00079B102A808F0D8F819480822323000907B
:107CF00094F83C3002A942F6232000F047FE002809
:107D000023D1606B60B112493A3100910279016868
:107D100094F83C3042F62A2000F038FE002814D1B6
:107D2000A16B89B102A806F0EEFE0948423000902E
:107D300000E00AE094F83C30072202A942F6502005
:107D400000F024FE002800D1002004B010BD000087
:107D500002E10020F8B5018800260446212933D02D
:107D600016DC2048204A214DA0EB02004FEAD0004B
:107D70004FF0030202EB0040102911D0112906D167
:107D80001BA104F02BFA4FF6FF7068802E70F8BD2F
:107D90003B2922D05629FAD18088132176DF0DE0C5
:107DA00017A104F01BFA072000F0EAFB08B1FFF767
:107DB0000FF8A1886980154803F09AFA0028E6D0E8
:107DC000BDE8F840FFF704B80096808869468FDF69
:107DD0000028DCD0FEF7FCFFF8BD8088132176DF99
:107DE000ECE700007C260300E425030000E000200F
:107DF000446973636F6E6E65637465642E00000082
:107E0000436F6E6E65637465642E0000CCE20020E3
:107E100010B51A4C0188606810290ED011292BD199
:107E2000401E606028D1FEF7CEFE002824D02168D5
:107E3000002921D0BDE810400847D0B90021012217
:107E4000084600F07BFB08B107280FD1072202216A
:107E5000012000F073FB08B1072807D1042202219A
:107E6000002000F06BFB20B1072802D0216801B18F
:107E700088476068401C606010BD000038E000204A
:107E80002DE9F04701883B4E40F2F3194FF6FF759C
:107E900010291BD011293ED0122954D0502946D187
:107EA000C188F289841D914241D1618902293ED164
:107EB0008688304602F0E4FA050038D004F10C0060
:107EC00000F0E8F9A8B3294630464EE0C17B878828
:107ED000044601292BD1A846284602F0D1FA050014
:107EE00017D02F8000202872234843464A46016855
:107EF000C5F80A104068C5F80E0004F1100105F13C
:107F00000A0002F07DFB6872F08900280FD1294633
:107F10002AE0042013E0808802F0B2FA040006D0C0
:107F20006068FEF7E3FF08B107F0D0FA2580BDE8EE
:107F3000F087FFE76868FEF7D9FF0028F7D0BDE8B3
:107F4000F04707F0C3BA87880646384602F098FA29
:107F50000400ECD02B464A4606F1080104F10A0061
:107F600002F04EFB607221463846BDE8F04700F053
:107F700003BF0000D0E5002040E000202DE9F04FD5
:107F80000746858802883D48012197B08346102A1C
:107F900009D0112A49D01A2A6CD1387AB1EB101FB6
:107FA00045D2012244E0354C083CA068C0430B9008
:107FB00061680BA803F059F80B990CA800F076FE45
:107FC0002C220CA96846FEF751FA0026E946A04685
:107FD00010E000BF09EB46005FF00004B0F804A019
:107FE00008EB84005146001D02F0DBFF641C1D2CD1
:107FF000F6D3761C0098B042ECD8142D05D317B0F8
:108000000420BDE8F04FFEF7E3BE2946584603F0D2
:1080100013F8294608F1040003F00EF8F87B012854
:1080200028D016482946001D15E029461AE00022EE
:108030000221B1EB101F01D2012600E000260F49FA
:10804000083901F11000041D294682B102F0F4FF45
:1080500036B12946204617B0BDE8F04F02F0ECBF1C
:108060002946204617B0BDE8F04F02F09ABF02F053
:1080700098FFF5E717B0BDE8F08F0000F4E50020A9
:1080800010B504460748007800280AD0204602F0C0
:1080900025F8204607F04CFC2046BDE8104001F0D2
:1080A00095BC10BD74E0002070B5044696B0086819
:1080B00020604FF6FF70E082C879207601268DF8A7
:1080C000226041F609000D46ADF82000221D08A9E6
:1080D0003046A8DF00284BD120216846FEF7DFF9A3
:1080E000202109A8FEF7DBF942F61C20ADF80000BC
:1080F00011AA09A9204601F043FFADF8060014209B
:10810000ADF8040011A802908DF80C609DF80D00E8
:10811000A21D40F020008DF80D0028798DF8130085
:10812000A088694600F062FC002821D1A879F0B14E
:1081300020216846FEF7B3F942F61D20ADF8000095
:108140009DF80D00ADF8046040F002008DF80D00C0
:108150006879ED1D8DF81100ADF806600295A088D4
:1081600004F10E02694600F041FC002800D1002015
:1081700016B070BDFEB500250E4602210095ADF883
:10818000001002A9ADF8025001914189C08A6A46E7
:10819000ADDF040043F2014004D0844206D13570C3
:1081A0000020FEBD02A800F071F830702046FEBD30
:1081B00030B50446C08A8BB0A0F57F42FF3A23D089
:1081C00005AA204601F0DCFE0546ADF800000020BF
:1081D0000190029003900490E188ADF80410022110
:1081E000ADF808008DF8061005A8CDF80CD0049065
:1081F000E08A01A9AEDF002804D1BDF80010A94231
:1082000000D00C200BB030BD0820FBE738B5028849
:10821000102A12D0112A12D0502A14D0532A0BD16E
:108220000A46C088C988884206D102208DF800001D
:10823000136869461046984738BD808801E04FF6BC
:10824000FF70C88238BD0C4630F8061F6289914223
:10825000F8D141890229F5D121680029F2D00C30EA
:1082600000F014F808B1002000E001208DF80000B3
:10827000226869462046904738BD70B504460D46D1
:108280000846FEF717F92080656070BD0078C0F3DE
:1082900040007047007800F0010070470A780270D3
:1082A00049784170022070470149085C704700001E
:1082B000B00B0300084908B5085C0090684603F05D
:1082C00003FDD0F810050099C84010F0010000D05F
:1082D000012080F0010008BDB00B03002DE9FC4136
:1082E0000646C0074FF000050ED0104F00240122B3
:1082F000385D009500231146019503F031FC641CA4
:10830000042CF4D300F04EF8B0070DD5074E00242E
:10831000361D0022305D032300951146019503F0C0
:108320001FFC641C042CF4D3BDE8FC81AC0B0300DF
:10833000094908B5085C0090684603F0C5FCD0F810
:108340000425009B0121994021EA0203C0F8083569
:108350001140C0F80C1508BDAC0B03000249085CC5
:10836000012103F008BD0000AC0B03000249085CCA
:10837000002103F000BD0000AC0B0300084908B564
:10838000085C0090684603F09FFCD0F80405009953
:10839000C84010F0010000D0012080F0010008BDAD
:1083A000AC0B030010B500242046FFF7D7FF641C78
:1083B000042CF9D310BD10B500242046FFF7D6FFDA
:1083C000641C042CF9D310BD10B50246064B4FF0C7
:1083D000FF3000215C5C944201D1084610BD491C6D
:1083E0000429F7D310BD0000B00B030070B50C4E8C
:1083F0000C004FF0000530600BD0012000F06AF84F
:1084000008B1022004E0002000F064F800B10B2065
:108410002070706810B9FEF7D6FB0546284670BD7F
:1084200038E0002010B5002000F0E4F908B106287B
:1084300006D1012000F0DEF908B1062800D10020A5
:1084400010BD00002DE9F0470D468146FFF7BCFF47
:108450000446042836D2DFF874801B481C4EA8F16D
:108460000C0725B3012D0ED0022D2BD104EB4400B7
:1084700030444578002D25D0B968002922D02846FF
:10848000BDE8F047084704EB4401755C0E44717881
:1084900049B10E4A4FF40041093A8068FEF7E2FC08
:1084A00008B987F80390B17808F80410E2E780680B
:1084B000FEF71CFD04EB4401314418F804008D78EC
:1084C000A842D7D0BDE8F087B40B030034E0002009
:1084D00080E50020042801D2FFF7ECBE00207047A1
:1084E0000246144810B54088042A11D04FF6FF7197
:1084F000072A16D00A2A07D00E2A19D1884217D087
:10850000BDE8104007F0EABCBDE8104007F0FCB938
:10851000132176DF0AE000280AD0BDE81040FEF7FC
:1085200057BC884204D10448FFF788F80828F2D1E4
:1085300010BD000000E00020D8E2002070B500234C
:10854000042810D20D4D00EB4004012A02D101296C
:108550000CD00022094E00EB4000304461B10129EB
:1085600006D0022906D00723184670BD0E30C2B2CD
:108570002A55F9E74270F7E78270F5E780E50020B9
:10858000044A014600201279D20702D0084600F0C2
:108590004DB8704728E0002070B506461E480024FC
:1085A000C0E90161B00720D5002501221146284607
:1085B000FFF7C4FF6D1C0446042D02D2002CF4D03A
:1085C00013E094B940F2666204211448FEF782FB7E
:1085D00004000AD1FEF76CFB040006D10F48104AD4
:1085E0000021001FFEF700FC0446F00712D0012016
:1085F000FFF774FE74B909480A4A00210C38FEF7E7
:10860000F3FB040006D10548074A01210838FEF7AC
:10861000EBFB0446204670BD28E00020C00B0300A1
:10862000C188020095A602009F6C02002DE9F05F50
:108630006E4C054600266078B34618B184F801B048
:1086400002F010F86A4F4FF47A694FF4C87A4FF08D
:108650000108182D69D2DFE805F00C1313384754D0
:10866000696E727B727BC58484848484B3B6B9BC22
:10867000C5C501F0F7FF3868FEF738FC06465CE038
:108680000020FFF77BFE00284FF0000008D0FFF726
:1086900065FE022D02D14FF4E16008E0484606E095
:1086A000FFF764FE022D01D1C82000E05046410CC6
:1086B000C0034FF4FA72801841F100012570520096
:1086C0000023FDF78FFE01462AE00020FFF756FE4B
:1086D00000284FF0000004D0FFF740FE4FF4487030
:1086E000E5E7FFF743FEDFE70020FFF747FE00283E
:1086F0004FF0000002D0FFF731FECFE7FFF736FE64
:10870000D4E70020FFF73AFE00284FF0000002D027
:10871000FFF724FE01E0FFF729FE257041F69A11CC
:1087200000223868FEF79EFB064646E00020FFF771
:10873000FFFD257008E0002051E025703DE084F841
:1087400001800120FFF7F4FD002240F6CD41E8E76B
:1087500084F801800120FFF7EBFD00224FF48041F7
:10876000DFE77868FEF7C2FB0646D5F1110000D0BE
:108770002EB10220FFF7F2FD84F802B01DE00128BF
:1087800016D980B2C8214843C117C90341EA5041F4
:10879000C0034FF4FA72801841F100015200002327
:1087A000FDF720FE014600227868FEF75BFB0646D7
:1087B0000220FFF7DBFD84F802803046BDE8F09F21
:1087C00001F050FFB9E701F04DFFB4E701F04AFFB7
:1087D00004E001F047FF0020FFF7C8FD0120FFF78C
:1087E000C5FDAAE7FFF7E7FDA7E7000028E00020A6
:1087F000B40B0300012107F063BF00002DE9F8432B
:108800000546861C00208DF8000090460F464FF06C
:1088100001096846FEF77AFB1B4C20683860D4E9F2
:108820000001401AA16804F21C47081A0EE0012159
:10883000384602F014FC02F03BF90146384602F0DB
:108840000EFCD4E90001401AA168081A401C8642B7
:10885000EDD8B8F1000F03D0052065F3891002E0D0
:10886000062065F39F50A2682168114004EB810146
:10887000C8602068304420609DF80000FEF76AFB65
:108880004846BDE8F88300008CEE002030B48268D2
:108890000468531C8360A154D0E901128A4202D3B8
:1088A00030BC02F022BE30BC70470000034803C851
:1088B000814201D101207047002070478CEE0020DA
:1088C00000780221FFF7BEBD1CB5044601F02AFD69
:1088D00000236A46092105F0C3F8052805D103489D
:1088E000012241792046FFF73DF91CBD48E00020F8
:1088F0001CB50021009142F6A621ADF8001001211F
:108900008DF80210034901AA096801916946A0DFA8
:108910001CBD0000E00B030005494FF0FF320828A2
:1089200041F8202002D3084480F858207047000006
:108930005CE90020F0B54FF0FF3512B100230826A6
:1089400001E008230C260C4C05E000BF54F823700E
:108950007F1C04D05B1CB342F8D32846F0BD261818
:108960005DB286F8305044F82310002AF5D1E118A2
:1089700081F85800F1E700005CE900200249084452
:1089800090F93000704700005CE900202DE9F041CB
:1089900088B01E46DDF8388014460D00074602D127
:1089A0000020FEF715FA14B90020FEF711FA202175
:1089B0006846FDF774FD9DF80D00ADF8044040F0E9
:1089C00002008DF80D000848ADF80070ADF80640C3
:1089D00002958DF8116042466946008800F006F85D
:1089E00008B0BDE8F081000002E100202DE9F0436D
:1089F0008146887891B090460C4600B901208DF8E8
:108A00003E002088ADF83C0000250095607C69465A
:108A100006F062FF6E46A07C711C06F05DFFE07BF5
:108A200000289DF8020002D040F0080001E020F08C
:108A300008008DF80200217C11B140F0100001E027
:108A400020F010008DF80200217B11B140F00100F0
:108A500001E020F001008DF80200217D09B1022122
:108A600000E0012161F342008DF802001C2102A800
:108A7000FDF715FD607BC10601D4800617D50E9564
:108A80000EAFE07C791C06F027FF9DF838000797B1
:108A900020F00F00401C20F0F00010308DF838005E
:108AA0009DF83A0020F00600801C8DF83A00607BAB
:108AB0008DF80800A07B8DF80900142109A8FDF7A6
:108AC000EEFC0FA8CDE90906A088ADF83000A0683B
:108AD00020B1E088ADF82C00A0680D90A06998B393
:108AE00001950088ADF81000A06901AD01A940888A
:108AF000ADF81200A069406806950390A069007B5C
:108B000006F0EAFEA069691C407B06F0E5FEA0695C
:108B1000807A00289DF8060002D040F0080001E0AD
:108B200020F008008DF80600A169C97A11B140F063
:108B3000100001E020F010008DF80600A169097A0C
:108B400019B140F0010002E00DE020F001008DF8C5
:108B50000600A169897B09B1022100E0012161F3CE
:108B600042008DF80600E06900B10590434609AA6D
:108B700002A94846AADF11B0BDE8F08370B50446EB
:108B80004FF6FF750A462846AC4209D14FF480746F
:108B90002146104602F020FA80B2A0420BD070BDF0
:108BA000FF2CFCD82146104602F006FA90F0010F87
:108BB00001D0204670BD284670BD000070B5084C3D
:108BC000050009D010342168002907D0086820600A
:108BD000496828468847F6E70834F4E770BD000086
:108BE00048E90020054A012120B1012805D19170F2
:108BF000FFF7E4BF51700020FAE7704748E9002012
:108C00002DE9F05F26484168F1B3DFF898B00E68AF
:108C10008146DBF8004087688078E11B21F07F45C2
:108C2000ED1CB0B9DFF880804FF48030C8F8440301
:108C3000C8F804031120FDF779FD1120FDF781FD2F
:108C40004FF0010AC8F800A02F2003F037FF89F881
:108C500002A0B54200D23546124BE8193C3320F051
:108C60007F401860DBF800105A46091B21F07F4155
:108C7000001B20F07F40C91C81420FD9106818608A
:108C80002F2003F01BFF00E004E0BDE8F05F11209F
:108C9000FDF762BDBDE8F05F06F010BABDE8F09FD9
:108CA00090E10020041501400010014073B58CB024
:108CB0000646002000900D9880B100246D462146A4
:108CC0000DA802F0AEF930B1009805EB40008480A9
:108CD0000098401C0090641C142CF0D32C22694690
:108CE0003046FDF7C3FB0EB070BD2DE9F04117888B
:108CF0000646B81D14460D46984202D90C20BDE820
:108D0000F0813188072206290AD34FF4486C4FF6C8
:108D1000FF73614501D9994202D17088062801D2BA
:108D20001046ECE7604501D99842F9D1994203D049
:108D3000984201D08142F3D80520E85520881221BD
:108D4000401C80B2208029542088401C80B22080A2
:108D50004119308807F054FB2188084480B22080F4
:108D60004119708807F04CFB2188084420800020BE
:108D7000C5E7FEF72DB8000038B54A7A0F4B62B14F
:108D800000220A725969002906D001228DF80020BC
:108D9000ADF802006846884738BD0A7A62B19B6820
:108DA0004C68024619462046FEF75CF80028F3D0CE
:108DB000BDE8384006F08ABB5B68F1E7D0E50020EB
:108DC000F0B587B016460F4604461D4618220B49DB
:108DD0006846FDF74BFB0A488DF80870ADF8024075
:108DE000ADF80A608DF80C50017800222046FEF79D
:108DF000B9FE684600F0A6FA07B0F0BD480D0300C2
:108E0000E4E00020FDF71CBE70B588B006460020E7
:108E100005900690ADF81410ADF816100190029070
:108E200001AA05A9304690DF050021D003F0EAFD34
:108E30000346114811493246401AC108012000EB8F
:108E4000014004460E4903F0D4F9BDF8042012B9DC
:108E5000BDF8060028B1BDF80630204609A103F090
:108E6000C8F9BDF808201AB12046164903F0BAF92E
:108E700008B0284670BD0000FC250300E42503006F
:108E80001C14030054686520726571756573746500
:108E9000642054582F5258207061636B6574206CA5
:108EA000656E67746820697320746F6F206C6F6ED5
:108EB000672062792025752F2575206F637465748E
:108EC000732E00006814030070B5044609480121A0
:108ED00002F0E0F8BFF35F8F0025002808D120469C
:108EE00001F060FD002803D1BFF35F8F01480560EA
:108EF00070BD000054E000207FB50C4610B1012089
:108F000004B070BD2079002638B141F61D55012806
:108F10001BD0022826D00F20F2E7022020710296F3
:108F20000396E0680190694601A806F023F850B165
:108F300002988188E18000882081BDF800100298A5
:108F400006F096F8DCE70A20DAE70A4B6A460021C9
:108F5000A01D05F0CBFF38B1064918398E61CE61EE
:108F60000A28CDD12846CBE702488188019806F02F
:108F70007FF8F5E7BCE10020F0B587B00C46074666
:108F80001646142101A8FDF78AFAA07800B901203D
:108F90008DF81A002088ADF8180006A80190A07975
:108FA000694606F099FC6D46E079691C06F094FC70
:108FB000E07800289DF8020002D040F0080001E0AF
:108FC00020F008008DF80200217911B140F0100066
:108FD00001E020F010008DF80200617911B140F03D
:108FE000010001E020F001008DF80200217A09B1B2
:108FF000022100E0012161F342008DF80200029598
:109000006089ADF80C00A089ADF80E00E089ADF8DC
:10901000100020690590324601A93846ABDF07B041
:10902000F0BD00002DE9F0470025DFF88C803CE022
:109030006068002100EBC506012032789146FDF7FB
:1090400002FAD4E9062300EA020701EA030C57EA10
:109050000C0728D082438B434846C4E9062303F01B
:10906000EBFD32788246914601200021FDF7EBF9B5
:10907000D4E9042300EA020401EA03074A46504601
:109080000021FDF7E0F944404F403C430BD170789C
:10909000012801D0012100E00021726881EA0A0163
:1090A0000AB1484690476D1CEDB298F8000044465E
:1090B0008542BDD3BDE8F08770E1002010B50021E6
:1090C000024801F0E7FF80F3100010BDA8F2002075
:1090D0000E4910B50A784C780023A24212D0521CD7
:1090E000D2B20A70022A00D10B70084A0B780C32F7
:1090F00052F8232002608868104420F07F40886086
:10910000012010BD0360002010BD000090E1002090
:1091100013460A460021FFF753BE00002DE9F8432D
:10912000104D0F4680461E4691466946286801F05C
:109130000CFF040014D01C21FDF7B1F901202071AF
:10914000C4F81490380BC4F80080C4E90260694682
:10915000286801F01BFF05F035FE0020BDE8F8830C
:109160000420FBE7400E030010B503780022072B14
:1091700006D2DFE803F005040610202930000A704B
:1091800010BD01230B7003898B818388CB81C0685C
:1091900088600A7410BD02220A7002898A8182885E
:1091A000CA81C2688A60807D062802D000200874C7
:1091B00010BD0120FBE703220A70C2888A81028960
:1091C000CA81C068886010BD04230B70C088888184
:1091D000CA818A6010BD0520087010BD70B5064DAB
:1091E0000646002455F8241009B130468847641C0F
:1091F000042CF7D370BD000064EB002030B50446AA
:10920000006887B00D46806800281FD01821684686
:10921000FDF745F90195A0680590207910B1012866
:1092200010D107E001208DF8000020690290E0686D
:10923000039005E002208DF80000E0680003029032
:1092400060690490206881686846884707B030BD2F
:109250002DE9F04186B016460C00804629D0112C2D
:1092600027D0082C25D018216846FDF718F9ADF84D
:109270000280404601F056F8ADF804001B481C4936
:109280000027401AC5080D2C16D0204603F0BAFB63
:109290000246012000EB05404346164902F0A9FFB3
:1092A00007208DF8000002948DF80C70684600F0DD
:1092B00057F806B0BDE8F081022000EB05404246B9
:1092C0000D4902F08FFF03208DF8000026B13078A1
:1092D000C00701D0012000E002208DF8080041F213
:1092E00001108DF80C70ADF80A00DFE72C260300A2
:1092F000E4250300D81D0300C81C030010B5044674
:10930000408801F00FF8A080024801682046BDE8BF
:109310001040084750E000202DE9F04107460024A6
:10932000064E074D05E000BF56F824103846884722
:10933000641CE8788442F7DBBDE8F081FCE800209B
:1093400074E0002010B50446408800F0EBFFA080D8
:10935000024801682046BDE810400847FC0C0300A5
:109360000149096808470000880D030070B586B000
:10937000044618216846FDF792F8A0890125A0F55A
:109380004040ADF804002078324E062835D2DFE8A0
:1093900000F0340303032E4EA08900F08BF930B99E
:1093A000E08943F6FE71A0F54040884225D8A07BB5
:1093B0008DF808002078032811D000208DF80900CE
:1093C000A0680390606860B109208DF800006068B3
:1093D00004908DF81450684604F094FA0DE00120D2
:1093E000ECE708208DF800008DF81050F3E7A08915
:1093F00000F060F908B1E08930B17078002801D040
:1094000004F0CAFB06B070BD606840B10B208DF857
:109410000000606802908DF80C507570DBE70A2040
:109420008DF80000BDF8040004F054FCF5E7606816
:1094300058B114208DF80000606802908DF80C502F
:109440004FF6FF70ADF80400C5E713208DF800005B
:10945000F6E7000060E0002038B504460E480078CA
:10946000A8B1A4F57F40FF380FD0684605F0DCFBBB
:1094700078B10521017001210171C480684605F0B1
:10948000E1FB05F091FC002038BD042038BD02202E
:1094900038BD082038BD0000C4E100200C4808B5E4
:1094A000007888B1684605F0BFFB78B106210170ED
:1094B000684605F0C7FB0748017809B1012101732F
:1094C00005F072FC002008BD022008BD082008BD80
:1094D000C4E1002028EC0020F0B587B014216846D4
:1094E000FCF7DDFF2B4C207818B16846FFF776FEBD
:1094F0004EE0201D01F0B0FDB8BB4FF010204169D7
:109500000004026940694B1C01D100FB02F12248B2
:1095100000220161A1F54051C160204902F07AF9B1
:10952000002820D11F481C238C221D49006801F00F
:10953000F9FC03F079FF051E14D0022812D0002791
:109540000126062D12D005A805F06EFB88B1067025
:109550000C2D18D2DFE805F0170F170F1716171686
:10956000171113110B2007B0F0BD11E026706760D2
:10957000BBE70820F7E7077105E0032100E00221BF
:10958000017100E0067105A805F05CFB05F00CFC1C
:109590000020E8E7C4E100205CE20020500E030058
:1095A00074EB0020B80D030038B5040014D06946F0
:1095B00005F0E0FCA0B1BDF8000000EB8001094817
:1095C00000EB8100C16849B1A17A39B1C168491E77
:1095D000C1600020A07238BD052038BD062038BD0E
:1095E0000A2038BD00EC00201FB501A9684605F02F
:1095F0007DFC04B010BD07B513460A46694600203D
:1096000005F074FC0EBD07B513460A4600216846F6
:1096100005F06CFC0EBD20B119B100680860002097
:109620007047052070470000F8B50D46040018D0BB
:10963000BDB1694605F09EFCA8B1BDF800000B491C
:1096400000EB800001EB800001210C30666801F026
:1096500006FD2E6060680C3068600120A07200205A
:10966000F8BD0520F8BD0A20F8BD000000EC002080
:1096700018B10323002207F06FB9052070470223B9
:10968000002207F069B90000084910B50A69042AE8
:109690000AD0074A096942F8210004480121103024
:1096A00001F0DDFC002010BD0C2010BDA4E1002065
:1096B00064EB002043F6FE71A0F54040884201D8DB
:1096C000012070470020704710B504460078182824
:1096D00002D1FEF723FA207010BD10B504460078C1
:1096E000182802D1FEF71AFA207010BD70B50D4689
:1096F0000446B0F83812D0F834020122FDF7B2FE69
:1097000000B1057004F13C0204F50D7104F1540040
:1097100072DF70BD70B5134600220546112900D1D5
:109720000122074C33B12179FEF71CFA002261783F
:10973000284600E06178BDE87040FEF713BA0000EB
:10974000ECE00020F7B517460E0011D00098002578
:1097500060B100242146684601F063FC18B1A0B254
:109760003946B0476D1C641C142CF3D32846FEBD4B
:109770000020FEBD406805F077BA00000EB516A1C6
:109780009DF8080020F00F00401C20F0F000103081
:109790008DF808000A2202A87CDF08B1FDF718FB4B
:1097A0004FF4407078DF08B1FDF712FB00204FF452
:1097B000C87100900190ADF80400ADF800104A00A7
:1097C000ADF80220ADF8061068467ADF002801D017
:1097D000FDF7FEFA0EBD00004E6F726469635F48CC
:1097E0005453000070B508B1012070BD1B4C00251A
:1097F000207B08B1257301E000F0A4F82078082848
:109800002AD2DFE800F02904080C10291422BDE850
:10981000704000F025B8BDE8704000F081B8BDE8A8
:10982000704000F063B8BDE8704000F03FB806201B
:1098300020706088094900EB8000283901EB800026
:109840004068BDE8704003F0CFBD07202070656020
:10985000BDE8704003F0D6BD0F2070BD28EC00209D
:109860001149F0B48A1C00200346A1F128050C1808
:10987000A67A4EB1A37200EB800405EB8404E6687F
:1098800016B9247C012C0AD0401C80B20228EED3E9
:109890000B704B804B60F0BC41F61D507047108040
:1098A000F0BC00F03DB8000028EC00200C484188D6
:1098B00001EB8102A0F1280101EB8201CA6852B1DB
:1098C00005210170074802218180016800230122DF
:1098D000054801F003BF042202704968F6E7000062
:1098E00028EC0020CCE100205CE2002038B50A49D9
:1098F000084803240B684268898803EB8101538878
:109900000470DB1C00201B0400909B0B034802F03A
:1099100039F838BD28EC0020CCE100205CE20020C2
:10992000074910B54888091D05F074FB18B1BDE85A
:109930001040FFF7DBBFBDE81040FFF7B7BF0000E6
:1099400028EC0020F0B51F481F49012506780224A5
:109950008B88A0F12802082E19D2DFE806F004183F
:10996000181B222F2F170189491C018100214180DA
:1099700080F80C1001EB810312F8233043B100236F
:109980004418491C89B2A3720229F3D30570F0BDB3
:109990000123F5E742685288D21C1A448A80047079
:1099A000F0BD46880D6806EB860602EB8602566817
:1099B0000E60556013818C80062100E00721017044
:1099C000F0BD000028EC0020CCE100202DE9F041A2
:1099D000044680882188394E86B00746352937D01D
:1099E000502923D0522902D054295DD102E000F041
:1099F0007DFF59E0182232496846FCF737FDADF883
:109A00000270384600F08EFCADF8040000F09CF9BE
:109A1000002231793846FEF7A5F80022F178384661
:109A2000FEF7A0F86846FFF769FC3DE0207B0128BF
:109A30003AD1A07A012837D12089A0F524510239E2
:109A400032D10121384600F0A5FF06F049FD2BE098
:109A50004FF0000842467179FEF784F8E288B2F5CB
:109A6000857F1DD017481849401AC008022101EB14
:109A7000004512B1284615A10BE06289012A03D0E6
:109A8000284621A102F0AEFBA289012A04D0284673
:109A90002CA102F0A7FB03E0A07B00B101208046CF
:109AA0004146384606F0CCF900223549B078FDF73A
:109AB000EBFF06B0BDE8F04105F0B0BD48E0002086
:109AC0003C0C0300E4250300E4250300556E657893
:109AD00070656374656420474154542073746174E5
:109AE0007573207768696C652067657474696E6743
:109AF0002043415220636861722076616C75653A3B
:109B000020307825780000004D756C7469706C65A4
:109B100020282564292043415220636861726163D3
:109B200074657269737469637320666F756E642CF3
:109B3000207573696E672074686520666972737436
:109B40002E000000556E657870656374656420436F
:109B500041522063686172616374657269737469EC
:109B6000632076616C7565206C656E67746820286B
:109B70002564292C2073746F726520302E0000003C
:109B80007570020070B504460078002814D1608812
:109B900000F0ACFE6588284600F098F928B1074827
:109BA0000122C1782846FDF7DDFF6088FEF78CFEB4
:109BB000BDE8704006F094BC70BD000048E0002095
:109BC00070B51A4C00252570FDF7A8FF6070FDF7F1
:109BD000A5FFA070FDF7A2FFE070FDF79FFF2071C9
:109BE000FDF79CFF607162780121182A12D0A278DB
:109BF000182A0FD0E278182A0CD02279182A09D016
:109C0000182807D004F10C000560BFF35F8F2170A6
:109C1000002070BD0648074A801AC00801EB0040CA
:109C2000054902F0DBFA032070BD000048E0002087
:109C3000E4250300E4250300341103007CB5044649
:109C40000078082837D1607A58BB207A1C4E4FF62E
:109C5000FF75012811D0072802D008282BD121E058
:109C6000A08800F0A9FA0446A84224D0012100F0FF
:109C700091FE2046FEF728FE1DE0A0886A460121DD
:109C800003F062FD68B90198007850B1A08800F037
:109C900093FAA8420FD00122F178FDF763FF05F097
:109CA000BDFC08E0F068012805D1BFF35F8F0449CF
:109CB00000200C310860BDE87C4006F011BC0000BB
:109CC00048E000202DE9F0418046024601200021B5
:109CD000FCF7B9FB1A4F05460E467868FDF706F902
:109CE00000280CD1174CD4E9062110462A4001EA7D
:109CF00006031A4305D0A843B143C4E90601BDE8F1
:109D0000F081404602F098FF30B1D4E904012843C5
:109D10003143C4E9040105E0D4E90410A943B04388
:109D2000C4E90410D4E9060128433143C4E906011B
:109D3000A1687868BDE8F0410022FDF793B8000003
:109D40009C0D030070E100201CB5054AD2E9021207
:109D5000CDE900120022694603F0BCFE1CBD0000E4
:109D6000580C030003484FF6FF71818001210170F8
:109D70000020704758E000202DE9FC41804600F0AB
:109D8000D1FA002403250127A0F57F412646FF399B
:109D900008D06A46082103F0D7FC18B90198841D41
:109DA0008688056832462B4621464046B1DF0428A6
:109DB00004D0082804D00B2808D002E0112000E0CD
:109DC0000020002F00D10B20BDE8FC810027A80750
:109DD00001D50125E6E7344303D0002426460325B8
:109DE000E0E7064806494246401AC008012101EB57
:109DF0000040044902F0F6F9E5E70000EC25030015
:109E0000E4250300A41303002DE9FC41804600F083
:109E100089FAA0F57F410646FF390ED001252A4672
:109E20006D1C0027ADB26B460821304603F0D6FC0E
:109E3000040006D0072C33D033E043F20200BDE823
:109E4000FC81019903230A1D0B604046891DB2DF86
:109E5000040004D00C2C09D0052C09D009E03246AE
:109E60000821104603F032FD04461AE0012700E005
:109E700000240821304603F01FFD70B102F0C2FD3E
:109E80000346094809493246401AC008012101EB3E
:109E90000040074902F0ADF90324002FBFD100E0D4
:109EA0000C242046CBE70000EC250300E42503004A
:109EB0002413030004488088A0F57F41FF3901D0B6
:109EC00005F0B6BB7047000058E000200EB502A9AF
:109ED000019100F027FA6A46012103F035FC08B130
:109EE00000200EBD019800780EBD00002DE9F04164
:109EF00007464FF6FF761048B3DF78B102F082FDD7
:109F000002460E480E49401AC008012101EB0040EC
:109F10000C4902F067F90320BDE8F081064C43F2DA
:109F20000305A41E324661883846AFDFA842F3D14C
:109F30006088401C6080F5E75AE00020EC250300B3
:109F4000E4250300D8120300428800EB82020C32A1
:109F50008A4201D9022070478188A1F57F42FF3AE9
:109F600003D0008808B10020704701207047884264
:109F700004D20068401C01D00120704700207047C7
:109F800030B50878002300B101234C780CB143F0C0
:109F9000020320B143F001030C7B086901E00C7956
:109FA000886864F31F605070050A9570050CD570C1
:109FB000000E10714C78052084B18C8A5471240AEB
:109FC00094718C7DD471CC7D14720C7E54724C7E55
:109FD00094728C7E43F00203D4720C208C7824B1EE
:109FE000097F115443F00403401C137030BD00007E
:109FF00070B500250446057001206070A0701549F9
:10A00000154805F0DEFAA91E2171A060217300EB4E
:10A01000C0000521B0FBF1F000F5486020610E485A
:10A020001438416861618068A061042020770A4883
:10A03000103881791B31C9B281713B2908D93C396B
:10A0400081714179491CC9B241713B2900D94571DF
:10A0500070BD000040E5002014E000203EB502780D
:10A0600002230C46B3EB520F17D1B0F80110ADF834
:10A070000010C1788DF802108188ADF80410807945
:10A080008DF8060002AA01A92046FCF7DFFD032295
:10A0900002A96846FCF715FA08B100203EBD012070
:10A0A0003EBD000070B50D460446142810D2FDF7E1
:10A0B00079FD68B1084904EB840001EB4000D0F859
:10A0C00002102960C188A980007AA871002070BDA3
:10A0D00043F2020070BD000064E6002070B5018804
:10A0E00092B0102961D1011D2C226846FCF7BEF9FF
:10A0F0009DF804004FF6FF7603213446B1EB500F74
:10A100002BD003F0A5FC9DF804006D4640080ED04E
:10A1100001280CD0022820D118E00D99281D1131FA
:10A12000FCF72CFD18B100BFBDF82C4015E00CAABF
:10A130000BA9072003F060FC0028EED10DE00D997B
:10A14000281D491CFFF78AFF0028EDD10CAA0BA996
:10A15000072003F051FC0028F1D1BDF80000B44203
:10A1600000EB8001124820F8114000EB41000199FA
:10A17000C0F80210BDF80810C1809DF80A100172E5
:10A1800013D0BDF80000ADF82E000020ADF830402F
:10A19000084E8DF82C000BAD044600BF56F8241075
:10A1A00028468847641C022CF8D312B070BD00000A
:10A1B00064E600206C0C03002DE9F0414FF6FF76B9
:10A1C0000546B04213D00B4F002400BF04EB8400BF
:10A1D00037F81000A84206D12046FDF7E3FC10B185
:10A1E0002046BDE8F081641CA4B2142CEED33046A6
:10A1F000F7E7000064E600203EB50C46054603F094
:10A2000027FC0BE0BDF80000A04207D028460299C9
:10A2100000F00EF810B1BDF800003EBD01AA69467D
:10A22000072003F0E9FB0028ECD14FF6FF703EBD9C
:10A230002DE9F0410C46054600F1110701F1110628
:10A240001022491C401CFCF73CF948B9681C00F07E
:10A25000F9F928B1601C00F0F5F908B1012400E01B
:10A26000002431463846FCF789FC3B780222B2EBE9
:10A27000530F0CD00321B1EB530F08D03378B2EB5E
:10A28000530F04D0B1EB530F01D0012100E00021A6
:10A29000084201D18C4302D00120BDE8F0810020AA
:10A2A000FBE7018811B9421892780AB10120704782
:10A2B000491C0829F7D30020704710B50C46034607
:10A2C000FFF7EFFF00280AD018882188884205D1BF
:10A2D0000822A11C981CFCF7F4F808B1002010BD5E
:10A2E000012010BD142804D2024A00EB800022F89D
:10A2F0001010704764E6002070B50546FFF75CFF5C
:10A300000446284603F024FA002808D1142C06D26B
:10A31000034B04EB84024FF6FF7123F8121070BD5B
:10A3200064E6002010B50446142808D2FDF73AFC74
:10A3300028B1044904EB840031F8100010BD4FF639
:10A34000FF7010BD64E600203EB5044603F080FBBC
:10A350000EE0019920464631FFF7AFFF28B9019979
:10A3600020462A31FFF7A9FF10B1BDF808003EBD15
:10A370006A4602A9072003F03FFB0028E9D14FF607
:10A38000FF703EBD10B50A4941600A4800F064FE06
:10A3900058B902F0C1FA07491C238C2208740448FA
:10A3A0008C39001F006800F0BDFD002010BD0000CA
:10A3B000440E0300D4EC00202DE9F0412D4F002580
:10A3C00018B17D600120BDE8F0810879012258B103
:10A3D000294E01280CD0274C4FF0020808340228DF
:10A3E00021D0032842D128E00A7103F00BF83BE0AA
:10A3F0005FF0000000EB800116F82110022908D060
:10A40000401C80B20228F5D33A707D6041F61D50A1
:10A41000D9E700EB800006F8205006EB800040688A
:10A4200002F0E2FF20E00D71A4F804800023012275
:10A430001248216801F052F916E00D71206802F00F
:10A44000D3FF0D4923682831498801EB810206EBCF
:10A450008201D1F804C0C4F800C04B60A3880B810E
:10A46000A4F8048006F822500028ACD07D600E20AD
:10A47000A9E70000C4E1002000EC00205CE200201D
:10A480000146034802888A4200D00020704700003D
:10A49000BCE500202DE9FC5F0E008346DDE90C479A
:10A4A000C6F1000098469246814600D40846012530
:10A4B00003E000BF90FBFAF06D1C5045FADAA845A6
:10A4C00000D9454624B1002E01DB780700D5641E73
:10A4D000B80702D5B8F1000F0AD0F80708D13CB18F
:10A4E000A54205D220215846641EFEF7CFF9F6E7B3
:10A4F000002E02DA4E462D2102E0780703D52B21EB
:10A500005846FEF7C3F907F0030002280BD1B8F153
:10A51000000F08D13CB1A54205D230215846641E37
:10A52000FEF7B4F9F6E7CDE9004743465246314617
:10A53000584605F07BFFBDE8FC9F000070B50D4656
:10A54000044600684FF4887102F07CFA4FF4907171
:10A55000206802F077FA4FF49271206802F072FAE4
:10A560004FF4A271206802F06DFA20681249C0F819
:10A5700004132068690740F30730090E002806DA43
:10A5800000F00F0000F1E02080F8141D03E000F15E
:10A59000E02080F800142068012140F3073000F02B
:10A5A0001F0291404009800000F1E020C0F88012B5
:10A5B000C0F8001170BD0000100302000246002028
:10A5C0001268530713D502F00300012802D00228B5
:10A5D0000CD105E0C2F383100B68801C184404E022
:10A5E0000223086803EB9252104408600120704770
:10A5F0000248007A002800D001207047D4EC0020E7
:10A60000F0B58488A518944200D82246A41AC288BE
:10A61000D6189A4200D81346D21A4B880788BB42F4
:10A620000CD34088834209D88888A04206D3A84228
:10A6300004D8C888904201D3B04201D90020F0BDAF
:10A640000120F0BD0021425C0AB101207047491C85
:10A650001029F8D300207047800701D000207047F0
:10A66000012070470A4810B5807860B1002401E0ED
:10A67000022C06D02046FDF771FE641C042CF7D393
:10A6800010BD0324F6E7BDE81040FDF78BBE0000C7
:10A6900028E0002003480179C90702D00078FDF7BF
:10A6A000C5BF704728E000201721018041800021AC
:10A6B000017141711B218171C17170472DE9FE4FFC
:10A6C0002E4F984692460D00814601D000260DE09F
:10A6D000684600F0FDFB6A460021484602F08CFF08
:10A6E0003878009E10B99DF8090098B1524631465D
:10A6F000484605F07FFA0446014600224846FFF727
:10A7000009F80D2C37D008DCA4B3082C33D00B2C5F
:10A7100009D130E00520BDE8FE8F112C1ED0A4F534
:10A720004050023827D0204602F06CF90246144807
:10A7300014494B46401AC008012101EB0040124960
:10A7400001F057FD5FF00305B8F1000F04D0324669
:10A7500021464846FEF77CFD2846DCE72A46F97884
:10A760004846FDF7FFF95246B9784846FDF7FAF931
:10A770000025E9E7FFE72546E6E70000ECE00020DA
:10A780002C260300E4250300801D030070B50E464F
:10A790000C49154604460978FDF7CCF900280FD07E
:10A7A000204602F0CFFE00282A463146204603D03C
:10A7B000BDE8704002F0CCBEBDE87040FEF7A8BC1A
:10A7C00070BD0000E4E0002070B5094D0646A97890
:10A7D000FDF7B0F90446E9783046FDF7ABF90146DC
:10A7E00022463046BDE870400123FFF767BF0000F6
:10A7F000ECE000202DE9F047394E002780463D4629
:10A80000DFF8E090D6F804A057E003D00446D0F873
:10A810001C8035E099F8002002EB4201521CD2B2B4
:10A8200089F8002009EBC10199F80230091D9A420C
:10A8300001D189F8005048680A780446012A12D0EC
:10A84000022A02D0032A3BD108E005F0C1FB00B187
:10A850000127257434E00574C06900E070680028A1
:10A86000F9D170602CE0207C50BB88686060C868BB
:10A87000A0600869E0604869A061F07800B1656097
:10A880006268B168184B501A20F07F40984202D29B
:10A89000A168084406E0881AA16820F07F40814240
:10A8A00002D9081A206000E0256065600120A560DB
:10A8B00020742046E56105F06DFBB8F10000A4D1DD
:10A8C00099F8001099F801008142A3D117B9716875
:10A8D000514502D00120BDE8F0870020FBE70000D1
:10A8E00090E1002030EA0020FFFF7F00F0B587B044
:10A8F0000546002718216846FBF7D1FDA5F57F40E6
:10A90000ADF80250FF3825D02846FFF735FA04008D
:10A9100022D01B481B49401AC6080B2C22D0112CF0
:10A920001ED0A4F5405002380ED0204602F06AF83E
:10A930000246012000EB06402B46134901F059FC6A
:10A940002146284604F0CAFD10483A468178284638
:10A95000FDF708F907B0F0BD0E208DF800000BE000
:10A960000127F1E70F208DF80000022000EB0640E0
:10A970002A46074901F036FC6846FEF7BFFCE3E7CC
:10A98000E4250300E42503000412030048E000204E
:10A99000581203000A4602494978FDF7E3B800005F
:10A9A00048E000202DE9F041002786B080463E4671
:10A9B000FFF72AFA040022D0112C22D01B481C4990
:10A9C000401AC508862C1ED0A4F5405002380ED07F
:10A9D000204602F017F80246012000EB05404346EE
:10A9E00014A101F006FC2146404604F077FD3946EB
:10A9F0004046FFF7CFFF06B03046BDE8F0810126A4
:10AA0000F5E70127F3E718221A496846FBF72EFD00
:10AA10000220ADF8028000EB0540424616A101F08D
:10AA2000E1FB6846FEF76AFCE1E70000E42503006D
:10AA3000E42503006773636D5F6C6F63616C5F6433
:10AA4000625F63616368655F75706461746528291E
:10AA50002072657475726E656420257320666F724E
:10AA600020636F6E6E5F68616E646C653A2025646A
:10AA7000000000000C0C0300466C617368206675D2
:10AA80006C6C2E20436F756C64206E6F7420737431
:10AA90006F7265206461746120666F7220636F6EEF
:10AAA0006E5F68616E646C653A202564000000008A
:10AAB0002DE9FF410026234800F0CBFA2148001F72
:10AAC000074600F0C6FA204C60680090A56800E0D8
:10AAD00000986946284004EB80000C30FFF76EFDBB
:10AAE0000028F5D101AA009901EA050304EB8303CC
:10AAF000491CDB6842F82030401C00910228F2D348
:10AB0000019800F0030001280BD0022810D1019811
:10AB1000032101EB90500099BDF80A6001EB900011
:10AB200005E00198BDF80A60C0F383100844009066
:10AB3000384600F08BFA08B10098606004B03046E7
:10AB4000BDE8F081A4F200208CEE0020ACB04FF400
:10AB50000041002001F0BEFB08B1FCF739F901F01B
:10AB600015FAFCF755F908B1FCF732F9544A0121FE
:10AB70005448FCF739F908B1FCF72AF95249032087
:10AB8000FDF70AFD08B1FCF723F969460020FDF73F
:10AB90002DFC08B1FCF71CF99DF8000002287DD0BF
:10ABA0005FF0000601F0ACFC08B1FCF711F901F010
:10ABB00067FE08B1FCF70CF90024694601200094F7
:10ABC00001F0EEFC08B1FCF703F9684601F068FDFE
:10ABD00008B1FCF7FDF8FEF7D1FD00213B4800F07D
:10ABE000CEFA08B1FCF7F4F8AC216846FBF757FC45
:10ABF00002208DF8000001208DF8020006210325B7
:10AC00008DF87C008DF80310ADF8105028203049E5
:10AC10002290059144F2506023902E4829902B48B1
:10AC200069462030FCF74EFC08B1FCF7D1F8274804
:10AC300001212030FCF742FC04F0DAFD04F076FC40
:10AC40001C216846FBF72BFC4FF42030CDE9004077
:10AC50004FF4702002902048059020488DF80C5049
:10AC60000690ADF80E408DF810406846FCF7C2FE25
:10AC700008B1FCF7ADF803F073F819481949401A08
:10AC8000C00805EB004018A101F0A8FA0D48002209
:10AC90004FF480310068FCF7E5F800E00DE008B102
:10ACA000FCF796F83046FBF7A9FF00BF01F07CF9EE
:10ACB0000028FBD101F038FCF8E7012672E700001C
:10ACC00095720200A80B0300E1840200B8E20020A4
:10ACD0001CE0002061D10200B5D10200738D02009A
:10ACE0007C260300E42503004865616C74682054E9
:10ACF0006865726D6F6D65746572206578616D70E1
:10AD00006C6520737461727465642E0070B51446AE
:10AD100082880E4605462088111D0144921C9942E6
:10AD200001D8FE2A01D90C2070BD521C3254208853
:10AD3000FF21401C80B2208031542088401C80B20A
:10AD400020808119288805F05BFB2188084480B2A7
:10AD50002080AA8842B1A96841B13044FBF786FB44
:10AD60002088A98808442080002070BD072070BD7D
:10AD70002DE9F047C5881E1DB6FBF5F78946B6FBE1
:10AD8000F5F1044605FB176C407916686843DDF859
:10AD900020A0F718001F874200D9C61A166001E0EC
:10ADA0002468491E0029FBD1A5EB0C078846B74251
:10ADB00016D818E004EB0C00001D09EB0803BAF1EB
:10ADC000000F3A4602D00146184600E01946FBF74C
:10ADD0004DFB2468F61B4FF0000CB844B54201D976
:10ADE000374600E02F46002EE4D1BDE8F087000092
:10ADF00030B5024651B101F08BFA0021074C08E052
:10AE000034F821301568AB4202D11160002030BD0A
:10AE1000491C8142F4D3052030BD00000000000031
:10AE2000BFF35F8F00F0FDB8F8B50F460178144608
:10AE30000546012901D1687830B12088821C9A42E8
:10AE400032D8012902D006E00720F8BD6978014414
:10AE5000891C994228D8181A801E86B2ADF8006065
:10AE60002188B81C084469467DDF0028EDD1297887
:10AE7000022904D06878BDF80020904205D3BDF8BF
:10AE80000000B04201D809200AE00820012905D1BC
:10AE90006978B14202D8ADF8001001E0ADF8006069
:10AEA000BDF80010FE2901D90C20F8BD2288491CEC
:10AEB000B9542188491C89B2218078542088401CCB
:10AEC0002080BDF80010084420800020F8BD00005C
:10AED000034A00219268C0E90021816070470000A8
:10AEE000ECE0002070B54FF6FF750E46A84201D188
:10AEF000002000E0401C84B208E02146304600F00B
:10AF000090F808B1204670BD641CA4B2FF2CF4D99F
:10AF1000284670BD10B5FBF7C8F908B1002010BD78
:10AF2000112010BD10B531B1B2FBF3F403FB1424B2
:10AF30001CB1092010BD0E2010BD01600021416030
:10AF400081608281C381084610BD70B50C460546FC
:10AF5000FBF760F9002802D021882868084470BDFA
:10AF600010B50A8849888A4203D1FBF795F9012078
:10AF700010BD002010BD70B50C460546FBF76FF9FB
:10AF8000002802D061882868084470BD10B50A887E
:10AF900049888A4203D1FBF759F9012010BD0020EE
:10AFA00010BD01F01F0301229A40D243490900EB72
:10AFB0008100114600F059B80A4601F01F03012133
:10AFC000994010B552090C4600EB820000F05DF884
:10AFD000204000D0012010BD2DE9F04180460D46F3
:10AFE0000024481E012101EB501716E058F82400F8
:10AFF000C04390FAA0F0B0FA80F020280CD200EB09
:10B000004416AE4208D231464046FFF7D5FF00282D
:10B01000ECD13046BDE8F081641CA742E6D8284652
:10B02000F8E74A0950F8220001F01F02012191407F
:10B03000084000D00120704701F01F0301229A4010
:10B04000490900EB8100114600F029B8002100F009
:10B0500017B8012100F023B8012100F016B808B597
:10B060006A46FBF76EF9009808BD08B56A46FBF71B
:10B070004EF9009808BD08B56A46FBF762F908BDAD
:10B0800008B56A46FBF743F908BD08B56A46FBF701
:10B0900031F908BD08B56A46FBF720F908BD08B5C7
:10B0A0006A46FBF727F9009808BD08B56A46FBF722
:10B0B00055F9009808BD38B5044600258DF80050B4
:10B0C0006846FBF723FF21686268086890420ED942
:10B0D000401E08600178238AE26801FB0325227A7A
:10B0E0002168101AC0B20A79824200D208719DF814
:10B0F0000000FBF72FFF284638BD38B50546002075
:10B100008DF800000C466846FBF700FFE868298AC6
:10B11000201AB0FBF1F12A681068431C136001701B
:10B120009DF80000FBF716FF38BD10B530B1017A6D
:10B1300042680368891AC9B21A6006E00E2010BD81
:10B1400003681A68541C1C601170491EC9B2F7D2FA
:10B15000006800210171084610BDC20800F0070315
:10B160000120895C98400840704710B5C20800F083
:10B170000703885C01249C402043885410BD10B50F
:10B1800060B10161172120F8021B20F8021B1B216E
:10B1900000F8021BFFF788FA002010BD0E2010BD3A
:10B1A000F0B5858893B00C46002D39D10188002672
:10B1B0003F4F24293BD006DC102909D011290CD09F
:10B1C000232958D14FE03A290BD0552953D129E0F2
:10B1D0000146204601F0FCFF4DE0A01DFFF764FA98
:10B1E00049E02246408934F8061F814200D80846CB
:10B1F0006080172800D217206080106970B16079D4
:10B2000060B1D7E90001CDE90301ADF80E506088C7
:10B21000ADF81000136903A91046984766712671AE
:10B2200013B0F0BD0146204602F026F823E0011DD0
:10B230002C2206A8FBF71AF9BDF81800BDF81C204F
:10B2400004EBC0014A732269AAB1D7E90423CDE90E
:10B250000423ADF81200487B8DF8140022692046C3
:10B2600004A9904707E0017A207B884200D201467A
:10B270002846FDF7C9FDA07A0028D1D0E1882846EC
:10B28000A5DF012580B11128CAD001F0BBFB024621
:10B290000848094913B0401AC00805EB0040BDE852
:10B2A000F04006A100F09EBFA672E572B8E700006C
:10B2B000740C0300FC250300E425030073645F6243
:10B2C0006C655F67617474635F65786368616E67FE
:10B2D000655F6D74755F726571756573742829207B
:10B2E00072657475726E65642025732E000000000F
:10B2F00020B10278DE2A03D0082070470E20704764
:10B3000041800020704760B159B10278DE2A0AD02E
:10B3100009684160DE2101704FF6FF714180002015
:10B3200070470E207047082070477FB505460029FA
:10B330004DD0002D4BD008780C46DE2847D1A88888
:10B340006188884202D1204605F028F92888012822
:10B3500025D002283BD011283AD0512837D135F8D2
:10B36000040F6188884232D1A978A81C02292ED105
:10B37000017A042903D0062901D0052927D100210B
:10B38000009102228DF8002001914FF4C0720291C9
:10B390000391ADF80420007A05280FD010E0297A37
:10B3A0002046012913D1A988428891420FD1012159
:10B3B000017204B0BDE8704005F0F0B8ADF80410BB
:10B3C00028886946B0DF002801D0616888477FBDC2
:10B3D000A88861888842FAD14FF6FF7060807FBDEF
:10B3E00000F180400068002800D00120704708B5B7
:10B3F00000F18040002101600068009008BD00005D
:10B4000070B50B4C207808B185250FE00020A060B6
:10B4100060602061E060074801F032FB054601F002
:10B420007BFA08B901F014FB01202070284670BD9A
:10B4300048E90020E58B020038B500258DF8005062
:10B440006846FBF763FD074CE068401EE060E0687B
:10B4500010B901F025FBA5709DF80000FBF77AFDFF
:10B4600038BD000048E90020F0B5054604781548CD
:10B4700089B0164640F82420124A08690832A2F121
:10B480000C0742F82400487F385520226846FAF716
:10B49000EDFF04942878385C48B10EB10A4A00E008
:10B4A00000226946281D01F077FD09B0F0BD0EB1FC
:10B4B000064A00E00022694605F10C0001F03EFC5E
:10B4C000F3E7000050E10020DD0203002901030042
:10B4D0000FB408B50399002904D004AA00926A4663
:10B4E00000F00FF801B05DF814FB10B58268044657
:10B4F000002A05D0D4E90403216898470020A06001
:10B5000010BD2DE9FC4791460C00804676D014F81A
:10B51000011B39B125290ED04046FDF7B7F9207837
:10B520000028F4D198F80C00002867D04046BDE808
:10B53000FC47FFF7DABF0020012221782B291BD01E
:10B540002D2902D0302908D102E040F0010001E0AD
:10B5500040F00200641C002AEFD100252A290ED0F9
:10B560002178A1F130020A2A11D205EB850201EB04
:10B570004205641C303DF1E740F00400EAE7D9F8E9
:10B5800000100B1DC9F800300968641C0D442178B7
:10B5900000232E290BD114F8011FA1F130020A2A31
:10B5A00005D203EB830201EB4203303BF3E76C2946
:10B5B0000DD068290BD0692921D00BDC252918D0A2
:10B5C000582931D063290ED0642915D117E014F819
:10B5D000011FECE7702969D0732932D075291BD07F
:10B5E000782909D120E0D9F80000011DC9F8001020
:10B5F00001784046FDF74AF9641C90E76CE0D9F801
:10B6000000100A1DC9F800200968CDE900500A227F
:10B610004046FEF73FFFEFE7D9F800100A1DC9F8D2
:10B62000002009680A2206E0D9F800100A1DC9F8AE
:10B63000002009681022CDE90050404604F0F6FED3
:10B64000DAE7D9F8001000270A1DC9F800200E68B3
:10B65000C00705D112E04046761C7F1CFDF716F9A5
:10B6600031780029F7D104E0202140466D1EFDF716
:10B670000DF9BD42C0D9002DF6D1BDE74EB130461F
:10B68000FAF718FF074604E0202140466D1EFDF73B
:10B69000FDF8BD4206D9002DF6D103E04046761CE8
:10B6A000FDF7F4F831780029F8D1A5E7D9F80000C2
:10B6B000011DC9F80010056830214046FDF7E6F885
:10B6C00078214046FDF7E2F808200021CDE900018D
:10B6D000034610222946B0E7BDE8FC872DE9F84370
:10B6E000884605002C482D499946A0EB01004FEAF9
:10B6F000D0004FF00101164601EB004424D0286829
:10B7000000282CD0002E34D0696840464FF0100736
:10B710000A68511E11EA080F11D1014672432846EA
:10B72000FBF745FA00282ED028684B4632460469BC
:10B7300001B041462846A446BDE8F0436047204694
:10B74000174B18A2009722E00E2000902046144BC1
:10B750001EA220A100F055FD0E20BDE8F8830820B0
:10B76000009020460E4B26A21AA100F04AFD0820A8
:10B77000F3E7092000902046094B24A215A100F010
:10B7800040FD0920E9E7064B214A2046009711A118
:10B7900000F037FD1020E0E76C260300E4250300ED
:10B7A0002B0E0300616464725F69735F706167658B
:10B7B0005F616C69676E656428705F66732C2070CA
:10B7C0006167655F6164647229000000705F667381
:10B7D00000000000257320636865636B2066616963
:10B7E0006C656420696E2025732829207769746848
:10B7F0002076616C756520307825782E0000000079
:10B80000705F66732D3E705F617069006C656E00DD
:10B81000441E030038B503001148124D4FF00E04CA
:10B82000A0EB05004FEAD0004FF0010505EB00400A
:10B8300009D061B119600C6801B0A446BDE8304080
:10B84000114618466047084B08A2009402E0064BD8
:10B8500008A2009409A100F0D4FC0E2038BD00001D
:10B860006C260300E4250300E00D0300705F66739F
:10B8700000000000705F61706900000025732063A4
:10B880006865636B206661696C656420696E20255C
:10B8900073282920776974682076616C756520307B
:10B8A0007825782E00000000044801214174007AB8
:10B8B00008B100207047012070470000D4EC002040
:10B8C000012801D0032808D10449002201284A7424
:10B8D00000D00020087403F017BA7047D4EC0020A1
:10B8E00070B50246022801D0032A45D1234C207AA4
:10B8F000002841D0012833D0022831D1204800232C
:10B90000022A006802D0032A2AD11BE0E3600179F1
:10B9100011B1012924D10DE0D0E90565711B4FF467
:10B920008056B14200D33146294481614569A9421C
:10B930000ED015E00169491C0161426991420FD1A5
:10B94000237213E0E168491CE160082908D9E3602B
:10B950002372022A0AD00D21FDF750FC03F07AF978
:10B96000607C28B1BDE8704000F0DCBF0021F3E747
:10B97000BDE8704003F0C8B970BD0000D4EC0020F1
:10B98000D4E100202DE9F84F90468A463A493B4AD7
:10B990000500A1EB02014FEAD1014FF00102DDF8F1
:10B9A00028901E464FF00E0002EB01441AD0B8F169
:10B9B000000F1CD02868002822D00920002E29D092
:10B9C00069684968B6FBF1F201FB1261002926D0D3
:10B9D00000902B4B20462BA235A100F012FC092031
:10B9E000BDE8F88F00902046254B3CA203E0009074
:10B9F000234B20463BA22EA100F003FC0E20EFE7D4
:10BA00000820009020461E4B38A229A100F0F9FB27
:10BA10000820E5E700902046194B37A2DCE75046A6
:10BA2000FBF7BFF8102798B14046FBF7BAF8A0B172
:10BA3000324651462846FBF7BAF898B1CDF8009047
:10BA4000286833464246C46851462846A047C7E79F
:10BA500020460B4B29A2009708E02046084B2DA258
:10BA6000009703E0064B204633A2009710A100F098
:10BA7000C8FB1020B4E700006C260300E425030097
:10BA8000180E030021286C656E202520705F6673F8
:10BA90002D3E705F666C6173685F696E666F2D3EE8
:10BAA00070726F6772616D5F756E69742900000056
:10BAB000257320636865636B206661696C6564202B
:10BAC000696E202573282920776974682076616C57
:10BAD000756520307825782E00000000705F667351
