:020000040002F8
:10600000A0A70220C1630200C9630200CB630200A3
:10601000CD630200CF630200D163020000000000E4
:10602000000000000000000000000000D363020038
:10603000D563020000000000D7630200D9630200AC
:10604000A1690200DB630200616C0200DB630200F5
:10605000DB630200DB6302008D650200DB6302008C
:10606000DB630200DB630200DB630200DB63020030
:10607000DB630200DB630200DB630200DB63020020
:10608000E96D0200F9690200DB630200DB630200D4
:106090007D6A0200DB630200816A0200DB630200AA
:1060A000DB630200DB630200DB630200DB630200F0
:1060B000DB630200DB630200000000000000000060
:1060C000DB630200DB630200DB630200DB630200D0
:1060D000DB630200DB630200DB630200DB630200C0
:1060E0006D6C0200DB630200DB6302000000000055
:1060F00000000000DB63020000000000DB63020020
:10610000000000000000000000000000000000008F
:10611000000000000000000000000000000000007F
:10612000000000000000000000000000000000006F
:10613000000000000000000000000000000000005F
:10614000000000000000000000000000000000004F
:10615000000000000000000000000000000000003F
:10616000000000000000000000000000000000002F
:10617000000000000000000000000000000000001F
:10618000000000000000000000000000000000000F
:1061900000000000000000000000000000000000FF
:1061A00000000000000000000000000000000000EF
:1061B00000000000000000000000000000000000DF
:1061C00000000000000000000000000000000000CF
:1061D00000000000000000000000000000000000BF
:1061E00000000000000000000000000000000000AF
:1061F000000000000000000000000000000000009F
:10620000DFF80CD000F084F9004800474992020002
:10621000A0A7022030B450E8012F93B2C4892344D0
:106220008489A34228BF1B1B0489A34202BFBFF37A
:106230002F8F002007E0C3EA020340E80134002C5E
:10624000E9D14FF001000A6030BC704750E8012FDF
:10625000C2EA024240E801210029F7D1704730B478
:1062600050E8022F1FFAA2F3C488A34202BFBFF373
:106270002F8F00200DE0C48923448489A34228BFC6
:106280001B1BC2EA034340E80234002CE8D14FF064
:1062900001000A6030BC704750E8022FC2EA224277
:1062A00040E802210029F7D17047034653E8022F46
:1062B000D988B2EB324F4FF0000017BF92B241EADB
:1062C000014142EA014104E05A68B2EB324F08BF93
:1062D000012043E80212002AE8D1704730B4044696
:1062E00054E8000F0D4644E80053002BF8D1156028
:1062F00030BC704730B4044654E8000F40EA010552
:1063000044E80053002BF7D1156030BC704730B41F
:10631000044654E8000F00EA010544E80053002B4E
:10632000F7D1156030BC704730B4044654E8000F14
:1063300080EA010544E80053002BF7D1156030BC1A
:10634000704730B4044654E8000F00EB010544E800
:106350000053002BF7D1156030BC704730B40446B1
:1063600054E8000FA0EB010544E80053002BF7D1DF
:10637000156030BC704770B404464FF0000054E81C
:10638000006F0D68AE4207BF44E80023012044E8D7
:1063900000630E60002B1CBF0020F0E770BC70474C
:1063A00030B4044654E8000F88422CBF451A054615
:1063B00044E80053002BF5D1156030BC7047000055
:1063C0000648804706480047FEE7FEE7FEE7FEE78F
:1063D000FEE7FEE7FEE7FEE7FEE7FEE7856A02006E
:1063E000016202002DE9F05F0546002092469B46BF
:1063F00088460646814640241BE0284641464746DB
:10640000224600F074F853465A46C01A914110D300
:1064100011461846224600F016F82D1A67EB0108BF
:106420004F4622460120002100F00DF817EB00092D
:106430004E41201EA4F10104DFDC484631462A46C5
:106440004346BDE8F09F202A04DB203A00FA02F11F
:10645000002070479140C2F1200320FA03F3194352
:1064600090407047004870471CD9020040EA010381
:106470009B0703D009E008C9121F08C0042AFAD2FA
:1064800003E011F8013B00F8013B521EF9D27047BE
:10649000D2B201E000F8012B491EFBD27047002266
:1064A000F6E710B513460A4604461946FFF7F0FF13
:1064B000204610BD421C10F8011B0029FBD1801A98
:1064C000704730B504460020034600E05B1C934251
:1064D00003D2E05CCD5C401BF8D030BD034611F820
:1064E000012B00F8012B002AF9D118467047202A09
:1064F00004DB203A21FA02F00021704721FA02F36E
:10650000D040C2F120029140084319467047000074
:10651000064C074D06E0E06840F0010394E80700F0
:1065200098471034AC42F6D3FFF76EFE68E20200E3
:1065300088E2020070B58C1810F8015B15F00703B3
:1065400001D110F8013B2A1106D110F8012B03E00C
:1065500010F8016B01F8016B5B1EF9D12B0705D414
:106560000023521E0DD401F8013BFAE710F8013B5D
:10657000CB1A921C03E013F8015B01F8015B521E79
:10658000F9D5A142D8D3002070BD00002DE9F04F0D
:1065900000268DB0DFF8A081B14604964FF48075D7
:1065A000012437460596284604F046FA38B1D8F853
:1065B0000403204203D0284604F034FA26432D1D5C
:1065C00064007F1CADB2082FEDD34FF4BE7420469B
:1065D00004F032FA48B1204604F024FA46F00046AE
:1065E00004AA0221002004F007FA544C16F0FF0F11
:1065F00015D00127002537420DD008EB8501D1F8D1
:106600001005D1F81015C0F3052054F82520C1F36A
:10661000014102B190477F006D1C082DEBD3002E85
:106620007EDA0020CDF82890411E0DF1100B07AA4C
:10663000CDF82C9042F82010401C91460228F9D346
:1066400000252E46A11911F8607F91F9000027F06E
:10665000C008401C40D007A9404603F043F840B3AF
:106660004FEA971A404602F029F854F820701FB1FB
:10667000BAF1030F03D006E0BAF1030F2CD10AA937
:10668000404603F037F802A8CDF8088004F076F908
:10669000029900EB8100D0F8000704A9C0F3014083
:1066A0000290404603F01EF80028029802D002280B
:1066B00002D011E003280FD1BAF1030F08D10298DC
:1066C000022833D00221404604F040F96D1CEDB29F
:1066D00017B151464046B847761C042EB2D3002D60
:1066E00021D001AA0221002004F086F900205A4698
:1066F0000DF1040152F8206051F82030B34217D058
:1067000000200AAE4FEA090351F8207042F82070C9
:1067100056F8207043F82070401C0228F4D300E0A3
:1067200001E0002D8CD10DB0BDE8F08F0321CAE748
:10673000401C0228DED3F6E700600040A47C022063
:1067400000F01F02012191404009800000F1E0208B
:10675000C0F88012704700F01F02012191404009EB
:10676000800000F1E020C0F80011704700F01F0227
:10677000012191404009800000F1E020C0F80012A2
:1067800070474907090E002806DA00F00F0000F1F3
:10679000E02080F8141D704700F1E02080F800141C
:1067A000704700002DE9F043D9B04FF0FF305A4C4C
:1067B00057903220656803F06FFA606885427DD19A
:1067C000002D7BD006F000FE544861680844091F84
:1067D00010F8042C50F8030C42EA002657AA4F4840
:1067E00002F018F9034657904D484E490096401A5A
:1067F000C108032000EB014005464BA1626804F08C
:106800006CFB3346579A48A0616800F093FB6068C0
:10681000B0F5205F6ED9579886426BD103F02AFA03
:1068200005F01EFC4FF47A76304603F035FA6168C5
:106830003A48091F05F09AFC002003F055FA4FF47E
:10684000AE773A4643494448FFF710FE4248616834
:106850004FF47C3C091F4162579A0123C0F848C09D
:10686000C0E90A233D4880E80E1002F045FA0020F6
:1068700003F0BAFA00283DD12846364A38A104F080
:106880001DFB344936A000F055FBB146304603F0FD
:1068900003FA3A462F496846FFF7E8FD2E4F0C21D0
:1068A0002437B84636A000F045FB002636A0B95D77
:1068B00000F040FB761CB6B20C2E00E01CE0F5D3D5
:1068C00032A000F037FB0C212DA009AF00F032FB05
:1068D00000262DA0B95D00F02DFB761CB6B20C2E63
:1068E000F7D32AA000F026FB0C2241463846FFF7DA
:1068F000E8FD20B10020606059B0BDE8F083284673
:1069000023A104F0D7FA22A000F014FB484603F0BC
:10691000C3F901F031FE000000E00020D0E10020CA
:10692000F8E2020098E20200696D61676520736910
:106930007A653A25642C2063616C5F6372633A2543
:1069400078202066696C655F6372633A25780D0A6A
:106950000000000000F00F008C770220207602205B
:106960006669726D776172652075706C6F61642005
:10697000737563636573733A25780D0A0000000030
:106980006466752025643A00257820000D0A000011
:10699000626F6F742073746172742121210D0A007B
:1069A00070B54FF48076304603F066F9114CB505AA
:1069B00060B1304603F067F90120C5F8080360793B
:1069C00020B9012060712168002088474FF4827649
:1069D000304603F051F900280AD0304603F053F94D
:1069E0000220C5F808032168BDE87040012008476F
:1069F00070BD0000ECE0002007480021C0F8401105
:106A0000C0F84411C0F84811C0F84C11C0F800118A
:106A1000C0F8041106F070B90010014000F0FCB994
:106A200070B50E46144900EB400001EBC00514465A
:106A3000E86A183520B101280FD0022805D113E0EB
:106A4000284600F01DFAA04201D2002411E022469F
:106A50003146284600F04CFA0BE0284600F010FAC8
:106A6000A042F4D20446F2E73146284600F013FA79
:106A70000446204670BD00001485022006F0AEB822
:106A800004F0C2BD30B54FF0805000228300D0F832
:106A90003011C3F80C21C3F81021624B1A60624B0D
:106AA0001B68624C2360604B1B1D1B68241D236008
:106AB0005D4B08331B68241D23605B4B0C331B6844
:106AC000241D2360584B10331B68241D2360564B34
:106AD00014331B68241D2360534B18331B68534C1D
:106AE00020342360504B1C331B68241D23604E4B05
:106AF00020331B68241D23604B4B24331B68241D4B
:106B00002360494B28331B68241D2360464B2C33DC
:106B10001B68241D2360444B30331B68434C4034B6
:106B20002360414B34331B68241D23603E4B3833B4
:106B30001B68241D23603C4B3C331B68241D2360D1
:106B4000394B40331B68241D23600124082902D1DE
:106B5000D0F8343113B1082904D006E0354B34495C
:106B6000196005E0D0F8343113B1082904D006E0EB
:106B7000314BFB21196005E0D0F8343113B10829FD
:106B800008D00EE090F858322C48016863F30301F6
:106B9000016002E0D0F834311BB929494FF400708C
:106BA000086028480168C90702D06FF00101016040
:106BB0002548016841F470010160BFF34F8FBFF3B6
:106BC0006F8F4FF01021D1F80002002803DBD1F8BD
:106BD0000402002822DA1D4B1C601D480468002CAA
:106BE000FCD01224C1F800420568002DFCD0C1F889
:106BF000044201680029FCD01A6001680029FCD019
:106C0000BFF34F8F10487C380168124A01F4E061ED
:106C100011430160BFF34F8F00BFFDE70F490E48DE
:106C2000086030BD380500400404001020C5004055
:106C3000488103008C56004018F50040E40E0040E7
:106C4000409602400004004088ED00E004E5014069
:106C500000E401400400FA050090D00390E1002018
:106C60000148006800470000F4E0002001490248A4
:106C700006F00EBA607D02200080024000B58DB0A3
:106C8000182212496846FFF7F1FB11490322104808
:106C9000C1F840D0103900F023FD08B100F022FC0B
:106CA0000A491822183106A8FFF7E0FB084906A890
:106CB000543107220864103901F1100000F010FD72
:106CC000002801D000F00EFC0DB000BDD8D40200A9
:106CD00018E0002070B515460E4618B101280BD1FA
:106CE000002411E0002405E0315D094800F04EFD6C
:106CF000641CE4B2AC42F7D370BD0548315D54303A
:106D000000F044FD641CE4B2AC42F6D370BD000058
:106D100018E0002010B586B00446142210A1684681
:106D2000FFF7A4FB134930206A4601F8010B7820D5
:106D300001F8010B0620A41D401E14F8013D10F0BF
:106D4000FF0002EB13131B7801F8013B237803F0DB
:106D50000F03D35C01F8013BEED106B0054810BD2E
:106D60003031323334353637383941424344454681
:106D700000000000D075022030B585B00D460446F5
:106D8000142213A16846FFF771FB164A30206946AA
:106D900002F8010B782002F8010BE8B20EE023782C
:106DA000401E01EB1313C0B21B7802F8013B14F82C
:106DB000013B03F00F03CB5C02F8013B0028EED14E
:106DC000084901EB4501887005B0064830BD000058
:106DD0003031323334353637383941424344454611
:106DE00000000000DF75022038B50848D0F8040321
:106DF0004FF0000410F0010F06D0054840688047AE
:106E0000044804600068009038BD000000000140A4
:106E100024E100200001014010B5124C0220206145
:106E2000606111A0A06104F17800E0614FF400708E
:106E300020620020A06260620BA1A164E06204F500
:106E40001E71E1641021A065C4E91410E06509A178
:106E5000E01DFFF743FB08A12046FFF73FFB202082
:106E6000A07110BD148502205465726D696E616C4D
:106E7000000000005254540053454747455200005B
:106E80000269C1688A4203D88068401A104400E051
:106E9000501A401E70472DE9F047C46817468946CE
:106EA00006464FF000083069A04201D9051B02E0F8
:106EB000B168201A0D1AB0686D1E001BA84200D8D8
:106EC0000546BD4200D33D4670682A4620444946E7
:106ED000FFF7CCFAB0687F1B2C44A844A944A04219
:106EE00000D10024F460002FDDD14046BDE8F087DA
:106EF0002DE9F04104468846D4E90207C51BE16844
:106F0000606816460844B54206D94146FFF7AEFA16
:106F1000B819E060BDE8F0812A464146FFF7A6FABD
:106F2000761B08EB050132466068FFF79FFAE660C2
:106F3000F0E700000FB4054B10B503A9044A02980E
:106F400000F030F810BC5DF814FB0000A98D0200C1
:106F500018E1002002E008C8121F08C1002AFAD177
:106F600070477047002001E001C1121F002AFBD1C9
:106F7000704700000121202803DA814005480140C4
:106F800003E0402802DA2038814009B1012070472F
:106F900000207047FC06FFBD0146014800F0F6BB2B
:106FA00018E000202DE9FF4F8DB00F460546002662
:106FB00006E025280BD0DDE90F1290476D1C761CEA
:106FC00028780028F5D111B03046BDE8F08F0024B4
:106FD000A246A1460122EC4900E0044315F8013F16
:106FE000203B02FA03F00842F7D128782A2810D073
:106FF0006FF02F022878A0F13001092914D80AEB8C
:107000008A0102EB410144F0020400EB010A6D1C0D
:10701000F0E701CF5FEA000A03D544F40054CAF157
:10702000000A44F002046D1C28782E2817D115F8A8
:10703000010F44F004042A280ED06FF02F022878A4
:10704000A0F1300109290AD809EB890102EB4101BD
:1070500000EB01096D1CF2E757F8049B6D1C2878C2
:107060006C280FD006DC4C2817D068280DD06A2871
:1070700014D104E0742810D07A280FD10DE044F424
:1070800000140AE044F4801401E044F440146978E8
:10709000814202D104F580146D1C6D1C2A786E2A81
:1070A0001FD00CDC632A31D004DC002A8BD0582A94
:1070B00011D1A3E0642A68D0692A0CD165E0732A53
:1070C0002ED004DC6F2A73D0702A04D19BE0752A7D
:1070D0006FD0782A6ED01046DDE90F129047761CEB
:1070E00050E1C4F30250022806D0032809D0042836
:1070F00001CF09D0066045E101CFF117C0E9006179
:1071000040E101CF06803DE106703BE117F8040B3A
:107110008DF8000000208DF80100EB46012003E00F
:1071200057F804BB4FF0FF3061074FF0000102D465
:107130000DE008F10101884649450FDA8045F8DB8A
:107140001BF808100029F4D108E008F10101884675
:107150008142FADB1BF808100029F6D1DDE90F2384
:10716000AAEB08008146214600F036F9304400EBD6
:10717000080604E0DDE90F121BF8010B9047B8F197
:107180000108F7D221464846F7E00A21C4F302532A
:107190004FF0000B0891022B04D001CFC117032B35
:1071A00009D00AE0FF1D27F00707F7E8020108E011
:1071B00032E01FE020E000B2C117042B01D140B241
:1071C000C117031E71F1000307DA4FF0000CD0EB7A
:1071D0000C006CEB01012D2302E0230504D52B23C9
:1071E0008DF82430012303E0E30701D02023F7E7E3
:1071F000984658E00A2110E010210EE010204FF0D0
:10720000000B08900CE010214FF0000B44F0040438
:107210004FF00809089103E008214FF0000B089196
:10722000C4F30253022B04D001CF0021032B06D05C
:1072300006E0FF1D27F00707F7E8020103E080B230
:10724000042B00D1C0B24FF0000823072BD5702AC1
:1072500007D0DDF820C08CF0100C5CEA0B0C05D0D8
:107260000EE040238DF82430012308E050EA0103AA
:1072700006D030238DF824308DF82520022398463F
:10728000DDF820C08CF0080C5CEA0B0C0BD150EA46
:10729000010301D1630706D530238DF824304FF068
:1072A0000108A9F10109582A04D038A20B9208AAB2
:1072B0000A920BE03AA2F9E75B46089AFFF792F8C8
:1072C0000B9B9B5C0A9A521E0A92137050EA0102B1
:1072D000F2D10A98ADEB000000F1200B600702D557
:1072E00024F4803401E04FF00109D94502DDA9EB17
:1072F0000B0000E0002000EB0B0141440890AAEBDA
:10730000010AE00306D4DDE90F232146504600F0D0
:1073100063F806444FF0000908E009A911F80900D4
:10732000DDE90F12904709F10109761CC145F4DB34
:10733000E0030CD5DDE90F232146504600F04CF860
:10734000064404E0DDE90F1230209047761C0899CE
:10735000481E08900029F5DC08E00A980A99007890
:10736000491C0A91DDE90F129047761CBBF1000120
:10737000ABF1010BF1DC21465046DDE90F2300F0B3
:1073800019F806446D1C1BE6092801003031323320
:107390003435363738396162636465660000000051
:1073A000303132333435363738394142434445463B
:1073B000000000002DE9F041044600251E46174656
:1073C000880404D405E039462020B0476D1C641EB3
:1073D000F9D52846BDE8F0812DE9F04104460025A5
:1073E0001E469046C80301D5302700E020278804B8
:1073F00004D505E041463846B0476D1C641EF9D5FA
:107400002846BDE8F081800701D0002070470120A8
:107410007047C3688B4206D811440069491E8142F7
:1074200001D8012070470020704710B501220221C9
:10743000002001F0BFF808B1072810D1072202216F
:10744000012001F0B7F808B1072808D100210A226D
:10745000084601F0AFF808B1072800D1002010BDA0
:1074600072B603F0DDFD00BF03F0B6FB0028FBD1D0
:1074700011481249401AC408012000EB044010A131
:1074800003F018FD11480068C00700D000BE0220BC
:1074900000EB04400EA103F00DFDBFF34F8F0B482E
:1074A000E43801680E4A01F4E06111430160BFF362
:1074B0004F8F00BFFDE70000F8E2020098E20200F3
:1074C000466174616C206572726F7200F0ED00E0CD
:1074D00053797374656D20726573657400000000E4
:1074E0000400FA050EB500210091CDE901106A46AD
:1074F00044F20100FFF7B4FF0EBD10B58268C36807
:10750000934203D001F0D0FB002010BD052010BD38
:1075100029B112B1531E134203D0092070470E2027
:1075200070470160838000218160C1600846704718
:1075300010B58268C3689A1A83889A4203D801F00A
:10754000BDFB002010BD042010BD000008B510A038
:10755000006800900F48017D002918D08089A0F5AF
:107560007F41FF3913D06846FEF7A4FF82B2694617
:10757000084800F071FD020009D007480749401A89
:10758000C008012101EB004005A103F097FC08BDF4
:107590000102030060790220F8E2020098E2020092
:1075A00073656E64206661696C3A203078255800F6
:1075B000084B9B7823B12AB120B10068037C1BB132
:1075C000082070470720704700230374417442610C
:1075D00018467047847D022070B504F06BFF104898
:1075E00000240B21047044700E4D817014206C60D7
:1075F0002C706C70FFF7A4F806211420FFF7C1F877
:107600001420FFF7A8F80848046006211120FFF7AE
:10761000B8F80548001F0068A860002070BD000091
:10762000847D0220FCE00020081501402DE9FC4784
:10763000DFF8789099F8023073B368B3052902D265
:107640000720BDE8FC87436933B3437C012B25D079
:10765000002704460025884616468DF800506846E7
:1076600000F0BCF801A805F01BFEC8B101210170B3
:107670000F4944600968C0E90218C0E904769DF822
:10768000040089F801009DF8000000F0CBF81420F8
:10769000FFF76CF82846D4E70820D2E70F46D8E772
:1076A00004259DF8000000F0BDF8F3E7847D02207A
:1076B0000415014070B50446467D2030FFF71DFFDC
:1076C000054656B100206075012204F11D012046D7
:1076D00002F0A4FC08B1FFF705FF284670BD0000CA
:1076E00070B588B016460D00044648D0A8882968B1
:1076F00082B204F12000FFF70BFF00283DD1A889DA
:10770000A96882B204F13000FFF702FF002834D1EB
:1077100020221C496846FEF7A9FE206C40690690AD
:10772000206C007C00B101208DF814008DF81C60E5
:10773000206C407C00B10E208DF81500206C124AA0
:107740006946C0680290206C80680390206C0068D5
:107750000190206C406800900494204602F02AFCBE
:1077600000280AD16075206C0068401C05D00122F9
:1077700004F11D01204602F051FC08B070BD072045
:10778000FBE70000A8D5020065CE02002DE9F0411C
:10779000044630300646FFF7CBFE050019D12178AC
:1077A0000D4A515C19B1201D04F092FA03E004F176
:1077B0000C0004F075F960B904F11C010F46304665
:1077C000FFF79BFE28B901223946204602F036FC1D
:1077D00005462846BDE8F081D8E0002030B5EFF33B
:1077E000108172B60D4A9468012324B103700029F8
:1077F00000D162B630BD93604FF0E023D3F88051E2
:10780000074C25401560C3F88041D3F8844154608B
:107810005A17C3F8842100220270E8E7907E022004
:10782000FC06FFBD0B498A68002A11D000280FD141
:10783000EFF3108072B60B684FF0E022C2F800310F
:107840004B68C2F8043100228A60002800D162B679
:1078500070470000907E022070B5054608680C460F
:10786000411C04D003F0B4F8206803F05BF86068B2
:10787000411C02D0002103F043F82968A069C1F837
:107880002405607D227D29681043C1F86C05D4E988
:1078900000122868C0F81425C0F80C15207D0128B6
:1078A00014D1A068411C02D0002103F029F8E0683F
:1078B000411C04D003F08CF8E06803F033F8D4E9FD
:1078C00002122868C0F80825C0F8101570BD70B500
:1078D000054608680C46411C04D003F083F8206874
:1078E00003F02AF86068411C02D0002103F011F86F
:1078F0002968A069C1F82405607D217D2A680843B4
:10790000C2F86C05D4E900122868C0F80C15C0F85C
:107910001425207D012814D1A068411C02D000212B
:1079200002F0F7FFE068411C04D003F05BF8E06868
:1079300003F002F8D4E902122868C0F80825C0F85C
:10794000101570BD2DE9FC470025178806461580E7
:1079500090F82D001446894630B13A4621464846F3
:1079600000F095FB051E09D1B0784FF00C0A18B352
:107970002088C846001DB84202D95046BDE8FC87A1
:10798000684679DF0028F9D12088032108F8001023
:1079900020881921401C80B2208008F8001020881F
:1079A000401C80B2208000EB0801BDF8000005F00B
:1079B000E9FB218808442080F0780222C8B12188A0
:1079C00096F9033001F1030C4846BC45D5D8425422
:1079D00021884FF0010C491C89B2218000F801C0B8
:1079E0002188491C89B2218009F801302088401C77
:1079F00020807068B8B1218890F9003001F1030C43
:107A00004846BC45B9D8425421880A22491C89B24B
:107A1000218042542188491C89B2218009F8013013
:107A20002088401C2080308950B1CDE900474B466A
:107A30000622022106F1080005F04AFC051E9DD130
:107A4000308A50B1CDE900474B460722032106F1A9
:107A5000100005F03DFC051E90D1308B50B1CDE9F2
:107A600000474B461522142106F1180005F030FCA2
:107A7000051E83D1306A30B13B462246494600F0AC
:107A800084FF051EDBD1706A30B13B462246494671
:107A900001F062FC051ED2D196F82C0038B13B46AD
:107AA00022464946304604F0A3FF051EC7D1307870
:107AB00038B13B4622464946304601F0D7FC051E08
:107AC000BDD128465AE718B504460020ADF800009D
:107AD00013466A46204600F006F8002802D0BDF89A
:107AE0000000204418BD70B588B182B1002415880B
:107AF00003E0065D641C3444A4B2A54203D8061911
:107B000076789E4201D08C42F3D38C4201D3002080
:107B100070BDA11C1180005D401E80B270BD2DE9BA
:107B2000F0418AB006460020ADF81400134610203C
:107B300088468DF804000D4606AA01A9184664DFA0
:107B4000A6B398BB9DF80400022804D0042807D0EF
:107B5000102839D10DE003208DF81000022003E039
:107B600005208DF8100004208DF81100002404AFCA
:107B70000FE007208DF810000620F5E73B5D05AA11
:107B800041463046FFF7AFFF641CE4B20546022CC5
:107B900004D2BDF814000028F0D003E0BDF81400B2
:107BA000002812D080B2064400240BE00CE030190B
:107BB0009DF8042006A9FEF784FC48B19DF8040056
:107BC000204484B2AC42F2D300200AB0BDE8F08178
:107BD0000120FAE780F83010704700002DE9F047E7
:107BE0000E00044606D02CB196F87A000025012834
:107BF00003D006E00E20BDE8F08796F89800012833
:107C000021D04FF00109A5702C2206F17801201D2A
:107C1000FEF72CFC84F83050D6F8A4006063D6F848
:107C2000A800A0634FF6FF70A4F8480204F50D7099
:107C3000C4F84402C4F84A52A4F84E5284F8505290
:107C4000207810B104E00720D5E7FF2084F8540025
:107C500004F15501C4F8341294F82400EE274FF0D3
:107C60001F0801281FD0A4F8388200BF04F50E7247
:107C70003046FFF767FE0028BDD116F13C0F18D043
:107C800004F24311C4F83C1294F8240001280DD0EA
:107C9000A4F8408204F5107206F13C00FFF752FE92
:107CA0000028A8D109E0A4F83872DFE7A4F84072F0
:107CB000F0E7C4F83C52A4F8405284F85190208B6D
:107CC000A4F8480084F83C90256484F8505060691A
:107CD00060644E4604F13C02002104F1540072DF5E
:107CE000002888D1267086E710B50288102A1BD09C
:107CF000112A20D0262A1DD1007A0C46012801D055
:107D0000022817D1A0780521401CB0FBF1F201FB3D
:107D10001201204600F01EF800280BD0A16B0029AC
:107D200008D0BDE810400847C27B012A02D18088F4
:107D3000A1F8480210BD0C46002184F85212808838
:107D4000B4F848128842F5D120790028F2D10121F7
:107D5000DFE770472DE9F05F044600780F4698B1E1
:107D6000A7700025C4F84A52A4F84E5284F8505225
:107D7000A079012608B1012F09D0E07980B1012F47
:107D800005D0022F03D00BE00820BDE8F09F616B07
:107D900021B184F851620820884701E084F85152EB
:107DA00004F24B2100200A5C0AB1304603E0401C7B
:107DB0000628F8D300204FF002084FF0030B012FE4
:107DC00006D0022F0CD0032F0FD0042F15D110E0B6
:107DD000A17929B194F8241011B908B130460DE009
:107DE000E17911B108B1404608E0207A08B158465F
:107DF00004E0607A08B1042000E02846A070616BBE
:107E000041B1032801D0042804D1607910B194F85D
:107E10005202A0B184F8535204F13C0018210746E5
:107E2000FEF73DFB04F12C0084F83C60814604F031
:107E300049FA58B194F82C0084F8510008E084F80D
:107E4000545284F8536207208847E5E784F851606C
:107E500094F8240050B1484604F034FA20B194F864
:107E6000280084F8520001E084F8526084F85050F1
:107E7000A27804F24A2104F50D794FF0060A052A8A
:107E800062D2DFE802F07A030F22410084F8316009
:107E9000C4F84452C4E9101584F83C808020A4F84A
:107EA000480053E084F8318094F82420384612B119
:107EB0000722027001E080F800B0228A8281C4F8B3
:107EC00044524160E168B96040E06069B860208B6D
:107ED000B88194F824003D4610B184F83CA001E03C
:107EE00084F83C60204605F0BDF950B185F8148057
:107EF0000421204600F0EBFE30BB052184F8311050
:107F000020E084F831B01DE0E069B860208CB881D1
:107F100094F824003D4610B184F83CA001E084F8B8
:107F20003C60204605F09EF948B185F81480042194
:107F3000204600F0CCFE38B984F831A002E00420DD
:107F400084F83100C4F84492A07878B13A4604F13C
:107F50005400D4F8441272DF00287FF416AF94F86E
:107F6000301094F8540073DF0028F6D1616B11B122
:107F700094F831008847002007E784F83150F5E78E
:107F800070B50546002400F00DF838B129460448C4
:107F900001F011FB08B1022400E00124204670BD6D
:107FA000247C0220142801D3002070470146014898
:107FB00001F001BB1C7C022010B504468EB008689D
:107FC00020612348234B4188A4F815100079E075FF
:107FD000032060850FCB8DE80F0004F10A0168468D
:107FE00062DF002832D1A07A8DF832004FF601709E
:107FF000ADF8300022460CA90120A8DF002825D1C9
:10800000202104A8FEF74BFA4FF60270ADF81000DD
:10801000A07A8DF812001420ADF81400608DADF830
:10802000160004F1150006909DF81D00A21C40F0FA
:108030001A008DF81D0001208DF821008DF8220016
:108040008DF82300208804A900F040FB0EB010BD7D
:10805000B2E0002058D5020007B584B0BDF8182062
:10806000142A02D9072007B000BD00220092019215
:10807000029203924288039106A90291ADF8002072
:1080800001218DF8021080896946AEDFEBE77CB5EF
:10809000054608880C460930904201D90C207CBD69
:1080A00068466DDF0028FAD12188082068542088AE
:1080B0001B21401C80B2208029542088401C80B2A3
:1080C00020802844DDF801100160BDF80510818092
:1080D0002088801D80B220809DF80010490800D0C3
:1080E000012129542088401C208000207CBD0000F4
:1080F0007FB5051D06462C1D8088FFF741FF1648F9
:10810000164A3388801A0321C00801EB0046102B61
:108110000AD0112B1ED12B792A8804B03046BDE835
:1081200070400FA102F0D1BE30460A2218A102F021
:10813000C5FE601CFEF7EEFD0246E089A189638959
:10814000248903900094CDE901312B8830461349EE
:1081500002F0CCFE7FBD0000F8E2020098E20200CF
:10816000446973636F6E6E65637465642E20636F1C
:108170006E6E5F68616E646C653A20307825782C8D
:1081800020726561736F6E3A203078253034780044
:10819000436F6E6E656374656400000048DA020028
:1081A00010B51A4C0188606810290ED011292BD106
:1081B000401E606028D1FFF738F9002824D02168DC
:1081C000002921D0BDE810400847D0B90021012284
:1081D000084600F0EFF908B107280FD10722022165
:1081E000012000F0E7F908B1072807D10422022195
:1081F000002000F0DFF920B1072802D0216801B18A
:1082000088476068401C606010BD0000D0E000201E
:108210002DE9F04F0746858802883D48012197B037
:108220008346102A09D0112A49D01A2A6CD1387AEB
:10823000B1EB101F45D2012244E0354C083CA06848
:10824000C0430B9061680BA801F0D9F90B990CA8F9
:1082500000F07CFB2C220CA96846FEF707F90026EB
:10826000E946A04610E000BF09EB46005FF00004BD
:10827000B0F804A008EB84005146001D01F090F90D
:10828000641C1D2CF6D3761C0098B042ECD8142D3B
:1082900005D317B00420BDE8F04FFFF723B92946F6
:1082A000584601F093F9294608F1040001F08EF9CF
:1082B000F87B012828D016482946001D15E02946DC
:1082C0001AE000220221B1EB101F01D2012600E0CA
:1082D00000260F49083901F11000041D294682B11A
:1082E00001F074F936B12946204617B0BDE8F04FC9
:1082F00001F06CB92946204617B0BDE8F04F01F0F7
:108300004FB901F04DF9F5E717B0BDE8F08F000067
:10831000207C022010B5ACB003F03CF908B1FFF7A7
:10832000E1F8002401A90120019402F0A7FF08B19F
:10833000FFF7D8F801A803F03BF808B1FFF7D2F82F
:1083400000F0C0FD4148009001940294404A694603
:108350000394404801F040FB08B1FFF7C3F89DF8D3
:1083600000003DA120F00F00401C20F0F000103074
:108370008DF800000B2268467CDF08B1FFF7B2F8E9
:1083800038A001A90068CDE9034004A8019036484F
:1083900002903048503000F0A9F808B1FFF7A2F879
:1083A000324803902B4803A96030FFF705FE08B15F
:1083B000FFF798F8AC216846FEF771F802208DF8B7
:1083C0000000ADF84C00214869460838149001209F
:1083D0008DF869008DF87C004020CDE922041D480D
:1083E000A830FFF7FBFB08B1FFF77CF81948012123
:1083F000A830FFF7EFFB174801F0F8FB08B1FFF7D3
:1084000071F814480321A830FFF7A4FC08B1FFF766
:1084100069F8FFF7E1F808B1FFF764F8144A0121A1
:108420001448FFF7C5F808B1FFF75CF811480022BF
:108430004FF400410068FFF7F9F8002804D02CB091
:10844000BDE81040FFF74EB82CB010BDC0E00020D2
:1084500071C502000079022047592D4E524635322F
:10846000383332000101010165D4020061BE02000F
:108470004D75020040D5020070B51B4A91420DD1E6
:108480000288502A1ED1038A821D002B1AD0CB6885
:10849000002B17D08088BDE870401847124C10346C
:1084A000A1420FD1018810290DD050290AD1C188CD
:1084B000E588831D00F11202A94207D1104600F0A1
:1084C00057F8207570BD8088A08170BD6588A9426D
:1084D000FBD12469002CF8D05B898088A446BDE8D4
:1084E00070400149103160475079022030B5044690
:1084F0001E4B8DB048680D46E0600FCB8DE80F0035
:108500002146684662DF00282ED120788DF832009F
:108510004FF6F070ADF83000A21C0CA90120A8DFC6
:10852000002821D1202104A8FDF7B9FF4FF6F170F2
:10853000ADF8100020788DF812000420ADF8160078
:10854000ADF81400286806909DF81D00221D40F02B
:108550000A008DF81D0001208DF821008DF8220001
:10856000608804A900F0B2F80DB030BD48D5020013
:10857000007800F0010070470020411E820002F1E7
:10858000E022C2F88012401C0828F7DBB12100204D
:108590003CDFBFF34F8F05480168054A01F4E061F5
:1085A00011430160BFF34F8F00BFFDE70CED00E00A
:1085B0000400FA0570B50023042810D20D4D00EB1D
:1085C0004004012A02D101290CD00022094E00EBFF
:1085D0004000304461B1012906D0022906D00723AA
:1085E000184670BD0E30C2B22A55F9E74270F7E75F
:1085F0008270F5E70C7C02202DE9F8430546861CC5
:1086000000208DF8000090460F464FF001096846A3
:10861000FFF7E4F81B4C20683860D4E90001401AE9
:10862000A16804F21C47081A0EE00121384600F048
:10863000E0FF00F0BBFD0146384600F0DAFFD4E968
:108640000001401AA168081A401C8642EDD8B8F112
:10865000000F03D0052065F3891002E0062065F3C2
:108660009F50A2682168114004EB8101C860206816
:10867000304420609DF80000FFF7D4F84846BDE87C
:10868000F8830000F080022030B482680468531C34
:108690008360A154D0E901128A4202D330BC01F0B8
:1086A000EABC30BC70470000034803C8814201D1D6
:1086B0000120704700207047F080022002490844E2
:1086C00090F9300070470000A47C02202DE9F043AF
:1086D0008146887891B090460C4600B901208DF80B
:1086E0003E002088ADF83C0000250095607C69467E
:1086F00004F0C2F96E46A07C711C04F0BDF9E07B69
:1087000000289DF8020002D040F0080001E020F0AF
:1087100008008DF80200217C11B140F0100001E04A
:1087200020F010008DF80200217B11B140F0010013
:1087300001E020F001008DF80200217D09B1022145
:1087400000E0012161F342008DF802001C2102A823
:10875000FDF7A5FE607BC10601D4800617D50E95F6
:108760000EAFE07C791C04F087F99DF8380007977C
:1087700020F00F00401C20F0F00010308DF8380081
:108780009DF83A0020F00600801C8DF83A00607BCE
:108790008DF80800A07B8DF80900142109A8FDF7C9
:1087A0007EFE0FA8CDE90906A088ADF83000A068CC
:1087B00020B1E088ADF82C00A0680D90A06998B3B6
:1087C00001950088ADF81000A06901AD01A94088AD
:1087D000ADF81200A069406806950390A069007B7F
:1087E00004F04AF9A069691C407B04F045F9A069CE
:1087F000807A00289DF8060002D040F0080001E0D1
:1088000020F008008DF80600A169C97A11B140F086
:10881000100001E020F010008DF80600A169097A2F
:1088200019B140F0010002E00DE020F001008DF8E8
:108830000600A169897B09B1022100E0012161F3F1
:1088400042008DF80600E06900B10590434609AA90
:1088500002A94846AADF11B0BDE8F08370B5084C04
:10886000050009D010342168002907D0086820606D
:10887000496828468847F6E70834F4E770BD0000E9
:10888000907C0220054A012120B1012805D1917078
:10889000FFF7E4BF51700020FAE77047907C022098
:1088A0002DE9F05F26484168F1B3DFF898B00E6813
:1088B0008146DBF8004087688078E11B21F07F4526
:1088C000ED1CB0B9DFF880804FF48030C8F8440365
:1088D000C8F804031120FDF733FF1120FDF73BFF1B
:1088E0004FF0010AC8F800A02F2002F071FF89F8AC
:1088F00002A0B54200D23546124BE8193C3320F0B5
:108900007F401860DBF800105A46091B21F07F41B8
:10891000001B20F07F40C91C81420FD910681860ED
:108920002F2002F055FF00E004E0BDE8F05F1120C9
:10893000FDF71CBFBDE8F05F03F0BCBDBDE8F09FD4
:10894000FCE00020041501400010014073B58CB01C
:108950000646002000900D9880B100246D46214607
:108960000DA800F028FE30B1009805EB400084808F
:108970000098401C0090641C142CF0D32C226946F3
:108980003046FDF773FD0EB070BD2DE9F04117883C
:108990000646B81D14460D46984202D90C20BDE883
:1089A000F0813188072206290AD34FF4486C4FF62C
:1089B000FF73614501D9994202D17088062801D21E
:1089C0001046ECE7604501D99842F9D1994203D0AD
:1089D000984201D08142F3D80520E8552088122121
:1089E000401C80B2208029542088401C80B2208006
:1089F0004119308804F0C6FB2188084480B22080E9
:108A00004119708804F0BEFB2188084420800020B2
:108A1000C5E70000F0B54FF0FF3622B11268D2432F
:108A200000230A4D0DE03246FAE7C45C6240082498
:108A3000D70700D037462F4087EA5202641EF7D18D
:108A40005B1C8B42F1D3D043F0BD00002083B8ED16
:108A500070B588B00646002005900690ADF8141059
:108A6000ADF816100190029001AA05A9304690DFDA
:108A7000050021D002F050FE03461148114932464C
:108A8000401AC108012000EB014004460E4902F0E3
:108A90001CFABDF8042012B9BDF8060028B1BDF8D3
:108AA0000630204609A102F010FABDF808201AB1DC
:108AB0002046164902F002FA08B0284670BD0000B0
:108AC000A0E2020098E20200A8DA020054686520E1
:108AD0007265717565737465642054582F525820FF
:108AE0007061636B6574206C656E67746820697370
:108AF00020746F6F206C6F6E672062792025752F50
:108B00002575206F63746574732E0000F4DA02001B
:108B100010B508490022084801F042FC4FF010202F
:108B200041690004026940694B1C01D0084610BD30
:108B3000504310BDA8D70200BCE1002013460A46EE
:108B400010B50146054801F08FFB041E01D0FEF769
:108B5000C9FC024804F02DFC204610BDBCE10020F9
:108B600038B5009313460A460146064801F0A8FDB1
:108B7000041E01D0FEF7B6FC024804F01AFC2046A1
:108B800038BD0000BCE1002042680378002A09D00B
:108B900005480649401AC008032101EB004004497A
:108BA00002F093B970470000F8E2020098E2020078
:108BB00064D9020010B50021024800F030FD80F3B6
:108BC000100010BD0C8502200E4910B50A784C78B3
:108BD0000023A24212D0521CD2B20A70022A00D143
:108BE0000B70084A0B780C3252F823200260886818
:108BF000104420F07F408860012010BD03600020F9
:108C000010BD0000FCE000202DE9F843104D0F4698
:108C100080461E4691466946286800F095FC04008F
:108C200014D01C21FDF73BFC01202071C4F81490E6
:108C3000380BC4F80080C4E902606946286800F077
:108C4000A4FC03F01BFC0020BDE8F8830420FBE734
:108C500098D7020030B50446006887B00D4680689A
:108C600000281FD018216846FDF719FC0195A0685F
:108C70000590207910B1012810D107E001208DF86E
:108C8000000020690290E068039005E002208DF862
:108C90000000E06800030290606904902068816829
:108CA0006846884707B030BD826883881A400368E9
:108CB0009A5C0A708168491C81607047C268838829
:108CC0001A4003689954C168491CC160704770B567
:108CD0000D460446B0F83812D0F834020122FEF7EF
:108CE000F2FE00B1057004F13C0204F50D7104F1CF
:108CF000540072DF70BD000038B51A4900221A48CE
:108D000001F04EFB08B1FEF7EDFB174C00230122EA
:108D10002046E16801F0A8FA08B1FEF7E3FB12482B
:108D200004F03DFB002000901023104A0E48E1683B
:108D300001F0C6FC08B1FEF7D5FB0B4804F02FFB91
:108D400010230A4A0848E16801F09CFB08B1FEF7CD
:108D5000C9FB0648C168009190E80E0004A0FEF728
:108D6000E9F838BDA8D70200A8E10020207602204B
:108D70002073697A653A2530325820206372633A4D
:108D8000253032582062616E6B5F636F64653A25EF
:108D90003032582020616464726573733A25303232
:108DA00078200D0A0000000010B50446C0B2FEF79E
:108DB000F3F8204610BD0000014643680D480E4AF6
:108DC000801AC008032202EB004013B10B4902F0E5
:108DD00071B80A78012A07D0022A09D18B680A697A
:108DE00007A100BF02F071B88B680A6912A1F9E708
:108DF00070470000F8E2020098E2020020D9020069
:108E00002D2D3E204576656E74207265636569760A
:108E100065643A2065726173656420256420706121
:108E200067652066726F6D2061646472657373207C
:108E3000307825782E0000002D2D3E204576656E79
:108E4000742072656365697665643A2077726F7421
:108E500065202564206279746573206174206164E3
:108E6000647265737320307825782E000B4A488829
:108E70001288904210D10888A0F52062773A0BD171
:108E80008A88074807491346401AC008032101EBA6
:108E9000004005A102F019B870470000B2E00020C0
:108EA000F8E2020098E2020044617461206C656E91
:108EB0002069732073657420746F203078255828DA
:108EC0002564290010B50549054800F01DFC00285F
:108ED00003D0BDE81040FEF705BB10BD6D8E02004B
:108EE0008C79022010B50A4941600A4800F07EFBE7
:108EF00058B902F09BFB07491C238C2208740448D4
:108F00008C39001F006800F00CFB002010BD000031
:108F10009CD70200447F02202DE9FC5F0E008346AF
:108F2000DDE90C47C6F1000098469246814600D420
:108F30000846012503E000BF90FBFAF06D1C504588
:108F4000FADAA84500D9454624B1002E01DB78079E
:108F500000D5641EB80702D5B8F1000F0AD0F80793
:108F600008D13CB1A54205D220215846641EFFF726
:108F70008BFBF6E7002E02DA4E462D2102E0780741
:108F800003D52B215846FFF77FFB07F0030002288B
:108F90000BD1B8F1000F08D13CB1A54205D2302168
:108FA0005846641EFFF770FBF6E7CDE900474346DD
:108FB00052463146584604F0FBF8BDE8FC9F0000DD
:108FC00070B50D46044600684FF4887102F0C4FB8A
:108FD0004FF49071206802F0BFFB4FF4927120684B
:108FE00002F0BAFB4FF4A271206802F0B5FB2068D2
:108FF0001249C0F804132068690740F30730090ECE
:10900000002806DA00F00F0000F1E02080F8141DBF
:1090100003E000F1E02080F800142068012140F313
:10902000073000F01F0291404009800000F1E0206D
:10903000C0F88012C0F8001170BD000010030200DB
:10904000024600201268530713D502F003000128DE
:1090500002D002280CD105E0C2F383100B68801CFB
:10906000184404E00223086803EB9252104408609D
:10907000012070470248007A002800D00120704784
:10908000447F0220007DC0F3C100012803D00328E3
:1090900001D00020704701207047F721018017217F
:1090A0004180002101714171FB2181711B21C1713E
:1090B000704700002DE9F047394E002780463D46B5
:1090C000DFF8E090D6F804A057E003D00446D0F8CB
:1090D0001C8035E099F8002002EB4201521CD2B20C
:1090E00089F8002009EBC10199F80230091D9A4264
:1090F00001D189F8005048680A780446012A12D044
:10910000022A02D0032A3BD108E003F0C5FD00B1DA
:109110000127257434E00574C06900E070680028F8
:10912000F9D170602CE0207C50BB88686060C86812
:10913000A0600869E0604869A061F07800B16560EE
:109140006268B168184B501A20F07F40984202D2F2
:10915000A168084406E0881AA16820F07F40814297
:1091600002D9081A206000E0256065600120A56032
:1091700020742046E56103F071FDB8F10000A4D130
:1091800099F8001099F801008142A3D117B97168CC
:10919000514502D00120BDE8F0870020FBE7000028
:1091A000FCE00020847D0220FFFF7F002DE9FF41CD
:1091B0000026234800F017FA2148001F074600F058
:1091C00012FA204C60680090A56800E0009869469B
:1091D000284004EB80000C30FFF732FF0028F5D167
:1091E00001AA009901EA050304EB8303491CDB682B
:1091F00042F82030401C00910228F2D3019800F080
:10920000030001280BD0022810D10198032101EBA3
:1092100090500099BDF80A6001EB900005E00198BC
:10922000BDF80A60C0F3831008440090384600F08F
:10923000D7F908B10098606004B03046BDE8F0810D
:1092400008850220F08002204FF40041002001F048
:10925000B1FE08B1FEF746F901F0B0FCFDF70EFDD6
:1092600015481649401AC408012000EB044014A117
:1092700001F020FE032000EB044018A101F01AFECB
:109280001FA0FDF757FE02F05FFF01F0A9FF08B134
:10929000FEF728F9FFF73EF804F09CF822A0FDF74E
:1092A00049FEFDF77FFA01F097FC08B901F0ACFF29
:1092B00004F08AF8F2E70000F8E2020098E2020007
:1092C0001B5B33326D205465787420436F6C6F7272
:1092D0003A20477265656E0D0A000000626C655F9A
:1092E00063656E7472616C5F7363616E5F616C6CF9
:1092F0002069732072756E6E696E672E2E2E0000C7
:10930000626C655F63656E7472616C5F7363616EDE
:109310005F616C6C2069732072756E6E696E672E6A
:109320002E2E0D0A000000002D2D2D2D2D2D2D2D62
:109330002D2D2D2D2D64756620746573742D2D2DA6
:109340002D2D2D2D31303231302D2D2D2D2D2D2D3A
:109350002D2D0D0A0000000070B5144682880E46BF
:1093600005462088111D0144921C994201D8FE2A0D
:1093700001D90C2070BD521C32542088FF21401CA2
:1093800080B2208031542088401C80B22080811916
:10939000288803F0F7FE2188084480B22080AA883C
:1093A00042B1A96841B13044FDF760F82088A9882E
:1093B00008442080002070BD072070BD2DE9F047D3
:1093C000C5881E1DB6FBF5F78946B6FBF5F10446C8
:1093D00005FB176C407916686843DDF820A0F71884
:1093E000001F874200D9C61A166001E02468491E92
:1093F0000029FBD1A5EB0C078846B74216D818E028
:1094000004EB0C00001D09EB0803BAF1000F3A460B
:1094100002D00146184600E01946FDF727F82468F7
:10942000F61B4FF0000CB844B54201D9374600E0B6
:109430002F46002EE4D1BDE8F087000030B502468B
:1094400051B101F0D5FD0021074C08E034F821307E
:109450001568AB4202D11160002030BD491C814229
:10946000F4D3052030BD000000000000F8B50F4621
:10947000017814460546012901D1687830B1208869
:10948000821C9A4232D8012902D006E00720F8BD9A
:1094900069780144891C994228D8181A801E86B21E
:1094A000ADF800602188B81C084469467DDF0028BB
:1094B000EDD12978022904D06878BDF800209042C7
:1094C00005D3BDF80000B04201D809200AE0082009
:1094D000012905D16978B14202D8ADF8001001E048
:1094E000ADF80060BDF80010FE2901D90C20F8BDD0
:1094F0002288491CB9542188491C89B2218078549A
:109500002088401C2080BDF80010084420800020E6
:10951000F8BD10B5FCF7C9FE08B1002010BD112040
:1095200010BD10B531B1B2FBF3F403FB14241CB130
:10953000092010BD0E2010BD016000214160816036
:109540008281C381084610BD70B50C460546FCF704
:1095500061FE002802D021882868084470BD10B53B
:109560000A8849888A4203D1FCF796FE012010BD83
:10957000002010BD70B50C460546FCF770FE0028B3
:1095800002D061882868084470BD10B50A884988EF
:109590008A4203D1FCF75AFE012010BD002010BD05
:1095A00001F01F0301229A40D243490900EB8100D8
:1095B000114600F024B84A0950F8220001F01F02B9
:1095C00001219140084000D00120704701F01F03A5
:1095D00001229A40490900EB8100114600F024B8AD
:1095E000002100F012B8012100F01EB8012100F0A6
:1095F00011B808B56A46FCF7A4FE009808BD08B586
:109600006A46FCF784FE009808BD08B56A46FCF778
:109610007EFE08BD08B56A46FCF76CFE08BD08B5BD
:109620006A46FCF75BFE08BD08B56A46FCF762FEB9
:10963000009808BD08B56A46FCF790FE009808BD82
:1096400038B5044600258DF800506846FEF7C6F888
:1096500021686268086890420ED9401E086001784F
:10966000238AE26801FB0325227A2168101AC0B21E
:109670000A79824200D208719DF80000FEF7D2F804
:10968000284638BD38B5054600208DF800000C4648
:109690006846FEF7A3F8E868298A201AB0FBF1F1C2
:1096A0002A681068431C136001709DF80000FEF7E3
:1096B000B9F838BD10B530B1017A42680368891A2B
:1096C000C9B21A6006E00E2010BD03681A68541C67
:1096D0001C601170491EC9B2F7D2006800210171E7
:1096E000084610BDC20800F007030120895C9840BD
:1096F0000840704710B5C20800F00703885C0124D9
:109700009C402043885410BD70B5040010D0F72051
:10971000A16120806080FB202071002504EBC50042
:10972000801DFFF7BAFC6D1C022DF7D3002070BD21
:109730000E2070BD2DE9F04185888EB00C46022DBB
:109740007ED20188474E4FF00008242940D006DC25
:10975000102909D011290CD023295FD154E03A29CE
:109760000DD055295AD12EE00146204602F024FBA7
:1097700054E004EBC500801DFFF78FFC4EE0294646
:1097800004EBC107408937F8062F824200D8104603
:109790007880172800D217207880A06970B1787976
:1097A00060B1D6E90002CDE90002ADF80210788878
:1097B000ADF80400A26920466946904787F8058005
:1097C00087F804802AE00146204602F07BFB25E072
:1097D000011D2C226846FCF749FEBDF80000BDF8CB
:1097E000042004EBC0014A73A269BAB1D6E904238C
:1097F000CDE90B23ADF82E00487B8DF83000A2692F
:1098000020460BA9904709E004EBC503017A187BB9
:10981000884200D201462846FFF71AF904EBC50436
:10982000A07A00281AD0E1882846A5DF012590B14A
:10983000112813D001F070FF02460B480B4900E0DD
:109840000CE0401AC0080EB005EB0040BDE8F04146
:1098500007A101F033BB84F80A80E5720EB0BDE8C1
:10986000F081000068D50200A0E2020098E2020048
:1098700073645F626C655F67617474635F6578636E
:1098800068616E67655F6D74755F7265717565732C
:109890007428292072657475726E65642025732E94
:1098A000000000007FB5054600294DD0002D4BD0AB
:1098B00008780C46DE2847D1A8886188884202D102
:1098C000204603F0DBFC2888012825D002283BD065
:1098D00011283AD0512837D135F8040F61888842D1
:1098E00032D1A978A81C02292ED1017A042903D0EB
:1098F000062901D0052927D10021009102228DF8E7
:10990000002001914FF4C07202910391ADF8042040
:10991000007A05280FD010E0297A2046012913D1BA
:10992000A988428891420FD10121017204B0BDE89B
:10993000704003F0A3BCADF8041028886946B0DF7E
:10994000002801D0616888477FBDA8886188884267
:10995000FAD14FF6FF7060807FBD2DE9F0410446DB
:1099600000F1140700F10A05867C007A86B001F147
:109970000208002814D08BDF14216846FCF78FFD05
:1099800033462A46394640468CDF06218DF80010C2
:109990000190002804D0616A002901D068468847F8
:1099A00006B0BDE8F0814FF4C87101820621418103
:1099B000182181810021C1817047017DA022C282CE
:1099C0005022028321F018010022428341F0040159
:1099D000017501214175704770B50D46040010D026
:1099E0000026266066606262EDB128792072287BCD
:1099F000A074296839B10E2204F11400FCF736FD79
:109A000004E00E2070BD2046FFF7D7FFA86830B1F4
:109A10000168C4F80A104068C4F80E0009E0204646
:109A2000FFF7C1FF05E0FFF7C8FF2046FFF7BBFFC8
:109A3000267204F12800A0641F20A4F84C00002026
:109A400070BD2DE9F04F044689B0002088460746D6
:109A5000069014216846FCF722FD04F114000490DE
:109A60002046FFF70FFB010004F14800059011D0DC
:109A700002208DF80000CDF80480616A68468847AE
:109A8000002005998ADF41462046FFF766FF09B0AE
:109A9000BDE8F08FA079002107916179834621B359
:109AA00001210691824694F804900026B8F81C0023
:109AB0003546089012E004EB8502D8F818000899A2
:109AC000FEF72DF828B1761CF6B2BAF1000F0DD0D2
:109AD00002E0BAF1000F06D16D1CEDB24D45EAD39C
:109AE000BAF1000F02D04E4501D009E046B19DF811
:109AF000080040F004008DF8080001207F1C07904A
:109B0000CDF80480BBF1000F02D00698874203D045
:109B1000079830EA0B0007D000208DF8000041467E
:109B20002046FFF71AFF02E003208DF80000616A6B
:109B300009B168468847002005998ADFA7E770B514
:109B40000D46014601F108020C1D2846098814350E
:109B500086B0102935D01B291FD01D2917D02029E8
:109B600042D1064614216846241DFCF798FC706A11
:109B7000002839D005208DF8000004952068019058
:109B800060680290207A8DF80C00716A2AE006B0B5
:109B90001146BDE87040FFF754BF064614216846E1
:109BA000241DFCF77CFC207801281DD1706A002858
:109BB0001AD004208DF80000049520788DF8040058
:109BC000E3E7064614216846FCF769FC07208DF898
:109BD0000000201D01902088ADF808000495716AEE
:109BE000002901D06846884706B070BD30B585B001
:109BF000040025D014216846FCF751FC8BDF204679
:109C0000FFF740FA012528B1616A19B18DF80050BB
:109C10006846884704F1480104F114008ADF0446CD
:109C200008280FD074B1084808492246401AC008D5
:109C300005EB004006A101F041F9204605B030BD1A
:109C40000E20FBE70020F9E7A8E2020098E20200FC
:109C500073645F626C655F6761705F7363616E5FA1
:109C600073746172742072657475726E65642030ED
:109C7000782578008BDF704700F18040006800286D
:109C800000D00120704708B500F18040002101603C
:109C90000068009008BD00002DE9F041040007D0E5
:109CA000044E4FF47A47751C3846A847641EFAD113
:109CB000BDE8F081D0D402002DE9F041040007D0C6
:109CC000044E4FF47A47751C3846A847641EFAD1F3
:109CD000BDE8F08120D50200002258210148FEF79E
:109CE00099BE00009077022070B5FEF711FF4FF487
:109CF000AE7632461C491D48FCF7B8FB1C481D4A8D
:109D00001A4D801AC0080322296802EB0044491C3E
:109D10000AD0FFF7E1FF2968814205D1204616A14C
:109D200001F0C8F814A01BE0204617A101F0C2F80A
:109D300015A0FDF7FFF831460C48FCF7B0FB0120F9
:109D40006860002000F050F80200204604D017A1FF
:109D500001F0B4F8032070BD1FA101F0ABF81EA004
:109D6000FDF7E8F8002070BD00F00F008C770220AE
:109D7000F8E2020098E2020064667520696E697478
:109D8000206F6B0D0A000000526573657474696E74
:109D90006720626F6F746C6F6164657220736574A5
:109DA00074696E67732E0D0A000000006E72665FA4
:109DB0006466755F666C6173685F77726974652845
:109DC00029206661696C6564207769746820657212
:109DD000726F723A2025780064667520696E697426
:109DE00032206F6B0D0A000070B505464FF4AE7659
:109DF000324626492648FCF764FB2649264B0322B7
:109E0000C91AC90802EB01440028204617D023A133
:109E100001F050F820461D4A26A101F04FF81FA07E
:109E2000FDF788F8194923A0FDF784F800220121E5
:109E30001648FEF783FE50B1204627A11AE03049AC
:109E400001F038F80DB10020A847002070BDFFF7E1
:109E500043FF0F4932460860A1F5AE70FCF706FBE0
:109E60002B46324627490948FEF77AFE002820464D
:109E700004D025A101F01EF8032070BD2DA101F032
:109E800019F82CA0FDF756F8DFE7000000F00F00EE
:109E90008C770220F8E2020098E20200577269749F
:109EA000696E672073657474696E67732E2E2E0D4C
:109EB0000A00000045726173696E67206F6C642050
:109EC00073657474696E67732061743A2030782505
:109ED0003038780D0A000000436F756C64206E6F97
:109EE000742065726173652074686520736574748D
:109EF000696E67732070616765210D0A00000000BC
:109F0000BCD9020030760220436F756C64206E6FFE
:109F10007420777269746520746865204446552002
:109F200073657474696E67732070616765210D0ACB
:109F300000000000777269746520444655207365FF
:109F40007474696E6773206F6B0D0A0070B50B4CEB
:109F5000207808B185250FE00020A06060602061B6
:109F6000E060074801F016FC054601F05FFB08B908
:109F700001F0F8FB01202070284670BD907C022083
:109F80008588020038B500258DF800506846FDF739
:109F900025FC074CE068401EE060E06810B901F065
:109FA00009FCA5709DF80000FDF73CFC38BD0000E1
:109FB000907C0220F0B505460478154889B0164615
:109FC00040F82420124A08690832A2F10C0742F82E
:109FD0002400487F385520226846FCF747FA04944D
:109FE0002878385C48B10EB10A4A00E00022694680
:109FF000281D01F06DFD09B0F0BD0EB1064A00E06C
:10A000000022694605F10C0001F018FCF3E700009E
:10A01000DCE0002061D0020009CF020030B40378F8
:10A02000054CE35C1BB130BC001D01F087BD30BCAA
:10A030000C3001F06DBC0000D8E0002030B4037893
:10A04000054CE35C1BB130BC001D01F0F9BD30BC18
:10A050000C3001F0D3BC0000D8E000200FB408B5EC
:10A060000399002904D004AA00926A4600F00FF870
:10A0700001B05DF814FB10B582680446002A05D0D3
:10A08000D4E90403216898470020A06010BD2DE9A1
:10A09000FC4791460C00804676D014F8011B39B17C
:10A0A00025290ED04046FEF7EFFA20780028F4D19B
:10A0B00098F80C00002867D04046BDE8FC47FFF741
:10A0C000DABF0020012221782B291BD02D2902D0B4
:10A0D000302908D102E040F0010001E040F0020028
:10A0E000641C002AEFD100252A290ED02178A1F185
:10A0F00030020A2A11D205EB850201EB4205641CED
:10A10000303DF1E740F00400EAE7D9F800100B1DFC
:10A11000C9F800300968641C0D44217800232E29F9
:10A120000BD114F8011FA1F130020A2A05D203EB6A
:10A13000830201EB4203303BF3E76C290DD0682921
:10A140000BD0692921D00BDC252918D0582931D012
:10A1500063290ED0642915D117E014F8011FECE72C
:10A16000702969D0732932D075291BD0782909D17B
:10A1700020E0D9F80000011DC9F800100178404620
:10A18000FEF782FA641C90E76CE0D9F800100A1D13
:10A19000C9F800200968CDE900500A224046FEF7C0
:10A1A000BBFEEFE7D9F800100A1DC9F800200968C6
:10A1B0000A2206E0D9F800100A1DC9F80020096833
:10A1C0001022CDE90050404602F0F2FFDAE7D9F85C
:10A1D000001000270A1DC9F800200E68C00705D12D
:10A1E00012E04046761C7F1CFEF74EFA31780029BB
:10A1F000F7D104E0202140466D1EFEF745FABD422E
:10A20000C0D9002DF6D1BDE74EB13046FCF752F96A
:10A21000074604E0202140466D1EFEF735FABD4298
:10A2200006D9002DF6D103E04046761CFEF72CFA45
:10A2300031780029F8D1A5E7D9F80000011DC9F847
:10A240000010056830214046FEF71EFA782140468E
:10A25000FEF71AFA08200021CDE90001034610227A
:10A260002946B0E7BDE8FC872DE9F843884605009C
:10A270002C482D499946A0EB01004FEAD0004FF041
:10A280000101164601EB004424D0286800282CD098
:10A29000002E34D0696840464FF010070A68511EFE
:10A2A00011EA080F11D1014672432846FDF7B1F8B3
:10A2B00000282ED028684B463246046901B041463A
:10A2C0002846A446BDE8F04360472046174B18A235
:10A2D000009722E00E2000902046144B1EA220A1E1
:10A2E00000F0FBFD0E20BDE8F8830820009020461A
:10A2F0000E4B26A21AA100F0F0FD0820F3E709207A
:10A3000000902046094B24A215A100F0E6FD09208B
:10A31000E9E7064B214A2046009711A100F0DDFD38
:10A320001020E0E7E8E2020098E2020083D7020092
:10A33000616464725F69735F706167655F616C69B6
:10A34000676E656428705F66732C20706167655F57
:10A350006164647229000000705F66730000000091
:10A36000257320636865636B206661696C65642092
:10A37000696E202573282920776974682076616CBE
:10A38000756520307825782E00000000705F6673B8
:10A390002D3E705F617069006C656E0038DF0200F1
:10A3A00038B503001148124D4FF00E04A0EB050024
:10A3B0004FEAD0004FF0010505EB004009D061B134
:10A3C00019600C6801B0A446BDE83040114618463B
:10A3D0006047084B08A2009402E0064B08A20094D4
:10A3E00009A100F07AFD0E2038BD0000E8E202006D
:10A3F00098E2020038D70200705F66730000000028
:10A40000705F617069000000257320636865636B8D
:10A41000206661696C656420696E20257328292097
:10A42000776974682076616C756520307825782EA0
:10A43000000000002DE9F04128B1016819B1C96997
:10A44000BDE8F04108470D4D0D480024461B142778
:10A450000DE000BF04EB840005EB8000016829B12A
:10A46000C969884710B10120BDE8F081641CB6FBC2
:10A47000F7F0A042EED80020F6E7000094E10020BB
:10A48000D0E100202DE9F843904689462F49304A13
:10A490000500A1EB02014FEAD1014FF001021E4677
:10A4A0004FF00E0002EB01441ED0B8F1000F20D097
:10A4B000286840B3002E30D04846FCF7A4FF102790
:10A4C000002834D0324649462846FCF7A2FF00282F
:10A4D00032D0286833464246846801B0494628464F
:10A4E000A446BDE8F043604700902046194B1AA2ED
:10A4F00003E00090174B204619A21BA100F0EDFCD1
:10A500000E20BDE8F883082000902046114B21A2C0
:10A5100015A100F0E2FC0820F3E709200090204696
:10A520000C4B1FA210A100F0D8FC0920E9E720463F
:10A53000084B1CA2009703E0064B20461FA2009781
:10A5400009A100F0CAFC1020DBE70000E8E20200ED
:10A5500098E202005ED70200705F667300000000A0
:10A56000705F646573740000257320636865636BB6
:10A57000206661696C656420696E20257328292036
:10A58000776974682076616C756520307825782E3F
:10A5900000000000705F66732D3E705F617069009F
:10A5A0006C656E00616464725F69735F616C69679A
:10A5B0006E656433322873726329000061646472CB
:10A5C0005F69735F77697468696E5F626F756E64E7
:10A5D0007328705F66732C207372632C206C656E19
:10A5E00029000000044801214174007A08B10020CC
:10A5F0007047012070470000447F0220012801D0ED
:10A60000032808D10449002201284A7400D0002000
:10A61000087401F0E3BE7047447F022070B5024623
:10A62000022801D0032A45D1234C207A002841D0AA
:10A63000012833D0022831D120480023022A0068A3
:10A6400002D0032A2AD11BE0E360017911B101296C
:10A6500024D10DE0D0E90565711B4FF48056B1425D
:10A6600000D33146294481614569A9420ED015E0E5
:10A670000169491C0161426991420FD1237213E0C3
:10A68000E168491CE160082908D9E3602372022AC5
:10A690000AD00D21FEF7DEFA01F096FE607C28B1AB
:10A6A000BDE8704000F0C8BF0021F3E7BDE870408E
:10A6B00001F094BE70BD0000447F02201CE1002028
:10A6C0002DE9F84F90468A463A493B4A0500A1EBEE
:10A6D00002014FEAD1014FF00102DDF828901E4639
:10A6E0004FF00E0002EB01441AD0B8F1000F1CD05D
:10A6F0002868002822D00920002E29D069684968DE
:10A70000B6FBF1F201FB1261002926D000902B4B21
:10A7100020462BA235A100F0E0FB0920BDE8F88F10
:10A7200000902046254B3CA203E00090234B20469E
:10A730003BA22EA100F0D1FB0E20EFE708200090F5
:10A7400020461E4B38A229A100F0C7FB0820E5E7F0
:10A7500000902046194B37A2DCE75046FCF753FE29
:10A76000102798B14046FCF74EFEA0B13246514644
:10A770002846FCF74EFE98B1CDF800902868334685
:10A780004246C46851462846A047C7E720460B4BBF
:10A7900029A2009708E02046084B2DA2009703E06D
:10A7A000064B204633A2009710A100F096FB102024
:10A7B000B4E70000E8E2020098E2020070D702006D
:10A7C00021286C656E202520705F66732D3E705FBA
:10A7D000666C6173685F696E666F2D3E70726F673D
:10A7E00072616D5F756E69742900000025732063C6
:10A7F0006865636B206661696C656420696E2025FD
:10A8000073282920776974682076616C756520301B
:10A810007825782E00000000705F6673000000004D
:10A82000705F737263000000705F66732D3E705F2F
:10A83000617069006C656E00616464725F69735F6A
:10A84000616C69676E6564333228646573742900CE
:10A85000616464725F69735F616C69676E656433BC
:10A8600032282875696E7433325F7429705F737291
:10A8700063290000616464725F69735F776974685B
:10A88000696E5F626F756E647328705F66732C20EB
:10A89000646573742C206C656E2900002DE9FF41FE
:10A8A0001C46DDE90A7815460E46684600F074F845
:10A8B00046EA450141EA840141EA072242EA0841A9
:10A8C000009A00EB8200C0F80017BDE8FF812DE977
:10A8D000FF411C46DDE90A7815460E46684600F041
:10A8E00069F846EA450141EA840141EA072242EA61
:10A8F0000841009A00EB8200C0F80017BDE8FF8114
:10A900001CB500220B46009211460192FFF7C6FFCC
:10A910001CBD1CB500220B46009211460192FFF7A8
:10A92000D6FF1CBD1CB5002100910B4601220191F0
:10A930001146FFF7B3FF1CBD1CB5002100910B466B
:10A94000012201911146FFF7C2FF1CBD13B50C4651
:10A95000684600F013F8009900EB8101D1F8002758
:10A9600022F44032C1F80027009900EB8100D0F8B2
:10A97000001741EA0441C0F800171CBD01682029F6
:10A9800002D24FF0A040704701F01F010160014862
:10A9900070470000000300500168202902D24FF0E8
:10A9A000A040704701F01F0101600148704700009E
:10A9B000000300500168202902D24FF0A0407047E8
:10A9C00001F01F01016001487047000000030050C2
:10A9D00001B56846FFF7E0FF009A01219140C0F8F9
:10A9E000081508BD01B56846FFF7E4FF009A01218C
:10A9F0009140C0F8081508BD1CB5094C0144D4E9C4
:10AA00000034CDE900346C4606E000BF54F8203035
:10AA1000D3F81035401C08C28142F7D81CBD000095
:10AA200080D50200034908B5084400210160006890
:10AA3000009008BD0060004002494058012800D045
:10AA4000002070470060004030B5154A01460020E4
:10AA5000D2F8104423460AE0DB681D79854205D10F
:10AA6000401C0A28F6DB4FF0FF3030BD1B68002B7E
:10AA7000F2D1431CF9D0CB681871D2F8103443B12D
:10AA8000DB68CC681B682360D2F81024D2681160A0
:10AA900030BDC2F81014C96800220A6030BD000041
:10AAA000F08002207047FBF7B9BF704708B5034A32
:10AAB00000924023024A00F005F808BDA1C9020037
:10AAC000587F0220F0B595B01C4615460F46084643
:10AAD0001A9E00F05FFB182109A8FBF7E0FC0E9618
:10AAE000CDE909540023082203A9384600F067FB8A
:10AAF00005980690BDF81000ADF81C00BDF81200D6
:10AB0000ADF81E0000208DF821000398082600F003
:10AB10000300012802D0022818D032E003983346FF
:10AB2000850AC0F3C2008DF8200003980FA9C0F376
:10AB30008314A200384600F042FB09A8009006AB3F
:10AB400022460FA9284600F081FA1AE00398840DE6
:10AB5000C0F3C2008DF82000082C01D2254600E089
:10AB6000082533462A460FA9384600F028FB2E4414
:10AB7000641B09AB06AA29460FA800F0C5F9002CF2
:10AB8000EAD1384600F00CFB15B0F0BD0A4A0129A5
:10AB900002EBC00007D0022907D0032907D00429FF
:10ABA00007D00020704702207047042070470079CA
:10ABB000704740797047000098E2020010B5FFF737
:10ABC00072FF04210348FFF73FFF02490120C968D3
:10ABD000487110BD88E202002DE9F04F8DB0FDF7FD
:10ABE00063FD18B100200DB0BDE8F08F7E4C4FF032
:10ABF000000BC4F818B4BFF34F8F60680290A568CB
:10AC0000D846284004EB80000CE000BFD4F81804BC
:10AC100070B921680298814201D86160E2E728405A
:10AC200004EB80000C3002A9FEF70AFA0028EDD1EF
:10AC3000002005AA029901EA050304EB8303491CDD
:10AC4000DB6842F82030401C02910228F2D30598BC
:10AC500000F00300022802D001284DD0AAE0059898
:10AC60005022810D8946B2EB905F00D850210E46EC
:10AC700066F39F50059008315C4800F042FA0700E7
:10AC800078D000F087FA4346082205A9384600F03C
:10AC90009EFA029908F1080A2940681A8000001DEE
:10ACA000864222D9504D0C3530B1C2B204EB81013D
:10ACB000301A90460C3104E02946F2B20025904645
:10ACC0002846C6B25346384600F081FA0AEB08031C
:10ACD00025B132462946384600F079FA029909F141
:10ACE000030001EB900002903BE004EB810153462E
:10ACF000324638460C31EFE70598C0F3831006283A
:10AD000000D30620059960F38911C1F38310801CDC
:10AD100005918100354800F0F4F907004AD000F0B1
:10AD200039FA4346082205A9384600F050FA08F1DE
:10AD3000080800260FE00298434600EA0501401C7F
:10AD400004EB81010290042238460C3100F03FFAF6
:10AD500008F10408761C0598C0F38310B042EAD8C5
:10AD600047B1D4F81054D4F8180478B1384600F03C
:10AD700017FA34E01EE0E8684079012804D12A6817
:10AD80002846394612689047E8680568002DF2D1D8
:10AD9000384600F005FA8DF800B06846FCF71EFD55
:10ADA000D4F8180408B9029860609DF80000FCF718
:10ADB00039FD14E0D4F8104405E021682046896884
:10ADC0008847E0680468002CF7D109480949401A0F
:10ADD000C008022101EB004007A100F06BF8FDF76D
:10ADE00063FC80F00100FEE6F080022018E3020020
:10ADF000F8E2020098E202004261636B656E6473E0
:10AE000020666C7573686564000000002DE9F84FDA
:10AE10008146DFF89C80D01C15468A4680080022B7
:10AE20006946D8F80860FDF7E7FBB8B3009CA01CA2
:10AE30000090D8F808103040091A8F003F1DBD421D
:10AE400008EB800002D82A46514608E03A465146AF
:10AE50000C30FBF70BFB1648EA1B0AEB07010C3022
:10AE6000FBF704FB4FEA1947FDF7A4FE47EA00424F
:10AE7000601C304008EB8000344008EB8401C26065
:10AE8000C8684FF6C07269F3C500904365F39F50E0
:10AE900020F00300801C20F00400C86098F8200413
:10AEA00002E000BFFFF798FE0028FBD1BDE8F88F55
:10AEB000F080022000231A4601F04ABE08B50123A3
:10AEC00000926A4601F044FE08BD1CB5CDE900239E
:10AED00002236A4601F03CFE1CBD3EB5069C8DE88F
:10AEE0001C0003236A4601F033FE3EBDF0B587B077
:10AEF0000DF1300C9CE8F0008DE8FC0006236A465A
:10AF000001F026FE07B0F0BD2DE9F0470E46804661
:10AF10001C46924608293ED894F80C9000202073D5
:10AF20001946104601F0F8F90025B54206D218F886
:10AF300005201AA12046FFF791F803E019A1204649
:10AF4000FFF78CF86D1C082DEFD317A12046FFF7F3
:10AF500085F80025B54210D218F80570FBF782FA83
:10AF60000068C05D10F03E0F01D03A4600E02E228E
:10AF70000EA12046FFF772F803E00DA12046FFF76F
:10AF80006DF86D1C082DE5D301222146504601F0D5
:10AF9000A5F984F80C90BDE8F08700002025303238
:10AFA00078000000202020007C00000025630000C5
:10AFB000200000000B4810B5FF21816000210160D6
:10AFC0004160C0F81814C0F8141480F82014064822
:10AFD00000F0E4F8002803D1044800F037F900201D
:10AFE00010BD0000F080022018E30200E8D7020044
:10AFF00002480349401AC0087047000018E30200E5
:10B0000098E2020013B56846FEF718FA08B100206E
:10B010001CBD0248009950F831001CBD98E20200A6
:10B0200070B509480125D0F8104480F8205407E095
:10B03000E06845712168204649688847E0680468EF
:10B04000002CF5D170BD0000F08002202DE9FF47F3
:10B0500081460C9D00200C462F7B2873984616468F
:10B060002946184601F058F9072E42D2DFE806F0CB
:10B0700004090F161F2A360049462846FEF7EEFF40
:10B0800037E0494628462268FEF7E8FF31E0D4E978
:10B09000002349462846FEF7E1FF2AE0A068009019
:10B0A000D4E9002349462846FEF7D8FF21E0D4E939
:10B0B0000201CDE90001D4E9002349462846FEF704
:10B0C000CDFF16E004F1080007C88DE80700D4E9B9
:10B0D000002349462846FEF7C1FF0AE004F10800B4
:10B0E0000FC88DE80F00D4E9002349462846FEF733
:10B0F000B5FF00222946404601F0F0F82F73BDE865
:10B10000FF872DE9F041058A80462D1F4819C01C94
:10B11000B0FBF5F0C6B24046FEF792FA041E19D015
:10B120000020207101206071E58000272546761EF1
:10B13000C4F800800BE04046FEF782FA60B1617906
:10B14000491C6171286005467F1CC0F80080B74229
:10B15000F1D32046BDE8F081204600F002F800203F
:10B16000F8E72DE9F041457901466B1E002201E028
:10B170000968521C9A42FBD30F680146002605E07D
:10B1800038460C68FEF77EFA2146761CAE42F7D3AD
:10B19000BDE8F0810121001DFEF72BBAFEF78ABA47
:10B1A00010B504460121001DFEF744FA10F0FF0F10
:10B1B00004D12046BDE81040FFF7D3BF10BD1CB539
:10B1C00001920122009201AAFEF7F8F81CBD1CB5FD
:10B1D00001920022009201AAFEF7F0F81CBD0000C7
:10B1E000064910B500204870091D0860BFF35F8F45
:10B1F0000349044800F04CFA002010BD10E1002083
:10B20000F0D502009C7E022008B500208DF80000D9
:10B210006846FCF7E3FAF1EE100A20F09F00E1EE39
:10B22000100ABFF35F8F08494020C1F880029DF8E3
:10B230000000FCF7F7FA00F0F9F908B141DF08BDAA
:10B2400020BF40BF20BF08BD04E000E082680021AD
:10B25000916082681161826851618268D160826800
:10B26000516080680160704720B10349096801603E
:10B27000002070470E2070476CD802002DE9FE4375
:10B2800007460E460846FFF7EFFF00287DD1002550
:10B290000095019506208DF800704FF00108ADF87B
:10B2A000040002958DF8028069462020326869DF2B
:10B2B0003749384A891AC908012202EB014430B1E2
:10B2C00000F02AFA024620463349FFF7F7FD0095C1
:10B2D0008DF801808DF80280019502958DF803802C
:10B2E00069464020326869DF30B100F015FA024645
:10B2F00020462A49FFF7E2FD00958DF80070F720FF
:10B30000ADF802000195029569462320326869DF95
:10B3100030B100F001FA024620462149FFF7CEFD88
:10B32000009502208DF800000195029569460120E4
:10B33000326869DF30B100F0EFF902462046194962
:10B34000FFF7BCFD4FF4006000900195029569463F
:10B35000A120326869DF30B100F0DEF902462046F4
:10B360001149FFF7ABFD0095019502958DF800504E
:10B370006946A020326869DF30B100F0CDF902469D
:10B3800020460A49FFF79AFD0020BDE8FE83000031
:10B3900008E3020098E20200E4E002002CE102006F
:10B3A00078E1020044E0020090E00200F0DF0200D9
:10B3B0002DE9F0410546076860DF804619491A48C3
:10B3C0002A68081AC608BA4219D9022000EB0644B6
:10B3D00016A12046FFF76EFD20463A461FA12B68B6
:10B3E000FFF773FD4FF08050D0F80C012968800200
:10B3F00000F10050421A204625A1FFF75FFDB8F189
:10B4000000004FF001040AD000F086F9024604EB78
:10B4100006402AA1FFF752FD4046BDE8F0812F48C3
:10B420000470F9E708E3020098E20200496E7375C0
:10B430006666696369656E742052414D20616C6C6B
:10B440006F636174656420666F7220746865205351
:10B450006F66744465766963652E00004368616EAB
:10B460006765207468652052414D20737461727461
:10B47000206C6F636174696F6E2066726F6D20302F
:10B4800078257820746F20307825782E0000000011
:10B490004D6178696D756D2052414D2073697A65F3
:10B4A00020666F72206170706C69636174696F6E81
:10B4B00020697320307825782E00000073645F6265
:10B4C0006C655F656E61626C6528292072657475B4
:10B4D000726E65642025732E000000008FE100204D
:10B4E00030B51548ADF5017D0078002821D04FF426
:10B4F000FA7500BFADF8005280A9684661DF38B127
:10B50000052816D00DF5017DBDE83040FBF7EABFF8
:10B510006C460A497DA800F0BBF806E0D0E900219E
:10B52000204690477DA800F0CAF87F980028E1D017
:10B53000F4E70DF5017D30BD8FE1002070D80200E9
:10B54000F8B5134C2078C0B10120A07001F0FAF9D1
:10B55000112814D0022001F00DFA00258DF80050BA
:10B560006846FCF73BF911DF064625709DF80000A0
:10B57000FCF758F92EB13046F8BD0820F8BD002080
:10B58000F8BDA57001F09CFA032001F0F3F9F6E78D
:10B590008CE100207CB5194C207808B108207CBDD6
:10B5A0000120A070002001F0CDF9112819D0002051
:10B5B00001F0E0F912480026006801908DF8006063
:10B5C0006846FCF70BF90F4901A810DF05000AD007
:10B5D000002020709DF80000FCF724F92DB12846CA
:10B5E0007CBD00207CBD0120F3E7A670667001F0F1
:10B5F00083FA012001F0BEF9F3E700008CE100209E
:10B6000004D80200617402000EB50749684600F0D4
:10B610003FF805E0D0E900108847684600F04FF891
:10B6200002980028F6D10EBD20D80200014800780B
:10B63000704700008CE100200548817819B100783E
:10B6400018B1FFF77DBF08207047FFF7A3BF0000C8
:10B650008CE100201FB568464BDF30B1052814D0BF
:10B6600004B0BDE81040FBF73DBF084901A800F059
:10B670000FF806E0D0E900210098904701A800F0FB
:10B680001EF803980028E6D0F4E71FBD8CD802000E
:10B69000016009684160AFF3008010B5D0E9002176
:10B6A0005368994201D1002104E0D1E90034A3425A
:10B6B00002D01946816010BD08314160F0E7816811
:10B6C00000290BD0026892680A44826041684B6886
:10B6D0009A4203D108314160FFF7DFBF7047000095
:10B6E0000C4A10B502F594730EE0991AC91001EBDB
:10B6F000D171491002EBC1010C68844201D90B469B
:10B7000002E005D201F108029A42EED3002010BDFA
:10B71000486810BD10D6020000B5FFF7E1FF002811
:10B7200000D1014800BD0000FCD5020040580028AF
:10B7300000D00120704708B50022425040580090C8
:10B7400008BDD0F80403084000D0012070474058DD
:10B75000002800D00120704708B500224250405810
:10B76000009008BD09480068012110F0010F08D1C0
:10B770004FF0E020C02280F80024C0F88012C0F80A
:10B7800000110349012008607047000000E100E05B
:10B79000180500400649024600200B790BB18520B0
:10B7A00070470A6001220A7100224A717047000046
:10B7B000ECE0002004490120086004480168C1F35E
:10B7C00000410029FAD170470C00004018040040E5
:10B7D000002802D00149800108477047A1D5020026
:10B7E0000121B1EB507F01D101207047002070474B
:10B7F00038B50D4600F0DCFD040014D000208DF8B3
:10B8000000006846FBF7EAFF207928B19DF80000A8
:10B81000FCF708F8112038BD0120256020719DF843
:10B820000000FBF7FFFF002038BD0000014902487F
:10B8300001F082BB107D0220002000402DE9F04184
:10B840000546007916460F4600EB40012D4A01EBF4
:10B85000C00102EB810494F82A1011B10820BDE860
:10B86000F081294951F820102868FFF7C1FF08B17D
:10B870001120F4E739462846FBF7EEFF6660386989
:10B88000206030004FF001062FD03F7F4FF48E71C3
:10B890002868FFF750FF4FF4A2712868FFF74BFFAD
:10B8A00028681A49C0F8041328684FEA471140F382
:10B8B0000730002806DA00F00F0000F1E02080F8E1
:10B8C000141D03E000F1E02080F80014286840F324
:10B8D000073000F01F0206FA02F14009800000F173
:10B8E000E020C0F88012C0F8001128680421C0F8D8
:10B8F00000150020A061E06184F8290044F8140FCD
:10B90000A675ACE7107D022088D5020080000200F9
:10B910002DE9F05F054600794FF4017600EB400316
:10B9200003EBC000344B03EB80040020636813B1C9
:10B930002B68C3F80863A3694FF000096BB1E06995
:10B9400038B1606810B12868C0F804631120BDE800
:10B95000F09FE2610120216105E0C4F82490A2611A
:10B96000E160C4F81C9094F82910014302D12846E4
:10B9700000F0EEFD60680028286803D0C0F804637A
:10B980000020E4E74FF4A2763146FFF7D4FEB2463A
:10B990004FF4927B59462868FFF7C8FE06464FF4DD
:10B9A00084712868FFF7C2FE804651462868FFF779
:10B9B000BDFE074648EA07003043EBD056EA0700D1
:10B9C00007D12146286800F093FDA169606A814291
:10B9D000E0D8C4F818900EB10320B8E70FB10F20DB
:10B9E000B5E794F8291001200029296801D00860E2
:10B9F000C6E74860C4E70000107D02202DE9F0474B
:10BA0000054600790B4600EB400101EBC0002349DD
:10BA100001EB8004284600F043F810B11120BDE886
:10BA2000F0874FF00008C4F82080A360626184F8BA
:10BA300028804FF48E76474631462868FFF77BFE14
:10BA400028684FF00109C0F808902146286801F0E5
:10BA50008DF9606800BBD5F800A00EE094F82800CE
:10BA600008B10F2716E031465046FFF75FFE002869
:10BA7000F4D02146504601F079F9216A606981428B
:10BA8000F1D331462868FFF751FE0028F9D0286825
:10BA9000C0F80C90C4F814803846C0E7107D02202E
:10BAA000007900EB400101EBC000044901EB80008C
:10BAB0004069002800D0012070470000107D02205E
:10BAC0000149024801F0E4BA3C7D02200020004018
:10BAD0002DE9F0410546164600790F46154A00EB60
