:020000040002F8
:10600000F0530020C1630200C9630200CB630200A9
:10601000CD630200CF630200D163020000000000E4
:10602000000000000000000000000000D363020038
:10603000D563020000000000D7630200D9630200AC
:1060400091670200DB630200F1690200DB6302007A
:10605000DB630200DB63020079650200DB630200A0
:10606000DB630200DB630200DB630200DB63020030
:10607000DB630200DB630200DB630200DB63020020
:10608000DB630200E9670200DB630200DB630200FE
:106090000D680200DB63020011680200DB6302008E
:1060A000DB630200DB630200DB630200DB630200F0
:1060B000DB630200DB630200000000000000000060
:1060C000DB630200DB630200DB630200DB630200D0
:1060D000DB630200DB630200DB630200DB630200C0
:1060E000DB630200DB630200DB63020000000000F0
:1060F00000000000DB63020000000000DB63020020
:10610000000000000000000000000000000000008F
:10611000000000000000000000000000000000007F
:10612000000000000000000000000000000000006F
:10613000000000000000000000000000000000005F
:10614000000000000000000000000000000000004F
:10615000000000000000000000000000000000003F
:10616000000000000000000000000000000000002F
:10617000000000000000000000000000000000001F
:10618000000000000000000000000000000000000F
:1061900000000000000000000000000000000000FF
:1061A00000000000000000000000000000000000EF
:1061B00000000000000000000000000000000000DF
:1061C00000000000000000000000000000000000CF
:1061D00000000000000000000000000000000000BF
:1061E00000000000000000000000000000000000AF
:1061F000000000000000000000000000000000009F
:10620000DFF80CD000F07AF900480047D9A102006D
:10621000F053002030B450E8012F93B2C4892344D6
:106220008489A34228BF1B1B0489A34202BFBFF37A
:106230002F8F002007E0C3EA020340E80134002C5E
:10624000E9D14FF001000A6030BC704750E8012FDF
:10625000C2EA024240E801210029F7D1704730B478
:1062600050E8022F1FFAA2F3C488A34202BFBFF373
:106270002F8F00200DE0C48923448489A34228BFC6
:106280001B1BC2EA034340E80234002CE8D14FF064
:1062900001000A6030BC704750E8022FC2EA224277
:1062A00040E802210029F7D17047034653E8022F46
:1062B000D988B2EB324F4FF0000017BF92B241EADB
:1062C000014142EA014104E05A68B2EB324F08BF93
:1062D000012043E80212002AE8D1704730B4044696
:1062E00054E8000F0D4644E80053002BF8D1156028
:1062F00030BC704730B4044654E8000F40EA010552
:1063000044E80053002BF7D1156030BC704730B41F
:10631000044654E8000F00EA010544E80053002B4E
:10632000F7D1156030BC704730B4044654E8000F14
:1063300080EA010544E80053002BF7D1156030BC1A
:10634000704730B4044654E8000F00EB010544E800
:106350000053002BF7D1156030BC704730B40446B1
:1063600054E8000FA0EB010544E80053002BF7D1DF
:10637000156030BC704770B404464FF0000054E81C
:10638000006F0D68AE4207BF44E80023012044E8D7
:1063900000630E60002B1CBF0020F0E770BC70474C
:1063A00030B4044654E8000F88422CBF451A054615
:1063B00044E80053002BF5D1156030BC7047000055
:1063C0000648804706480047FEE7FEE7FEE7FEE78F
:1063D000FEE7FEE7FEE7FEE7FEE7FEE715680200E0
:1063E000016202002DE9F05F0546002092469B46BF
:1063F00088460646814640241BE0284641464746DB
:10640000224600F06BF853465A46C01A914110D309
:1064100011461846224600F016F82D1A67EB0108BF
:106420004F4622460120002100F00DF817EB00092D
:106430004E41201EA4F10104DFDC484631462A46C5
:106440004346BDE8F09F202A04DB203A00FA02F11F
:10645000002070479140C2F1200320FA03F3194352
:1064600090407047004870473005030040EA010340
:106470009B0703D009E008C9121F08C0042AFAD2FA
:1064800003E011F8013B00F8013B521EF9D27047BE
:10649000D2B201E000F8012B491EFBD27047002266
:1064A000F6E710B513460A4604461946FFF7F0FF13
:1064B000204610BD421C10F8011B0029FBD1801A98
:1064C000704730B504460020034600E05B1C934251
:1064D00003D2E05CCD5C401BF8D030BD202A04DB49
:1064E000203A21FA02F00021704721FA02F3D0404D
:1064F000C2F120029140084319467047064C074DEF
:1065000006E0E06840F0010394E807009847103483
:10651000AC42F6D3FFF778FEAC190300CC190300A8
:1065200070B58C1810F8015B15F0070301D110F855
:10653000013B2A1106D110F8012B03E010F8016B82
:1065400001F8016B5B1EF9D12B0705D40023521E05
:106550000DD401F8013BFAE710F8013BCB1A921C6D
:1065600003E013F8015B01F8015B521EF9D5A1426B
:10657000D8D3002070BD00002DE9F04F00268DB06B
:10658000DFF8A081B14604964FF4807501243746A8
:106590000596284604F080FF38B1D8F8040320425D
:1065A00003D0284604F06EFF26432D1D64007F1C97
:1065B000ADB2082FEDD34FF4BE74204604F06CFF4B
:1065C00048B1204604F05EFF46F0004604AA0221CE
:1065D000002004F041FF544C16F0FF0F15D00127A6
:1065E000002537420DD008EB8501D1F81005D1F810
:1065F0001015C0F3052054F82520C1F3014102B164
:1066000090477F006D1C082DEBD3002E7EDA002012
:10661000CDF82890411E0DF1100B07AACDF82C9053
:1066200042F82010401C91460228F9D300252E463E
:10663000A11911F8607F91F9000027F0C008401CF3
:1066400040D007A9404604F0E6F840B34FEA971A55
:10665000404601F0C9FE54F820701FB1BAF1030F93
:1066600003D006E0BAF1030F2CD10AA9404604F08A
:10667000DAF802A8CDF8088004F092FE029900EB47
:106680008100D0F8000704A9C0F301400290404601
:1066900004F0C1F80028029802D0022802D011E0CC
:1066A00003280FD1BAF1030F08D10298022833D082
:1066B0000221404604F04EFE6D1CEDB217B151466A
:1066C0004046B847761C042EB2D3002D21D001AA33
:1066D0000221002004F0C0FE00205A460DF1040102
:1066E00052F8206051F82030B34217D000200AAE93
:1066F0004FEA090351F8207042F8207056F82070D4
:1067000043F82070401C0228F4D300E001E0002D83
:106710008CD10DB0BDE8F08F0321CAE7401C0228E0
:10672000DED3F6E7006000409C2A002000F01F0244
:10673000012191404009800000F1E020C0F8801262
:10674000704700F01F02012191404009800000F1D4
:10675000E020C0F80011704700F01F0201219140B5
:106760004009800000F1E020C0F80012704749079E
:10677000090E002806DA00F00F0000F1E02080F892
:10678000141D704700F1E02080F8001470470000ED
:1067900070B54FF48076304604F080F9114CB505A1
:1067A00060B1304604F081F90120C5F80803607932
:1067B00020B9012060712168002088474FF482765B
:1067C000304604F06BF900280AD0304604F06DF929
:1067D0000220C5F808032168BDE870400120084781
:1067E00070BD00000823002007480021C0F84011B8
:1067F000C0F84411C0F84811C0F84C11C0F800119D
:10680000C0F8041108F03EBE0010014008F088BD39
:1068100005F0CEBB30B54FF0805000228300D0F899
:106820003011C3F80C21C3F81021624B1A60624B7F
:106830001B68624C2360604B1B1D1B68241D23607A
:106840005D4B08331B68241D23605B4B0C331B68B6
:10685000241D2360584B10331B68241D2360564BA6
:1068600014331B68241D2360534B18331B68534C8F
:1068700020342360504B1C331B68241D23604E4B77
:1068800020331B68241D23604B4B24331B68241DBD
:106890002360494B28331B68241D2360464B2C334F
:1068A0001B68241D2360444B30331B68434C403429
:1068B0002360414B34331B68241D23603E4B383327
:1068C0001B68241D23603C4B3C331B68241D236044
:1068D000394B40331B68241D23600124082902D151
:1068E000D0F8343113B1082904D006E0354B3449CF
:1068F000196005E0D0F8343113B1082904D006E05E
:10690000314BFB21196005E0D0F8343113B108296F
:1069100008D00EE090F858322C48016863F3030168
:10692000016002E0D0F834311BB929494FF40070FE
:10693000086028480168C90702D06FF001010160B2
:106940002548016841F470010160BFF34F8FBFF328
:106950006F8F4FF01021D1F80002002803DBD1F82F
:106960000402002822DA1D4B1C601D480468002C1C
:10697000FCD01224C1F800420568002DFCD0C1F8FB
:10698000044201680029FCD01A6001680029FCD08B
:10699000BFF34F8F10487C380168124A01F4E06160
:1069A00011430160BFF34F8F00BFFDE70F490E4851
:1069B000086030BD380500400404001020C50040C8
:1069C000488103008C56004018F50040E40E00405A
:1069D000409602400004004088ED00E004E50140DC
:1069E00000E401400400FA050090D00300240020D8
:1069F00001480068004700001023002002E008C89A
:106A0000121F08C1002AFAD170477047002001E028
:106A100001C1121F002AFBD170470000012120286C
:106A200003DA81400548014003E0402802DA2038BB
:106A3000814009B10120704700207047FC06FFBD6E
:106A40002DE9F843804643F2020659B9694606F03B
:106A5000A5FDB04202D008B100F0BAF99DF80000DF
:106A6000800744D40021404606F0D4FD05003ED006
:106A7000112D3CD01F482049401AC708022000EBC6
:106A800007440D2D0AD00B2D1DD0B5421FD11B4937
:106A900020464246BDE8F84304F002BF2046424685
:106AA000174904F0FDFE1321404676DF00281ED072
:106AB00005F006FB024601B020464346BDE8F04320
:106AC00010A104F0F4BE204642461C49E2E72846E5
:106AD00005F0F6FA0246012000EB0740434618A1F4
:106AE00004F0E5FE2846BDE8F84300F071B9BDE8C2
:106AF000F8830000141A0300DC1903005C0C030087
:106B0000E80B030073645F626C655F6761705F64CC
:106B10006973636F6E6E656374282920726574757E
:106B2000726E6564202573206F6E20636F6E6E5FDA
:106B300068616E646C652025642E0000A80C03005B
:106B4000417373657274696E672E20706D5F636F39
:106B50006E6E5F7365637572652829207265747542
:106B6000726E6564202573206F6E20636F6E6E5F9A
:106B700068616E646C652025642E000010B560B1FC
:106B800059B102780B785208B2EB530F05D10622A7
:106B9000401C491CFFF795FC08B1002010BD0120E6
:106BA00010BD800701D00020704701207047C368E6
:106BB0008B4206D811440069491E814201D8012048
:106BC00070470020704710B501220221002001F01B
:106BD000EBF908B1072810D107220221012001F0AA
:106BE000E3F908B1072808D100210A22084601F07C
:106BF000DBF908B1072800D1002010BD10B560B145
:106C00000B480C49401AC008032101EB00400AA1BF
:106C100004F042FE07F04AFA03E003210A4800F0BC
:106C2000B4FC002803D0BDE8104000F0D1B810BD7E
:106C30006C1A0300DC190300457261736520626FF2
:106C40006E647321000000003824002070B58CB001
:106C500015460E4600236C46C3F10F01415CE1541A
:106C60005B1C102BF8D30D2104F11000FFF717FC6B
:106C70000020C0F10F02315C2244401C1174032833
:106C8000F7D3684646DF0020C0F10F01214491F898
:106C900020102954401C0328F6D30CB070BD0220EC
:106CA00001F084B80149C97800F020BED422002048
:106CB00070B50024064D06E06868012110F8340024
:106CC00005F062FA641C28788442F5D3002070BD78
:106CD00018230020F8B515460C460646052A01D2B1
:106CE0000720F8BD05F048FB18B905F00BFB00289C
:106CF000F7D1124900224E600C708D60C1E9042268
:106D0000C1E906220E4D0DE006EBC4002968009192
:106D100081788DF8011000780A4A694605F080FAFA
:106D20000028DED1641EE4B2EED2BDE8F84004488B
:106D30000021054A001D00F057B80000182300206C
:106D4000A40103002D940200F587020072B604F03E
:106D500055FE00BF04F086FC0028FBD11148124903
:106D6000401AC408012000EB044010A104F094FD77
:106D700011480068C00700D000BE022000EB0440AC
:106D80000EA104F089FDBFF34F8F0B48E438016872
:106D90000E4A01F4E06111430160BFF34F8F00BF61
:106DA000FDE700006C1A0300DC1903004661746102
:106DB0006C206572726F7200F0ED00E053797374AD
:106DC000656D207265736574000000000400FA05AB
:106DD0000EB500210091CDE901106A4644F2010090
:106DE000FFF7B4FF0EBD0000084B9B7823B12AB11A
:106DF00020B10068037C1BB1082070470720704752
:106E0000002303744174426118467047702B0020C0
:106E100070B507F07BFC104800240B21047044700F
:106E20000E4D817014206C602C706C70FFF77EFC2E
:106E300006211420FFF79BFC1420FFF782FC084872
:106E4000046006211120FFF792FC0548001F00682E
:106E5000A860002070BD0000702B002038230020A7
:106E6000081501402DE9FC47DFF8789099F80230C9
:106E700073B368B3052902D20720BDE8FC874369D4
:106E800033B3437C012B25D00027044600258846D8
:106E900016468DF80050684600F038F801A808F052
:106EA00095FDC8B1012101700F4944600968C0E92E
:106EB0000218C0E904769DF8040089F801009DF8E5
:106EC000000000F047F81420FFF746FC2846D4E7FE
:106ED0000820D2E70F46D8E704259DF8000000F00F
:106EE00039F8F3E7702B0020041501400649897832
:106EF00039B130B1416921B100210174022108F09A
:106F00009DBA082070470000702B002030B5EFF3C9
:106F1000108172B60D4A9468012324B103700029D0
:106F200000D162B630BD93604FF0E023D3F88051BA
:106F3000074C25401560C3F88041D3F88441546064
:106F40005A17C3F8842100220270E8E77C2C002045
:106F5000FC06FFBD0B498A68002A11D000280FD11A
:106F6000EFF3108072B60B684FF0E022C2F80031E8
:106F70004B68C2F8043100228A60002800D162B652
:106F8000704700007C2C002070B5054608680C4650
:106F9000411C04D004F039FA206804F0C7F9606895
:106FA000411C02D0002104F0AFF92968A069C1F8A2
:106FB0002405607D227D29681043C1F86C05D4E961
:106FC00000122868C0F81425C0F80C15207D01288F
:106FD00014D1A068411C02D0002104F095F9E068AA
:106FE000411C04D004F011FAE06804F09FF9D4E9E0
:106FF00002122868C0F80825C0F8101570BD70B5D9
:10700000054608680C46411C04D004F008FA2068C4
:1070100004F096F96068411C02D0002104F07DF96B
:107020002968A069C1F82405607D217D2A6808438C
:10703000C2F86C05D4E900122868C0F80C15C0F835
:107040001425207D012814D1A068411C02D0002104
:1070500004F063F9E068411C04D004F0E0F9E06852
:1070600004F06EF9D4E902122868C0F80825C0F8C7
:10707000101570BD02F080BF2DE9F04781460588EC
:107080004A484FF000088AB001784246284600F08E
:1070900045FC99F80500400701D4002176E005F58C
:1070A0008077B8B201AB0122072105F0E9FE0400A8
:1070B0003F48404A4FF00101A0EB02004FEAD000E8
:1070C00001EB00460AD0204604F0FAFF02463046A3
:1070D0002B46394904F0EBFB214629E0284602F013
:1070E00067FC4FF6FF71044688422BD18A4602980E
:1070F00002F0C8FB0446504510D00146284602F075
:1071000037FC2846FFF7CEFDE0B9284607F0F4FC2F
:107110002846FFF7C7FD0028BFD013E006F07CF833
:107120000446504508D1304624A104F0B5FB0421A3
:10713000284607F00FFDB0E70146284602F018FC8C
:107140004FF00108B8B22246072105F011FF0700F1
:107150001BD0862F1ED004F0B3FF024630462B46CC
:107160002349009404F0ABFB3946284607F0F2FCB3
:107170000021484605F078FDB8F1000F02D0204606
:1071800002F000FC0AB0BDE8F0870121484605F096
:107190006BFDF7E71822174903A8FFF767F9ADF869
:1071A0000E5003A801F0B6FCEFE70000D422002047
:1071B0001C1A0300DC190300600F0300436F756C99
:1071C00064206E6F7420616C6C6F63617465206EF7
:1071D000657720706565725F696420666F722069EB
:1071E0006E636F6D696E6720626F6E642E000000C3
:1071F0000C100300380103002DE9FC470025178817
:107200000646158090F82D001446894630B13A465E
:107210002146484600F0ACFB051E09D1B0784FF07E
:107220000C0A18B32088C846001DB84202D950463F
:10723000BDE8FC87684679DF0028F9D12088032162
:1072400008F8001020881921401C80B2208008F81E
:1072500000102088401C80B2208000EB0801BDF89F
:10726000000008F0D3FA218808442080F078022238
:10727000C8B1218896F9033001F1030C4846BC459A
:10728000D5D8425421884FF0010C491C89B2218085
:1072900000F801C02188491C89B2218009F8013019
:1072A0002088401C20807068B8B1218890F9003097
:1072B00001F1030C4846BC45B9D8425421880A2242
:1072C000491C89B2218042542188491C89B22180FD
:1072D00009F801302088401C2080308950B1CDE968
:1072E00000474B460622022106F1080008F086FB03
:1072F000051E9DD1308A50B1CDE900474B4607228B
:10730000032106F1100008F079FB051E90D1308BA7
:1073100050B1CDE900474B461522142106F1180063
:1073200008F06CFB051E83D1306A30B13B46224623
:10733000494601F018F9051EDBD1706A30B13B46B1
:107340002246494603F040F8051ED2D196F82C009B
:1073500038B13B4622464946304607F0D5FC051E6B
:10736000C7D1307838B13B4622464946304603F013
:10737000B9F8051EBDD128465AE718B504460020C5
:10738000ADF8000013466A46204600F006F80028D3
:1073900002D0BDF80000204418BD70B588B182B19C
:1073A0000024158803E0065D641C3444A4B2A542A1
:1073B00003D8061976789E4201D08C42F3D38C42D2
:1073C00001D3002070BDA11C1180005D401E80B261
:1073D00070BD80F8301070472DE9F0470E0004466C
:1073E00006D02CB196F87A000025012803D006E0DB
:1073F0000E20BDE8F08796F89800012821D04FF0C4
:107400000109A5702C2206F17801201DFFF72EF846
:1074100084F83050D6F8A4006063D6F8A800A063C2
:107420004FF6FF70A4F8480204F50D70C4F844024A
:10743000C4F84A52A4F84E5284F85052207810B141
:1074400004E00720D5E7FF2084F8540004F155013B
:10745000C4F8341294F82400EE274FF01F080128D6
:107460001FD0A4F8388200BF04F50E723046FFF733
:10747000C3FE0028BDD116F13C0F18D004F2431111
:10748000C4F83C1294F8240001280DD0A4F84082DE
:1074900004F5107206F13C00FFF7AEFE0028A8D1FB
:1074A00009E0A4F83872DFE7A4F84072F0E7C4F806
:1074B0003C52A4F8405284F85190208BA4F8480024
:1074C00084F83C90256484F85050606960644E46AE
:1074D00004F13C02002104F1540072DF002888D13D
:1074E000267086E710B50288102A1BD0112A20D0FA
:1074F000262A1DD1007A0C46012801D0022817D176
:10750000A0780521401CB0FBF1F201FB12012046DE
:1075100000F03BF800280BD0A16B002908D0BDE893
:1075200010400847C27B012A02D18088A1F8480296
:1075300010BD0C46002184F852128088B4F848121D
:107540008842F5D120790028F2D10121DFE7704788
:1075500010B5044690F8540074DF012084F85202FC
:10756000002084F8540284F850000621204601F0DF
:10757000A5FC002808D1A178204600F006F810B13B
:10758000A16B01B18847002010BD2DE9F05F0446D2
:1075900000780F4698B1A7700025C4F84A52A4F8A5
:1075A0004E5284F85052A079012608B1012F09D01B
:1075B000E07980B1012F05D0022F03D00BE0082025
:1075C000BDE8F09F616B21B184F8516208208847C3
:1075D00001E084F8515204F24B2100200A5C0AB108
:1075E000304603E0401C0628F8D300204FF0020884
:1075F0004FF0030B012F06D0022F0CD0032F0FD01A
:10760000042F15D110E0A17929B194F8241011B9F3
:1076100008B130460DE0E17911B108B1404608E00B
:10762000207A08B1584604E0607A08B1042000E0EE
:107630002846A070616B41B1032801D0042804D111
:10764000607910B194F85202A0B184F8535204F159
:107650003C0018210746FEF722FF04F12C0084F8B5
:107660003C60814605F004FF58B194F82C0084F882
:10767000510008E084F8545284F853620720884788
:10768000E5E784F8516094F8240050B1484605F0CD
:10769000EFFE20B194F8280084F8520001E084F84D
:1076A000526084F85050A27804F24A2104F50D7912
:1076B0004FF0060A052A62D2DFE802F07A030F22B1
:1076C000410084F83160C4F84452C4E9101584F8CC
:1076D0003C808020A4F8480053E084F8318094F87E
:1076E0002420384612B10722027001E080F800B071
:1076F000228A8281C4F844524160E168B96040E066
:107700006069B860208BB88194F824003D4610B1C0
:1077100084F83CA001E084F83C60204608F032F98F
:1077200050B185F814800421204601F0C7FB30BB1E
:10773000052184F8311020E084F831B01DE0E069C3
:10774000B860208CB88194F824003D4610B184F8CC
:107750003CA001E084F83C60204608F013F948B1F1
:1077600085F814800421204601F0A8FB38B984F87C
:1077700031A002E0042084F83100C4F84492A078DB
:1077800078B13A4604F15400D4F8441272DF00286C
:107790007FF416AF94F8301094F8540073DF00288B
:1077A000F6D1616B11B194F831008847002007E7EA
:1077B00084F83150F5E7000070B5040012D001469E
:1077C0001C221448FEF752FE1248134D0560206833
:1077D00050B17ADF002806D120680168296040682E
:1077E000686005E00E2070BD0B487BDF0028FAD1F1
:1077F00008484FF6FF711438084A20F8041B054961
:107800002C3901600021FFF7EFFA0028EBD00320AC
:1078100070BD000010270020302200201DF902005A
:1078200010B5044600F09AF8002805D02146BDE8BE
:107830001040024802F053BF10BD00003C2700205A
:1078400070B515460E46044608F0A8F8002809D081
:10785000054800EB840080692A463146BDE8704047
:1078600001F058BB70BD00002C27002010B5044665
:1078700000F074F8002805D02146BDE81040024809
:1078800002F02DBF10BD00004027002070B5054656
:10789000002400F063F838B12946044802F01FFFC5
:1078A00008B1022400E00124204670BD38270020E2
:1078B00070B50546002400F051F838B12946044857
:1078C00002F00DFF08B1022400E00124204670BD43
:1078D0003427002010B51821034802F0DBFE1828D9
:1078E00000D0C0B210BD00002C27002070B50546A6
:1078F0000C46084608F052F860B1284600F02EF811
:1079000040B10548294600EB8400BDE870401830BE
:1079100002F0E5BE002070BD2C27002070B50546A2
:1079200014460E46084608F039F8002812D02846BA
:1079300000F014F800280DD00748294600EB860017
:1079400018301CB1BDE8704002F0D4BEBDE87040F4
:1079500002F085BE70BD00002C270020142801D342
:10796000002070470146014802F0B9BE30270020D0
:107970007CB5054608880C460930904201D90C2098
:107980007CBD68466DDF0028FAD121880820685444
:1079900020881B21401C80B2208029542088401C54
:1079A00080B220802844DDF801100160BDF8051088
:1079B00081802088801D80B220809DF800104908B9
:1079C00000D0012129542088401C208000207CBD4B
:1079D00038B501880446212930D012DC1E481F4AE0
:1079E0001029A0EB02004FEAD0004FF0030202EB97
:1079F00000400ED011292AD1BDE8384018A103F06B
:107A00004BBF3B2924D0562921D18088132176DF12
:107A10000EE017A103F040FF072000F0E7FA08B1DD
:107A2000FFF7D6F91548A1880180154802F0BEFF7E
:107A300000280CD0BDE83840FFF7CAB900200090FC
:107A4000A08869468FDF002801D0FFF7C1F938BD53
:107A50008088132176DFEBE76C1A0300DC19030042
:107A6000446973636F6E6E65637465642E00000015
:107A7000436F6E6E65637465642E000010220020F3
:107A80002C24002010B51A4C0188606810290ED0F3
:107A900011292BD1401E606028D1FFF794F80028EF
:107AA00024D02168002921D0BDE810400847D0B972
:107AB00000210122084600F077FA08B107280FD10B
:107AC00007220221012000F06FFA08B1072807D130
:107AD00004220221002000F067FA20B1072802D01A
:107AE000216801B188476068401C606010BD0000DB
:107AF000282200202DE9F04701883B4E40F2F3197F
:107B00004FF6FF7510291BD011293ED0122954D0F1
:107B1000502946D1C188F289841D914241D16189A1
:107B200002293ED18688304601F0F0FF050038D0AA
:107B300004F10C0000F0F2F8A8B3294630464EE0FC
:107B4000C17B8788044601292BD1A846284601F02D
:107B5000DDFF050017D02F80002028722348434600
:107B60004A460168C5F80A104068C5F80E0004F1DD
:107B7000100105F10A0002F089F86872F089002806
:107B80000FD129462AE0042013E0808801F0BEFFCF
:107B9000040006D06068FFF7A9F908B106F0BEFF3F
:107BA0002580BDE8F087FFE76868FFF79FF90028A8
:107BB000F7D0BDE8F04706F0B1BF878806463846E3
:107BC00001F0A4FF0400ECD02B464A4606F1080160
:107BD00004F10A0002F05AF8607221463846BDE806
:107BE000F04700F007BD00001027002030220020E1
:107BF0002DE9F04F0746858802883D48012197B05E
:107C00008346102A09D0112A49D01A2A6CD1387A11
:107C1000B1EB101F45D2012244E0354C083CA0686E
:107C2000C0430B9061680BA802F07DFD0B990CA876
:107C300000F07AFC2C220CA96846FEF717FC0026FF
:107C4000E946A04610E000BF09EB46005FF00004E3
:107C5000B0F804A008EB84005146001D02F0FFFCC0
:107C6000641C1D2CF6D3761C0098B042ECD8142D61
:107C700005D317B00420BDE8F04FFFF7A9B8294697
:107C8000584602F037FD294608F1040002F032FDA3
:107C9000F87B012828D016482946001D15E0294602
:107CA0001AE000220221B1EB101F01D2012600E0F0
:107CB00000260F49083901F11000041D294682B140
:107CC00002F018FD36B12946204617B0BDE8F04F46
:107CD00002F010BD2946204617B0BDE8F04F02F073
:107CE000BEBC02F0BCFCF5E717B0BDE8F08F0000A9
:107CF0003427002010B504460748007800280AD031
:107D0000204601F031FD204607F056F82046BDE838
:107D1000104001F00FBA10BD64220020007800F07E
:107D2000010070470149085C70470000B8FF02007D
:107D3000084908B5085C0090684603F023FBD0F8BA
:107D400010050099C84010F0010000D0012080F01B
:107D5000010008BDB8FF02002DE9FC410646C0073E
:107D60004FF000050ED0104F00240122385D009521
:107D700000231146019503F051FA641C042CF4D33E
:107D800000F04EF8B0070DD5074E0024361D002236
:107D9000305D032300951146019503F03FFA641C02
:107DA000042CF4D3BDE8FC81B4FF0200094908B5F6
:107DB000085C0090684603F0E5FAD0F80425009BC3
:107DC0000121994021EA0203C0F808351140C0F8AA
:107DD0000C1508BDB4FF02000249085C012103F044
:107DE00028BB0000B4FF02000249085C002103F038
:107DF00020BB0000B4FF0200084908B5085C0090F1
:107E0000684603F0BFFAD0F804050099C84010F0A6
:107E1000010000D0012080F0010008BDB4FF020085
:107E200010B500242046FFF7D7FF641C042CF9D3BB
:107E300010BD10B500242046FFF7D6FF641C042CAB
:107E4000F9D310BD10B50246064B4FF0FF300021AC
:107E50005C5C944201D1084610BD491C0429F7D34B
:107E600010BD0000B8FF020070B50C4E0C004FF0C2
:107E7000000530600BD0012000F06AF808B1022044
:107E800004E0002000F064F800B10B20207070685E
:107E900010B9FEF798FE0546284670BD282200203E
:107EA00010B5002000F0DCF908B1062806D1012049
:107EB00000F0D6F908B1062800D1002010BD00005E
:107EC0002DE9F0470D468146FFF7BCFF0446042824
:107ED00036D2DFF874801B481C4EA8F10C0725B37E
:107EE000012D0ED0022D2BD104EB440030444578F7
:107EF000002D25D0B968002922D02846BDE8F047DA
:107F0000084704EB4401755C0E44717849B10E4A90
:107F10004FF40041093A8068FEF7A4FF08B987F8DA
:107F20000390B17808F80410E2E78068FEF7DEFFFE
:107F300004EB4401314418F804008D78A842D7D0EE
:107F4000BDE8F087BCFF020024220020C0260020EC
:107F5000042801D2FFF7ECBE00207047014610480C
:107F600010B50088042907D007290ED00A2915D199
:107F7000BDE8104006F00CBF132176DF0CE00028AE
:107F80000CD0BDE81040FEF723BFA0F57F41FF39BC
:107F900004D10448FFF7DCFA0828F0D110BD000036
:107FA000102200203824002070B50023042810D2AD
:107FB0000D4D00EB4004012A02D101290CD0002212
:107FC000094E00EB4000304461B1012906D002297E
:107FD00006D00723184670BD0E30C2B22A55F9E705
:107FE0004270F7E78270F5E7C0260020044A014698
:107FF00000201279D20702D0084600F04DB8704731
:108000001822002070B506461E480024C0E9016110
:10801000B00720D50025012211462846FFF7C4FFEE
:108020006D1C0446042D02D2002CF4D013E094B948
:1080300040F2666204211448FEF74CFE04000AD1A7
:10804000FEF736FE040006D10F48104A0021001F3B
:10805000FEF7CAFE0446F00712D00120FFF77CFEAF
:1080600074B909480A4A00210C38FEF7BDFE040025
:1080700006D10548074A01210838FEF7B5FE044637
:10808000204670BD18220020C8FF02002D83020088
:10809000219D02009F6C02002DE9F05F6E4C0546A9
:1080A00000266078B34618B184F801B001F020FED4
:1080B0006A4F4FF47A694FF4C87A4FF00108182DCF
:1080C00069D2DFE805F00C1313384754696E727BF0
:1080D000727BC58484848484B3B6B9BCC5C501F001
:1080E00007FE3868FEF702FF06465CE00020FFF757
:1080F00083FE00284FF0000008D0FFF76DFE022D30
:1081000002D14FF4E16008E0484606E0FFF76CFE5C
:10811000022D01D1C82000E05046410CC0034FF4AD
:10812000FA72801841F10001257052000023FEF719
:1081300059F901462AE00020FFF75EFE00284FF0C3
:10814000000004D0FFF748FE4FF44870E5E7FFF762
:108150004BFEDFE70020FFF74FFE00284FF0000046
:1081600002D0FFF739FECFE7FFF73EFED4E700204D
:10817000FFF742FE00284FF0000002D0FFF72CFE70
:1081800001E0FFF731FE257041F69A1100223868B0
:10819000FEF768FE064646E00020FFF707FE257062
:1081A00008E0002051E025703DE084F801800120C6
:1081B000FFF7FCFD002240F6CD41E8E784F801809E
:1081C0000120FFF7F3FD00224FF48041DFE77868DC
:1081D000FEF78CFE0646D5F1110000D02EB102202C
:1081E000FFF7FAFD84F802B01DE0012816D980B22D
:1081F000C8214843C117C90341EA5041C0034FF4A5
:10820000FA72801841F1000152000023FEF7EAF8EB
:10821000014600227868FEF725FE06460220FFF799
:10822000E3FD84F802803046BDE8F09F01F060FD78
:10823000B9E701F05DFDB4E701F05AFD04E001F09B
:1082400057FD0020FFF7D0FD0120FFF7CDFDAAE785
:10825000FFF7EFFDA7E7000018220020BCFF020097
:10826000012107F033BC00002DE9F8430546861CC8
:1082700000208DF8000090460F464FF00109684637
:10828000FEF744FE1B4C20683860D4E90001401A18
:10829000A16804F21C47081A0EE00121384602F0DA
:1082A0003CFA01F04BFF0146384602F036FAD4E9B9
:1082B0000001401AA168081A401C8642EDD8B8F1A6
:1082C000000F03D0052065F3891002E0062065F356
:1082D0009F50A2682168114004EB8101C8602068AA
:1082E000304420609DF80000FEF734FE4846BDE8AB
:1082F000F8830000CC2F002030B482680468531C3F
:108300008360A154D0E901128A4202D330BC02F04A
:108310004ABC30BC70470000034803C8814201D109
:108320000120704700207047CC2F002000780221E8
:10833000FFF7C6BD1CB5044601F03AFB00236A46B0
:10834000092104F0DFFE052805D103480122417907
:108350002046FFF7E3FA1CBD382200201CB500219F
:10836000009142F6A621ADF8001001218DF802100F
:10837000034901AA096801916946A0DF1CBD0000FC
:10838000E8FF020005494FF0FF32082841F820209D
:1083900002D3084480F85820704700009C2A00202F
:1083A000F0B54FF0FF3512B10023082601E0082395
:1083B0000C260C4C05E000BF54F823707F1C04D041
:1083C0005B1CB342F8D32846F0BD26185DB286F890
:1083D000305044F82310002AF5D1E11881F85800F4
:1083E000F1E700009C2A00200249084490F930007F
:1083F000704700009C2A002070B504464FF6FF75B8
:108400000A462846AC4209D14FF4807421461046F2
:1084100002F040F980B2A0420BD070BDFF2CFCD816
:108420002146104602F026F990F0010F01D02046B7
:1084300070BD284670BD000070B5084C050009D01D
:1084400010342168002907D0086820604968284650
:108450008847F6E70834F4E770BD0000882A00205A
:10846000054A012120B1012805D19170FFF7E4BF31
:1084700051700020FAE77047882A00202DE9F05F4C
:1084800026484168F1B3DFF898B00E688146DBF802
:10849000004087688078E11B21F07F45ED1CB0B972
:1084A000DFF880804FF48030C8F84403C8F8040334
:1084B0001120FEF73BF91120FEF743F94FF0010AB6
:1084C000C8F800A02F2003F057FE89F802A0B5429B
:1084D00000D23546124BE8193C3320F07F4018603B
:1084E000DBF800105A46091B21F07F41001B20F0E9
:1084F0007F40C91C81420FD9106818602F2003F0FB
:108500003BFE00E004E0BDE8F05F1120FEF724B977
:10851000BDE8F05F06F0FAB8BDE8F09F3823002010
:10852000041501400010014073B58CB006460020D0
:1085300000900D9880B100246D4621460DA802F0F0
:10854000CEF830B1009805EB400084800098401CC4
:108550000090641C142CF0D32C2269463046FDF7A1
:1085600085FF0EB070BD2DE9F04117880646B81D95
:1085700014460D46984202D90C20BDE8F08131889E
:10858000072206290AD34FF4486C4FF6FF73614562
:1085900001D9994202D17088062801D21046ECE731
:1085A000604501D99842F9D1994203D0984201D04F
:1085B0008142F3D80520E85520881221401C80B262
:1085C000208029542088401C80B2208041193088A6
:1085D00007F01CF92188084480B220804119708876
:1085E00007F014F92188084420800020C5E7FEF731
:1085F000EFBB000038B54A7A0F4B62B100220A7215
:108600005969002906D001228DF80020ADF802003A
:108610006846884738BD0A7A62B19B684C68024652
:1086200019462046FEF71EFC0028F3D0BDE838406E
:1086300006F074BA5B68F1E710270020F0B587B048
:1086400016460F4604461D4618220B496846FDF79C
:108650000DFF0A488DF80870ADF80240ADF80A60C9
:108660008DF80C50017800222046FFF757F9684634
:1086700000F050FA07B0F0BD50010300D4220020F2
:10868000FEF7DEB970B588B006460020059006906A
:10869000ADF81410ADF816100190029001AA05A9CA
:1086A000304690DF050021D003F00AFD0346114853
:1086B00011493246401AC108012000EB014004462E
:1086C0000E4903F0F4F8BDF8042012B9BDF8060015
:1086D00028B1BDF80630204609A103F0E8F8BDF83E
:1086E00008201AB12046164903F0DAF808B02846E7
:1086F00070BD0000F4190300DC1903001C0803001E
:10870000546865207265717565737465642054588A
:108710002F5258207061636B6574206C656E6774AE
:108720006820697320746F6F206C6F6E67206279A8
:108730002025752F2575206F63746574732E0000D6
:108740006808030070B504460948012102F000F8EA
:10875000BFF35F8F0025002808D1204601F068FC98
:10876000002803D1BFF35F8F0148056070BD000092
:10877000442200207FB50C4610B1012004B070BD2A
:108780002079002638B141F61D5501281BD002285A
:1087900026D00F20F2E70220207102960396E068AF
:1087A0000190694601A805F00DFF50B1029881883B
:1087B000E18000882081BDF80010029805F080FF5C
:1087C000DCE70A20DAE70A4B6A460021A01D05F023
:1087D000B5FE38B1064918398E61CE610A28CDD16F
:1087E0002846CBE702488188019805F069FFF5E744
:1087F000642300202DE9F0470025DFF88C803CE061
:108800006068002100EBC506012032789146FDF733
:108810001AFED4E9062300EA020701EA030C57EA2C
:108820000C0728D082438B434846C4E9062303F053
:1088300061FD32788246914601200021FDF703FE5A
:10884000D4E9042300EA020401EA03074A46504639
:108850000021FDF7F8FD44404F403C430BD17078B8
:10886000012801D0012100E00021726881EA0A019B
:108870000AB1484690476D1CEDB298F80000444696
:108880008542BDD3BDE8F0871823002010B5002134
:10889000024801F05DFF80F3100010BDE8330020B6
:1088A0000E4910B50A784C780023A24212D0521C0F
:1088B000D2B20A70022A00D10B70084A0B780C322F
:1088C00052F8232002608868104420F07F408860BE
:1088D000012010BD0360002010BD000038230020DF
:1088E00013460A460021FFF7A9BE00002DE9F84310
:1088F000104D0F4680461E4691466946286801F095
:1089000082FE040014D01C21FDF7C9FD0120207156
:10891000C4F81490380BC4F80080C4E902606946BA
:10892000286801F091FE05F075FD0020BDE8F88390
:108930000420FBE74002030010B503780022072B58
:1089400006D2DFE803F005040610202930000A7083
:1089500010BD01230B7003898B818388CB81C06894
:1089600088600A7410BD02220A7002898A81828896
:10897000CA81C2688A60807D062802D000200874FF
:1089800010BD0120FBE703220A70C2888A81028998
:10899000CA81C068886010BD04230B70C0888881BC
:1089A000CA818A6010BD0520087010BD70B5064DE3
:1089B0000646002455F8241009B130468847641C47
:1089C000042CF7D370BD0000A42C002030B5044661
:1089D000006887B00D46806800281FD018216846BF
:1089E000FDF75DFD0195A0680590207910B1012883
:1089F00010D107E001208DF8000020690290E068A6
:108A0000039005E002208DF80000E068000302906A
:108A100060690490206881686846884707B030BD67
:108A20002DE9F04186B016460C00804629D0112C65
:108A300027D0082C25D018216846FDF730FDADF869
:108A40000280404600F0B4FFADF804001B481C490A
:108A50000027401AC5080D2C16D0204603F030FB25
:108A60000246012000EB05404346164902F01FFF75
:108A700007208DF8000002948DF80C70684600F015
:108A800057F806B0BDE8F081022000EB05404246F1
:108A90000D4902F005FF03208DF8000026B1307863
:108AA000C00701D0012000E002208DF8080041F24B
:108AB00001108DF80C70ADF80A00DFE7241A0300EE
:108AC000DC190300D8110300C810030010B50446D8
:108AD000408800F06DFFA080024801682046BDE894
:108AE00010400847402200202DE9F04107460024AD
:108AF000064E074D05E000BF56F82410384688475B
:108B0000641CE8788442F7DBBDE8F0813C2A002051
:108B10006422002010B50446408800F049FFA08080
:108B2000024801682046BDE81040084704010300E0
:108B300001490968084700009001030070B586B03C
:108B4000044618216846FDF7AAFCA0890125A0F576
:108B50004040ADF804002078324E062835D2DFE8D8
:108B600000F0340303032E4EA08900F08BF930B9D6
:108B7000E08943F6FE71A0F54040884225D8A07BED
:108B80008DF808002078032811D000208DF8090006
:108B9000A0680390606860B109208DF800006068EB
:108BA00004908DF81450684604F0FEF90DE00120A1
:108BB000ECE708208DF800008DF81050F3E7A0894D
:108BC00000F060F908B1E08930B17078002801D078
:108BD00004F034FB06B070BD606840B10B208DF826
:108BE0000000606802908DF80C507570DBE70A2079
:108BF0008DF80000BDF8040004F0BEFBF5E76068E6
:108C000058B114208DF80000606802908DF80C5067
:108C10004FF6FF70ADF80400C5E713208DF8000093
:108C2000F6E700005022002038B504460E480078D0
:108C3000A8B1A4F57F40FF380FD0684605F01CFBB3
:108C400078B10521017001210171C480684605F0E9
:108C500021FB05F0D1FB002038BD042038BD0220E7
:108C600038BD082038BD00006C2300200C4808B532
:108C7000007888B1684605F0FFFA78B106210170E6
:108C8000684605F007FB0748017809B10121017327
:108C900005F0B2FB002008BD022008BD082008BD79
:108CA0006C230020682D0020F0B587B014216846A1
:108CB000FDF7F5FB2B4C207818B16846FFF776FEE0
:108CC0004EE0201D01F026FDB8BB4FF01020416999
:108CD0000004026940694B1C01D100FB02F12248EB
:108CE00000220161A1F54051C160204902F0F0F875
:108CF000002820D11F481C238C221D49006801F048
:108D00006FFC03F0E3FE051E14D0022812D00027EA
:108D10000126062D12D005A805F0AEFA88B106701E
:108D20000C2D18D2DFE805F0170F170F17161716BE
:108D3000171113110B2007B0F0BD11E0267067600A
:108D4000BBE70820F7E7077105E0032100E00221F7
:108D5000017100E0067105A805F09CFA05F04CFBD6
:108D60000020E8E76C2300200424002050020300C8
:108D7000B42C0020B801030038B5040014D06946B3
:108D800005F020FCA0B1BDF8000000EB800109480F
:108D900000EB8100C16849B1A17A39B1C168491EAF
:108DA000C1600020A07238BD052038BD062038BD46
:108DB0000A2038BD402D00201FB501A9684605F0E6
:108DC000BDFB04B010BD07B513460A466946002036
:108DD00005F0B4FB0EBD07B513460A4600216846F0
:108DE00005F0ACFB0EBD20B119B100680860002091
:108DF0007047052070470000F8B50D46040018D0F4
:108E0000BDB1694605F0DEFBA8B1BDF800000B4915
:108E100000EB800001EB800001210C30666801F05E
:108E20007CFC2E6060680C3068600120A07200201D
:108E3000F8BD0520F8BD0A20F8BD0000402D002037
:108E400018B10323002206F08DBF052070470223CE
:108E5000002206F087BF0000084910B50A69042AFD
:108E60000AD0074A096942F821000448012110305C
:108E700001F053FC002010BD0C2010BD4C2300203D
:108E8000A42C002043F6FE71A0F54040884201D892
:108E9000012070470020704710B50446007818285C
:108EA00002D1FEF717FD207010BD10B50446007802
:108EB000182802D1FEF70EFD207010BD70B50D46CA
:108EC0000446B0F83812D0F834020122FEF755FA01
:108ED00000B1057004F13C0204F50D7104F1540079
:108EE00072DF70BD70B5134600220546112900D10E
:108EF0000122074C33B12179FEF710FD0022617881
:108F0000284600E06178BDE87040FEF707BD00002C
:108F1000DC220020F7B517460E0011D0009800257E
:108F200060B100242146684601F0D9FB18B1A0B217
:108F30003946B0476D1C641C142CF3D32846FEBD83
:108F40000020FEBD406805F0B7B9000070B508B15B
:108F5000012070BD1B4C0025207B08B1257301E06A
:108F600000F0A4F8207808282AD2DFE800F02904CD
:108F7000080C10291422BDE8704000F025B8BDE8A7
:108F8000704000F081B8BDE8704000F063B8BDE803
:108F9000704000F03FB8062020706088094900EB5F
:108FA0008000283901EB80004068BDE8704003F084
:108FB0006DBD072020706560BDE8704003F074BD92
:108FC0000F2070BD682D00201149F0B48A1C0020CC
:108FD0000346A1F128050C18A67A4EB1A37200EB46
:108FE000800405EB8404E66816B9247C012C0AD0C1
:108FF000401C80B20228EED30B704B804B60F0BC5B
:1090000041F61D5070471080F0BC00F03DB80000E4
:10901000682D00200C48418801EB8102A0F1280155
:1090200001EB8201CA6852B1052101700748022193
:109030008180016800230122054801F0ADBE0422B1
:1090400002704968F6E70000682D002074230020B4
:109050000424002038B50A49084803240B684268F4
:10906000898803EB810153880470DB1C00201B04FA
:1090700000909B0B034801F0E3FF38BD682D0020F2
:109080007423002004240020074910B54888091DD6
:1090900005F0E8FA18B1BDE81040FFF7DBBFBDE806
:1090A0001040FFF7B7BF0000682D0020F0B51F4843
:1090B0001F490125067802248B88A0F12802082E7A
:1090C00019D2DFE806F00418181B222F2F17018988
:1090D000491C01810021418080F80C1001EB8103C3
:1090E00012F8233043B100234418491C89B2A372FB
:1090F0000229F3D30570F0BD0123F5E742685288D9
:10910000D21C1A448A800470F0BD46880D6806EBB4
:10911000860602EB860256680E60556013818C80CD
:10912000062100E007210170F0BD0000682D00203D
:10913000742300202DE9F041044680882188394EAF
:1091400086B00746352937D0502923D0522902D07E
:1091500054295DD102E000F00FFF59E01822324996
:109160006846FDF783F9ADF80270384600F020FC40
:10917000ADF8040000F09CF9002231793846FEF782
:10918000CDFB0022F1783846FEF7C8FB6846FFF7B2
:109190009DFC3DE0207B01283AD1A07A012837D1FF
:1091A0002089A0F52451023932D10121384600F03E
:1091B00037FF06F09BFB2BE04FF000084246717929
:1091C000FEF7ACFBE288B2F5857F1DD01748184941
:1091D000401AC008022101EB004512B1284615A132
:1091E0000BE06289012A03D0284621A102F058FB36
:1091F000A289012A04D028462CA102F051FB03E0E9
:10920000A07B00B1012080464146384606F05CF85C
:1092100000223549B078FEF713FB06B0BDE8F041F7
:1092200005F0CCBC3822002044000300DC19030008
:10923000DC190300556E65787065637465642047BA
:1092400041545420737461747573207768696C6538
:109250002067657474696E672043415220636861BA
:10926000722076616C75653A2030782578000000B0
:109270004D756C7469706C65202825642920434104
:1092800052206368617261637465726973746963A3
:109290007320666F756E642C207573696E67207419
:1092A00068652066697273742E000000556E6578DB
:1092B0007065637465642043415220636861726124
:1092C0006374657269737469632076616C75652077
:1092D0006C656E67746820282564292C2073746F70
:1092E000726520302E0000007570020070B50446D3
:1092F0000078002814D1608800F03EFE658828467A
:1093000000F098F928B107480122C1782846FEF7F5
:1093100005FB6088FFF70EF8BDE8704006F0E6BA7E
:1093200070BD00003822002070B51A4C0025257051
:10933000FEF7D0FA6070FEF7CDFAA070FEF7CAFA19
:10934000E070FEF7C7FA2071FEF7C4FA6071627828
:109350000121182A12D0A278182A0FD0E278182AF0
:109360000CD02279182A09D0182807D004F10C0053
:109370000560BFF35F8F2170002070BD0648074A6B
:10938000801AC00801EB0040054902F085FA03206D
:1093900070BD000038220020DC190300DC19030036
:1093A000340503007CB504460078082837D1607A7C
:1093B00058BB207A1C4E4FF6FF75012811D00728A4
:1093C00002D008282BD121E0A08800F03BFA044607
:1093D000A84224D0012100F023FE2046FEF7AAFF78
:1093E0001DE0A0886A46012103F000FD68B90198DC
:1093F000007850B1A08800F025FAA8420FD00122D1
:10940000F178FEF78BFA05F0D9FB08E0F068012847
:1094100005D1BFF35F8F044900200C310860BDE81F
:109420007C4006F063BA0000382200202DE9F041AC
:109430008046024601200021FDF705F81A4F054637
:109440000E467868FDF752FD00280CD1174CD4E980
:10945000062110462A4001EA06031A4305D0A84314
:10946000B143C4E90601BDE8F081404602F042FF85
:1094700030B1D4E9040128433143C4E9040105E0D3
:10948000D4E90410A943B043C4E90410D4E90601A7
:1094900028433143C4E90601A1687868BDE8F0417A
:1094A0000022FDF7DFBC0000A40103001823002008
:1094B0001CB5054AD2E90212CDE900120022694624
:1094C00003F05AFE1CBD00006000030003484FF685
:1094D000FF71818001210170002070474822002027
:1094E0002DE9FC41804600F063FA002403250127A2
:1094F000A0F57F412646FF3908D06A46082103F0CF
:1095000075FC18B90198841D8688056832462B467B
:1095100021464046B1DF042804D0082804D00B2897
:1095200008D002E0112000E00020002F00D10B2025
:10953000BDE8FC810027A80701D50125E6E73443F3
:1095400003D0002426460325E0E7064806494246A4
:10955000401AC008012101EB0040044902F0A0F9C3
:10956000E5E70000E4190300DC190300A407030089
:109570002DE9FC41804600F01BFAA0F57F4106462C
:10958000FF390ED001252A466D1C0027ADB26B466F
:109590000821304603F074FC040006D0072C33D0B9
:1095A00033E043F20200BDE8FC81019903230A1D68
:1095B0000B604046891DB2DF040004D00C2C09D09A
:1095C000052C09D009E032460821104603F0D0FCF2
:1095D00004461AE0012700E000240821304603F089
:1095E000BDFC70B102F06CFD0346094809493246E2
:1095F000401AC008012101EB0040074902F057F969
:109600000324002FBFD100E00C242046CBE700004C
:10961000E4190300DC1903002407030004488088D0
:10962000A0F57F41FF3901D005F0D2BA70470000A4
:10963000482200200EB502A9019100F0B9F96A464E
:10964000012103F0D3FB08B100200EBD0198007882
:109650000EBD00002DE9F04107464FF6FF76104899
:10966000B3DF78B102F02CFD02460E480E49401AD5
:10967000C008012101EB00400C4902F011F9032060
:10968000BDE8F081064C43F20305A41E3246618812
:109690003846AFDFA842F3D16088401C6080F5E710
:1096A0004A220020E4190300DC190300D806030055
:1096B000428800EB82020C328A4201D902207047B4
:1096C0008188A1F57F42FF3A03D0008808B10020CD
:1096D000704701207047884204D20068401C01D0C6
:1096E00001207047002070473EB5027802230C46E7
:1096F000B3EB520F17D1B0F80110ADF80010C178DC
:109700008DF802108188ADF8041080798DF806007C
:1097100002AA01A92046FDF799FA032202A9684688
:10972000FCF7CFFE08B100203EBD01203EBD000089
:1097300070B50D460446142810D2FEF70FF968B133
:10974000084904EB840001EB4000D0F802102960C6
:10975000C188A980007AA871002070BD43F2020080
:1097600070BD0000A427002070B5018892B01029B8
:1097700061D1011D2C226846FCF778FE9DF804009B
:109780004FF6FF7603213446B1EB500F2BD003F098
:10979000B1FC9DF804006D4640080ED001280CD0A5
:1097A000022820D118E00D99281D1131FDF7E6F9A6
:1097B00018B100BFBDF82C4015E00CAA0BA907207A
:1097C00003F06CFC0028EED10DE00D99281D491C1A
:1097D000FFF78AFF0028EDD10CAA0BA9072003F0A0
:1097E0005DFC0028F1D1BDF80000B44200EB80011F
:1097F000124820F8114000EB41000199C0F8021016
:10980000BDF80810C1809DF80A10017213D0BDF890
:109810000000ADF82E000020ADF83040084E8DF865
:109820002C000BAD044600BF56F82410284688478C
:10983000641C022CF8D312B070BD0000A4270020D5
:10984000740003002DE9F0414FF6FF760546B04263
:1098500013D00B4F002400BF04EB840037F8100036
:10986000A84206D12046FEF779F810B12046BDE89F
:10987000F081641CA4B2142CEED33046F7E700004C
:10988000A42700203EB50C46054603F033FC0BE050
:10989000BDF80000A04207D02846029900F00EF85B
:1098A00010B1BDF800003EBD01AA6946072003F0D3
:1098B000F5FB0028ECD14FF6FF703EBD2DE9F041DD
:1098C0000C46054600F1110701F111061022491C52
:1098D000401CFCF7F6FD48B9681C00F0F9F928B106
:1098E000601C00F0F5F908B1012400E000243146C5
:1098F0003846FDF743F93B780222B2EB530F0CD008
:109900000321B1EB530F08D03378B2EB530F04D0DF
:10991000B1EB530F01D0012100E00021084201D139
:109920008C4302D00120BDE8F0810020FBE70188D4
:1099300011B9421892780AB101207047491C0829D0
:10994000F7D30020704710B50C460346FFF7EFFF32
:1099500000280AD018882188884205D10822A11C35
:10996000981CFCF7AEFD08B1002010BD012010BD11
:10997000142804D2024A00EB800022F8101070472D
:10998000A427002070B50546FFF75CFF0446284673
:1099900003F030FA002808D1142C06D2034B04EB54
:1099A00084024FF6FF7123F8121070BDA427002027
:1099B00010B50446142808D2FDF7D0FF28B1044999
:1099C00004EB840031F8100010BD4FF6FF7010BD9D
:1099D000A42700203EB5044603F08CFB0EE001995D
:1099E00020464631FFF7AFFF28B9019920462A31BA
:1099F000FFF7A9FF10B1BDF808003EBD6A4602A9F5
:109A0000072003F04BFB0028E9D14FF6FF703EBD65
:109A100010B50A4941600A4800F07CFE58B902F0CE
:109A2000D9FA07491C238C22087404488C39001F7A
:109A3000006800F0D5FD002010BD000044020300C6
:109A4000142E00202DE9F0412D4F002518B17D6026
:109A50000120BDE8F0810879012258B1294E012882
:109A60000CD0274C4FF002080834022821D00328DC
:109A700042D128E00A7103F017F83BE05FF00000E4
:109A800000EB800116F82110022908D0401C80B29A
:109A90000228F5D33A707D6041F61D50D9E700EBFE
:109AA000800006F8205006EB8000406802F0EEFFD0
:109AB00020E00D71A4F804800023012212482168DF
:109AC00001F06AF916E00D71206802F0DFFF0D4920
:109AD00023682831498801EB810206EB8201D1F825
:109AE00004C0C4F800C04B60A3880B81A4F80480B4
:109AF00006F822500028ACD07D600E20A9E70000B7
:109B00006C230020402D002004240020014603483F
:109B100002888A4200D0002070470000FC26002006
:109B20002DE9FC5F0E008346DDE90C47C6F100001D
:109B300098469246814600D40846012503E000BFBE
:109B400090FBFAF06D1C5045FADAA84500D945465D
:109B500024B1002E01DB780700D5641EB80702D5BA
:109B6000B8F1000F0AD0F80708D13CB1A54205D2E0
:109B700020215846641EFEF7BFFBF6E7002E02DAEE
:109B80004E462D2102E0780703D52B215846FEF7DB
:109B9000B3FB07F0030002280BD1B8F1000F08D186
:109BA0003CB1A54205D230215846641EFEF7A4FB05
:109BB000F6E7CDE90047434652463146584605F0A0
:109BC0003BFEBDE8FC9F000070B50D4604460068F2
:109BD0004FF4887102F094FA4FF49071206802F00B
:109BE0008FFA4FF49271206802F08AFA4FF4A27152
:109BF000206802F085FA20681249C0F80413206832
:109C0000690740F30730090E002806DA00F00F005C
:109C100000F1E02080F8141D03E000F1E02080F85E
:109C200000142068012140F3073000F01F0291402A
:109C30004009800000F1E020C0F88012C0F8001157
:109C400070BD000010030200024600201268530796
:109C500013D502F00300012802D002280CD105E040
:109C6000C2F383100B68801C184404E002230868C8
:109C700003EB925210440860012070470248007ABA
:109C8000002800D001207047142E0020F0B58488F1
:109C9000A518944200D82246A41AC288D6189A421F
:109CA00000D81346D21A4B880788BB420CD3408891
:109CB000834209D88888A04206D3A84204D8C8881D
:109CC000904201D3B04201D90020F0BD0120F0BD87
:109CD0000021425C0AB101207047491C1029F8D3C9
:109CE00000207047800701D0002070470120704796
:109CF0000A4810B5807860B1002401E0022C06D03B
:109D00002046FEF769F8641C042CF7D310BD032429
:109D1000F6E7BDE81040FEF783B8000018220020E7
:109D200003480179C90702D00078FEF7B5B970473A
:109D3000182200201721018041800021017141710A
:109D40001B218171C17170472DE9FE4F2E4F98463E
:109D500092460D00814601D000260DE0684600F0D5
:109D600015FC6A460021484602F098FF3878009EAC
:109D700010B99DF8090098B152463146484605F0A1
:109D80007DF90446014600224846FFF7ABF80D2C4A
:109D900037D008DCA4B3082C33D00B2C09D130E029
:109DA0000520BDE8FE8F112C1ED0A4F540500238CE
:109DB00027D0204602F084F90246144814494B4645
:109DC000401AC008012101EB0040124901F06FFD6B
:109DD0005FF00305B8F1000F04D032462146484633
:109DE000FEF71EFE2846DCE72A46F9784846FDF7CE
:109DF00095FD5246B9784846FDF790FD0025E9E704
:109E0000FFE72546E6E70000DC220020241A0300D5
:109E1000DC1903008011030070B50E460C4915468D
:109E200004460978FDF762FD00280FD0204602F0B5
:109E3000DBFE00282A463146204603D0BDE87040AC
:109E400002F0D8BEBDE87040FEF74ABD70BD00000C
:109E5000D422002070B5094D0646A978FDF746FDCD
:109E60000446E9783046FDF741FD0146224630467A
:109E7000BDE870400123FFF767BF0000DC2200202F
:109E80002DE9F047394E002780463D46DFF8E09047
:109E9000D6F804A057E003D00446D0F81C8035E083
:109EA00099F8002002EB4201521CD2B289F800203E
:109EB00009EBC10199F80230091D9A4201D189F8D4
:109EC000005048680A780446012A12D0022A02D0BB
:109ED000032A3BD108E005F081FA00B1012725747F
:109EE00034E00574C06900E070680028F9D1706042
:109EF0002CE0207C50BB88686060C868A06008695E
:109F0000E0604869A061F07800B165606268B1689E
:109F1000184B501A20F07F40984202D2A1680844A2
:109F200006E0881AA16820F07F40814202D9081A11
:109F3000206000E0256065600120A5602074204657
:109F4000E56105F02DFAB8F10000A4D199F80010F0
:109F500099F801008142A3D117B97168514502D027
:109F60000120BDE8F0870020FBE700003823002037
:109F7000702B0020FFFF7F00F0B587B0054600275B
:109F800018216846FCF78BFAA5F57F40ADF8025022
:109F9000FF3825D02846FFF7A3FA040022D01B483B
:109FA0001B49401AC6080B2C22D0112C1ED0A4F538
:109FB000405002380ED0204602F082F802460120BE
:109FC00000EB06402B46134901F071FC2146284660
:109FD00004F0ACFD10483A4681782846FDF79EFC17
:109FE00007B0F0BD0E208DF800000BE00127F1E76F
:109FF0000F208DF80000022000EB06402A4607499A
:10A0000001F04EFC6846FEF761FDE3E7DC19030052
:10A01000DC19030004060300382200205806030060
:10A020000A4602494978FDF779BC00003822002031
:10A030002DE9F041002786B080463E46FFF798FAAA
:10A04000040022D0112C22D01B481C49401AC508FC
:10A05000862C1ED0A4F5405002380ED0204602F0C7
:10A060002FF80246012000EB0540434614A101F001
:10A070001EFC2146404604F059FD39464046FFF794
:10A08000CFFF06B03046BDE8F0810126F5E7012795
:10A09000F3E718221A496846FCF7E8F90220ADF800
:10A0A000028000EB0540424616A101F0F9FB68462C
:10A0B000FEF70CFDE1E70000DC190300DC190300EA
:10A0C0006773636D5F6C6F63616C5F64625F636134
:10A0D0006368655F757064617465282920726574B2
:10A0E00075726E656420257320666F7220636F6ED3
:10A0F0006E5F68616E646C653A2025640000000044
:10A1000014000300466C6173682066756C6C2E2029
:10A11000436F756C64206E6F742073746F7265206A
:10A120006461746120666F7220636F6E6E5F686138
:10A130006E646C653A202564000000002DE9FF4143
:10A140000026234800F0E3FA2148001F074600F0EC
:10A15000DEFA204C60680090A56800E0009869462F
:10A16000284004EB80000C30FFF76EFD0028F5D18D
:10A1700001AA009901EA050304EB8303491CDB688B
:10A1800042F82030401C00910228F2D3019800F0E0
:10A19000030001280BD0022810D10198032101EB04
:10A1A00090500099BDF80A6001EB900005E001981D
:10A1B000BDF80A60C0F3831008440090384600F0F0
:10A1C000A3FA08B10098606004B03046BDE8F081A1
:10A1D000E4330020CC2F0020ACB04FF4004100202D
:10A1E00001F0D6FB08B1FCF7F3FD01F02DFAFCF706
:10A1F0000FFE08B1FCF7ECFD5F490320FDF702FFFD
:10A2000008B1FCF7E5FD69460020FDF72DFE08B119
:10A21000FCF7DEFD9DF8000002287CD05FF0000511
:10A2200001F0CCFC08B1FCF7D3FD01F087FE08B1CA
:10A23000FCF7CEFD002469460120009401F00EFDDC
:10A2400008B1FCF7C5FD684601F088FD08B1FCF7D0
:10A25000BFFD9DF8080049A120F00F00401C20F030
:10A26000F00010308DF808000F2202A87CDF08B142
:10A27000FCF7AEFD00945020ADF80000A020019442
:10A28000ADF80200ADF804404FF4C870ADF8060018
:10A2900068467ADF08B1FCF79BFD00213B4800F0DF
:10A2A000CCFA08B1FCF794FDAC216846FCF7F7F84E
:10A2B00002208DF8000001208DF802000621ADF883
:10A2C00010008DF87C008DF803104FF49670304923
:10A2D0002290059144F2506023902E4829902B48FB
:10A2E00069462030FDF778F808B1FCF771FD274882
:10A2F00001212030FDF76DF827480090234869467A
:10A30000143000F05EFB08B1FCF762FD1C216846CA
:10A31000FCF7C5F800E02CE04FF42030CDE9004018
:10A320004FF4702002901D48059003261C488DF8BC
:10A330000C600690ADF80E408DF810406846FDF7B1
:10A340003BFA08B1FCF744FD03F05CF815481649E8
:10A35000401AC00806EB004014A101F09DFA2846FF
:10A36000FCF74CFC01F07EF90028FBD101F03AFC2F
:10A37000F8E7012554E700005D7F02004E6F72642C
:10A3800069635F54656D706C61746500182400200A
:10A39000122200201DC8020029BC020071C8020060
:10A3A000EF8502006C1A0300DC19030054656D7020
:10A3B0006C617465206578616D706C652073746183
:10A3C000727465642E00000070B5144682880E46D3
:10A3D00005462088111D0144921C994201D8FE2A8D
:10A3E00001D90C2070BD521C32542088FF21401C22
:10A3F00080B2208031542088401C80B22080811996
:10A40000288805F003FA2188084480B22080AA88B1
:10A4100042B1A96841B13044FCF728F82088A988E6
:10A4200008442080002070BD072070BD2DE9F04752
:10A43000C5881E1DB6FBF5F78946B6FBF5F1044647
:10A4400005FB176C407916686843DDF820A0F71803
:10A45000001F874200D9C61A166001E02468491E11
:10A460000029FBD1A5EB0C078846B74216D818E0A7
:10A4700004EB0C00001D09EB0803BAF1000F3A468B
:10A4800002D00146184600E01946FBF7EFFF2468AA
:10A49000F61B4FF0000CB844B54201D9374600E036
:10A4A0002F46002EE4D1BDE8F087000030B502460B
:10A4B00051B101F08BFA0021074C08E034F821304B
:10A4C0001568AB4202D11160002030BD491C8142A9
:10A4D000F4D3052030BD000000000000BFF35F8F03
:10A4E00000F0FDB8F8B50F4601781446054601297D
:10A4F00001D1687830B12088821C9A4232D8012973
:10A5000002D006E00720F8BD69780144891C994211
:10A5100028D8181A801E86B2ADF800602188B81CB1
:10A52000084469467DDF0028EDD12978022904D04E
:10A530006878BDF80020904205D3BDF80000B04215
:10A5400001D809200AE00820012905D16978B14223
:10A5500002D8ADF8001001E0ADF80060BDF80010C1
:10A56000FE2901D90C20F8BD2288491CB954218844
:10A57000491C89B2218078542088401C2080BDF875
:10A580000010084420800020F8BD0000034A00218C
:10A590009268C0E90021816070470000DC22002041
:10A5A00070B54FF6FF750E46A84201D1002000E0BD
:10A5B000401C84B208E02146304600F090F808B113
:10A5C000204670BD641CA4B2FF2CF4D9284670BD8F
:10A5D00010B5FBF76AFE08B1002010BD112010BDB8
:10A5E00010B531B1B2FBF3F403FB14241CB1092004
:10A5F00010BD0E2010BD016000214160816082818C
:10A60000C381084610BD70B50C460546FBF702FE37
:10A61000002802D021882868084470BD10B50A8837
:10A6200049888A4203D1FBF737FE012010BD002084
:10A6300010BD70B50C460546FBF711FE002802D090
:10A6400061882868084470BD10B50A8849888A4224
:10A6500003D1FBF7FBFD012010BD002010BD01F070
:10A660001F0301229A40D243490900EB81001146A1
:10A6700000F059B80A4601F01F030121994010B5B6
:10A6800052090C4600EB820000F05DF8204000D03B
:10A69000012010BD2DE9F04180460D460024481EE2
:10A6A000012101EB501716E058F82400C04390FA3E
:10A6B000A0F0B0FA80F020280CD200EB4416AE4295
:10A6C00008D231464046FFF7D5FF0028ECD130468E
:10A6D000BDE8F081641CA742E6D82846F8E74A099D
:10A6E00050F8220001F01F0201219140084000D0E3
:10A6F0000120704701F01F0301229A40490900EB35
:10A700008100114600F029B8002100F017B801219E
:10A7100000F023B8012100F016B808B56A46FBF72F
:10A7200010FE009808BD08B56A46FBF7F0FD0098DA
:10A7300008BD08B56A46FBF704FE08BD08B56A46C1
:10A74000FBF7E5FD08BD08B56A46FBF7D3FD08BD7C
:10A7500008B56A46FBF7C2FD08BD08B56A46FBF7B7
:10A76000C9FD009808BD08B56A46FBF7F7FD0098DB
:10A7700008BD38B5044600258DF800506846FCF742
:10A78000C5FB21686268086890420ED9401E0860C7
:10A790000178238AE26801FB0325227A2168101AD6
:10A7A000C0B20A79824200D208719DF80000FCF71D
:10A7B000D1FB284638BD38B5054600208DF800008D
:10A7C0000C466846FCF7A2FBE868298A201AB0FB11
:10A7D000F1F12A681068431C136001709DF80000B5
:10A7E000FCF7B8FB38BD10B530B1017A4268036898
:10A7F000891AC9B21A6006E00E2010BD03681A68F3
:10A80000541C1C601170491EC9B2F7D200680021A7
:10A810000171084610BDC20800F007030120895CE1
:10A8200098400840704710B5C20800F00703885CE4
:10A8300001249C402043885410BD10B560B10161D3
:10A84000172120F8021B20F8021B1B2100F8021B15
:10A85000FFF770FA002010BD0E2010BDF0B58588FE
:10A8600093B00C46002D39D1018800263F4F242992
:10A870003BD006DC102909D011290CD0232958D14E
:10A880004FE03A290BD0552953D129E00146204603
:10A8900001F0FCFF4DE0A01DFFF74CFA49E0224615
:10A8A000408934F8061F814200D808466080172886
:10A8B00000D217206080106970B1607960B1D7E96B
:10A8C0000001CDE90301ADF80E506088ADF810002D
:10A8D000136903A9104698476671267113B0F0BD3D
:10A8E0000146204602F026F823E0011D2C2206A88E
:10A8F000FBF7BCFDBDF81800BDF81C2004EBC0013F
:10A900004A732269AAB1D7E90423CDE90423ADF83B
:10A910001200487B8DF814002269204604A9904754
:10A9200007E0017A207B884200D201462846FDF7E5
:10A93000A9FEA07A0028D1D0E1882846A5DF01250C
:10A9400080B11128CAD001F0BBFB02460848094972
:10A9500013B0401AC00805EB0040BDE8F04006A166
:10A9600000F09EBFA672E572B8E700007C0003000D
:10A97000F4190300DC19030073645F626C655F67A0
:10A98000617474635F65786368616E67655F6D7439
:10A99000755F7265717565737428292072657475A9
:10A9A000726E65642025732E0000000020B10278CD
:10A9B000DE2A03D0082070470E2070474180002017
:10A9C000704760B159B10278DE2A0AD00968416047
:10A9D000DE2101704FF6FF714180002070470E208C
:10A9E0007047082070477FB5054600294DD0002DDF
:10A9F0004BD008780C46DE2847D1A8886188884269
:10AA000002D1204604F0D0FF2888012825D0022852
:10AA10003BD011283AD0512837D135F8040F61883E
:10AA2000884232D1A978A81C02292ED1017A0429A2
:10AA300003D0062901D0052927D100210091022247
:10AA40008DF8002001914FF4C07202910391ADF88E
:10AA50000420007A05280FD010E0297A2046012929
:10AA600013D1A988428891420FD10121017204B00B
:10AA7000BDE8704004F098BFADF80410288869461E
:10AA8000B0DF002801D0616888477FBDA888618851
:10AA90008842FAD14FF6FF7060807FBD00F18040A0
:10AAA0000068002800D00120704708B500F1804000
:10AAB000002101600068009008BD000070B50B4CDB
:10AAC000207808B185250FE00020A060606020613B
:10AAD000E060074801F032FB054601F07BFA08B957
:10AAE00001F014FB01202070284670BD882A002048
:10AAF0006184020038B500258DF800506846FCF7E7
:10AB000005FA074CE068401EE060E06810B901F00B
:10AB100025FBA5709DF80000FCF71CFA38BD00006D
:10AB2000882A0020F0B505460478154889B01646F5
:10AB300040F82420124A08690832A2F10C0742F8B2
:10AB40002400487F385520226846FBF78FFC049488
:10AB50002878385C48B10EB10A4A00E00022694604
:10AB6000281D01F077FD09B0F0BD0EB1064A00E0E6
:10AB70000022694605F10C0001F03EFCF3E70000FD
:10AB8000F8220020E9F6020035F502000FB408B5FE
:10AB90000399002904D004AA00926A4600F00FF835
:10ABA00001B05DF814FB10B582680446002A05D098
:10ABB000D4E90403216898470020A06010BD2DE966
:10ABC000FC4791460C00804676D014F8011B39B141
:10ABD00025290ED04046FDF78FFB20780028F4D1C0
:10ABE00098F80C00002867D04046BDE8FC47FFF706
:10ABF000DABF0020012221782B291BD02D2902D079
:10AC0000302908D102E040F0010001E040F00200EC
:10AC1000641C002AEFD100252A290ED02178A1F149
:10AC200030020A2A11D205EB850201EB4205641CB1
:10AC3000303DF1E740F00400EAE7D9F800100B1DC1
:10AC4000C9F800300968641C0D44217800232E29BE
:10AC50000BD114F8011FA1F130020A2A05D203EB2F
:10AC6000830201EB4203303BF3E76C290DD06829E6
:10AC70000BD0692921D00BDC252918D0582931D0D7
:10AC800063290ED0642915D117E014F8011FECE7F1
:10AC9000702969D0732932D075291BD0782909D140
:10ACA00020E0D9F80000011DC9F8001001784046E5
:10ACB000FDF722FB641C90E76CE0D9F800100A1D38
:10ACC000C9F800200968CDE900500A224046FEF785
:10ACD00027FFEFE7D9F800100A1DC9F8002009681E
:10ACE0000A2206E0D9F800100A1DC9F800200968F8
:10ACF0001022CDE90050404604F09EFDDAE7D9F875
:10AD0000001000270A1DC9F800200E68C00705D1F1
:10AD100012E04046761C7F1CFDF7EEFA31780029E0
:10AD2000F7D104E0202140466D1EFDF7E5FABD4253
:10AD3000C0D9002DF6D1BDE74EB13046FBF7BAFBC6
:10AD4000074604E0202140466D1EFDF7D5FABD42BE
:10AD500006D9002DF6D103E04046761CFDF7CCFA6B
:10AD600031780029F8D1A5E7D9F80000011DC9F80C
:10AD70000010056830214046FDF7BEFA78214046B4
:10AD8000FDF7BAFA08200021CDE9000103461022A0
:10AD90002946B0E7BDE8FC872DE9F8438846050061
:10ADA0002C482D499946A0EB01004FEAD0004FF006
:10ADB0000101164601EB004424D0286800282CD05D
:10ADC000002E34D0696840464FF010070A68511EC3
:10ADD00011EA080F11D1014672432846FBF7E7FE3E
:10ADE00000282ED028684B463246046901B04146FF
:10ADF0002846A446BDE8F04360472046174B18A2FA
:10AE0000009722E00E2000902046144B1EA220A1A5
:10AE100000F055FD0E20BDE8F88308200090204684
:10AE20000E4B26A21AA100F04AFD0820F3E70920E4
:10AE300000902046094B24A215A100F040FD0920F6
:10AE4000E9E7064B214A2046009711A100F037FDA3
:10AE50001020E0E75C1A0300DC1903002B0203005A
:10AE6000616464725F69735F706167655F616C697B
:10AE7000676E656428705F66732C20706167655F1C
:10AE80006164647229000000705F66730000000056
:10AE9000257320636865636B206661696C65642057
:10AEA000696E202573282920776974682076616C83
:10AEB000756520307825782E00000000705F66737D
:10AEC0002D3E705F617069006C656E004412030076
:10AED00038B503001148124D4FF00E04A0EB0500E9
:10AEE0004FEAD0004FF0010505EB004009D061B1F9
:10AEF00019600C6801B0A446BDE830401146184600
:10AF00006047084B08A2009402E0064B08A2009498
:10AF100009A100F0D4FC0E2038BD00005C1A03002B
:10AF2000DC190300E0010300705F6673000000009D
:10AF3000705F617069000000257320636865636B52
:10AF4000206661696C656420696E2025732829205C
:10AF5000776974682076616C756520307825782E65
:10AF600000000000044801214174007A08B100206B
:10AF70007047012070470000142E0020012801D0E6
:10AF8000032808D10449002201284A7400D0002077
:10AF9000087403F0E1B97047142E002070B5024622
:10AFA000022801D0032A45D1234C207A002841D021
:10AFB000012833D0022831D120480023022A00681A
:10AFC00002D0032A2AD11BE0E360017911B10129E3
:10AFD00024D10DE0D0E90565711B4FF48056B142D4
:10AFE00000D33146294481614569A9420ED015E05C
:10AFF0000169491C0161426991420FD1237213E03A
:10B00000E168491CE160082908D9E3602372022A3B
:10B010000AD00D21FDF7DAFC03F044F9607C28B179
:10B02000BDE8704000F0DCBF0021F3E7BDE87040F0
:10B0300003F092B970BD0000142E00207C23002084
:10B040002DE9F84F90468A463A493B4A0500A1EB64
:10B0500002014FEAD1014FF00102DDF828901E46AF
:10B060004FF00E0002EB01441AD0B8F1000F1CD0D3
:10B070002868002822D00920002E29D06968496854
:10B08000B6FBF1F201FB1261002926D000902B4B98
:10B0900020462BA235A100F012FC0920BDE8F88F54
:10B0A00000902046254B3CA203E00090234B204615
:10B0B0003BA22EA100F003FC0E20EFE70820009039
:10B0C00020461E4B38A229A100F0F9FB0820E5E735
:10B0D00000902046194B37A2DCE75046FBF761FD94
:10B0E000102798B14046FBF75CFDA0B132465146AF
:10B0F0002846FBF75CFD98B1CDF8009028683346F0
:10B100004246C46851462846A047C7E720460B4B35
:10B1100029A2009708E02046084B2DA2009703E0E3
:10B12000064B204633A2009710A100F0C8FB102068
:10B13000B4E700005C1A0300DC19030018020300E6
:10B1400021286C656E202520705F66732D3E705F30
:10B15000666C6173685F696E666F2D3E70726F67B3
:10B1600072616D5F756E697429000000257320633C
:10B170006865636B206661696C656420696E202573
:10B1800073282920776974682076616C7565203092
:10B190007825782E00000000705F667300000000C4
:10B1A000705F737263000000705F66732D3E705FA6
:10B1B000617069006C656E00616464725F69735FE1
:10B1C000616C69676E656433322864657374290045
:10B1D000616464725F69735F616C69676E65643333
:10B1E00032282875696E7433325F7429705F737208
:10B1F00063290000616464725F69735F77697468D2
:10B20000696E5F626F756E647328705F66732C2061
:10B21000646573742C206C656E2900002DE9FF4174
:10B220001C46DDE90A7815460E46684600F0AAF885
:10B2300046EA450141EA840141EA072242EA08411F
:10B24000009A00EB8200C0F80017BDE8FF812DE9ED
:10B25000FF411C46DDE90A7815460E46684600F0B7
:10B260009FF846EA450141EA840141EA072242EAA1
:10B270000841009A00EB8200C0F80017BDE8FF818A
:10B280002DE9FF411C46DDE90A7815460E46684661
:10B2900000F094F846EA450141EA840141EA0722B8
:10B2A00042EA0841009A00EB8200C0F80017BDE8AE
:10B2B000FF812DE9FF411C46DDE90A7815460E465F
:10B2C000684600F089F846EA450141EA840141EA0E
:10B2D000072242EA0841009A00EB8200C0F80017FA
:10B2E000BDE8FF811CB5002100910B4601220191B0
:10B2F000FFF7C6FF1CBD1CB5002100910B460122C3
:10B300000191FFF7D6FF1CBD1CB500220B46009231
:10B3100011460192FFF7B4FF1CBD1CB500220B467D
:10B32000009211460192FFF7C4FF1CBD1CB500211D
:10B3300000910B46012201911146FFF7A1FF1CBDB0
:10B340001CB5002100910B46012201911146FFF727
:10B35000B0FF1CBD13B50C46684600F021F80099FB
:10B3600000EB8101D1F8002722F44032C1F8002718
:10B37000009900EB8100D0F8001741EA0441C0F8C1
:10B3800000171CBD0168202902D24FF0A040704771
:10B3900001F01F01016001487047000000030050E8
:10B3A0000168202902D24FF0A040704701F01F0130
:10B3B0000160014870470000000300500168202927
:10B3C00002D24FF0A040704701F01F010160014818
:10B3D00070470000000300500168202902D24FF09E
:10B3E000A040704701F01F01016001487047000054
:10B3F0000003005001B56846FFF7D2FFD0F81005F2
:10B400000099C84000F0010008BD01B56846FFF78B
:10B41000D5FF009A01219140C0F8081508BD01B57B
:10B420006846FFF7D9FF009A01219140C0F808153E
:10B4300008BD38B501240090684631B1FFF7A2FF7E
:10B4400000998C40C0F8084538BDFFF79BFF009974
:10B450008C40C0F80C4538BD1CB5094C0144D4E9FA
:10B460000034CDE900346C4606E000BF54F82030CB
:10B47000D3F81035401C08C28142F7D81CBD00002B
:10B4800094010300034908B50844002101600068E5
:10B49000009008BD0060004002494058012800D0DB
:10B4A000002070470060004030B5154A014600207A
:10B4B000D2F8104423460AE0DB681D79854205D1A5
:10B4C000401C0A28F6DB4FF0FF3030BD1B68002B14
:10B4D000F2D1431CF9D0CB681871D2F8103443B1C3
:10B4E000DB68CC681B682360D2F81024D268116036
:10B4F00030BDC2F81014C96800220A6030BD0000D7
:10B50000CC2F0020F0B595B01C4615460F460846D6
:10B510001A9E00F02DFB182109A8FAF7C0FF0E961D
:10B52000CDE909540023082203A9384600F035FB71
:10B5300005980690BDF81000ADF81C00BDF812008B
:10B54000ADF81E0000208DF821000398082600F0B9
:10B550000300012802D0022818D032E003983346B5
:10B56000850AC0F3C2008DF8200003980FA9C0F32C
:10B570008314A200384600F010FB09A8009006AB27
:10B5800022460FA9284600F04FFA1AE00398840DCE
:10B59000C0F3C2008DF82000082C01D2254600E03F
:10B5A000082533462A460FA9384600F0F6FA2E44FD
:10B5B000641B09AB06AA29460FA800F093F9002CDA
:10B5C000EAD1384600F0DAFA15B0F0BD7047012034
:10B5D00003F0CEBF084810B50178084A515C19B194
:10B5E000001D01F0C3F802E00C3000F0D1FFBDE80F
:10B5F0001040002003F0BCBF90230020F422002064
:10B6000008B5034A00924023024AFFF77BFF08BDBA
:10B610007DEB0200342E00200A4A012902EBC00013
:10B6200007D0022907D0032907D0042907D000201A
:10B6300070470220704704207047007970474079B6
:10B6400070470000DC19030010B5FFF7C0FF0421AC
:10B650000348FFF729FF02490120C968487110BD5E
:10B66000CC1903002DE9F04F8DB0FCF755FE18B151
:10B6700000200DB0BDE8F08F7E4C4FF0000BC4F8F9
:10B6800018B4BFF34F8F60680290A568D846284071
:10B6900004EB80000CE000BFD4F8180470B92168F6
:10B6A0000298814201D86160E2E7284004EB800003
:10B6B0000C3002A9FEF7C8FA0028EDD1002005AA37
:10B6C000029901EA050304EB8303491CDB6842F895
:10B6D0002030401C02910228F2D3059800F00300AC
:10B6E000022802D001284DD0AAE005985022810DF1
:10B6F0008946B2EB905F00D850210E4666F39F500A
:10B70000059008315C4800F0EAF9070078D000F0B5
:10B710002FFA4346082205A9384600F046FA029956
:10B7200008F1080A2940681A8000001D864222D9C3
:10B73000504D0C3530B1C2B204EB8101301A904645
:10B740000C3104E02946F2B2002590462846C6B2E4
:10B750005346384600F029FA0AEB080325B1324671
:10B760002946384600F021FA029909F1030001EB5D
:10B77000900002903BE004EB81015346324638468C
:10B780000C31EFE70598C0F38310062800D306209C
:10B79000059960F38911C1F38310801C0591810024
:10B7A000354800F09CF907004AD000F0E1F9434623
:10B7B000082205A9384600F0F8F908F10808002623
:10B7C0000FE00298434600EA0501401C04EB8101AA
:10B7D0000290042238460C3100F0E7F908F1040821
:10B7E000761C0598C0F38310B042EAD847B1D4F86C
:10B7F0001054D4F8180478B1384600F0BFF934E09A
:10B800001EE0E8684079012804D12A6828463946B4
:10B8100012689047E8680568002DF2D1384600F0BC
:10B82000ADF98DF800B06846FBF770FBD4F818044A
:10B8300008B9029860609DF80000FBF78BFB14E0EC
:10B84000D4F8104405E02168204689688847E068FC
:10B850000468002CF7D109480949401AC0080221A0
:10B8600001EB004007A100F017F8FCF755FD80F050
:10B870000100FEE6CC2F00208C1A03006C1A030096
:10B88000DC1903004261636B656E647320666C753E
:10B89000736865640000000000231A4603F0CEBC04
:10B8A00008B5012300926A4603F0C8FC08BD1CB528
:10B8B000CDE9002302236A4603F0C0FC1CBD3EB55F
:10B8C000069C8DE81C0003236A4603F0B7FC3EBDCE
:10B8D0007FB5DDE908458DE83C0004236A4603F0A6
:10B8E000ADFC7FBD2DE9F0470E4680461C469246D2
:10B8F00008293ED894F80C90002020731946104671
:10B9000002F062FC0025B54206D218F805201AA103
:10B910002046FFF73BF903E019A12046FFF736F96F
:10B920006D1C082DEFD317A12046FFF72FF9002536
:10B93000B54210D218F80570FAF794FD0068C05DA2
:10B9400010F03E0F01D03A4600E02E220EA1204614
:10B95000FFF71CF903E00DA12046FFF717F96D1C56
:10B96000082DE5D301222146504602F00FFC84F851
:10B970000C90BDE8F08700002025303278000000F0
:10B98000202020007C000000256300002000000033
:10B990000B4810B5FF218160002101604160C0F8B3
:10B9A0001814C0F8141480F82014064800F0E4F8C5
:10B9B000002803D1044800F039F9002010BD000030
:10B9C000CC2F00208C1A0300FC030300024803491B
:10B9D000401AC008704700008C1A0300DC190300ED
:10B9E00013B56846FEF762FD08B100201CBD024891
:10B9F000009950F831001CBDDC19030070B50948EE
:10BA00000125D0F8104480F8205407E0E068457123
:10BA10002168204649688847E0680468002CF5D111
:10BA200070BD0000CC2F00202DE9FF4781460C9D02
:10BA300000200C462F7B2873984616462946184648
:10BA400002F0C2FB072E42D2DFE806F004090F160F
:10BA50001F2A360049462846FFF798F837E049463E
:10BA600028462268FFF792F831E0D4E900234946DE
:10BA70002846FFF78BF82AE0A0680090D4E900235D
:10BA800049462846FFF782F821E0D4E90201CDE9D2
:10BA90000001D4E9002349462846FFF777F816E06D
:10BAA00004F1080007C88DE80700D4E900234946DF
:10BAB0002846FFF76BF80AE004F108000FC88DE88C
:10BAC0000F00D4E9002349462846FFF75FF800221B
:10BAD0002946404602F05AFB2F73BDE8FF872DE947
