:02000004000EEC
:104000003081002001430E0009430E000B430E00D7
:104010000D430E000F430E0011430E000000000080
:1040200000000000000000000000000013430E002C
:1040300015430E000000000017430E0019430E0048
:104040001B430E001B430E00F55B0E001B430E00CE
:104050001B430E001B430E001B430E001B430E00B0
:104060001B430E001B430E001B430E001B430E00A0
:104070001B430E001B430E001B430E001B430E0090
:10408000495C0E001B430E001B430E001B430E0039
:104090001B430E001B430E001B430E001B430E0070
:1040A0001B430E001B430E001B430E001B430E0060
:1040B0001B430E001B430E00000000000000000028
:1040C0001B430E001B430E001B430E001B430E0040
:1040D00015590E001B430E001B430E001B430E0020
:1040E0001B430E001B430E0069440E00000000003D
:1040F000000000001B430E00000000001B430E00E8
:1041000000000000000000000000000000000000AF
:10411000000000000000000000000000000000009F
:10412000000000000000000000000000000000008F
:10413000000000000000000000000000000000007F
:10414000000000000000000000000000000000006F
:10415000000000000000000000000000000000005F
:10416000000000000000000000000000000000004F
:10417000000000000000000000000000000000003F
:10418000000000000000000000000000000000002F
:10419000000000000000000000000000000000001F
:1041A000000000000000000000000000000000000F
:1041B00000000000000000000000000000000000FF
:1041C00000000000000000000000000000000000EF
:1041D00000000000000000000000000000000000DF
:1041E00000000000000000000000000000000000CF
:1041F00000000000000000000000000000000000BF
:10420000DFF80CD000F0F2F800480047D5720E003D
:104210003081002080F308888E46104730B4044671
:1042200054E8000F0D4644E80053002BF8D1156008
:1042300030BC704730B4044654E8000F40EA010532
:1042400044E80053002BF7D1156030BC704730B400
:10425000044654E8000F00EA010544E80053002B2F
:10426000F7D1156030BC704730B4044654E8000FF5
:1042700080EA010544E80053002BF7D1156030BCFB
:10428000704730B4044654E8000F00EB010544E8E1
:104290000053002BF7D1156030BC704730B4044692
:1042A00054E8000FA0EB010544E80053002BF7D1C0
:1042B000156030BC704770B404464FF0000054E8FD
:1042C000006F0D68AE4207BF44E80023012044E8B8
:1042D00000630E60002B1CBF0020F0E770BC70472D
:1042E00030B4044654E8000F88422CBF451A0546F6
:1042F00044E80053002BF5D1156030BC7047000036
:104300000648804706480047FEE7FEE7FEE7FEE76F
:10431000FEE7FEE7FEE7FEE7FEE7FEE7195A0E00BE
:1043200001420E00202A04DB203A00FA02F10020AC
:1043300070479140C2F1200320FA03F319439040E3
:10434000704700000048704704DA0E0010B5441AA8
:104350000346944209D28418114403E011F8013D48
:1043600004F8013D521EF9D210BD40EA0104A40731
:1043700003D009E010C9121F10C3042AFAD203E0C7
:1043800011F8014B03F8014B521EF9D210BDD2B205
:1043900001E000F8012B491EFBD270470022F6E72E
:1043A00010B513460A4604461946FFF7F0FF2046AB
:1043B00010BD421C10F8011B0029FBD1801A704768
:1043C00030B504460020034600E05B1C934203D254
:1043D000E05CCD5C401BF8D030BD034611F8012BEA
:1043E00000F8012B002AF9D118467047064C074DFA
:1043F00006E0E06840F0010394E8070098471034B5
:10440000AC42F6D3FFF700FF8CE10E00ACE10E00EA
:1044100070B58C1810F8015B15F0070301D110F886
:10442000013B2A1106D110F8012B03E010F8016BB3
:1044300001F8016B5B1EF9D12B0705D40023521E36
:104440000DD401F8013BFAE710F8013BCB1A921C9E
:1044500003E013F8015B01F8015B521EF9D5A1429C
:10446000D8D3002070BD0000054B4FF0FF321A601A
:1044700053F8042C034B1A601A68034B1A607047F8
:1044800004BA02502C41002008BA025001EB82020B
:1044900004388A4201D10020704752F8043D1BBA0B
:1044A00040F8043FF5E7000000B5374B8FB01946E0
:1044B0001A680092009AD207FAD5344B344A1A602F
:1044C0000A680192019AD007FAD5324A1A600A683E
:1044D0000292029AD207FAD52F4A1A600A6803920A
:1044E000039AD007FAD52D4A1A600A680492049AF2
:1044F000D207FAD52A4A1A600A680592059AD007A7
:10450000FAD5284A1A600A680692069AD207FAD59E
:10451000254A1A600A680792079AD007FAD5234AF3
:104520001A600A680892089AD207FAD5204A1A60D7
:104530000A680992099AD007FAD51E4A1A600A68D1
:104540000A920A9AD207FAD51B4A1A6008680B9099
:104550000B98C007FAD51A600A680C920C9AD0071B
:10456000FAD5164A1A600A680D920D9AD207FAD542
:10457000134A1A600E210D230F22002000F088FD3F
:104580000FB05DF804FB00BFB0B0025080B0025025
:104590008043012940633921807001298020542102
:1045A00000D13490C0403490C0302029C0530D90C9
:1045B00000413890832308C880E31021004138214E
:1045C000CF4308C810B5504B96B01C461A680192EC
:1045D000019AD207FAD54D4B4D4A1A6022680292D1
:1045E000029AD207FAD54B4A1A604B4A42EA8040F7
:1045F00022680392039AD207FAD5186022680492BF
:10460000049AD007FAD5454A1A60A2F5800242EA18
:10461000814122680592059AD207FAD5196022686D
:104620000692069AD007FAD53D4A1A602268079288
:10463000079AD107FAD53B4A1A6022680892089A6D
:10464000D207FAD5384A1A6022680992099AD00727
:10465000FAD5364A1A6022680A920A9AD107FAD520
:10466000334A1A6022680B920B9AD207FAD5314A64
:104670001A6022680C920C9AD007FAD52E4A1A605A
:1046800022680D920D9AD107FAD52C4A1A60226839
:104690000E920E9AD207FAD5294A1A6022680F9212
:1046A0000F9AD007FAD5274A1A60216810911099FD
:1046B000C907FAD51A60144B1A4619681191119955
:1046C000C807FAD5114B2049196011681291129947
:1046D000C907FAD51D491960116813911399CC07C0
:1046E000FAD50B491960116814911499C807FAD5C5
:1046F00017491960116815911599C907FAD5154A16
:104700001A6016B010BD00BFB0B0025080B00250A9
:104710004004419000862929D81001C840144190D6
:1047200040142129401465210034409000310C9040
:10473000C0400C90C030202940960D900041609000
:10474000031645C80086112100416021594644C81E
:104750004014459040142D90F0B5464B89B01D464D
:104760001C680194019CE407FAD5434BDFF810C1A3
:10477000DFF810E113449B000A181B681E2A88BF4B
:10478000C0F11E011F330A185B095A43B2F5806F4E
:1047900088BF4FF480614FF0000484BFB1FBF3F198
:1047A000091A00F1A05000F52C402746A14233DC45
:1047B0002A680492049AD207FAD5304A1268296806
:1047C00005910599CF07FAD52D482E4C026000229D
:1047D00016469A4202F1010140D12A4C134621F0BB
:1047E000010100268B423CD32B680693069BDE0713
:1047F000FAD5254B1B682C680794079CE407FAD56B
:10480000036000231F481C469A422DD11D4A0020F8
:104810008B422CD309B0F0BD2A680292029AD207CB
:10482000FAD50219920012682E680396039EF607C5
:10483000FAD5CCF8002000229A4202F1010206D1FA
:104840001E4622F00102964204D30134AEE7CEF8B0
:104850000070F1E7CEF800700136F4E726600A46F2
:10486000B7E726600133BDE704600133CCE7106091
:104870000133CDE7B4B0025024AC00147CB0025038
:10488000D4B00250D8B0025078B00250F0B5294DE3
:1048900085B02C462E680096009EF607FAD500F1EA
:1048A000A05000F52C408000056820680190019818
:1048B000C707FAD52048214F056002EB8306B242B4
:1048C00029D15A1C1D4E22F001020027934227D302
:1048D00023680293029BDE07FAD5194B0B449B0019
:1048E0001B681F335B099A4213D221680391039915
:1048F000C907FAD5154400219B1A104A05600846DD
:10490000994210D35A1C0D4922F001020020934213
:104910000CD305B0F0BD52F804EBC7F800E0CEE7C9
:1049200037600133D2E710600131E9E708600133F5
:10493000EDE700BFB4B00250D4B00250D8B002507E
:1049400024AC001410B5494B94B019461A68009273
:10495000009AD207FAD5464B464A1A600A68019275
:10496000019AD407FAD5444A1A600A680292029A58
:10497000D007FAD5414818600A680392039AD20713
:10498000FAD53F4A1A600A680492049AD407FAD505
:104990003C4A1A600A680592059AD207FAD53A4A43
:1049A0001A600A680692069AD407FAD5374A1A603E
:1049B0000A680792079AD207FAD5354A1A600A6838
:1049C0000892089AD407FAD5324A1A600A680992FE
:1049D000099AD207FAD5304A1A600A680A920A9AE6
:1049E000D407FAD52D4A1A600A680B920B9AD2079F
:1049F000FAD52B4A1A600A680C920C9AD407FAD599
:104A0000284A1A600A680D920D9AD207FAD5264AEA
:104A10001A600A680E920E9AD407FAD5234A1A60D1
:104A20000A680F920F9AD207FAD5214A1A600F4BE3
:104A300019461C681094109CE407FAD50C4B1860BA
:104A4000086811901198C407FAD51A600A68129282
:104A5000129AD007FAD5174A1A600A681392139A65
:104A6000D207FAD5144A1A6014B010BDB0B0025083
:104A700080B00250809065210004099040966590B6
:104A800080806121802008218020649000816190D5
:104A9000004610210081112100414421802020295D
:104AA000024610C800860921802060214021282963
:104AB0004096652140962529594614C810B5544B97
:104AC00098B019461A680192019AD207FAD5514B4B
:104AD000514A1A600A680292029AD407FAD54F4ADC
:104AE0001A600A680392039AD007FAD54C481860F6
:104AF0000A680492049AD207FAD54A4A1A600A68E8
:104B00000592059AD407FAD5474A1A600A680692B0
:104B1000069AD207FAD5454A1A600A680792079A98
:104B2000D407FAD5424A1A600A680892089AD2074E
:104B3000FAD5404A1A600A680992099AD407FAD548
:104B40003D4A1A600A680A920A9AD207FAD53B4A85
:104B50001A600A680B920B9AD407FAD5384A1A6081
:104B60000A680C920C9AD207FAD5364A1A600A687B
:104B70000D920D9AD407FAD5334A1A600A680E923C
:104B80000E9AD207FAD5314A1A600A680F920F9A24
:104B9000D407FAD52E4A1A600A681092109AD207E2
:104BA000FAD52C4A1A601A4B19461C681194119CAC
:104BB000E407FAD5174B1860086812901298C407DA
:104BC000FAD51A600A681392139AD007FAD5124AD6
:104BD0001A600A681492149AD207FAD51E4A1A600B
:104BE0000A681592159AD407FAD51C4A1A600A6801
:104BF0001692169AD007FAD5194A1A600A681792BF
:104C0000179AD207FAD5174A1A6018B010BD00BF1C
:104C1000B0B0025080B00250009365210004319082
:104C2000409665900083612100C3302100C36490E9
:104C30000081619000461021008111210041442132
:104C400000C320290C4610C80086312100C3602112
:104C500040C12829409665210013319040962529AE
:104C6000594614C8400432492DE9F041814B1D6872
:104C700098682033A0B01E461A680192019AD7079F
:104C8000FAD57D4B7D4A1A6032680292029AD407A7
:104C9000FAD57B4A1A607B4A14461168039103993E
:104CA000C907FAD5784A1168C1F3402137680497DB
:104CB000049FFF07FAD5754F1F6027680597059F6A
:104CC000FF07FAD51768002900F0CF80B90540F139
:104CD000CC80316806910699CF07FAD56C491960E6
:104CE000216807910799C907FAD51168C1F34021D6
:104CF00037680897089FFF07FAD5664F1F60276837
:104D00000997099FFF07FAD51268002900F0AF80C4
:104D1000910540F1AC8032680A920A9AD207FAD51E
:104D2000564A1A6032680B920B9AD707FAD55A4A3C
:104D30001A6031680C910C99CC07FAD55749196063
:104D400031680D910D99C907FAD555491960316837
:104D50000E910E99CF07FAD55249196031680F911B
:104D60000F99CC07FAD550491960504B1E46196867
:104D700010911099C907FAD53F4C4D4B2360336809
:104D80001193119BDB07FAD54A4B236033681293CA
:104D9000129BDF07FAD5484B23603A4B98461968B7
:104DA00013911399C907FAD5324F386033681493B9
:104DB000149BDB07FAD5226033681593159BD8073F
:104DC000FAD53E4B236033681693169BD907FAD564
:104DD0003B4B236033681793179BDA07FAD5394B9F
:104DE000236033681893189BDB07FAD5364B236092
:104DF00033681993199BD807FAD5344B236033686D
:104E00001A931A9BD907FAD5314B236033681B9349
:104E10001B9BDA07FAD52F4B236000F0D3F908BBB0
:104E2000D8F800301C931C9BDB07F9D53D60336834
:104E30001D931D9BD907FAD5274B236033681E931A
:104E40001E9BDA07FAD5254B2360D8F800301F9354
:104E50001F9BDB07F9D50C4B1B6813F4805F204BBD
:104E600008BF184620B0BDE8F0811E48FAE71E488A
:104E7000F8E700BF90B0025080B00250001002511D
:104E8000C01F7229B4B0025088B00250C0CF0129AF
:104E9000C01F0E29C03F002940010249003184A8EB
:104EA00000001649400108A180440888B0B00250B3
:104EB000C044708880077A41C0077E4100006A497B
:104EC0008006164940006E49000200210082202120
:104ED000408220218082242140A161A100C861512B
:104EE0000308F1000108F1000208F10008B540B123
:104EF000202801464FF0070228BF20210020FFF79D
:104F00002BFC024B00221A6008BD00BF1CB80250E7
:104F10007FB51C681CB901F01F041F2C27D1174C4A
:104F2000254626680196019EF607FAD500F1A050A5
:104F300000F52C40800000682C680394039CE40773
:104F4000FAD50F4C00EB611020600E4801F01F04F1
:104F5000006802901F2C18BFC94302980FBF106051
:104F600001F01F0100FA01F11160002119601068C1
:104F70004300C00F136004B070BD00BFB4B0025056
:104F8000E4B00250DCB0025030B51E4B85B01A467A
:104F9000196800910099CC07FAD500F1A05000F5EE
:104FA0002C408000016813680193019BD807FAD553
:104FB000154B164C1868164D1F30202390FBF3F04C
:104FC0000138002810DA00230130400153B1A0F16C
:104FD00020014FF00042134204D1013881424FEAD0
:104FE0005202F8D105B030BD13680393039BDB0771
:104FF000FAD5431823602B680293029B002BE3D160
:105000000138DEE7B4B00250ACB00250E4B0025058
:10501000DCB002500A460021AFF3008038B5A0F1A1
:105020002003B3F5426F05462CD88F2826D800F10F
:10503000470300F16604DB064FEA541400D0013444
:1050400064013F34A409013411B1A1421AD30C46C2
:10505000E3004FF48050B0FBF3F0202828BF20205D
:1050600002B11060084B01221A60214600F068F876
:105070002846214600F088F8002038BD00F11F04C2
:105080006409DDE7014838BD1CB802502221F00058
:1050900070B5264888B0054604680094009CE60771
:1050A000FAD52348234C0460234C44EA83432C68FC
:1050B0000194019CE407FAD50360930143EA82421C
:1050C00042F0104444F4C0442B680293029BDE0774
:1050D000FAD504602B680393039BDB07FAD5174BC3
:1050E00003608B0143EA814141F0104343F4C04324
:1050F0002E680496049EF607FAD503602B68059384
:10510000059BDE07FAD5046041F058412B680693F1
:10511000069BDC07FAD5016042F058422B680793E2
:10512000079BDB07FAD5026008B070BDB0B0025033
:1051300080B00250C02102298071009880611890CF
:1051400030B500220C4C49001346023840F6FC757D
:10515000904202F10102CABF236025605B181E2A3B
:1051600004F10404F4D1054A19441360044B054AC0
:1051700019609A6030BD00BF00B0025078B0025094
:105180007CB0025020F80F000C4B18603F3020F02C
:105190003F008901403058609960D96019615961B8
:1051A00099611C330648196082B002680192019A25
:1051B000D207FAD5196002B0704700BF90B0025014
:1051C000B4B002502DE9F04192B00123039304934F
:1051D000624B1D461A680592059AD207FAD5604CB3
:1051E000604B2360604B19461A680692069AD707EF
:1051F000FAD55E4B1A68D60400F1A8802A68079297
:10520000079AD007FAD55A4A22600A680892089A83
:10521000D207FAD51E68C6F30036002E40F09880FB
:105220001220FFF7B1FE07461320FFF7ADFE8742BD
:105230008CBF12201320FFF7A7FE471EFFF734F99B
:1052400003AB01AA39461220FFF762FE04AB804689
:1052500002AA39461320FFF75BFE00EB4800022844
:1052600032D003283ED0012874D12B680993099BC2
:10527000DB07FAD53F4B23602B680A930A9BD807BC
:10528000FAD53D4B23602B680F930F9BD907FAD5B6
:105290003A4B23602B681093109BDA07FAD5384BF2
:1052A00023602B681193119BDB07FAD5354B2360E4
:1052B000013F25D51023192218210020FFF7E8FE11
:1052C000304612B0BDE8F0812B680B930B9BD907D9
:1052D000FAD52D4B23602B680C930C9BDA07FAD57B
:1052E0002A4BCFE72B680D930D9BDB07FAD5284B94
:1052F00023602B680E930E9BD807FAD5254BC1E788
:1053000003AB01AA39461220FFF702FE04AB0446A4
:1053100002AA39461320FFF7FBFD10EB440402D12B
:10532000FFF7CCFBC4E7FFF70DFB022C08D0032CE2
:1053300009D0012C10D117211620FFF743F9B7E748
:1053400015211420F9E70F210E20F6E7124EB7E7DA
:10535000124EB5E7124EB3E7124EB1E7B0B00250AD
:1053600080B0025000084A51B4B0025088B00250D8
:1053700000084E5100065A4940065E490004424169
:105380000014424940042E4900065249400656493D
:1053900000063A4940063E490608F1000708F100B8
:1053A0000408F1000508F100014B1860704700BFC8
:1053B00008BA0250014B1860704700BF04BA02508F
:1053C000094BC2431A60043B82B01B680193074B30
:1053D000019A104204D0064A1060186802B0704763
:1053E00020BF1A680192F3E704BA02502C41002052
:1053F00008BA0250FEF7AABFFEF7D2BF0A46002144
:10540000FEF7CEBF2DE9F74305460E4699461146F5
:1054100000F060FA0446002840F08480002E00F07E
:105420008580002900F08480B9F1200F40F082804F
:1054300005F14404082205F104082046FFF726F888
:1054400005F12407082231464046FFF71FF806F110
:10545000200108223846FFF719F802A94FF480709E
:1054600041F8049DFFF7D6FD002865D1334A4FF47B
:1054700080731360012193600823314AFFF706FA15
:105480000121084605232F4AFFF700FA0823424668
:1054900001211C20FFF7FAF908233A4601210320D5
:1054A000FFF7F4F92246082301210220FFF7EEF965
:1054B0000823254A01211A20FFF7E8F90523234A8A
:1054C00001211B20FFF7E2F90823214A01211420C2
:1054D000FFF7DCF908231F4A01211520FFF7D6F951
:1054E000082305F1640201211620FFF7CFF90823F4
:1054F00005F1840201211720FFF7C8F90823164A95
:1055000001210B20FFF7C2F9FFF7AEFB044601981B
:10551000FFF7ECFC114B002C18BF1C46A4212846B9
:10552000FFF76CFF204603B0BDE8F0830C4CF9E7B1
:105530000C4CF7E70C4CF5E7084CEFE790B0025045
:1055400000E10E0078E10E00C0E00E0064E10E0004
:1055500024E10E0044E10E00E0E00E008408F000BB
:105560007608F0008008F0008108F00038B50D469C
:105570000446B0B1A02200210430FFF73DFF95B1F1
:105580002946082204F16400FEF780FF082205F195
:10559000200104F18400FEF779FF044B2360002012
:1055A00038BD034838BD034838BD00BFDD55AABB30
:1055B0007108F0008308F0002DE9F041069F0446D1
:1055C00015461E46FFF7D2FF38B93B4632462946FC
:1055D0002046BDE8F041FFF715BFBDE8F0810000AF
:1055E0002DE9FF41144B04460E460FCB8DE80F000A
:1055F000204600F07FF98046B0B9CEB1636A251D20
:1056000001953BB901236362226F04F130016846C2
:1056100000F088F82B46043E243453F8042B12BAC9
:10562000A34246F8042FF8D1404604B0BDE8F0810B
:10563000DFF80880F8E700BF90E00E000502F000F8
:1056400038B5044668B1051D28467021FFF7D6FE1F
:10565000284620220449FFF7CDFE044B236000209A
:1056600038BD034838BD00BFA0E00E00DD55AABB21
:105670000002F000294B2DE9F04304460E46154682
:105680000FCB85B06F468DE80F002DB94FF00009A4
:10569000484605B0BDE8F083204600F02BF981466E
:1056A0000028F5D1231D0193636AA3BB236F8BB13F
:1056B000C3F14008A84528BFA84604F13000314690
:1056C00018444246FFF796FE236F4344464423673F
:1056D000A5EB0805226F402A06D104F130013846B7
:1056E00000F020F80023236705F03F0835F03F0560
:1056F00005D031462A46384600F014F82E44B8F159
:10570000000FC3D04246314604F13000FFF772FE6D
:10571000C4F87080BCE7DFF80890B9E790E00E00AD
:105720000C02F0002DE9F74F314B44688046924659
:1057300099461A68002AFCD12E4B9B461A68002A0B
:10574000FCD14FF0FF300191FFF72EFE8020FFF7D4
:1057500031FE294D294A2A4F2A4E012307202B606A
:10576000A2F59E72C2F83C011360636A3B60A36AB3
:105770003360D8F8003042F8043CD8F808302046AE
:1057800098470199D9F80030002BFBD1BAF1000FEE
:1057900020D11D4B04221A60D9F80030002BFBD118
:1057A000DBF800A0BAF1000FFAD1D8F80C3020468F
:1057B00098473B6863623368A362144BC3F800A048
:1057C000C3F844A1D9F80030002BFBD12B6003B003
:1057D000BDE8F08F236A012B04BF0C4A13600C4B09
:1057E00040201960C3F804A0FFF7EAFDD4E700BF2A
:1057F00010B9025020BC025018B8025000B9025033
:10580000CCB70250D0B70250C8B7025084B602508D
:1058100028BC0250084B1B681B0EF02B08D1074B0D
:105820001A68074B9A4205D1064B00201860704752
:10583000052070470620704728B9025024BA02504C
:105840000000E0200CBA02500C4B1B68C3610C4BEB
:105850001B6883610B4B1B6843610B4B1B68036127
:105860000A4B1B68C3600A4B1B688360094B1B68AB
:105870004360094B1B680360704700BF5CB6025071
:1058800058B6025054B6025050B602504CB60250B0
:1058900048B6025044B6025040B602500C4BC269A2
:1058A0001A60826943F8042C426943F8082C0269A3
:1058B00043F80C2CC26843F8102C826843F8142C6F
:1058C000426843F8182C026843F81C2C704700BF4C
:1058D0005CB6025030B10268034B04489A4208BFDC
:1058E0000020704702487047DD55AABB8208F000CF
:1058F0007108F00030B10268034B04489A4208BFB7
:105900000020704702487047DD55AABB0202F00034
:105910000002F0002DE9F0411E4E4FF48271D6F8DE
:10592000040130B11C48C268521CC260304604F009
:10593000BFFF00254FF4A07707EB85018AB2304600
:10594000B25812B389B204F0B3FF1348103000EB21
:105950000514204607F072FB104811492246401AF0
:10596000C008042101EB00400EA104F075FD616840
:1059700019B1204607F0B6FA07E0A16811B1204638
:1059800007F0B0FA206800B180476D1C022DD3D318
:10599000BDE8F081004002401000002024E20E002B
:1059A000CCE10E0074696D65725F666972652028CE
:1059B000307825782900000000F056B970B50E4601
:1059C000144900EB400001EBC0051446E86A1835A5
:1059D00020B101280FD0022805D113E0284600F09D
:1059E00079F9A04201D2002411E02246314628462E
:1059F00000F0A8F90BE0284600F06CF9A042F4D2C0
:105A00000446F2E73146284600F06FF90446204686
:105A100070BD0000A430002030B54FF0805000224F
:105A20008300D0F83011C3F80C21C3F81021624B69
:105A30001A60624B1B68624C2360604B1B1D1B6825
:105A4000241D23605D4B08331B68241D23605B4BC2
:105A50000C331B68241D2360584B10331B68241D16
:105A60002360564B14331B68241D2360534B18339B
:105A70001B68534C20342360504B1C331B68241D7F
:105A800023604E4B20331B68241D23604B4B243373
:105A90001B68241D2360494B28331B68241D236089
:105AA000464B2C331B68241D2360444B30331B684A
:105AB000434C40342360414B34331B68241D236026
:105AC0003E4B38331B68241D23603C4B3C331B6822
:105AD000241D2360394B40331B68241D236001249F
:105AE000082902D1D0F8343113B1082904D006E0D6
:105AF000354B3449196005E0D0F8343113B1082929
:105B000004D006E0314BFB21196005E0D0F83431B8
:105B100013B1082908D00EE090F858322C480168DB
:105B200063F30301016002E0D0F834311BB9294965
:105B30004FF40070086028480168C90702D06FF070
:105B4000010101602548016841F470010160BFF363
:105B50004F8FBFF36F8F4FF01021D1F80002002854
:105B600003DBD1F80402002822DA1D4B1C601D481B
:105B70000468002CFCD01224C1F800420568002DF6
:105B8000FCD0C1F8044201680029FCD01A60016809
:105B90000029FCD0BFF34F8F10487C380168124AAF
:105BA00001F4E06111430160BFF34F8F00BFFDE7D7
:105BB0000F490E48086030BD38050040040400104D
:105BC00020C50040488103008C56004018F5004075
:105BD000E40E0040409602400004004088ED00E0E2
:105BE00004E5014000E401400400FA050090D00300
:105BF0002001002010B5054C206818B904A15120DF
:105C000000F0EDFA2068BDE810400047A400002035
:105C10002E2E5C2E2E5C2E2E5C2E2E5C2E2E5C6D7F
:105C20006F64756C65735C6E7266785C64726976BD
:105C30006572735C7372635C7072735C6E726678AB
:105C40005F7072732E630000064808B50021016082
:105C50000068009004F0BCFC04F090FA0028FBD12E
:105C600008BD00000001014010B5124C0220206167
:105C7000606111A0A06104F17800E0614FF48050F0
:105C800020620020A06260620BA1A164E0620D4965
:105C9000E1641021A065C4E91410E0650AA1E01DCB
:105CA000FEF79BFB09A12046FEF797FB2020A07181
:105CB00010BD0000A43000205465726D696E616CE7
:105CC000000000001C410020525454005345474737
:105CD000455200000269C1688A4203D88068401AB0
:105CE000104400E0501A401E70472DE9F047C46888
:105CF0001746894606464FF000083069A04201D990
:105D0000051B02E0B168201A0D1AB0686D1E001B59
:105D1000A84200D80546BD4200D33D4670682A46D9
:105D200020444946FEF712FBB0687F1B2C44A84470
:105D3000A944A04200D10024F460002FDDD14046E8
:105D4000BDE8F0872DE9F04104468846D4E9020712
:105D5000C51BE168606816460844B54206D941464D
:105D6000FEF7F4FAB819E060BDE8F0812A46414632
:105D7000FEF7ECFA761B08EB050132466068FEF789
:105D8000E5FAE660F0E702E008C8121F08C1002A41
:105D9000FAD170477047002001E001C1121F002AAC
:105DA000FBD17047800701D0002070470120704769
:105DB00040680068401E084201D101207047002061
:105DC0007047C3688B4206D811440069491E81425E
:105DD00001D8012070470020704700002DE9F05FD6
:105DE000DFF89CB05C46DBF84890DBF8246002F0FA
:105DF00011FA216B4718751A22482349401AC10825
:105E0000042000EB0140804620A104F021FB216B1F
:105E10004944B94200D1002508232A46384600F0FB
:105E2000A1FF0700184817494FF0010AA1EB000035
:105E30004FEAD0010AEB014404D020461AA104F035
:105E400007FB19E002F0E6F90022314600F008FCF9
:105E5000DBF828200546D946AA4208D1404619A1B8
:105E600004F0F6FAC9E9075AC9F8186004E02046B8
:105E70002B461A4904F0F7FA3846BDE8F09F0000B7
:105E8000F419002024E20E00CCE10E00456E74658A
:105E900072206E72665F6466755F6170705F636FBB
:105EA0006E74696E756500004661696C6564207486
:105EB0006F20636F7079206669726D776172652EED
:105EC0000000000053657474696E67206170702073
:105ED00061732076616C696400000000A4DA0E0032
:105EE00008B51346024600930648074BC01AC0087F
:105EF000012303EB00400B4604A104F0BCFA05F0BB
:105F0000A1FB000024E20E00CCE10E0052656365A7
:105F1000697665642061206661756C74212069640E
:105F20003A203078253038782C2070633A20307849
:105F3000253038782C20696E666F3A20307825300D
:105F400038780000024606480649401AC008012178
:105F500001EB004004A104F07FFA05F073FB0000A0
:105F600024E20E00CCE10E0052656365697665643B
:105F700020616E206572726F723A20307825303859
:105F8000782100002DE9F047244C81469246608834
:105F90000E4681423FD84FF6FF77002000F076F89A
:105FA00022786078A188884201DA401C00E0002055
:105FB000C0B2904203D1002000F096F829E0657845
:105FC0004FF000086078884201DA401C00E00020B1
:105FD0006070002000F088F8BD421AD0A068B9F1C6
:105FE000000F40F835A00DD066B16188E0683246F8
:105FF00005FB01004946FEF7A9F9A06800EBC500C2
:10600000868003E000EBC500A0F804800020BDE816
:10601000F0870420FBE70920F9E70000AC0000202E
:1060200010B50E4C03E0401C00E0002020702078EA
:106030006178814210D022786188E068A36802FB11
:10604000010003EBC20153F8322089889047207881
:10605000A1888842E9DAE6E710BD0000AC00002024
:1060600030B5CB0008339DB293074FF0000401D048
:10607000072030BD044B9A602A44DA605C701C70C3
:1060800058809980002030BDAC00002010B506F08B
:106090000BF9012803D004A1432000F0A0F8BDE8CB
:1060A000104000F04FB800002E2E5C2E2E5C2E2EDD
:1060B0005C2E2E5C2E2E5C636F6D706F6E656E7441
:1060C000735C6C69627261726965735C7574696C2A
:1060D0005C6170705F7574696C5F706C6174666F21
:1060E000726D2E630000000010B506F0DDF8012887
:1060F00003D004A1512000F072F8BDE8104000F078
:1061000029B800002E2E5C2E2E5C2E2E5C2E2E5CCE
:106110002E2E5C636F6D706F6E656E74735C6C6950
:10612000627261726965735C7574696C5C617070D0
:106130005F7574696C5F706C6174666F726D2E63ED
:106140000000000072B602480168491C01607047F7
:10615000BC00002003490868401E086000D162B6F8
:1061600070470000BC00002070B5054608680C466A
:10617000411C04D003F02CFF206803F0C2FE6068CD
:10618000411C02D0002103F0B3FE2968A069C1F8C8
:106190002405607D217D2A680843C2F86C05D4E996
:1061A00000122868C0F80C15C0F81425207D0128BD
:1061B00014D1A068411C02D0002103F099FEE068D0
:1061C000411C04D003F004FFE06803F09AFED4E918
:1061D00002122868C0F80825C0F8101570BD1CB55B
:1061E0006A46ADF800000191002144F20200FFF779
:1061F00077FE1CBDF8B521480146456AC06A8C6C23
:10620000AC2801D024B106E0486B04442D1A02E00A
:1062100002F014F804461A481A492346401AC708DF
:10622000042000EB07400646174A18A1009504F029
:1062300022F92A4621461448FEF7C2F8D0B130466A
:106240002B4622461FA104F00EF900BF03F096FF73
:106250000028FBD101F0FAFC2946204602F0DAFBC7
:10626000040005D0012000EB074022A104F0F0F863
:106270002046F8BD0024304625A1F7E7F419002098
:1062800024E20E00CCE10E0000400E00566572695B
:106290006679696E6720424C3A20416464723A2004
:1062A0003078253038782C205372633A20307825A6
:1062B0003038782C204C656E3A203078253038788C
:1062C00000000000436F7079696E6720626F6F7421
:1062D0006C6F616465723A205372633A203078259E
:1062E0003038782C204C656E3A203078253038785C
:1062F000000000005265717565737420746F20632F
:106300006F707920424C206661696C656400000002
:106310004E6F20626F6F746C6F6164657220636F83
:106320007079206E65656465642C20626F6F746C93
:106330006F616465722075706461746520636F6D50
:10634000706C6574652E000012481349401AC0082D
:10635000042101EB004011A104F07AF804F038F9AF
:1063600003F00CFF0028FBD1124E64254FF47A474E
:10637000741C3846A0476D1EFAD1BFF34F8F0E48EC
:1063800001680E4A01F4E06111430160BFF34F8FD1
:1063900000BFFDE724E20E00CCE10E0052657365FC
:1063A0007474696E6720626F6F746C6F616465727C
:1063B0002E000000F0D60E000CED00E00400FA05FF
:1063C0002DE9F0470546861C90460F464FF001091F
:1063D0000020FFF75BFE1B4C20683860D4E9000109
:1063E000401AA168081A41F21C0167180EE0012149
:1063F000384601F045F800F0F9FE0146384601F054
:106400003FF8D4E90001401AA168081A401C8642EE
:10641000EDD8B8F1000F03D0052065F3891002E034
:10642000062065F39F50A2682168114004EB8101AA
:10643000C8602068304420600020FFF755FE4846C1
:10644000BDE8F0878020002010B543689C184460A8
:1064500021B905E013F8010B01F8010B521EF9D226
:10646000012010BD30B482680468531C8360A154BD
:10647000D0E901128A4202D330BC03F08BBA30BC9F
:1064800070470000034803C8814201D101207047D2
:10649000002070478020002010B50548012101F040
:1064A00005F8BFF35F8F08B1002010BD012010BDBB
:1064B0004400002010B5064C2068012803D005A137
:1064C0009320FFF78CFEBFF35F8F0020206010BD8C
:1064D000440000202E2E5C2E2E5C2E2E5C2E2E5C78
:1064E0002E2E5C636F6D706F6E656E74735C6C697D
:1064F000627261726965735C6D757465785C6E72E9
:10650000665F6D74782E68000449002008600449B5
:106510004FF48060C1F880017047000000A5025070
:1065200004E000E003490120086003498002C1F84B
:106530000001704700A5025004E000E070B500F1D2
:106540000805106814460E46202802D248F214505E
:1065500070BDFFF7A1FF90B1FFF7E4FF3146284679
:10656000FFF73EF80546FFF7CFFFFFF7A3FF2846EA
:1065700000F0D4FB0028EBD12021216070BD48F24F
:10658000045070BD10B50830FFF75AF8BDE8104050
:1065900000F0C4BB2DE9F04700F108090E4614468F
:1065A000FFF77AFFB8B1FFF7BDFF4FF480584546BB
:1065B000AC4200D825462A4631460E48FDF7C6FEB5
:1065C0002A460C494846FFF755F80700A4EB050496
:1065D0002E4404D005E048F20450BDE8F087002CBA
:1065E000E5D1FFF791FFFFF765FF3846BDE8F047BB
:1065F00000F094BB5805002070B50B4800240460DF
:10660000BFF35F8F094D01202860FFF703F90100F8
:106610002C604FF0030004D0052901D148F203504B
:1066200070BD002070BD00004400002000A5025095
:10663000014900200860704700A5025010B5040011
:1066400003D10549EB20FFF7CAFD0448C16B616027
:10665000006CA06010BD000000DC0E00F4190020EA
:10666000F0B54FF0FF3622B11268D24300230A4D35
:106670000DE03246FAE7C45C62400824D70700D038
:1066800037462F4087EA5202641EF7D15B1C8B42CB
:10669000F1D3D043F0BD00002083B8EDF0B514690C
:1066A00006468DB020681546271DE0B1022920D08E
:1066B0000A2000906B4609AA304605F016FE002815
:1066C0000FD009A901A8009A05F04AFC01AE96E88E
:1066D0000F0005AE86E80F00236869683A4605A8F2
:1066E00098470DB0F0BD0DB03046BDE8F04005F064
:1066F000ABBC6946304605F03DFC0028F1D023686C
:1067000069683A46684698470028EAD00298002807
:10671000F5D1019870600120E3E753685B7813F0CE
:10672000C00303D0402B03D00020704700F002B814
:10673000FFF7B4BF2DE9FF410B46516806461446EA
:106740004878334D00F00F0210F0300055F8225019
:1067500006D0102806D0202808D0302856D13EE098
:1067600022694DE061690120087047E0022B28D1C1
:10677000042A26D84FF0010869463046676905F0BB
:10678000F9FB00281AD009E00B79226913FB0022DB
:106790006846A84770B13878401C3870029820B11C
:1067A000616838784A799042EED301987060029817
:1067B00060BB02E04FF00008F7E7404604B0BDE8D8
:1067C000F081D4E904300F79027817FB023349795C
:1067D0008A421BD2521C02701A46616810E0087887
:1067E0006169072A087009D1606801792069FDF79D
:1067F000D5FD60682169806805F0D7FB2269616872
:1068000004B03046AC46BDE8F04160470020D5E713
:106810005CD90E0038B51C4901200A68D20301D5A5
:10682000000407E019490A6812F0A90F04D00868AB
:1068300000F056000860002001F07AFC1449154A67
:10684000891AC908042202EB0144B8B1192000904A
:10685000684603F061FBD0F810050099C84010F0BD
:10686000010F0ED00948001F006810F0B10004D0DD
:10687000204609A103F0ECFD012038BD20460FA100
:10688000F8E7204616A1F5E7000400402005004087
:1068900024E20E00CCE10E00444655206D6F646585
:1068A000207265717565737465642076696120472F
:1068B000505245475245542E000000004446552092
:1068C0006D6F6465206265636175736520617070CA
:1068D000206973206E6F742076616C69642E0000ED
:1068E000444655206D6F64652072657175657374DB
:1068F00065642076696120627574746F6E2E000085
:10690000FEB519490446086808B1401E08601748DA
:10691000174AD4E90153801AC008042202EB004050
:1069200022789DB10E6821690296CDE900312B468F
:10693000012A16D00FA211A103F0B0FD6169002950
:1069400011D0E06803B0BDE8F04008470968009145
:10695000012A04D007A218A103F08DFDEEE720A2C2
:10696000F9E71FA2E7E7FEBD4C000020D4E10E00CE
:10697000CCE10E006572617365000000466C6173C6
:1069800068202573206661696C656420283078254D
:1069900078293A20616464723D25702C206C656E04
:1069A0003D307825782062797465732C2070656E8F
:1069B00064696E6720256400466C617368202573E6
:1069C00020737563636573733A20616464723D2557
:1069D000702C2070656E64696E672025640000006D
:1069E00077726974650000007047000010B50446B6
:1069F000032806D0042C04D0062C0FD0072C05D178
:106A00000CE008494FF4701000F018FF06480168C8
:106A1000002905D02046BDE810400847FFF794FC48
:106A200010BD0000056F0E000800002010B50446E0
:106A3000062802D1002002F04BFC0448016800291E
:106A400003D02046BDE81040084710BD4800002094
:106A500070B5427805460C46012A09D00F48104906
:106A6000401AC008022101EB00400EA103F0F4FC23
:106A7000287808280BD16088401E81B26180208868
:106A800000280AD0002908D16080032028702946F8
:106A90002046BDE8704005F059BC70BD2CE20E00E8
:106AA000CCE10E0044465520726571756573742003
:106AB000636F6D706C6574656420776974682072AB
:106AC0006573756C743A20307825780010B5002114
:106AD000024800F0EBFC80F3100010BD9C30002059
:106AE0002DE9FC4180461F4615460E4600240D4800
:106AF00000F0C3FC38B11120BDE8FC8106EB043086
:106B000003F08EFE641CAC42F8D1064800F0ACFCE9
:106B1000CDE90057334600220221404600F004F838
:106B20000020E9E7C00000202DE9F04387B00446CB
:106B3000DDE90E8980681D4616460F4600280BD0F9
:106B400018216846FDF72AFC02A88DF8007080E83D
:106B50006003A1686846884707B0BDE8F0830B284A
:106B600003D30B38C0B200F009B8704702490022C5
:106B700008780A7070470000500000200149087032
:106B80000B20704750000020014901200870704719
:106B9000400000202DE9F0438BB004004FF02000AE
:106BA000164688464FF001050A9004D12A4940F262
:106BB0001E20FFF714FB04F16F012022894602A872
:106BC00001F048FA254826493346401AC7080420F0
:106BD00000EB07400446424622A103F044FC0AA908
:106BE0002F48CDE90001334642462E49A0F59A7060
:106BF00001F070F9020006D0012000EB07402AA145
:106C000003F02AFC22E0202202A92548FDF7D8FB48
:106C1000E8B1022000EB074030A103F019FC204648
:106C200035A103F015FC20462022494603F0BCFBA9
:106C3000204636A103F00CFC20462022184903F020
:106C4000B3FB00BF03F09AFA0028FBD100250BB07C
:106C50002846BDE8F083000028DE0E00F4E10E00B7
:106C6000CCE10E00486173682076657269666963DD
:106C70006174696F6E2E204669726D77617265204E
:106C8000737461727420616464726573733A203046
:106C90007825782C2073697A653A20307825780039
:106CA000A41E002034D70E00436F756C64206E6FF5
:106CB000742072756E2068617368207665726966EB
:106CC00069636174696F6E20286572725F636F64B7
:106CD000652030782578292E00000000486173680F
:106CE00020766572696669636174696F6E2066619A
:106CF000696C65642E000000457870656374656496
:106D000020465720686173683A000000416374753B
:106D1000616C20465720686173683A0010B50F4CCB
:106D200048F20351031B48F21652A04211D007DC6F
:106D300000280AD00A4BC01808D0012804D10BE063
:106D40000A2B01D00D2B07D0104610BD48F2015080
:106D500010BD48F2025010BD084610BD0202F000FE
:106D600000FE0FFF2DE9FC5F0F4606463D483E49F9
:106D70009846401A04214FEAD00A01EB0A40154612
:106D80008346B74207D133463A4638A103F06BFB3E
:106D90000020BDE8FC9F04D240494FF04F00FFF7B0
:106DA0001EFAB8F1000F03D13C495020FFF717FA43
:106DB000300503D039495120FFF711FAB81B040BF5
:106DC00003D136495420FFF70AFA0020009005F657
:106DD000FF704FEA103900F04DFF4046A04500D249
:106DE0000446A04639E0C14503D82C46CDF80490AE
:106DF00003E04FEA0834CDF80480002230460199C0
:106E000001F0B4FC0028C4D1584633463A4624A1C8
:106E1000009403F030FB601E00F00300221A0023F0
:106E200039463046D21C01F039FD0028B1D1019914
:106E30002448A9EB01092D1B016B26442144016361
:106E40002744002002F0ECF9009030B1012101EB61
:106E50000A401DA103F0FCFA01E0002DC3D1009807
:106E600097E7000024E20E00CCE10E004E6F206395
:106E70006F7079206E6565646564207372635F610D
:106E80006464723A20307825782C206473745F61D2
:106E90006464723A203078257800000054DA0E00DD
:106EA000436F7079696E67203078257820746F2081
:106EB000307825782C2073697A653A2030782578E7
:106EC00000000000F41900204661696C65642074BC
:106ED0006F20777269746520696D61676520636FE3
:106EE0007079696E672070726F6772657373207452
:106EF0006F2073657474696E677320706167652EA7
:106F00000000000005480649401AC008032101EBB3
:106F1000004004A103F09CFAFFF716FA24E20E00E9
:106F2000CCE10E00496E61637469766974792074EE
:106F3000696D656F75742E000149416000207047CE
:106F4000ECD80E002DE9FC5F0E008346DDE90C470E
:106F5000C6F1000098469246814600D408460125B5
:106F600003E000BF90FBFAF06D1C5045FADAA8452B
:106F700000D9454624B1002E01DB780700D5641EF8
:106F8000B80702D5B8F1000F0AD0F80708D13CB114
:106F9000A54205D220215846641EFFF763FAF6E7A2
:106FA000002E02DA4E462D2102E0780703D52B2170
:106FB0005846FFF757FA07F0030002280BD1B8F143
:106FC000000F08D13CB1A54205D230215846641EBD
:106FD000FFF748FAF6E7CDE9004743465246314607
:106FE000584606F0D9F9BDE8FC9F000070B50E4682
:106FF000044600684FF4887103F065FC4FF490710B
:10700000206803F060FC4FF49271206803F05BFC91
:107010004FF4A271206803F056FC20681549C0F8AF
:1070200004132068082E40F3073503D312A16B2008
:10703000FFF7D5F87007000E002D06DA05F00F01F6
:1070400001F1E02181F8140D03E005F1E02585F858
:1070500000042068012140F3073000F01F02914036
:107060004009800000F1E020C0F88012C0F8001153
:1070700070BD0000100302002E2E5C2E2E5C2E2E02
:107080005C2E2E5C2E2E5C696E746567726174696D
:107090006F6E5C6E7266785C6E7266785F676C7538
:1070A000652E6800024600201268530713D502F0CF
:1070B0000300012802D002280CD105E0C2F383109E
:1070C0000B68801C184404E00223086803EB92520A
:1070D000104408600120704702480068002800D072
:1070E00001207047C000002038B54FF440521B49C2
:1070F000536800F500508B4204D044688C4201D1A3
:10710000012400E000248B4226D143688B4223D126
:107110001178142901D9526900E000221049B2FB0C
:10712000F1F30278142A01D9406900E00020B0FB95
:10713000F1F0834203D001240AA2009002E000246F
:107140000AA200900B480C49401AC008032101EB29
:1071500000400AA103F08FF9204638BDDBE5B151AC
:1071600040420F006D616A6F720000006D696E6FC2
:1071700072000000F4E10E00CCE10E00536F667463
:107180004465766963652075706461746520697310
:1071900020612025732076657273696F6E2075708B
:1071A000646174652E2043757272656E743A202591
:1071B000642E204E65773A2025642E0070B5054672
:1071C00008680C464A6886682846314604F00EFE78
:1071D0006068286104F10C00686170780221B1EBED
:1071E000901F01D1241D2C6170BD00002DE9FF41CD
:1071F0000026264800F03EF92448001F074600F00C
:1072000039F9234C60680090A56800E00098694651
:10721000284004EB80000C30FFF744FF0028F5D134
:1072200001AA009901EA050304EB8303491CDB680A
:1072300042F82030401C00910228F2D3019800F05F
:10724000030001281AD002280ED012A14FF4BF70FB
:10725000FEF7C5FF384600F00AF908B100986060F3
:1072600004B03046BDE8F0810198032101EB905055
:107270000099BDF80A6001EB900005E00198BDF8A7
:107280000A60C0F3831008440090E3E798300020C0
:10729000802000202E2E5C2E2E5C2E2E5C2E2E5C4E
:1072A0002E2E5C636F6D706F6E656E74735C6C69AF
:1072B000627261726965735C6C6F675C7372635C48
:1072C0006E72665F6C6F675F66726F6E74656E6418
:1072D0002E63000010B500224FF48051104600F0DC
:1072E000CDFAD8B912480022C0F57E2100F0C6FAC6
:1072F000A0B900210F4803F035F902F029FF0E482C
:107300000E49401AC108032000EB014004460CA1BD
:1073100003F09EF80D4800F0E9FB08B1FEF712FEFD
:1073200000F0D6F920460AA103F092F8002010BD23
:1073300000400E0065780E0024E20E00CCE10E0045
:10734000496E73696465206D61696E00E9690E00BC
:107350004166746572206D61696E00002DE9F05F11
:107360001E46DDF828B091468A46040003D124A1C8
:10737000B620FEF734FFB4F80680607908FB00F809
:10738000A8F10408464503D31DA1C420FEF727FF3A
:10739000E788301DB0FBF7F1B0FBF7F207FB1200F6
:1073A000D9F80050AA19424501D9A8EB0605C9F839
:1073B000005001E02468491E0029FBD13E1A88468E
:1073C000AE4215D817E000BF2044001D0AEB0803A9
:1073D000BBF1000F324602D00146184600E01946C4
:1073E000FCF7B4FF00202468AD1BB044AF4201D9C4
:1073F0002E4600E03E46002DE6D1BDE8F09F00009D
:107400002E2E5C2E2E5C2E2E5C2E2E5C2E2E5C6381
:107410006F6D706F6E656E74735C6C6962726172B1
:107420006965735C6D656D6F626A5C6E72665F6DD7
:10743000656D6F626A2E630030B5024651B103F08C
:10744000AFF80021074C08E034F821301568AB4252
:1074500002D11160002030BD491C8142F4D30520C7
:1074600030BD000000000000002100F00FB8002136
:1074700000F012B8012100F01EB8012100F011B88F
:1074800008B56A46FCF7FDFE009808BD08B56A46D7
:10749000FCF7DDFE009808BD08B56A46FCF7D7FE8C
:1074A00008BD08B56A46FCF7C5FE08BD08B56A46C2
:1074B000FCF7B4FE08BD08B56A46FCF7BBFE0098B1
:1074C00008BD08B56A46FCF7E9FE009808BD000053
:1074D00070B5040004D114A14FF49270FEF77FFE42
:1074E00000252846FEF7D2FD2068626801689142B7
:1074F00014D9491E01600D781CB919A1E820FEF7C6
:107500006EFE208AE16805FB00152068217A02786A
:10751000891A0279C9B28A4200D201710020FEF7AD
:10752000E3FD284670BD00002E2E5C2E2E5C2E2E14
:107530005C2E2E5C2E2E5C636F6D706F6E656E74AC
:10754000735C6C69627261726965735C62616C6CB8
:107550006F635C6E72665F62616C6C6F632E63005A
:107560002E2E5C2E2E5C2E2E5C2E2E5C2E2E5C6320
:107570006F6D706F6E656E74735C6C696272617250
:107580006965735C62616C6C6F635C6E72665F628E
:10759000616C6C6F632E630070B50C46050004D1FE
:1075A00010A140F24710FEF71AFE24B90DA14FF4C6
:1075B000A470FEF714FE0020FEF768FD1DB9174900
:1075C000F520FEF70CFEE8682A68211A288AB1FB2C
:1075D000F0F11068431C13600170BDE8704000209A
:1075E000FEF782BD2E2E5C2E2E5C2E2E5C2E2E5C87
:1075F0002E2E5C636F6D706F6E656E74735C6C695C
:10760000627261726965735C62616C6C6F635C6EFF
:1076100072665F62616C6C6F632E630060750E0052
:1076200010B5040002D0206830B901E00E2010BD72
:1076300019A1FF20FEF7D3FD606820B916A14FF411
:107640008070FEF7CCFDA06820B913A140F20110B4
:10765000FEF7C5FDE06820B90FA14FF48170FEF779
:10766000BEFD208A20B90CA140F20310FEF7B7FD41
:10767000207A61682268401AC0B2116004E0226872
:1076800011684B1C13600870401EC0B2F7D221680D
:107690000020087110BD00002E2E5C2E2E5C2E2EB8
:1076A0005C2E2E5C2E2E5C636F6D706F6E656E743B
:1076B000735C6C69627261726965735C62616C6C47
:1076C0006F635C6E72665F62616C6C6F632E6300E9
:1076D0002DE9F041164817494FF48052401AC70867
:1076E000042000EB07401546044613A102F0B4FE47
:1076F0004FF0E026D6F8802120461DA106F5C07681
:1077000002F0AAFE70173060C6F8000101F08EF991
:1077100028B1012000EB074020A102F099FE02F001
:107720002DFD0028FBD12846BDE8F04100F052B8FD
:1077300024E20E00CCE10E0052756E6E696E672079
:107740006E72665F626F6F746C6F616465725F61A9
:1077500070705F73746172742077697468206164FB
:1077600064726573733A20307825303878000000F1
:1077700044697361626C696E6720696E74657272C8
:10778000757074732E204E5649432D3E4943455221
:107790005B305D3A20307825780000004661696CE6
:1077A00065642072756E6E696E67206E72665F64C6
:1077B00066755F6D62725F6972715F666F72776125
:1077C00072645F616464726573735F7365742829A2
:1077D0000000000070B588B04FF0FF36EFF3058170
:1077E000D0E90045C905C90D4FF0000080F31488A9
:1077F00080F3108880F3118880F3138813D020223F
:107800000D496846FCF7A2FD203C2022694620462F
:107810000695FCF79BFD6FF0060231462046FCF70B
:10782000F9FC08B070BD08B02A4631462046BDE8D4
:107830007040FCF7EFBC0000F8D60E0070B5084DA4
:1078400004460E46686805F0F9FB002C06D0324667
:1078500021466868BDE8704005F0E2BB70BD0000DD
:10786000100000200348D0F804050349097B00EB11
:1078700001607047004002401000002070B50B0509
:1078800002D1B0F57F2F01D9072070BD0AB10625BE
:1078900000E00225104A114B1468082C01D3042083
:1078A00070BD03EB0416C6F80008C6F80418C6F845
:1078B0000858641C146003EB0414D4F8F067864283
:1078C000EAD1D4F8F4678E42E6D1D4F8F847AC4256
:1078D000E2D1002070BD00000C00002000E001405B
:1078E0002DE9F04145484649434D401A4FEAD0083A
:1078F000042101EB0840002704460C2241A102F0BC
:10790000ABFD00262046AA5D40A102F0A5FD761C35
:10791000B6B20C2EF6D320463DA102F099FD2046CA
:107920003CA1AA6802F098FDA86801280ED0A528FD
:1079300013D0AA2818D0AC281ED0032101EB084090
:107940003EA102F085FD0020BDE8F081204642A165
:1079500002F07EFDFEF742FA0CE0204641A102F063
:1079600077FD04F0E7FD0DE0204641A102F070FD37
:10797000FEF740FC024607E0204640A102F068FD09
:1079800004F0A6FE024601271D491C4B0120591A8E
:10799000C90800EB014622B130463CA1AB6802F0B9
:1079A00062FD284600F05AFCDFF81481002188F8B7
:1079B0000010444801F080FB054698F8000020B90B
:1079C000414940F2A910FEF70AFC35B130463FA10B
:1079D00002F03EFD03252846B6E70125002FFAD028
:1079E000012000F0A5FB0028F5D020463E4902F01A
:1079F0002FFD0225EFE70000181A002024E20E00F8
:107A0000CCE10E006466752025643A0025782000DC
:107A10000D0A0000456E746572206E72665F626FBB
:107A20006F746C6F616465725F66775F61637469C0
:107A30007661746520202564200000004E6F20666A
:107A400069726D7761726520746F20616374697605
:107A50006174652E0000000056616C6964204170FD
:107A60007000000056616C696420534400000000FF
:107A700056616C696420424C0000000056616C69DC
:107A800064205344202B20424C0000004163746961
:107A9000766174696F6E206661696C6564207769D0
:107AA0007468206572726F72202564202862616E8E
:107AB0006B20636F64653A203078257829000000D8
:107AC00040000020896B0E0054DA0E00436F756C85
:107AD00064206E6F742077726974652073657474A6
:107AE000696E67732E000000ECDA0E00F8B50546EB
:107AF00035483649401AC608042000EB06400446C3
:107B000033A102F0A5FC38480560192000906846B2
:107B100002F002FA009A354900EB8200C0F8001723
:107B2000002001F01BFA002843D1FFF7D9FE20B155
:107B3000012821D002283CD105E04FF47015FEF752
:107B400069FE10B932E04FF4A02500F093F8284AFE
:107B500020211820FEF784FA08B1FEF7F3F9254832
:107B6000016811F0B10F03D0016801F04E0101600E
:107B700000F030FFE8B901E0FEF7E6FB1E492846B9
:107B8000FFF75CFE1D4800F0D9FE90B920461CA10D
:107B900002F05EFC00F05AF8FEF742FA02F0EEFA4C
:107BA0000028F7D120BF40BF20BFF3E701F0AEF9B6
:107BB00008B10320F8BDFFF78BFD012000EB064064
:107BC00013A102F045FCF4E724E20E00CCE10E0024
:107BD000496E206E72665F626F6F746C6F61646570
:107BE000725F696E69740000080000200C000300D9
:107BF000380100201C050040056F0E00ED690E00E5
:107C0000456E746572206D61696E206C6F6F7000D7
:107C100053686F756C64206E6576657220636F6D56
:107C20006520686572653A204166746572206E72DF
:107C3000665F626F6F746C6F616465725F617070B4
:107C40005F737461727428290000000010B502F09F
:107C500041FE002803D0BDE8104005F0BFBC10BDB8
:107C6000034A93680A4601469860184605F0D8B959
:107C7000100000202DE9F0411A4E307800282ED156
:107C800002F028FE1849194A0127891AC908032257
:107C900002EB014500281DD01548046828462246FD
:107CA00014A102F0D9FBA4F54864962C00DA9624BE
:107CB00005F094FC2846224615A102F0CDFB21498F
:107CC0002046FFF7CDFF4FF0E0214FF48030C1F8A0
:107CD000000103E028461CA102F0BAFB3770BDE8A2
:107CE000F081000041000020CCE10E00CCE10E004C
:107CF0000405014057445420656E61626C65642040
:107D00004352563A2564207469636B730000000087
:107D10005374617274696E6720612074696D657255
:107D200020282564207469636B732920666F722094
:107D300066656564696E67207761746368646F6700
:107D40002E00000019D60E00574454206973206E8F
:107D50006F7420656E61626C6564000070B50446E6
:107D60000D4620220830FCF7F1FA202205F120010F
:107D700004F12800FCF7EAFA002070BD2DE9F84371
:107D80000C461B49DDF82090016005461F469046D1
:107D900018480121FFF78AFBBFF35F8F002618B157
:107DA00048F20450BDE8F883FEF7BCFB43464A4660
:107DB00004F1080128460097FDF7FEFB0446FEF794
:107DC000A3FB0C4D2868012803D00BA19320FEF7DC
:107DD00006FABFF35F8F2E6044B11448C44202D14B
:107DE00048F24250DEE748F21650DBE70020D9E7C0
:107DF000DD55AABB440000202E2E5C2E2E5C2E2EBC
:107E00005C2E2E5C2E2E5C636F6D706F6E656E74D3
:107E1000735C6C69627261726965735C6D757465BF
:107E2000785C6E72665F6D74782E68007CF70FFF69
:107E300070B516460C46054600F0F4F800280ED141
:107E4000AA791946304600F0FAF8002807D13146E1
:107E50002046FFF783FF002801D10149216070BD52
:107E60007052464D2DE9F84F6C460E46D4E90A791A
:107E700005469A4690461649304600F0C7F8002855
:107E8000A54611D17068494640794200384600F055
:107E9000D6F80028A54607D1B8F1000001D02DB1D1
:107EA00007E0A54648F21050BDE8F88FAAB06D462D
:107EB0004DB182B002465346314628460097FFF73F
:107EC0005DFFA546F0E748F21550A546ECE7000037
:107ED0007052464D2DE9F0411D46DDE906871646F4
:107EE000044600F02DF800280DD12A4631462046E0
:107EF00000F03CF8002806D13A4641462046BDE84D
:107F0000F04100F002B8BDE8F08170B515460E46AC
:107F1000044605F053FB002807D13EB1606829688C
:107F2000C268914205D248F2145070BD48F2135015
:107F300070BD83682A4631462046BDE87040184728
:107F400010B550B161B14160096804468847002806
:107F500002D105482060002010BD48F2015010BD3C
:107F600048F2105010BD00006E52464870B51546DC
:107F70000E46044605F022FB00280BD146B155B150
:107F800060682A46314643682046BDE8704018477D
:107F900048F2105070BD002070BD00002DE9F04186
:107FA0000B480C4D0C4F401BC608012038700024B4
:107FB00006E000BF55F834008047002805D1641C56
:107FC000B442F7D3022038700020BDE8F0810000F1
:107FD000B4E10E00ACE10E004200002070B5144682
:107FE0000D46064600F036F8291930192246BDE83C
:107FF000704000F02FB870B50C46054600F064F8EC
:1080000028192146BDE8704000F05EB828B100682C
:10801000884205D048F24050704748F210507047EF
:108020000020704728B139B10022C1E90020104674
:10803000704748F21050704748F21350704720B113
:10804000914205D048F21150704748F210507047E5
:108050000020704770B516460C46050003D10AA1F2
:108060004520FEF7BCF81CB907A14620FEF7B7F87B
:10807000A919491E04E000BF14F8010B01F8010919
:10808000A942F9D270BD00002E2E5C2E2E5C2E2E41
:108090005C2E2E5C2E2E5C636F6D706F6E656E7441
:1080A000735C6C69627261726965735C637279702A
:1080B000746F5C6E72665F63727970746F5F736801
:1080C000617265642E63000070B50D46040003D133
:1080D00007A13320FEF783F86019401E05E02178E0
:1080E000027804F8012B00F80119A042F7D270BD04
:1080F0002E2E5C2E2E5C2E2E5C2E2E5C2E2E5C6385
:108100006F6D706F6E656E74735C6C6962726172B4
:108110006965735C63727970746F5C6E72665F63BD
:10812000727970746F5F7368617265642E630000AA
:1081300070B5064616481749401AC108042000EBDE
:108140000140044614A102F083F91A4D286A01285F
:1081500005D0204618A102F07BF9002070BD8EB139
:10816000E86978B100F056F80022A969FEF778FABC
:10817000E969814206D02046012215A102F06CF97E
:10818000012070BD20461BA102F062F9F8E7000053
:1081900024E20E00CCE10E00456E746572206E7212
:1081A000665F6466755F6170705F69735F76616C4E
:1081B00069640000F41900204E6F2076616C6964D8
:1081C0002061707020746F20626F6F742E00000049
:1081D00043524320636865636B206F662061707053
:1081E000206661696C65642E2052657475726E201C
:1081F0002564000052657475726E20747275652E68
:1082000020417070207761732076616C6964000092
:10821000AFF300804FF44050074A4168914207D1C4
:108220008068411EC1F30B01401A00F6FF707047D1
:108230004FF4805070470000DBE5B15100B5FFF707
:10824000E9FF054989690A18401E0844C0F30B007C
:10825000101A00F6FF7000BDF41900200021016023
:10826000416081600148016370470000F4190020FB
:108270002DE9FF4F83467348734981B0401AC10806
:10828000042000EB0144009170A1204602F0E0F8C8
:1082900020465A4675A102F0DFF8029808B179A28B
:1082A00000E07AA220467BA102F0D6F8039808B13C
:1082B00074A200E075A220467BA102F0CDF80498DC
:1082C00008B170A200E071A220467BA102F0C4F8C0
:1082D0004FF4405041687E48814201D169A200E0DC
:1082E0006AA220467BA102F0B7F820467DA102F0E9
:1082F000AFF8804D204680A1AB692A6A02F0B3F83E
:10830000204685A16B6AEA6A02F0ADF84FF00009D9
:10831000DFF824A20CE0012650B1012812D0B9F1F7
:10832000020F1ED08549CA20FDF759FF00201AE030
:10833000FFF784FF8046039888B16E48006A0128E1
:108340000BD00CE0FFF766FF8046049828B94FF485
:10835000405041685E48814201D0012604E0002679
:1083600002E04FF480508046D04503D97349CF20B6
:10837000FDF735FF7248A0EB0800A0F540505845C6
:1083800001D2012700E0002702984A4647EA00058B
:1083900020466CA102F060F8204642466CA102F033
:1083A0005BF80FB137A200E038A220466EA102F0C0
:1083B00053F80EB133A200E034A2204670A102F0BF
:1083C0004BF80DB12FA200E030A2204671A102F0BF
:1083D00043F8B54308D0B9F1020F05D209F1010005
:1083E000C0B28146022896D957B10098022101EB0C
:1083F00000406DA102F02CF8042005B0BDE8F08F1C
:10840000B9F1020F06D3204672A102F021F800F064
:1084100017FF02E0B9F1000F07D0204674A102F067
:1084200017F834481830FFF719FF324A002010615E
:108430000120506102F12400FFF710FF0020C2F874
:1084400024B0DAE724E20E00CCE10E00456E74653C
:1084500072206E72665F6466755F63616368655FF4
:10846000707265706172652829000000726571750F
:10847000697265645F73697A653A20307825782E71
:1084800000000000747275650000000066616C7386
:108490006500000073696E676C655F62616E6B3AC0
:1084A0002025732E000000006B6565705F617070A1
:1084B0003A2025732E0000006B6565705F736F6650
:1084C000746465766963653A2025732E00000000A8
:1084D000DBE5B15153445F50524553454E543A2069
:1084E00025732E0042616E6B20636F6E74656E742F
:1084F000733A0000F419002042616E6B2030206353
:108500006F64653A203078253032783A2053697AA2
:10851000653A20307825780042616E6B2031206307
:108520006F64653A203078253032783A2053697A82
:10853000653A20307825780000100E00E0DC0E004F
:1085400000400E00706173733A2025642E00000015
:1085500063616368655F616464726573733A203058
:108560007825782E0000000063616368655F746F92
:108570006F5F736D616C6C3A2025732E00000000F4
:108580006B6565705F6669726D776172653A20250B
:10859000732E000064656C6574655F6D6F72653A7B
:1085A0002025732E0000000041626F7274696E67AF
:1085B0002E2043616E6E6F7420666974206E65773D
:1085C000206669726D77617265206F6E20646576D2
:1085D00069636500496E76616C69646174696E6790
:1085E00020536F66744465766963652E0000000051
:1085F000496E76616C69646174696E672061707040
:108600002E00000070B50C46050004D1214940F24F
:108610005310FDF7E4FD24B91E494FF4AA70FDF78D
:10862000DEFD1D481D4B2978C01A0422C00802EB4C
:108630000040092927D2DFE801F02605260B152680
:108640001B260F0021462846BDE8704002F0C0BB43
:1086500013A101F0FDFE11E021462846BDE870405F
:1086600002F05ABC21462846BDE8704002F0F2BB39
:1086700014A101F0EDFE4FF48070E0602046BDE8EB
:108680007040FDF7DBBFBDE87040024940F2731057
:10869000FDF7A5BD00DC0E00DCE10E00CCE10E0014
:1086A00048616E646C65204E52465F4446555F4F8C
:1086B000505F4352435F4745542028636F6D6D619F
:1086C0006E64290048616E646C65204E52465F44BA
:1086D00046555F4F505F4F424A4543545F53454CA8
:1086E0004543542028636F6D6D616E64290000005E
:1086F00070B50E46040004D11B4940F26720FDF717
:108700006EFD26B918494FF41A70FDF768FD207800
:108710000125092820D2DFE800F01F051F0F141FD4
:108720001A1F0A003146204602F08AFC19E0314641
:10873000204602F0DBFE14E03146204602F042FC07
:108740000FE03146204602F085FD054609E031463E
:10875000204602F07FFE04E0034940F28920FDF745
:108760003EFD284670BD000000DC0E002DE9F843F8
:10877000134C07460D462068009012481249904657
:10878000401AC608042000EB06402B463A460FA1CB
:1087900001F071FE43462A4639461C4801F04EFA64
:1087A000050009D0022000EB06402A4618A101F07E
:1087B00053FE2846BDE8F8832068401C2060F8E797
:1087C0004C000020D4E10E00CCE10E006E72665F1A
:1087D0006673746F726167655F6572617365286146
:1087E0006464723D307825702C206C656E3D256484
:1087F000207061676573292C20717565756520751A
:10880000736167653A2025640000000024010020A0
:108810006E72665F6673746F726167655F657261C1
:1088200073652829206661696C65642077697468BE
:10883000206572726F7220307825782E000000005B
:108840000848094910B5401AC008042101EB00404E
:1088500006A101F0FDFDBDE810400E4900220E48C2
:1088600001F04CBAD4E10E00CCE10E00496E6974FF
:1088700069616C697A696E67206E72665F6673748F
:108880006F726167655F6E766D63206261636B65B1
:108890006E642E00F8D80E00240100202DE9FC475C
:1088A000154C80460F4620681549CDE90020134835
:1088B0009946401AC6081546042000EB06403B4680
:1088C0004246104901F0E0FD2B463A4641460E482B
:1088D000CDF8009001F06EFA050009D0022000EBFF
:1088E00006402A4609A101F0B7FD2846BDE8FC87ED
:1088F0002068401C2060F8E74C000020D4E10E0006
:10890000CCE10E0048DB0E00240100206E72665F91
:108910006673746F726167655F7772697465282921
:10892000206661696C65642077697468206572727D
:108930006F7220307825782E0000000070B5114944
:10894000086011481149401AC508032000EB054092
:108950000FA101F07DFD0020FEF768F8114800F03E
:1089600015FD040008D0012000EB054022460EA1B1
:1089700001F072FD204670BDBDE87040094800F06E
:10898000DBB800004800002024E20E00CCE10E001D
:10899000456E746572696E6720444655206D6F643C
:1089A000652E00002D6A0E00436F756C64206E6F9B
:1089B0007420696E6974616C697A6520444655203B
:1089C0007472616E73706F72743A2030782530382B
:1089D000780000000648074910B5401AC008042175
:1089E00001EB004004A101F033FD002010BD0000A8
:1089F00024E20E00CCE10E00696E207765616B20E9
:108A00006E72665F6466755F696E69745F757365C3
:108A1000720000001FB58908002201AB009283E8B4
:108A20000700684618DF04B010BD00007FB512488B
:108A300012494FF48056401AC108042000EB01404F
:108A400004460FA101F004FD134A1069D2E9061291
:108A5000CDE90006CDE90212684618DF0546072871
:108A600002D170040025066020460CA101F0F0FC44
:108A700004B0284670BD000024E20E00CCE10E00D8
:108A800072756E6E696E6720697271207461626CB6
:108A9000652073657400000064D80E00416674653B
:108AA000722072756E6E696E6720697271207461D2
:108AB000626C65207365740070B50E460178134CC6
:108AC000062901D0012901D1017C217021780125DD
:108AD000012911D0022913D00D480E49401AC008AF
:108AE000012101EB00400CA101F0B2FC002020703C
:108AF00005207070284670BD3146FFF783FDF9E709
:108B00003146FFF7F5FD0546F4E70000540000206C
:108B1000DCE10E00CCE10E00496E76616C696420E8
:108B20006F626A656374207479706520696E207263
:108B30006571756573742E0010B5040011D00020A6
:108B4000FFF77EFE00280BD100F07CFC00F09AFDC0
:108B500048B10949081F00F00DFD012803D003208A
:108B600010BD072010BD04480838C4600020FEF77F
:108B700005F8002010BD00005C00002010B58168E1
:108B800089B10A4A1821FDF7FDF9040009D0084807
:108B90000849401AC008022101EB004006A101F07B
:108BA00057FC204610BD072010BD0000D58B0E00DD
:108BB000DCE10E00CCE10E005363686564756C6502
:108BC000722072616E206F7574206F662073706101
:108BD00063652100AFF3008070B50546806886B0FC
:108BE00020B9414940F2C120FDF7F9FA18223F4966
:108BF0006846FBF7ABFB28788DF800003C483D4BFE
:108C00002A78181A0421C0083B4E01EB00440D2AB3
:108C10004ED2DFE802F007463146464D4636462939
:108C20000D243E00204635A101F012FC012020E079
:108C300020463BA101F00CFC4FF08050D0F8001111
:108C40000191D0F804110291D0F80C11890204911D
:108C5000D0F81011890203910069059031E069464E
:108C6000284602F017FD2CE0204636A101F0F0FB6B
:108C7000287C8DF8040024E0204638A101F0E8FBB0
:108C80001FE020463EA101F0E3FB288AADF8040076
:108C900017E0204641A101F0DBFBF168072088477F
:108CA0000FE069462846FFF707FF50B906B070BDD0
:108CB000032101EB00403FA101F0CEFB02208DF823
:108CC00001009DF80120204642A101F0C5FBD5E935
:108CD0000112684690479DF801000128E6D0F1682E
:108CE00005208847E2E7000000DC0E009CD80E005B
:108CF000CCE10E00DCE10E005400002048616E64FF
:108D00006C65204E52465F4446555F4F505F50524F
:108D10004F544F434F4C5F56455253494F4E0000FE
:108D200048616E646C65204E52465F4446555F4F05
:108D3000505F48415244574152455F56455253494E
:108D40004F4E000048616E646C65204E52465F4491
:108D500046555F4F505F50494E47000048616E6472
:108D60006C65204E52465F4446555F4F505F5245FA
:108D700043454950545F4E4F5449465F5345540054
:108D800048616E646C65204E52465F4446555F4FA5
:108D9000505F4D54555F47455400000048616E6474
:108DA0006C65204E52465F4446555F4F505F4142CE
:108DB0004F525400496E76616C6964206F70636F26
:108DC00064652072656365697665643A203078254C
:108DD000782E0000526571756573742068616E6449
:108DE0006C696E6720636F6D706C6574652E2052C0
:108DF0006573756C743A203078257800F0B5521E92
:108E000087B00F4605464C1C96B218222949684681
:108E1000FBF79CFA2848294A3978801AC0080422AE
:108E20008DF8001002EB004001950C292DD2DFE8EF
:108E300001F02C150A2C2C2C1226203B2C06207815
:108E40008DF8100021E02A881DA101F005FB208883
:108E50002880688019E02078049016E028886880CF
:108E6000207804902179D4F8010061F31F60059007
:108E70000BE00494ADF81460A868039008E018A112
:108E800001F0E6FAA889ADF81000A96820468847E5
:108E90006846FFF773FE002804D016494FF484702B
:108EA000FDF79DF907B0F0BD227813A101F0D4FAC7
:108EB000C5E7000044D90E002CE20E00CCE10E0004
:108EC0005365742072656365697074206E6F746990
:108ED00066207461726765743A20256400000000A2
:108EE00052656365697665642073657269616C209B
:108EF0006D7475006CDF0E0052656365697665649C
:108F00002070696E6720256400000000064807494C
:108F100010B5401AC008022101EB004004A101F085
:108F200097FA002010BD0000ECE10E00CCE10E002D
:108F30004E6F206164646974696F6E616C20646156
:108F4000746120657261736564000000002258211D
:108F50000148FDF785BB0000F81900202DE9F0411C
:108F6000064621482149401AC508042000EB054067
:108F700004461FA101F06CFA3046FFF761FC4FF088
:108F80000106020006EB054502D0284621A124E097
:108F90004FF4AE7842462A492A48FBF7D7F9294FC1
:108FA0003868401C09D0FFF7D1FF3968814204D1ED
:108FB000204625A101F04CFA14E020462BA101F037
:108FC00047FA41461F48FBF7E9F900207E6000F0B0
:108FD00073F8020006D028462CA101F03DFA0320C8
:108FE000BDE8F0810020FBE7ECE10E00CCE10E00D3
:108FF00043616C6C696E67206E72665F6466755F54
:1090000073657474696E67735F696E697428292E5D
:109010002E2E00006E72665F6466755F666C61730B
:10902000685F696E69742829206661696C656420CF
:1090300077697468206572726F723A202578000033
:1090400000F00F00F41900206E72665F6466755FB1
:1090500073657474696E67735F696E697420737584
:1090600063636573732E2E2E0000000052657365D6
:109070007474696E6720626F6F746C6F616465727F
:109080002073657474696E67732E00006E72665F7C
:109090006466755F666C6173685F77726974652872
:1090A00029206661696C656420776974682065723F
:1090B000726F723A2025780070B505464FF4AE768F
:1090C000324622492248FBF77BF92249224B0422EF
:1090D000C91AC90802EB01440028204617D01FA175
:1090E00001F0B6F92046194A21A101F0B5F9002294
:1090F00001211648FFF73AFB174A164B01219A1A2D
:10910000D20801EB024450B1204621A11AE029A166
:1091100001F09EF90DB10020A847002070BDFFF7B7
:1091200015FF0B4932460860A1F52E70FBF70EF9CA
:109130002B4632462F490548FFF7B0FB0028EDD0FB
:1091400020462DA101F084F9032070BD00F00F002E
:10915000F4190020ECE10E00CCE10E0057726974A6
:10916000696E672073657474696E67732E2E2E00A6
:1091700045726173696E67206F6C642073657474E7
:10918000696E67732061743A203078253038780032
:10919000436F756C64206E6F742065726173652017
:1091A0007468652073657474696E67732070616795
:1091B000652100004E65772073657474696E67736E
:1091C00020617265206964656E746963616C2074E6
:1091D0006F206F6C642C207772697465206E6F74D9
:1091E000206E65656465642E20536B697070696ECE
:1091F000672E00003C170020436F756C64206E6F73
:10920000742077726974652074686520444655201F
:1092100073657474696E67732070616765210000FF
:1092200070B505460020FFF747FF040003D103494E
:10923000284603F007FB204670BD0000F41900200B
:1092400010B54FF440541249606888421ED1002383
:1092500004221049201DFFF721FB58B10E480F4989
:10926000BDE81040401AC008012101EB00400CA1EC
:1092700001F0EEB81348016A012901D10021016211
:109280008169A2681144A1F58051816110BD00007F
:10929000DBE5B151D4D80E0024E20E00CCE10E0083
:1092A000436F756C64206E6F7420696E76616C69B3
:1092B0006461746520536F66744465766963652ED6
:1092C00000000000F41900204FF4805070470000A7
:1092D0002DE9F0471449DFF854808146A1EB0800DE
:1092E000C708134813490026401AC108042000EBA0
:1092F000014005463A4610A101F0AEF800240EE008
:1093000008EBC400416848468847060006D0284656
:109310003346224612A101F0A6F802E0641CBC42CA
:10932000EED33046BDE8F087BCE10E00B4E10E009C
:1093300024E20E00CCE10E005368757474696E6708
:1093400020646F776E207472616E73706F727473C5
:109350002028666F756E643A20256429000000009D
:109360004661696C656420746F2073687574646FFE
:10937000776E207472616E73706F72742025642C26
:10938000206572726F722025640000002DE9F0479D
:109390001449DFF854808146A1EB0800C708134840
:1093A00013490026401AC108042000EB014005467D
:1093B0003A4610A101F050F800240DE058F834109E
:1093C00048468847060006D028463346224612A162
:1093D00001F049F802E0641CBC42EFD33046BDE81E
:1093E000F0870000BCE10E00B4E10E0024E20E00A4
:1093F000CCE10E00496E697469616C697A696E67C7
:10940000207472616E73706F7274732028666F754A
:109410006E643A20256429004661696C6564207495
:109420006F20696E697469616C697A652074726114
:109430006E73706F72742025642C206572726F7267
:109440002025640030B5144D144C91B0A86B30B198
:1094500003F0F6FC18B1686A08B1012000E00020B2
:109460002070FEF79BFD18B10D49B020FCF7B7FE48
:1094700020220C496846FEF7B1FD40236A460A499E
:109480000A48FEF7D5FC002803D00549BB20FCF7AD
:10949000A6FE11B030BD0000F419002088000020A5
:1094A00028DE0E0098D60E00FC1D002028D70E00E6
:1094B0002DE9F041144C07460D46E06BA26B0126E6
:1094C000411991420BD911481149401AC008012194
:1094D00001EB00400FA100F0BBFF032610E00A499A
:1094E0002A465C3108443946FAF730FFE06B064AF9
:1094F0002844E063403229463846FDF7B1F820643D
:109500003046BDE8F0810000F4190020F4E10E00BF
:10951000CCE10E00496E697420636F6D6D616E64FD
:10952000206C6172676572207468616E2065787066
:1095300065637465642E000070B505004FF001048A
:1095400004D0B5F5807F03D904240CE003240AE09D
:1095500006490020064E08702021306306F13800CD
:10956000FAF71CFFB563204670BD0000880000209C
:10957000F41900202DE9F04707462E4C2E482F4BBA
:109580000E460125C01AD4E90E21C008AA4605EBF3
:109590000048914205D0404629A100F059FF082516
:1095A00044E0DFF8B89099F8000028B1FEF746FED5
:1095B0003860606A306039E003F042FC80B32848CC
:1095C00090F89C1009B9017851B3041D002139604D
:1095D000316090F89C300A462BB1214C90F838113C
:1095E000A03404F1990294F8590003F039FA0546C1
:1095F00001281BD1201D00F09BF80546012815D13C
:1096000089F800A03146201D03F066FF05460128B9
:109610000CD13A46201D316803F018FF054605E0DD
:10962000FFE740460FA100F013FF05252846BDE8DF
:10963000F0870000F4190020F4E10E00CCE10E00E8
:10964000457865637574652077697468206661750F
:109650006C7479206F666673657400008800002062
:10966000501B00204661696C656420746F2064653E
:10967000636F646520696E6974207061636B6574E3
:1096800000000000014800787047000088000020BA
:109690002DE9F04705462448234C894690F89C0064
:1096A000012608B1A43400E008340A4629462046C1
:1096B000FDF770FADFF8748068B194F8550060B176
:1096C00000F00107C0F340022B463946204602F065
:1096D00043FD50B104E017260FE0204602F000FDE4
:1096E000D8F84810C8E909910BE005262FB1FFF71B
:1096F000EBFDA84201D1FFF7A3FD0C482430FEF793
:10970000ADFD0A4820213830FAF748FE0748FF220D
:10971000F4215C30FAF73BFE0021C8F8485030468F
:10972000C8F83010BDE8F087501B0020F419002065
:109730002DE9F04104004FF0010603D13E49A2207B
:10974000FCF74DFD3D483E4A94F85410801AC0087D
:10975000012202EB004541B194F8550040B10128C7
:1097600006D0022804D0032802D0284635A15DE0A7
:109770001CB931498A20FCF732FD94F86D000328AA
:1097800005D0284635A100F063FE142651E094F878
:109790008F0018B194F8900000284AD1207A78B14F
:1097A000274A264B02209A1AD208E16800EB0247AA
:1097B000342908D038462EA100F04AFE112638E0A0
:1097C000284630A132E0204602F0E2FF18B12078AE
:1097D00030B384B905E038462EA100F039FE1226D8
:1097E00027E01549AF20FCF7FAFC207818B9124998
:1097F000B020FCF7F4FC94F855002A4958B1012830
:1098000009D06068C968884213D8384626A100F09C
:109810001FFE10260DE060688968884209D2F4E7CF
:1098200094F85500012804D0284624A100F010FE29
:109830000F263046BDE8F08170DE0E00FCE10E0020
:10984000CCE10E00496E76616C6964206669726DC8
:109850007761726520747970652E0000496E7661BB
:109860006C6964206861736820747970652E0000EB
:109870004661756C74792048572076657273696FFC
:109880006E2E00004E6F2048572076657273696F08
:109890006E2E0000534420726571206E6F74206D2F
:1098A00065742E00F419002046572076657273699E
:1098B0006F6E20746F6F206C6F772E004657207686
:1098C000657273696F6E206D697373696E672E00C0
:1098D00070B5064604780C4888B0154640F8242038
:1098E000094A0869083242F8240020226846FAF73B
:1098F0002DFD04940DB1054A00E000226946301D9B
:1099000001F068F808B070BD9400002051D20E003C
:10991000001D01F0B7B800000FB438B5040003D142
:1099200010A14220FCF75BFC606918B90DA143202F
:10993000FCF755FC206818B90AA14420FCF74FFC3D
:10994000606818B907A14520FCF749FC0599002972
:1099500005D006A800906A46204600F045F838BCBD
:109960005DF814FB2E2E5C2E2E5C2E2E5C2E2E5CB3
:109970002E2E5C65787465726E616C5C66707269BF
:109980006E74665C6E72665F667072696E74662E67
:109990006300000010B5040003D107A13120FCF7DB
:1099A0001EFCA268002A05D0D4E904032168984768
:1099B0000020A06010BD00002E2E5C2E2E5C2E2EEE
:1099C0005C2E2E5C2E2E5C65787465726E616C5C0C
:1099D000667072696E74665C6E72665F66707269DC
:1099E0006E74662E630000002DE9FC4791460C461C
:1099F0005FEA000804D183A14FF49F70FCF7EFFBEE
:109A0000D8F8140020B97FA14FF4A070FCF7E7FB51
:109A1000D8F8000020B97BA140F24110FCF7DFFB31
:109A2000D8F8040020B977A14FF4A170FCF7D7FB58
:109A3000002C76D014F8011B39B125290ED04046F0
:109A4000FCF710FD20780028F4D198F80C000028CD
:109A500067D04046BDE8FC47FFF79CBF00200122CD
:109A600021782B291BD02D2902D0302908D102E0E2
:109A700040F0010001E040F00200641C002AEFD138
:109A800000252A290ED02178A1F130020A2A11D20C
:109A900005EB850201EB4205641C303DF1E740F027
:109AA0000400EAE7D9F800100B1DC9F80030096876
:109AB000641C0D44217800232E290BD114F8011FBA
:109AC000A1F130020A2A05D203EB830201EB420323
:109AD000303BF3E76C290DD068290BD0692921D0E0
