:020000040002F8
:10600000E04C0020F9620200016302000363020019
:10601000056302000763020009630200000000003C
:106020000000000000000000000000000B63020000
:106030000D630200000000000F6302001163020004
:10604000D96502001363020039680200136302007D
:106050001363020013630200C163020013630200B2
:106060001363020013630200136302001363020050
:106070001363020013630200136302001363020040
:10608000136302003166020013630200136302000F
:106090005566020013630200596602001363020092
:1060A0001363020013630200136302001363020010
:1060B00013630200136302000000000000000000F0
:1060C00013630200136302001363020013630200F0
:1060D00013630200136302001363020013630200E0
:1060E0001363020013630200136302000000000048
:1060F00000000000136302000000000013630200B0
:10610000000000000000000000000000000000008F
:10611000000000000000000000000000000000007F
:10612000000000000000000000000000000000006F
:10613000000000000000000000000000000000005F
:10614000000000000000000000000000000000004F
:10615000000000000000000000000000000000003F
:10616000000000000000000000000000000000002F
:10617000000000000000000000000000000000001F
:10618000000000000000000000000000000000000F
:1061900000000000000000000000000000000000FF
:1061A00000000000000000000000000000000000EF
:1061B00000000000000000000000000000000000DF
:1061C00000000000000000000000000000000000CF
:1061D00000000000000000000000000000000000BF
:1061E00000000000000000000000000000000000AF
:1061F000000000000000000000000000000000009F
:10620000DFF80CD000F0CAF800480047697F0200B0
:10621000E04C002030B4044654E8000F0D4644E83A
:106220000053002BF8D1156030BC704730B40446E1
:1062300054E8000F40EA010544E80053002BF7D171
:10624000156030BC704730B4044654E8000F00EAD3
:10625000010544E80053002BF7D1156030BC7047AE
:1062600030B4044654E8000F80EA010544E80053C6
:10627000002BF7D1156030BC704730B4044654E8A9
:10628000000F00EB010544E80053002BF7D1156027
:1062900030BC704730B4044654E8000FA0EB010551
:1062A00044E80053002BF7D1156030BC704770B440
:1062B00004464FF0000054E8006F0D68AE4207BF7F
:1062C00044E80023012044E800630E60002B1CBF5B
:1062D0000020F0E770BC704730B4044654E8000F6B
:1062E00088422CBF451A054644E80053002BF5D1DF
:1062F000156030BC704700000648804706480047DC
:10630000FEE7FEE7FEE7FEE7FEE7FEE7FEE7FEE765
:10631000FEE7FEE75D66020001620200202A04DB60
:10632000203A00FA02F1002070479140C2F12003A8
:1063300020FA03F31943904070470000004870476B
:1063400058AF020040EA01039B0703D009E008C9E7
:10635000121F08C0042AFAD203E011F8013B00F82A
:10636000013B521EF9D27047D2B201E000F8012B76
:10637000491EFBD270470022F6E710B513460A46C5
:1063800004461946FFF7F0FF204610BD421C10F8E6
:10639000011B0029FBD1801A70470000064C074DF5
:1063A00006E0E06840F0010394E8070098471034E5
:1063B000AC42F6D3FFF728FF5CB602007CB60200C1
:1063C0002DE9F04F00268DB0DFF8A081B14604968C
:1063D0004FF48075012437460596284602F004FCE8
:1063E00038B1D8F80403204203D0284602F0F2FB6B
:1063F00026432D1D64007F1CADB2082FEDD34FF452
:10640000BE74204602F0F0FB48B1204602F0E2FBE9
:1064100046F0004604AA0221002002F0C5FB544CBD
:1064200016F0FF0F15D00127002537420DD008EBDD
:106430008501D1F81005D1F81015C0F3052054F8E6
:106440002520C1F3014102B190477F006D1C082D4A
:10645000EBD3002E7EDA0020CDF82890411E0DF1FE
:10646000100B07AACDF82C9042F82010401C914642
:106470000228F9D300252E46A11911F8607F91F961
:10648000000027F0C008401C40D007A9404601F09A
:10649000ACFF40B34FEA971A404601F09DF854F81C
:1064A00020701FB1BAF1030F03D006E0BAF1030F59
:1064B0002CD10AA9404601F0A0FF02A8CDF808801F
:1064C00002F016FB029900EB8100D0F8000704A946
:1064D000C0F301400290404601F087FF0028029877
:1064E00002D0022802D011E003280FD1BAF1030F25
:1064F00008D10298022833D00221404602F0D2FA95
:106500006D1CEDB217B151464046B847761C042EBB
:10651000B2D3002D21D001AA0221002002F044FBB9
:1065200000205A460DF1040152F8206051F8203045
:10653000B34217D000200AAE4FEA090351F8207089
:1065400042F8207056F8207043F82070401C022852
:10655000F4D300E001E0002D8CD10DB0BDE8F08F48
:106560000321CAE7401C0228DED3F6E700600040A2
:106570002825002000F01F020121914040098000E1
:1065800000F1E020C0F88012704700F01F020121E6
:1065900091404009800000F1E020C0F800117047F0
:1065A00000F01F02012191404009800000F1E0202D
:1065B000C0F8001270474907090E002806DA00F0FB
:1065C0000F0000F1E02080F8141D704700F1E0207A
:1065D00080F800147047000070B54FF480763046A4
:1065E00002F046F8114CB50560B1304602F047F8AC
:1065F0000120C5F80803607920B901206071216885
:10660000002088474FF48276304602F031F80028A7
:106610000AD0304602F033F80220C5F8080321689A
:10662000BDE870400120084770BD0000182300201D
:1066300007480021C0F84011C0F84411C0F84811C3
:10664000C0F84C11C0F80011C0F8041104F006B8ED
:106650000010014003F050BF03F016B830B54FF002
:10666000805000228300D0F83011C3F80C21C3F809
:106670001021624B1A60624B1B68624C2360604BB6
:106680001B1D1B68241D23605D4B08331B68241DE4
:1066900023605B4B0C331B68241D2360584B103365
:1066A0001B68241D2360564B14331B68241D236074
:1066B000534B18331B68534C20342360504B1C330E
:1066C0001B68241D23604E4B20331B68241D236050
:1066D0004B4B24331B68241D2360494B28331B6814
:1066E000241D2360464B2C331B68241D2360444B20
:1066F00030331B68434C40342360414B34331B68B8
:10670000241D23603E4B38331B68241D23603C4B03
:106710003C331B68241D2360394B40331B68241D08
:1067200023600124082902D1D0F8343113B108299B
:1067300004D006E0354B3449196005E0D0F8343117
:1067400013B1082904D006E0314BFB21196005E0A4
:10675000D0F8343113B1082908D00EE090F858323F
:106760002C48016863F30301016002E0D0F8343182
:106770001BB929494FF40070086028480168C9070F
:1067800002D06FF0010101602548016841F47001F9
:106790000160BFF34F8FBFF36F8F4FF01021D1F81F
:1067A0000002002803DBD1F80402002822DA1D4B86
:1067B0001C601D480468002CFCD01224C1F8004263
:1067C0000568002DFCD0C1F8044201680029FCD006
:1067D0001A6001680029FCD0BFF34F8F10487C3845
:1067E0000168124A01F4E06111430160BFF34F8F69
:1067F00000BFFDE70F490E48086030BD3805004076
:106800000404001020C50040488103008C5600405D
:1068100018F50040E40E004040960240000400409D
:1068200088ED00E004E5014000E401400400FA05C1
:106830000090D003D82300200148006800470000E2
:106840002023002002E008C8121F08C1002AFAD144
:1068500070477047002001E001C1121F002AFBD1E0
:10686000704700000121202803DA814005480140DB
:1068700003E0402802DA2038814009B10120704746
:1068800000207047FC06FFBD30B52548A5B03C216F
:10689000006824902348807C8DF892006846FFF7BA
:1068A0006AFD02208DF8000001248DF802400620C8
:1068B0008DF803003C210FA8FFF75DFD24A81A4DB9
:1068C0001490ADF84C402A1D6846296800F038FA4B
:1068D00008B100F0E3F8144A0FA80C32A96800F0E0
:1068E0002FFA08B100F0DAF818211EA8FFF743FDCF
:1068F00000208DF88D408DF87840ADF884001F9011
:106900008DF88C004020084920901EAAA1F10C00AF
:1069100072DF002801D000F0C1F825B030BD0000C2
:1069200030AC0200DC230020EC220020064810B529
:106930000121007873DF08B100F0B0F8BDE8104025
:10694000002000F067BD0000E022002070B50024A8
:10695000084D05E0686810F8340002F073FF641C0D
:1069600028788442F6D304484068BDE8704000F0BF
:1069700023B900002823002074AC020070B5002465
:10698000064D06E06868012110F8340002F07EFF31
:10699000641C28788442F5D3002070BD2823002091
:1069A000F8B515460C460646052A01D20720F8BD63
:1069B00003F064F818B903F027F80028F7D112495A
:1069C00000224E600C708D60C1E90422C1E90622EC
:1069D0000E4D0DE006EBC4002968009181788DF81A
:1069E000011000780A4A694602F09CFF0028DED1B7
:1069F000641EE4B2EED2BDE8F84004480021054A26
:106A0000001D00F057B800002823002074AC0200DD
:106A1000297B02003D7A020072B602F085FB00BFBE
:106A200002F0C8F90028FBD111481249401AC408E5
:106A3000012000EB044010A102F0D6FA11480068D2
:106A4000C00700D000BE022000EB04400EA102F0FF
:106A5000CBFABFF34F8F0B48E43801680E4A01F4BC
:106A6000E06111430160BFF34F8F00BFFDE70000FD
:106A7000CCB602008CB60200466174616C2065726F
:106A8000726F7200F0ED00E053797374656D2072DF
:106A900065736574000000000400FA050EB500215E
:106AA0000091CDE901106A4644F20100FFF7B4FFFE
:106AB0000EBD0000084B9B7823B12AB120B10068BD
:106AC000037C1BB108207047072070470023037424
:106AD0004174426118467047FC25002070B503F0F0
:106AE00065FB104800240B21047044700E4D81702A
:106AF00014206C602C706C70FFF73CFD0621142094
:106B0000FFF759FD1420FFF740FD084804600621F7
:106B10001120FFF750FD0548001F0068A860002005
:106B200070BD0000FC25002048230020081501400E
:106B30002DE9FC47DFF8789099F8023073B368B319
:106B4000052902D20720BDE8FC87436933B3437CA3
:106B5000012B25D0002704460025884616468DF8CF
:106B60000050684600F038F801A803F0E1FFC8B112
:106B7000012101700F4944600968C0E90218C0E9A9
:106B800004769DF8040089F801009DF8000000F0EB
:106B900047F81420FFF704FD2846D4E70820D2E781
:106BA0000F46D8E704259DF8000000F039F8F3E718
:106BB000FC250020041501400649897839B130B11F
:106BC000416921B100210174022103F023BD082095
:106BD00070470000FC25002030B5EFF3108172B63D
:106BE0000D4A9468012324B10370002900D162B6D4
:106BF00030BD93604FF0E023D3F88051074C25401F
:106C00001560C3F88041D3F8844154605A17C3F823
:106C1000842100220270E8E708270020FC06FFBD5F
:106C20000B498A68002A11D000280FD1EFF3108099
:106C300072B60B684FF0E022C2F800314B68C2F820
:106C4000043100228A60002800D162B6704700003B
:106C50000827002070B5054608680C46411C04D082
:106C600001F07BFF206801F009FF6068411C02D041
:106C7000002101F0F1FE2968A069C1F82405607DBA
:106C8000227D29681043C1F86C05D4E900122868F8
:106C9000C0F81425C0F80C15207D012814D1A06877
:106CA000411C02D0002101F0D7FEE068411C04D055
:106CB00001F053FFE06801F0E1FED4E90212286818
:106CC000C0F80825C0F8101570BD70B505460868F5
:106CD0000C46411C04D001F04AFF206801F0D8FEA8
:106CE0006068411C02D0002101F0BFFE2968A06944
:106CF000C1F82405607D217D2A680843C2F86C052F
:106D0000D4E900122868C0F80C15C0F81425207DBD
:106D1000012814D1A068411C02D0002101F0A5FE79
:106D2000E068411C04D001F022FFE06801F0B0FEF1
:106D3000D4E902122868C0F80825C0F8101570BD03
:106D40002DE9FC47002517880646158090F82D0090
:106D50001446894630B13A462146484600F0E6F8E6
:106D6000051E09D1B0784FF00C0A18B32088C84628
:106D7000001DB84202D95046BDE8FC87684679DF5D
:106D80000028F9D12088032108F800102088192153
:106D9000401C80B2208008F800102088401C80B27F
:106DA000208000EB0801BDF8000003F01BFE2188E5
:106DB00008442080F0780222C8B1218896F9033077
:106DC00001F1030C4846BC45D5D8425421884FF008
:106DD000010C491C89B2218000F801C02188491C9E
:106DE00089B2218009F801302088401C2080706819
:106DF000B8B1218890F9003001F1030C4846BC4538
:106E0000B9D8425421880A22491C89B221804254AF
:106E10002188491C89B2218009F801302088401C52
:106E20002080308950B1CDE900474B46062202212F
:106E300006F1080003F094FE051E9DD1308A50B182
:106E4000CDE900474B460722032106F1100003F06D
:106E500087FE051E90D1308B50B1CDE900474B46DF
:106E60001522142106F1180003F07AFE051E83D1C5
:106E7000306A30B13B462246494600F014FD051EFB
:106E8000DBD1706A30B13B462246494601F036F903
:106E9000051ED2D196F82C0038B13B462246494611
:106EA000304603F04FFA051EC7D1307838B13B4663
:106EB00022464946304601F0ABF9051EBDD12846B1
:106EC0005AE7000070B5040012D001461C22144895
:106ED000FFF738FA1248134D0560206850B17ADF89
:106EE000002806D12068016829604068686005E0D4
:106EF0000E2070BD0B487BDF0028FAD108484FF602
:106F0000FF711438084A20F8041B05492C39016028
:106F10000021FFF7CFFD0028EBD0032070BD00005B
:106F200080240020FC220020A5AA02007CB5054692
:106F300008880C460930904201D90C207CBD684677
:106F40006DDF0028FAD121880820685420881B2191
:106F5000401C80B2208029542088401C80B22080B0
:106F60002844DDF801100160BDF8051081802088FB
:106F7000801D80B220809DF80010490800D00121BA
:106F800029542088401C208000207CBDF8B5334D5A
:106F9000018804466E8821294BD015DC3048314ADF
:106FA0001029A0EB02004FEAD0004FF0030202EBE1
:106FB000004013D011292AD0132943D100231A46A7
:106FC000852130467FDF1CE03B2942D052293AD050
:106FD000562937D18088132176DF12E022A102F0F2
:106FE00003F8012000F016FA002000F00BFAA18847
:106FF0006980204801F0C4FA08B1FFF74FFDFFF7A0
:10700000BDFC00281ED0BDE8F840FFF747BD1AA11F
:1070100001F0EAFF012000F0F5F94FF6FF706880FB
:10702000FFF794FC08B1FFF739FDBDE8F840FFF722
:107030007DBC00200090A08869468FDF002801D029
:10704000FFF72CFDF8BD00231A4619463046B1DF84
:10705000D7E78088132176DFD3E70000E022002005
:10706000CCB602008CB60200436F6E6E6563746529
:107070006400000008240020446973636F6E6E652D
:1070800063746564000000002DE9F04701883B4E01
:1070900040F2F3194FF6FF7510291BD011293ED08D
:1070A000122954D0502946D1C188F289841D9142B9
:1070B00041D1618902293ED18688304600F076FDB3
:1070C000050038D004F10C0000F06EF9A8B3294691
:1070D00030464EE0C17B8788044601292BD1A84663
:1070E000284600F063FD050017D02F80002028728D
:1070F000234843464A460168C5F80A104068C5F867
:107100000E0004F1100105F10A0000F007FE68729C
:10711000F08900280FD129462AE0042013E0808856
:1071200000F044FD040006D06068FFF745FD08B19B
:1071300003F0E0F82580BDE8F087FFE76868FFF717
:107140003BFD0028F7D0BDE8F04703F0D3B88788AF
:107150000646384600F02AFD0400ECD02B464A468D
:1071600006F1080104F10A0000F0D8FD6072214622
:107170003846BDE8F04700F0DDBB00008024002069
:10718000FC2200202DE9F04F0746858802883D4803
:10719000012197B08346102A09D0112A49D01A2A12
:1071A0006CD1387AB1EB101F45D2012244E0354C46
:1071B000083CA068C0430B9061680BA801F0A7F8D9
:1071C0000B990CA800F050FB2C220CA96846FFF785
:1071D000B9F80026E946A04610E000BF09EB4600DA
:1071E0005FF00004B0F804A008EB84005146001DD5
:1071F00001F061F8641C1D2CF6D3761C0098B04297
:10720000ECD8142D05D317B00420BDE8F04FFFF7DC
:1072100045BC2946584601F064F8294608F10400A7
:1072200001F05FF8F87B012828D016482946001D98
:1072300015E029461AE000220221B1EB101F01D20D
:10724000012600E000260F49083901F11000041D55
:10725000294682B101F045F836B12946204617B0DB
:10726000BDE8F04F01F03DB82946204617B0BDE813
:10727000F04F01F020B801F01EF8F5E717B0BDE8B7
:10728000F08F0000A424002030B58DB004462E4BB2
:10729000086860610FCB08AD85E80F0004F11201AA
:1072A00008A862DF00284CD1A07C8DF8320041F2A2
:1072B0002350ADF8300022460CA90120A8DF002899
:1072C0003FD120216846FFF756F841F22450ADF82F
:1072D0000000A07C8DF8020001259DF80D00ADF89E
:1072E000065040F012008DF81150ADF804508DF8A2
:1072F0000D008DF81350208804F10A02694600F051
:1073000073F900281DD120216846FFF734F841F2B7
:107310002550ADF80000A07C8DF802009DF80D000E
:10732000ADF8065040F00A008DF81150ADF8045049
:107330008DF80D008DF812502088A21C694600F0CF
:1073400053F90DB030BD000054AC020030B40288D7
:10735000502A10D1034630F8062F4C88A2420AD199
:107360004289012A07D14C69002C04D0027B9888FD
:10737000A44630BC604730BC704707B586B00122D8
:1073800000230093ADF810200193029303938DF82E
:1073900002204989ADF8001008A9039104A90291BF
:1073A0006946AEDF09B000BD007800F0010070470B
:1073B0002DE9FC410646C0074FF000050ED0104FE6
:1073C00000240122385D009500231146019501F04B
:1073D000CDFA641C042CF4D300F024F8B0070DD5CA
:1073E000074E0024361D0022305D03230095114610
:1073F000019501F0BBFA641C042CF4D3BDE8FC81B8
:1074000034AC02000249085C012101F0BABB000063
:1074100034AC02000249085C002101F0B2BB00005C
:1074200034AC020010B500242046FFF7EBFF641CCB
:10743000042CF9D310BD00002DE9F8430546861C45
:1074400000208DF8000090460F464FF00109684675
:10745000FFF7C2FB1B4C20683860D4E90001401ADA
:10746000A16804F21C47081A0EE00121384600F01A
:1074700048FF00F02BFD0146384600F042FFD4E9FA
:107480000001401AA168081A401C8642EDD8B8F1E4
:10749000000F03D0052065F3891002E0062065F394
:1074A0009F50A2682168114004EB8101C8602068E8
:1074B000304420609DF80000FFF7B2FB4846BDE86D
:1074C000F8830000B828002030B482680468531C98
:1074D0008360A154D0E901128A4202D330BC01F08A
:1074E0004CB930BC70470000034803C8814201D149
:1074F0000120704700207047B828002010B50C46C6
:107500000B281BD110481149401AC008032101EB78
:1075100000400FA101F068FD15482246134940883C
:10752000FFF72BFF00280DD0A0F54051023909D0FC
:10753000082807D043F20141884203D0BDE810403B
:10754000FFF7ACBA10BD0000CCB602008CB602004A
:1075500053656E6420627574746F6E207374617409
:1075600065206368616E67652E000000DC230020E3
:10757000E022002005494FF0FF32082841F8202082
:1075800002D3084480F858207047000028250020C6
:10759000F0B54FF0FF3512B10023082601E00823B3
:1075A0000C260C4C05E000BF54F823707F1C04D05F
:1075B0005B1CB342F8D32846F0BD26185DB286F8AE
:1075C000305044F82310002AF5D1E11881F8580012
:1075D000F1E70000282500200249084490F9300016
:1075E00070470000282500202DE9F0438146887867
:1075F00091B090460C4600B901208DF83E002088DD
:10760000ADF83C0000250095607C694602F0DEFE86
:107610006E46A07C711C02F0D9FEE07B00289DF82C
:10762000020002D040F0080001E020F008008DF8D0
:107630000200217C11B140F0100001E020F01000A8
:107640008DF80200217B11B140F0010001E020F033
:1076500001008DF80200217D09B1022100E0012125
:1076600061F342008DF802001C2102A8FEF783FEA0
:10767000607BC10601D4800617D50E950EAFE07C65
:10768000791C02F0A3FE9DF83800079720F00F0048
:10769000401C20F0F00010308DF838009DF83A00C2
:1076A00020F00600801C8DF83A00607B8DF8080001
:1076B000A07B8DF80900142109A8FEF75CFE0FA835
:1076C000CDE90906A088ADF83000A06820B1E088B7
:1076D000ADF82C00A0680D90A06998B301950088C2
:1076E000ADF81000A06901AD01A94088ADF8120005
:1076F000A069406806950390A069007B02F066FED1
:10770000A069691C407B02F061FEA069807A0028B4
:107710009DF8060002D040F0080001E020F00800CB
:107720008DF80600A169C97A11B140F0100001E09E
:1077300020F010008DF80600A169097A19B140F017
:10774000010002E00DE020F001008DF80600A169C3
:10775000897B09B1022100E0012161F342008DF82B
:107760000600E06900B10590434609AA02A948460F
:10777000AADF11B0BDE8F08370B5084C050009D050
:1077800010342168002907D008682060496828461D
:107790008847F6E70834F4E770BD000014250020A0
:1077A000054A012120B1012805D19170FFF7E4BFFE
:1077B00051700020FAE77047142500202DE9F05F92
:1077C00026484168F1B3DFF898B00E688146DBF8CF
:1077D000004087688078E11B21F07F45ED1CB0B93F
:1077E000DFF880804FF48030C8F84403C8F8040301
:1077F0001120FEF7BFFE1120FEF7C7FE4FF0010A71
:10780000C8F800A02F2002F015F889F802A0B542B0
:1078100000D23546124BE8193C3320F07F40186007
:10782000DBF800105A46091B21F07F41001B20F0B5
:107830007F40C91C81420FD9106818602F2001F0C9
:10784000F9FF00E004E0BDE8F05F1120FEF7A8BEFC
:10785000BDE8F05F02F0AABCBDE8F09F482300201D
:10786000041501400010014073B58CB0064600209D
:1078700000900D9880B100246D4621460DA800F0BF
:1078800025FD30B1009805EB400084800098401C35
:107890000090641C142CF0D32C2269463046FEF76D
:1078A00051FD0EB070BD2DE9F04117880646B81D98
:1078B00014460D46984202D90C20BDE8F08131886B
:1078C000072206290AD34FF4486C4FF6FF7361452F
:1078D00001D9994202D17088062801D21046ECE7FE
:1078E000604501D99842F9D1994203D0984201D01C
:1078F0008142F3D80520E85520881221401C80B22F
:10790000208029542088401C80B220804119308872
:1079100003F068F82188084480B2208041197088FB
:1079200003F060F82188084420800020C5E7FFF7B5
:10793000B5B8000038B54A7A0F4B62B100220A721E
:107940005969002906D001228DF80020ADF8020007
:107950006846884738BD0A7A62B19B684C6802461F
:1079600019462046FFF7E4F80028F3D0BDE8384078
:1079700002F0C0BC5B68F1E78024002070B588B0DD
:107980000646002005900690ADF81410ADF81610CC
:107990000190029001AA05A9304690DF050021D090
:1079A00001F0ECFE0346114811493246401AC10865
:1079B000012000EB014004460E4901F020FBBDF818
:1079C000042012B9BDF8060028B1BDF806302046E3
:1079D00009A101F014FBBDF808201AB12046164990
:1079E00001F006FB08B0284670BD00008CB602000E
:1079F0008CB602005CAF0200546865207265717538
:107A000065737465642054582F5258207061636BFD
:107A10006574206C656E67746820697320746F6F7D
:107A2000206C6F6E672062792025752F2575206F79
:107A300063746574732E0000A8AF02002DE9F0474F
:107A40000025DFF88C803CE06068002100EBC50673
:107A5000012032789146FEF761FCD4E9062300EA62
:107A6000020701EA030C57EA0C0728D082438B4334
:107A70004846C4E9062301F0BFFF327882469146AA
:107A800001200021FEF74AFCD4E9042300EA0204A5
:107A900001EA03074A4650460021FEF73FFC4440F6
:107AA0004F403C430BD17078012801D0012100E008
:107AB0000021726881EA0A010AB1484690476D1CAC
:107AC000EDB298F8000044468542BDD3BDE8F0878A
:107AD0002823002010B50021024800F023FC80F389
:107AE000100010BDD42C00200E4910B50A784C7837
:107AF0000023A24212D0521CD2B20A70022A00D134
:107B00000B70084A0B780C3252F823200260886808
:107B1000104420F07F408860012010BD03600020E9
:107B200010BD0000482300202DE9F04180460246A8
:107B300001200021FEF7F2FB1A4F05460E46786839
:107B4000FFF73AF800280CD1174CD4E9062110466B
:107B50002A4001EA06031A4305D0A843B143C4E909
:107B60000601BDE8F081404601F046FF30B1D4E99E
:107B7000040128433143C4E9040105E0D4E90410B9
:107B8000A943B043C4E90410D4E9060128433143B2
:107B9000C4E90601A1687868BDE8F0410022FEF75B
:107BA000C7BF000074AC0200282300200146034830
:107BB00002888A4200D00020704700006C24002018
:107BC0002DE9FC5F0E008346DDE90C47C6F100009D
:107BD00098469246814600D40846012503E000BF3E
:107BE00090FBFAF06D1C5045FADAA84500D94546DD
:107BF00024B1002E01DB780700D5641EB80702D53A
:107C0000B8F1000F0AD0F80708D13CB1A54205D25F
:107C100020215846641EFFF757FCF6E7002E02DAD3
:107C20004E462D2102E0780703D52B215846FFF759
:107C30004BFC07F0030002280BD1B8F1000F08D16C
:107C40003CB1A54205D230215846641EFFF73CFCEA
:107C5000F6E7CDE90047434652463146584602F022
:107C6000C7FEBDE8FC9F000070B50D4604460068E5
:107C70004FF4887101F0A2FD4FF49071206801F07B
:107C80009DFD4FF49271206801F098FD4FF4A271B0
:107C9000206801F093FD20681249C0F804132068A1
:107CA000690740F30730090E002806DA00F00F00DC
:107CB00000F1E02080F8141D03E000F1E02080F8DE
:107CC00000142068012140F3073000F01F029140AA
:107CD0004009800000F1E020C0F88012C0F80011D7
:107CE00070BD000010030200024600201268530716
:107CF00013D502F00300012802D002280CD105E0C0
:107D0000C2F383100B68801C184404E00223086847
:107D100003EB92521044086001207047F0B584884C
:107D2000A518944200D82246A41AC288D6189A42AE
:107D300000D81346D21A4B880788BB420CD3408820
:107D4000834209D88888A04206D3A84204D8C888AC
:107D5000904201D3B04201D90020F0BD0120F0BD16
:107D60000B480C4910B5401AC008032101EB004430
:107D70004FF0020022B1FFF74DFB204606A103E0C1
:107D8000FFF740FB204609A1BDE8104001F02CB9E7
:107D9000CCB602008CB602005265636569766564F4
:107DA000204C4544204F4E21000000005265636581
:107DB00069766564204C4544204F4646210000000A
:107DC0001721018041800021017141711B218171C6
:107DD000C17170472DE9F047394E002780463D4676
:107DE000DFF8E090D6F804A057E003D00446D0F8BE
:107DF0001C8035E099F8002002EB4201521CD2B2FF
:107E000089F8002009EBC10199F80230091D9A4256
:107E100001D189F8005048680A780446012A12D036
:107E2000022A02D0032A3BD108E002F0C3FB00B1D2
:107E30000127257434E00574C06900E070680028EB
:107E4000F9D170602CE0207C50BB88686060C86805
:107E5000A0600869E0604869A061F07800B16560E1
:107E60006268B168184B501A20F07F40984202D2E5
:107E7000A168084406E0881AA16820F07F4081428A
:107E800002D9081A206000E0256065600120A56025
:107E900020742046E56102F06FFBB8F10000A4D128
:107EA00099F8001099F801008142A3D117B97168BF
:107EB000514502D00120BDE8F0870020FBE700001B
:107EC00048230020FC250020FFFF7F002DE9FF4113
:107ED0000026234800F012FA2148001F074600F050
:107EE0000DFA204C60680090A56800E00098694693
:107EF000284004EB80000C30FFF7F6FE0028F5D197
:107F000001AA009901EA050304EB8303491CDB681D
:107F100042F82030401C00910228F2D3019800F072
:107F2000030001280BD0022810D10198032101EB96
:107F300090500099BDF80A6001EB900005E00198AF
:107F4000BDF80A60C0F3831008440090384600F082
:107F5000D2F908B10098606004B03046BDE8F08105
:107F6000D02C0020B828002088B04FF40041002019
:107F700001F0A4F808B1FEF791FD00F00DFF01201B
:107F8000FFF716FAFEF7AAFD08B1FEF787FD40F2EB
:107F9000666201214748FEF703FD08B1FEF77EFD4A
:107FA00001F0A2F908B1FEF779FD01F033FB08B149
:107FB000FEF774FD002469460120009401F0E4F905
:107FC00008B1FEF76BFD684601F05EFA08B1FEF7F6
:107FD00065FD9DF8080038A120F00F00401C20F03E
:107FE000F00010308DF808000D2202A87CDF08B1E7
:107FF000FEF754FD00945020ADF80000A02001943D
:10800000ADF80200ADF804404FF4C870ADF80600BA
:1080100068467ADF08B1FEF741FD00212A4800F0EA
:10802000F6F908B1FEF73AFD284801A9CDE900406C
:108030002548143000F0AFFA08B1FEF72FFD2448B0
:108040000090214869461838FFF71EF908B1FEF77D
:1080500025FDFEF719FC1C216846FEF78CF94FF44C
:108060002020CDE90040801002901A480590032599
:1080700019488DF80C500690ADF80E408DF8104060
:108080006846FEF71FFF08B1FEF708FD13481449C4
:10809000401AC00805EB004012A100F0A5FFFEF752
:1080A00045FC00BF00F086FE0028FBD101F030F94E
:1080B000F8E70000E42200204E6F726469635F42BB
:1080C0006C696E6B79000000F42300205593020068
:1080D000617D0200219F02002F790200CCB60200D0
:1080E0008CB60200426C696E6B79206578616D70A8
:1080F0006C6520737461727465642E0070B51446EB
:1081000082880E4605462088111D0144921C994222
:1081100001D8FE2A01D90C2070BD521C325420888F
:10812000FF21401C80B2208031542088401C80B246
:1081300020808119288802F055FC2188084480B2EB
:108140002080AA8842B1A96841B13044FEF7FAF80C
:108150002088A98808442080002070BD072070BDB9
:108160002DE9F047C5881E1DB6FBF5F78946B6FB1D
:10817000F5F1044605FB176C407916686843DDF895
:1081800020A0F718001F874200D9C61A166001E028
:108190002468491E0029FBD1A5EB0C078846B7428D
:1081A00016D818E004EB0C00001D09EB0803BAF127
:1081B000000F3A4602D00146184600E01946FEF785
:1081C000C1F82468F61B4FF0000CB844B54201D941
:1081D000374600E02F46002EE4D1BDE8F0870000CE
:1081E00030B5024651B100F087FF0021074C08E08E
:1081F00034F821301568AB4202D11160002030BD47
:10820000491C8142F4D3052030BD0000000000006D
:10821000F8B50F46017814460546012901D1687862
:1082200030B12088821C9A4232D8012902D006E05F
:108230000720F8BD69780144891C994228D8181A8A
:10824000801E86B2ADF800602188B81C08446946DB
:108250007DDF0028EDD12978022904D06878BDF8A7
:108260000020904205D3BDF80000B04201D809209B
:108270000AE00820012905D16978B14202D8ADF899
:10828000001001E0ADF80060BDF80010FE2901D932
:108290000C20F8BD2288491CB9542188491C89B298
:1082A000218078542088401C2080BDF800100844AC
:1082B00020800020F8BD01F01F0301229A40D24324
:1082C000490900EB8100114600F021B84A0950F835
:1082D000220001F01F0201219140084000D001203E
:1082E000704701F01F0301229A40490900EB810009
:1082F000114600F01CB8002100F00FB8012100F079
:1083000016B808B56A46FDF7B8FF009808BD08B56D
:108310006A46FDF798FF009808BD08B56A46FDF764
:1083200092FF08BD08B56A46FDF774FF08BD08B5A1
:108330006A46FDF77BFF009808BD08B56A46FDF761
:10834000A9FF009808BD38B5044600258DF80050F7
:108350006846FEF741FC21686268086890420ED9C1
:10836000401E08600178238AE26801FB0325227A17
:108370002168101AC0B20A79824200D208719DF8B1
:108380000000FEF74DFC284638BD38B505460020F4
:108390008DF800000C466846FEF71EFCE868298A46
:1083A000201AB0FBF1F12A681068431C13600170B9
:1083B0009DF80000FEF734FC38BD10B530B1017AED
:1083C00042680368891AC9B21A6006E00E2010BD1F
:1083D00003681A68541C1C601170491EC9B2F7D298
:1083E000006800210171084610BDC20800F00703B3
:1083F0000120895C98400840704710B5C20800F021
:108400000703885C01249C402043885410BD10B5AC
:1084100060B10161172120F8021B20F8021B1B210B
:1084200000F8021BFFF7CCFC002010BD0E2010BD91
:10843000F0B5858893B00C46002D39D1018800260F
:108440003F4F24293BD006DC102909D011290CD03C
:10845000232958D14FE03A290BD0552953D129E08F
:108460000146204601F06AFD4DE0A01DFFF7A8FC83
:1084700049E02246408934F8061F814200D8084668
:108480006080172800D217206080106970B1607971
:1084900060B1D7E90001CDE90301ADF80E50608865
:1084A000ADF81000136903A910469847667126714C
:1084B00013B0F0BD0146204601F094FD23E0011DFC
:1084C0002C2206A8FDF73EFFBDF81800BDF81C20C1
:1084D00004EBC0014A732269AAB1D7E90423CDE9AC
:1084E0000423ADF81200487B8DF814002269204661
:1084F00004A9904707E0017A207B884200D2014618
:108500002846FFF73BFAA07A0028D1D0E188284618
:10851000A5DF012580B11128CAD001F02FF902464C
:108520000848094913B0401AC00805EB0040BDE8EF
:10853000F04006A100F05CBDA672E572B8E700004D
:108540003CAC02008CB602008CB6020073645F6221
:108550006C655F67617474635F65786368616E679B
:10856000655F6D74755F7265717565737428292018
:1085700072657475726E65642025732E00000000AC
:1085800020B10278DE2A03D0082070470E20704701
:1085900041800020704760B159B10278DE2A0AD0CC
:1085A00009684160DE2101704FF6FF7141800020B3
:1085B00070470E207047082070477FB50546002998
:1085C0004DD0002D4BD008780C46DE2847D1A88826
:1085D0006188884202D1204602F098FA2888012852
:1085E00025D002283BD011283AD0512837D135F870
:1085F000040F6188884232D1A978A81C02292ED1A3
:10860000017A042903D0062901D0052927D10021A8
:10861000009102228DF8002001914FF4C072029166
:108620000391ADF80420007A05280FD010E0297AD4
:108630002046012913D1A988428891420FD10121F6
:10864000017204B0BDE8704002F060BAADF80410E9
:1086500028886946B0DF002801D0616888477FBD5F
:10866000A88861888842FAD14FF6FF7060807FBD8C
:1086700000F180400068002800D00120704708B554
:1086800000F18040002101600068009008BD0000FA
:1086900070B50B4C207808B185250FE00020A06054
:1086A00060602061E060074801F0A6F8054600F030
:1086B000FDFF08B901F088F801202070284670BD40
:1086C00014250020A177020038B500258DF8005050
:1086D0006846FEF781FA074CE068401EE060E068FB
:1086E00010B901F099F8A5709DF80000FEF798FA0E
:1086F00038BD000014250020F0B505460478154863
:1087000089B0164640F82420124A08690832A2F1BE
:108710000C0742F82400487F385520226846FDF7B0
:1087200011FE04942878385C48B10EB10A4A00E082
:1087300000226946281D01F00FFB09B0F0BD0EB103
:10874000064A00E00022694605F10C0001F0D6F966
:10875000F3E7000008230020C1A802000DA70200D3
:108760000FB408B50399002904D004AA00926A4600
:1087700000F00FF801B05DF814FB10B582680446F4
:10878000002A05D0D4E90403216898470020A0609E
:1087900010BD2DE9FC4791460C00804676D014F8B8
:1087A000011B39B125290ED04046FEF78DFE2078F9
:1087B0000028F4D198F80C00002867D04046BDE8A6
:1087C000FC47FFF7DABF0020012221782B291BD0BC
:1087D0002D2902D0302908D102E040F0010001E04B
:1087E00040F00200641C002AEFD100252A290ED097
:1087F0002178A1F130020A2A11D205EB850201EBA2
:108800004205641C303DF1E740F00400EAE7D9F886
:1088100000100B1DC9F800300968641C0D44217854
:1088200000232E290BD114F8011FA1F130020A2ACE
:1088300005D203EB830201EB4203303BF3E76C29E3
:108840000DD068290BD0692921D00BDC252918D03F
:10885000582931D063290ED0642915D117E014F8B6
:10886000011FECE7702969D0732932D075291BD01C
:10887000782909D120E0D9F80000011DC9F80010BD
:1088800001784046FEF720FE641C90E76CE0D9F8C2
:1088900000100A1DC9F800200968CDE900500A221D
:1088A0004046FFF78DF9EFE7D9F800100A1DC9F827
:1088B000002009680A2206E0D9F800100A1DC9F84C
:1088C000002009681022CDE90050404602F090F8DF
:1088D000DAE7D9F8001000270A1DC9F800200E6851
:1088E000C00705D112E04046761C7F1CFEF7ECFD68
:1088F00031780029F7D104E0202140466D1EFEF7B3
:10890000E3FDBD42C0D9002DF6D1BDE74EB13046E2
:10891000FDF73CFD074604E0202140466D1EFEF7B2
:10892000D3FDBD4206D9002DF6D103E04046761CAA
:10893000FEF7CAFD31780029F8D1A5E7D9F8000083
:10894000011DC9F80010056830214046FEF7BCFD46
:1089500078214046FEF7B8FD08200021CDE900014E
:10896000034610222946B0E7BDE8FC872DE9FF4108
:108970001C46DDE90A7815460E46684600F0AAF85E
:1089800046EA450141EA840141EA072242EA0841F8
:10899000009A00EB8200C0F80017BDE8FF812DE9C6
:1089A000FF411C46DDE90A7815460E46684600F090
:1089B0009FF846EA450141EA840141EA072242EA7A
:1089C0000841009A00EB8200C0F80017BDE8FF8163
:1089D0002DE9FF411C46DDE90A7815460E4668463A
:1089E00000F094F846EA450141EA840141EA072291
:1089F00042EA0841009A00EB8200C0F80017BDE887
:108A0000FF812DE9FF411C46DDE90A7815460E4637
:108A1000684600F089F846EA450141EA840141EAE6
:108A2000072242EA0841009A00EB8200C0F80017D2
:108A3000BDE8FF811CB5002100910B460122019188
:108A4000FFF7C6FF1CBD1CB5002100910B4601229B
:108A50000191FFF7D6FF1CBD1CB500220B4600920A
:108A600011460192FFF7B4FF1CBD1CB500220B4656
:108A7000009211460192FFF7C4FF1CBD1CB50021F6
:108A800000910B46012201911146FFF7A1FF1CBD89
:108A90001CB5002100910B46012201911146FFF700
:108AA000B0FF1CBD13B50C46684600F021F80099D4
:108AB00000EB8101D1F8002722F44032C1F80027F1
:108AC000009900EB8100D0F8001741EA0441C0F89A
:108AD00000171CBD0168202902D24FF0A04070474A
:108AE00001F01F01016001487047000000030050C1
:108AF0000168202902D24FF0A040704701F01F0109
:108B000001600148704700000003005001682029FF
:108B100002D24FF0A040704701F01F0101600148F0
:108B200070470000000300500168202902D24FF076
:108B3000A040704701F01F0101600148704700002C
:108B40000003005001B56846FFF7D2FFD0F81005CA
:108B50000099C84000F0010008BD01B56846FFF764
:108B6000D5FF009A01219140C0F8081508BD01B554
:108B70006846FFF7D9FF009A01219140C0F8081517
:108B800008BD38B501240090684631B1FFF7A2FF57
:108B900000998C40C0F8084538BDFFF79BFF00994D
:108BA0008C40C0F80C4538BD1CB5094C0144D4E9D3
:108BB0000034CDE900346C4606E000BF54F82030A4
:108BC000D3F81035401C08C28142F7D81CBD000004
:108BD00064AC0200034908B5084400210160006844
:108BE000009008BD0060004002494058012800D0B4
:108BF000002070470060004030B5154A0146002053
:108C0000D2F8104423460AE0DB681D79854205D17D
:108C1000401C0A28F6DB4FF0FF3030BD1B68002BEC
:108C2000F2D1431CF9D0CB681871D2F8103443B19B
:108C3000DB68CC681B682360D2F81024D26811600E
:108C400030BDC2F81014C96800220A6030BD0000AF
:108C5000B8280020F0B595B01C4615460F460846CA
:108C60001A9E00F01BFB182109A8FDF784FB0E9645
:108C7000CDE909540023082203A9384600F023FB5C
:108C800005980690BDF81000ADF81C00BDF8120064
:108C9000ADF81E0000208DF821000398082600F092
:108CA0000300012802D0022818D032E0039833468E
:108CB000850AC0F3C2008DF8200003980FA9C0F305
:108CC0008314A200384600F0FEFA09A8009006AB13
:108CD00022460FA9284600F03DFA1AE00398840DB9
:108CE000C0F3C2008DF82000082C01D2254600E018
:108CF000082533462A460FA9384600F0E4FA2E44E8
:108D0000641B09AB06AA29460FA800F081F9002CC4
:108D1000EAD1384600F0C8FA15B0F0BD704701201E
:108D200001F012BD084810B50178084A515C19B12C
:108D3000001D01F09DF802E00C3000F0ABFFBDE833
:108D40001040002001F000BD682300200423002013
:108D500008B5034A00924023024AFFF77BFF08BD93
:108D600005A30200202700200A4A012902EBC000C7
:108D700007D0022907D0032907D0042907D00020F3
:108D8000704702207047042070470079704740798F
:108D9000704700008CB6020010B5FFF7C0FF042139
:108DA0000348FFF729FF02490120C968487110BD37
:108DB0007CB602002DE9F04F8DB0FEF795FB18B19F
:108DC00000200DB0BDE8F08F7E4C4FF0000BC4F8D2
:108DD00018B4BFF34F8F60680290A568D84628404A
:108DE00004EB80000CE000BFD4F8180470B92168CF
:108DF0000298814201D86160E2E7284004EB8000DC
:108E00000C3002A9FEF770FF0028EDD1002005AA62
:108E1000029901EA050304EB8303491CDB6842F86D
:108E20002030401C02910228F2D3059800F0030084
:108E3000022802D001284DD0AAE005985022810DC9
:108E40008946B2EB905F00D850210E4666F39F50E2
:108E5000059008315C4800F0D8F9070078D000F0A0
:108E60001DFA4346082205A9384600F034FA029953
:108E700008F1080A2940681A8000001D864222D99C
:108E8000504D0C3530B1C2B204EB8101301A90461E
:108E90000C3104E02946F2B2002590462846C6B2BD
:108EA0005346384600F017FA0AEB080325B132465C
:108EB0002946384600F00FFA029909F1030001EB48
:108EC000900002903BE004EB810153463246384665
:108ED0000C31EFE70598C0F38310062800D3062075
:108EE000059960F38911C1F38310801C05918100FD
:108EF000354800F08AF907004AD000F0CFF9434620
:108F0000082205A9384600F0E6F908F1080800260D
:108F10000FE00298434600EA0501401C04EB810182
:108F20000290042238460C3100F0D5F908F104080B
:108F3000761C0598C0F38310B042EAD847B1D4F844
:108F40001054D4F8180478B1384600F0ADF934E084
:108F50001EE0E8684079012804D12A68284639468D
:108F600012689047E8680568002DF2D1384600F095
:108F70009BF98DF800B06846FDF72EFED4F8180472
:108F800008B9029860609DF80000FDF749FE14E002
:108F9000D4F8104405E02168204689688847E068D5
:108FA0000468002CF7D109480949401AC008022179
:108FB00001EB004007A100F017F8FEF795FA80F0EA
:108FC0000100FEE6B8280020ECB60200CCB6020094
:108FD0008CB602004261636B656E647320666C75CB
:108FE000736865640000000000231A4601F03EBA71
:108FF00008B5012300926A4601F038FA08BD1CB595
:10900000CDE9002302236A4601F030FA1CBD0000BE
:109010002DE9F0470E4680461C46924608293ED868
:1090200094F80C90002020731946104601F066F861
:109030000025B54206D218F805201AA12046FFF7F0
:109040008FFB03E019A12046FFF78AFB6D1C082D5A
:10905000EFD317A12046FFF783FB0025B54210D2BE
:1090600018F80570FDF76AF90068C05D10F03E0F52
:1090700001D03A4600E02E220EA12046FFF770FBF9
:1090800003E00DA12046FFF76BFB6D1C082DE5D317
:1090900001222146504601F013F884F80C90BDE8F7
:1090A000F0870000202530327800000020202000CA
:1090B0007C00000025630000200000000B4810B574
:1090C000FF218160002101604160C0F81814C0F8E0
:1090D000141480F82014064800F0E4F8002803D1A6
:1090E000044800F039F9002010BD0000B828002025
:1090F000ECB6020024AE020002480349401AC00840
:1091000070470000ECB602008CB6020013B568464A
:10911000FFF766F808B100201CBD0248009950F81E
:1091200031001CBD8CB6020070B509480125D0F88D
:10913000104480F8205407E0E0684571216820461B
:1091400049688847E0680468002CF5D170BD0000CC
:10915000B82800202DE9FF4781460C9D00200C46D1
:109160002F7B2873984616462946184600F0C6FFFE
:10917000072E42D2DFE806F004090F161F2A360038
:1091800049462846FFF7ECFA37E049462846226868
:10919000FFF7E6FA31E0D4E9002349462846FFF715
:1091A000DFFA2AE0A0680090D4E900234946284667
:1091B000FFF7D6FA21E0D4E90201CDE90001D4E9B4
:1091C000002349462846FFF7CBFA16E004F10800D1
:1091D00007C88DE80700D4E9002349462846FFF771
:1091E000BFFA0AE004F108000FC88DE80F00D4E9C7
:1091F000002349462846FFF7B3FA00222946404695
:1092000000F05EFF2F73BDE8FF872DE9F041058A6E
:1092100080462D1F4819C01CB0FBF5F0C6B2404671
:10922000FFF791F8041E19D0002020710120607111
:10923000E58000272546761EC4F800800BE04046F6
:10924000FFF781F860B16179491C617128600546BA
:109250007F1CC0F80080B742F1D32046BDE8F08102
:10926000204600F002F80020F8E72DE9F0414579AA
:1092700001466B1E002201E00968521C9A42FBD392
:109280000F680146002605E038460C68FFF77DF8B8
:109290002146761CAE42F7D3BDE8F0810121001DC6
:1092A000FFF72FB8FFF789B810B504460121001D5C
:1092B000FFF743F810F0FF0F04D12046BDE810403F
:1092C000FFF7D3BF10BD1CB501920122009201AA85
:1092D000FEF746FF1CBD1CB501920022009201AAB8
:1092E000FEF73EFF1CBD0000064910B50020487087
:1092F000091D0860BFF35F8F0349044800F0FAF9C5
:10930000002010BD5C230020B0AC02001427002018
:1093100008B500208DF800006846FDF75DFCF1EE11
:10932000100A20F09F00E1EE100ABFF35F8F08499A
:109330004020C1F880029DF80000FDF771FC00F0AC
:10934000B5F908B141DF08BD20BF40BF20BF08BD4F
:1093500004E000E0FDF7A2BB826800219160826812
:109360001161826851618268D16082685160806851
:109370000160704720B1034909680160002070470F
:109380000E207047A8AE0200FEB502460E46084603
:10939000FFF7F0FF002868D1002400940194012712
:1093A00006208DF80020ADF8040002948DF80270BC
:1093B00069462020326869DF2C492D4A891AC9087C
:1093C000012202EB014530B100F0D8F902462846EF
:1093D0002849FFF70DFE00948DF801708DF80240CA
:1093E000019402948DF8034069464020326869DF99
:1093F00030B100F0C3F9024628461F49FFF7F8FDD7
:1094000000940A208DF8000001940294694601201E
:10941000326869DF30B100F0B1F9024628461749D9
:10942000FFF7E6FD4FF4B0600090019402946946A6
:10943000A120326869DF30B100F0A0F90246284669
:109440000F49FFF7D5FD0094019402948DF8004078
:109450006946A020326869DF30B100F08FF902461A
:1094600028460849FFF7C4FD0020FEBDDCB6020017
:109470008CB6020048B5020090B50200A8B4020004
:10948000F4B4020054B402002DE9F0410546076827
:1094900060DF804619491A482A68081AC608BA4285
:1094A00019D9022000EB064416A12046FFF79CFDC7
:1094B00020463A461FA12B68FFF7A1FD4FF08050D0
:1094C000D0F80C012968800200F10050421A2046B1
:1094D00025A1FFF78DFDB8F100004FF001040AD07F
:1094E00000F04CF9024604EB06402AA1FFF780FD8C
:1094F0004046BDE8F0812F480470F9E7DCB6020071
:109500008CB60200496E73756666696369656E7430
:109510002052414D20616C6C6F63617465642066FC
:109520006F722074686520536F6674446576696352
:10953000652E00004368616E67652074686520527F
:10954000414D207374617274206C6F636174696F34
:109550006E2066726F6D203078257820746F203011
:109560007825782E000000004D6178696D756D20BA
:1095700052414D2073697A6520666F722061707068
:109580006C69636174696F6E206973203078257827
:109590002E00000073645F626C655F656E61626CD3
:1095A0006528292072657475726E65642025732E96
:1095B00000000000D723002030B5144891B0007897
:1095C000002820D05FF03405ADF8405010A903A862
:1095D00061DF30B1052816D011B0BDE83040FDF78D
:1095E0005DBA03AC0A49684600F084F807E000BFA2
:1095F000D0E9002120469047684600F092F8029892
:109600000028E1D0F4E711B030BD0000D7230020DE
:10961000ACAE02007CB5194C207808B108207CBDA6
:109620000120A070002000F037FE112819D0002082
:1096300000F04AFE12480026006801908DF8006094
:109640006846FDF7C9FA0F4901A810DF05000AD0E6
:10965000002020709DF80000FDF7E2FA2DB12846A9
:109660007CBD00207CBD0120F3E7A670667000F091
:10967000D1FE012000F028FEF3E70000D4230020F3
:1096800040AE0200196A02000EB50749684600F0B4
:1096900031F805E0D0E900108847684600F041F84D
:1096A00002980028F6D10EBD5CAE02000148007899
:1096B00070470000D42300201FB568464BDF30B14F
:1096C000052814D004B0BDE81040FDF7E7B90849FB
:1096D00001A800F00FF806E0D0E9002100989047BB
:1096E00001A800F01EF803980028E6D0F4E71FBD9B
:1096F000C8AE0200016009684160AFF3008010B598
:10970000D0E900215368994201D1002104E0D1E958
:109710000034A34202D01946816010BD0831416077
:10972000F0E7816800290BD0026892680A448260E1
:1097300041684B689A4203D108314160FFF7DFBFAF
:10974000704700000C4A10B502F594730EE0991AA8
:10975000C91001EBD171491002EBC1010C688442C0
:1097600001D90B4602E005D201F108029A42EED37C
:10977000002010BD486810BDD0AC020000B5FFF756
:10978000E1FF002800D1014800BD0000BCAC020090
:109790004058002800D00120704708B500224250F0
:1097A0004058009008BDD0F80403084000D00120C4
:1097B00070474058002800D00120704708B50022AB
:1097C00042504058009008BD09480068012110F03F
:1097D000010F08D14FF0E020C02280F80024C0F82B
:1097E0008012C0F800110349012008607047000092
:1097F00000E100E0180500400649024600200B7910
:109800000BB1852070470A6001220A7100224A715B
:109810007047000018230020044901200860044814
:109820000168C1F300410029FAD170470C000040E3
:1098300018040040002802D0014980010847704701
:1098400081AC020010B5044600F022FC28B120468D
:10985000BDE810400021FFF725B9204600F024FCA8
:1098600000280FD02046FDF7B7FE074A02EB800123
:10987000D1F8103523F00103C1F8103501218140E2
:10988000C2F8081310BD0000006000402DE9F0414F
:109890000E46804600F0FCFB204D0028404616D0C6
:1098A000FDF79AFE284490F858008009032802D05A
:1098B00001280AD003E04046FFF744F928B103210C
:1098C0004046BDE8F041FFF7EDB80221F8E700F0AF
:1098D000EBFB002820D04046FDF77EFE0446104FEB
:1098E0004FF4807007EB840100EB8400D1F8102561
:1098F00080B242F00102C1F81025FFF76BF9002E8B
:109900000AD04046FDF768FE55F82000002803D035
:109910000120A040C7F80403BDE8F08128250020FD
:10992000006000402DE9FC41DFF8C080044608EBF0
:109930000400002790F930001346C0170E46401C63
:1099400001D008274FE0B0781946C0F34002204606
:10995000FDF71EFE0546401C44D0B07841071CD4DC
:10996000C0070DD068460094FFF7C2F8009900EBDD
:109970008100D0F8001721F00201C0F8001707E0BD
:1099800000217378204600910A460191FFF707F8FD
:10999000164920466431FEF730FDB078800718D5AF
:1099A0001348317800EB8500D0F81025114B1A4090
:1099B000C0F810254FF47C524FF4403302EA0422E1
:1099C00003EA01410A43D0F810150A43C0F81025F4
:1099D00009E008EB0500327810F8581F41EA8211BF
:1099E000017000E004273846BDE8FC8128250020EE
:1099F00000600040FFC0FCFF10B5FFF7A3F800288F
:109A000000D0012010BD000070B5194D95F86A0016
:109A100008B1082070BD0020411E2A18401CC0B2A9
:109A200082F830103028F8D300242046FDF7A2FD3C
:109A3000641CE4B20C2CF8D30D490024C0204C6601
:109A4000A1F868400B4981F8000401264020891FD5
:109A5000C1F88002C1F800014FF4BE70FFF7BAF8F8
:109A60000549F007C1F8040385F86A60204670BD17
:109A70002825002006E000E000600040034890F840
:109A80006A00002800D0012070470000282500202F
:109A90000121B1EB507F01D10120704700207047B8
:109AA00038B50D4600F076FB040014D000208DF888
:109AB00000006846FDF790F8207928B19DF8000075
:109AC000FDF7AEF8112038BD0120256020719DF80A
:109AD0000000FDF7A5F8002038BD10B500F05AFBD6
:109AE000002802D000210160017110BD0149024827
:109AF00000F052BE94250020002000402DE9F041E6
:109B00000546007916460F4600EB40012D4A01EB51
:109B1000C00102EB810494F82A1011B10820BDE8BD
:109B2000F081294951F820102868FFF7B9FF08B1E2
:109B30001120F4E739462846FDF78CF8666038694D
:109B4000206030004FF001062FD03F7F4FF48E7120
:109B50002868FFF722FE4FF4A2712868FFF71DFE68
:109B600028681A49C0F8041328684FEA471140F3DF
:109B70000730002806DA00F00F0000F1E02080F83E
:109B8000141D03E000F1E02080F80014286840F381
:109B9000073000F01F0206FA02F14009800000F1D0
:109BA000E020C0F88012C0F8001128680421C0F835
:109BB00000150020A061E06184F8290044F8140F2A
:109BC000A675ACE7942500206CAC02008000020072
:109BD0002DE9F047054600790B4600EB400101EB0B
:109BE000C000234901EB8004284600F043F810B17F
:109BF0001120BDE8F0874FF00008C4F82080A36072
:109C0000626184F828804FF48E7647463146286892
:109C1000FFF7C3FD28684FF00109C0F808902146FE
:109C2000286800F055FD606800BBD5F800A00EE084
:109C300094F8280008B10F2716E031465046FFF788
:109C4000A7FD0028F4D02146504600F041FD216ACE
:109C500060698142F1D331462868FFF799FD0028F9
:109C6000F9D02868C0F80C90C4F814803846C0E7D2
:109C700094250020007900EB400101EBC00004496D
:109C800001EB80004069002800D0012070470000EF
:109C9000942500202DE9F047044600794FF0000993
:109CA00000EB400101EBC000254901EB8007206873
:109CB000C0F80095786880B120682249C0F8081380
:109CC0002068012140F3073000F01F029140400955
:109CD000800000F1E020C0F880112068D0F80C2549
:109CE000D0F81485D0F80865D0F810554FF0FF3142
:109CF000C0F81415C0F80C152068C0F80815C0F895
:109D00001015501C02D01046FEF794FEB8F1FF3F2C
:109D100002D04046FEF78EFE681C02D02846FEF7B1
:109D200089FE701C02D03046FEF784FE2068FFF7E3
:109D3000D4FE87F82A90C7F80490BDE8F0870000A9
:109D400094250020840202000149024800F0D0BDA1
:109D5000C0250020002000402DE9F04105461646B0
:109D600000790F46154A00EBC00102EB810494F81C
:109D7000201011B10820BDE8F081114951F82010E0
:109D80002868FFF78DFE08B11120F4E73946284610
:109D9000FCF79BFF6660386920601EB1397F28465A
:109DA000FDF762FF28680821C0F800150020A061B7
:109DB000E0610121606184F82010DCE7C02500200B
:109DC00070AC02002DE9F04704460E4600792049A8
:109DD00000EBC00001EB800517463046FFF758FE48
:109DE00030B1204600F036F820B11120BDE8F087F0
:109DF0001020FBE76F61AE604FF49076002731468C
:109E00002068FFF7DBFC4FF4AC7841462068FFF791
:109E1000D5FC2068AA686969C0F84425C0F84815CF
:109E2000206801218160686878B9B1464946206898
:109E3000FFF7BFFC064641462068FFF7BAFC064321
:109E4000F4D000B10F27002068613846CEE700004B
:109E5000C02500200079054900EBC00001EB80001F
:109E60004069002800D0012070470000C025002074
:109E70002DE9F04704460079274900EBC00001EBCB
:109E8000800720684FF00009C0F80095786880B11D
:109E900020682249C0F808132068012140F30730E8
:109EA00000F01F0291404009800000F1E020C0F85E
:109EB00080112068D0F80C25D0F81485D0F80865FA
:109EC000D0F810554FF0FF31C0F80C15C0F814153C
:109ED0002068C0F80815C0F81015501C02D01046B4
:109EE000FEF7B1FDB8F1FF3F02D04046FEF7ABFDF3
:109EF000681C02D02846FEF7A6FD701C02D0304632
:109F0000FEF7A1FD2068FFF7E8FD87F82090C7F86D
:109F10000490BDE8F0870000C02500201003020077
:109F20000078002807D104483B21408876DF0028CC
:109F300001D0FCF7B3BD7047E022002070B58D88DA
:109F4000027900EBC5042273C97BA41D012902D04C
:109F5000022904D101E0008800E0408820802188A7
:109F60006088814211D92846A5DF0126B0B11128A9
:109F700016D0FFF703FC02460B480C49401AC008F4
:109F800006EB00400AA1FFF733F8A179E07981429E
:109F900008D92846BDE87040FDF7F0BC6671F4E7CB
:109FA0002671F2E770BD00008CB602008CB602008C
:109FB00073645F626C655F67617474635F65786327
:109FC00068616E67655F6D74755F726571756573E5
:109FD0007428292072657475726E65642025732E4D
:109FE000000000007CB506468D88C88806EBC504D5
:109FF000A41D172800D217202188814200D80846C6
:10A0000060800020207121882846B5DF60B1FFF70D
:10A01000B5FB02460F481049401AC008012101EB68
:10A0200000400EA1FEF7E4FF6079002810D13069EE
:10A0300000280DD01549D1E90201CDE90001ADF8A4
:10A0400002506088ADF80400326969463046904796
:10A050007CBD00008CB602008CB6020073645F62A7
:10A060006C655F67617474735F65786368616E6760
:10A07000655F6D74755F7265706C792829207265F3
:10A080007475726E65642025732E00003CAC02006E
:10A090000449084490F93000082801DB012070478A
:10A0A00000207047282500200449084490F930001A
:10A0B000082801D201207047002070472825002081
:10A0C00010B50C46017A052908D0407A38B1084805
:10A0D00008A102682046FEF743FB00E01AB106A182
:10A0E0002046FEF73DFB2046BDE81040FEF745BB8D
:10A0F000B0230020257300000D0A000038B5C38886
:10A100000D46044633B114A0009015A216A12846AE
:10A11000FEF726FB217A05291CD0607A48B1A08879
:10A12000FEF722FE164951F8202016A12846FEF718
:10A1300017FBA0880021FEF7E9FF03461049207AAB
:10A14000143951F8202001B02846BDE830400EA156
:10A15000FEF706BB38BD00001B5B306D0000000041
:10A160001B5B313B33316D0025734C6F677320648B
:10A17000726F70706564202825642925730D0A00AC
:10A18000B0230020257300003C25733E2025733A40
:10A19000200000000349884201D103487047002095
:10A1A00070470000002000402023002070B50126E9
:10A1B00070044FF0E0210025C1F88001084C4010E8
:10A1C000C4F84803C4F8080366602F20FFF732FB89
:10A1D000A660044C2F20A560FFF72CFBA57070BD76
:10A1E000001001404823002070B5054688690C46E0
:10A1F00000284FF4847128460AD0FFF7CEFAD5F82C
:10A200001805626AE1688854606A401C606270BD2B
:10A21000FFF7C3FAD5F8180570BD1FB501238DF8F7
:10A220000030CDE90121D0E90012684690471FBDFA
:10A230001FB501238DF800308DF808100192D0E988
:10A240000012684690471FBD38B50021012548B16E
:10A2500001280CD0032809D1FFF7B6FABDE8384031
:10A26000FEF732BA4FF0E020C0F8805138BD8DF8CB
:10A2700000106846FCF7B0FC064C207808B9FEF7E1
:10A2800007FAE068401CE060A5709DF80000FCF74C
:10A29000C7FC38BD142500203EB504460949684670
:10A2A000FFF728FA08E000BFD0E9002120469047D8
:10A2B00030B16846FFF735FA02980028F4D13EBD68
:10A2C00011203EBD44AE02003EB504460849684632
:10A2D000FFF710FA07E000BFD0E9002120469047C1
:10A2E0006846FFF71EFA02980028F5D13EBD00002F
:10A2F00050AE020002498969002900D00847704722
:10A300008024002070B50D4C0020D2B22070201D9A
:10A310000B4D0378EB5C1BB1001DFFF753FD02E012
:10A320000C30FFF755FC08B1FCF7B8FB607800284B
:10A3300002D021780029FAD070BD000064230020EB
:10A34000042300202DE9F0410746806A1446884620
:10A35000C8B3002531E000BFB96A05EB450001EB49
:10A360008006B088801CFE2802D90C20BDE8F08150
:10A370002288401C08F8020020881622401C80B267
:10A38000208008F800202088401C80B2208000EB4C
:10A390000801308800F026FB2188084480B2208024
:10A3A000B28842B1B16871B14044FBF7CBFF20885D
:10A3B000B188084420806D1CEDB297F82C00A842AB
:10A3C000CAD80020D2E7FFE70720CFE70A7806289F
:10A3D00022F0FF020A7010D2DFE800F0030507093F
:10A3E0000B0D002008E0112006E0212004E03120C0
:10A3F00002E0122000E0222008707047002805D1FA
:10A400000349012048700020FDF7B6B970470000ED
:10A410001425002010B51620FCF724FAA0B111482D
:10A4200090F800044009082811D20121814011F060
:10A43000EC0F0CD00C4882684FF480016AB10168BF
:10A4400041F48001016010BD42F2010001E042F2DE
:10A450000200BDE81040FCF721BB4FF0E020C0F83F
:10A46000001110BD16E000E0082700202DE9F84F8C
:10A47000204D92468946064698460122694618466E
:10A48000AF68FCF7D9FF58B3009800210446801C40
:10A4900009E000BF00EA07035AF8212005EB830317
:10A4A000401C491CDA604145F4D34FEA164AFDF7D7
:10A4B00011FB4AEA0041601C384005EB80003C403B
:10A4C00005EB8402C160D06866F3C50068F38910AB
:10A4D00069F39F2020F00300401C20F00400D060AE
:10A4E00095F8200402E000BFFEF764FC0028FBD1D1
:10A4F000BDE8F88FB82800202DE9F84F1D4C002545
:10A500006846D4E901A6FDF7EFFA002738B3002327
:10A51000009A61681CE0D1F800C00846944503D950
:10A52000ACEB02020A6015E0A2EB0C026344076088
:10A53000D0F80CC0C1698146BCF1000F08D006EB11
:10A54000030828F07F48C0E9018CC9F81C50054673
:10A550000029E0D128466160FDF73CFC03E0284675
:10A56000FDF738FC10B15046FDF728F9E770BDE85B
:10A57000F88F0000482300200D4B10B5596831B109
:10A5800002680C68A24204D8A21A0A60C16158602D
:10A5900010BD0B4603E00B46C969121B21B10C68C4
:10A5A0009442F8D3A41A0C600260C161D86110BD56
:10A5B000482300202DE9F041144E77683D462C4693
:10A5C00003E0844204D02546E469002CF9D11BE065
:10A5D000D4B1A5420BD1F869706040B90C49012093
:10A5E00088600021B160F0702F20FFF723F9216807
:10A5F000E069E86110B10268114401607068874247
:10A6000002D00120BDE8F0810020FBE748230020B4
:10A61000001001407CB5064600240D468DF8004030
:10A620006846FCF7D9FA01A800F082FA70B105700B
:10A63000094946609DF8040048709DF80000FCF749
:10A64000EFFA1420FBF7ACFF20467CBD04249DF8F4
:10A650000000FCF7E5FAF7E7FC2500202DE9F041C2
:10A66000194D6C68002C2CD0184800270068A96888
:10A67000B846401A20F07F462068B0420CD82146E8
:10A68000361A0744E469087C20B181F81080886993
:10A6900049698847002CEFD129786878814206D132
:10A6A000401CC0B26870022801D185F801800648BC
:10A6B00069780C3040F82170BDE8F0411420FBF7B8
:10A6C0006FBFBDE8F0810000482300200415014061
:10A6D00070B50C4605464FF48E71FFF75EF8216A9F
:10A6E000A068415C206A401C2062C5F81C1570BD42
:10A6F0001FB500228DF8002002918168019142610E
:10A70000D0E90012684690471FBD00001FB50A46F9
:10A7100001788DF8001041680191017A8DF80810D8
:10A72000C0680390044850F82210083850F82220DE
:10A73000684690471FBD00001023002001490120FA
:10A74000087070476423002010B588B004462022AA
:10A750000E496846FBF7F6FD06200090C01F0190E9
:10A76000029003904FF0EB7006900CB1084A00E0A5
:10A77000002269460748FDF7BFFF08B1FCF78EF9D4
:10A780000448001F447008B010BD000004AE020071
:10A790003DA70200682300202DE9FF470C4605462F
:10A7A0004FF40071FEF7FFFF01274FF401780026F8
:10A7B00018B34FF4927949462846FEF7E9FFE0B115
:10A7C00049462846FEF7E9FFC5F8088394F82900B2
:10A7D00000B96F6002208DF80000D5F88004C5F83C
:10A7E00080040390A0690290E0680190A661E66190
:10A7F000D4E900126846904728E004212846FEF775
:10A80000D2FF18B34FF484712846FEF7C1FFE8B1B8
:10A8100021462846FFF7E8FC616AA069884215D105
:10A82000E06938B1E268616AA0612069E661666248
:10A83000E06008E094F8290000B96F60C5F808836B
:10A84000A661E268616A2046FFF7E7FC4FF48E7864
:10A8500041462846FEF79CFF78B1206A616988422C
:10A8600002D294F8280020B341462846FEF795FF0F
:10A87000616911B12046FFF73BFF4FF4A2784146D2
:10A880002846FEF785FF002818D041462846FEF7E7
:10A8900084FF94F8290000B12F60A06900280DD032
:10A8A000A661E268616A04B02046BDE8F047FFF7A0
:10A8B000B4BC21462846FFF70BFFDEE7BDE8FF8763
:10A8C0001FB50A4601788DF8001041680191017AA0
:10A8D0008DF80810C0680390044850F8221008381A
:10A8E00050F82220684690471FBD0000102300202A
:10A8F0002DE9FF410C464FF4927705463946FEF7A5
:10A9000058FF0026C0B139462846FEF757FF0220FF
:10A910008DF80000D5F88004C5F880040390D5F8C0
:10A920003C058DF80800E0680190A661E661D4E975
:10A9300000126846904723E04FF48877394628464E
:10A94000FEF737FFE0B139462846FEF737FFD5F866
:10A950003C15A069884213D1E06960B1E268D5F87E
:10A96000000220F02000C5F80002E069A061206923
:10A97000E661E06001E0A661E2682046FFF758FC6E
:10A980004FF4A27739462846FEF713FF60B13946E7
:10A990002846FEF713FFA06930B1A661D5F83C1533
:10A9A0002046E268FFF744FC4FF49077394628468A
:10A9B000FEF7FFFE002813D039462846FEF7FEFEBC
:10A9C000606900280CD0D5F84C058DF800608DF832
:10A9D0000800A06801906661D4E9001268469047BB
:10A9E000BDE8FF810870000A48700220704700002F
:10A9F0002DE9F05F8346DDE90A4A994690460D4607
:10AA00000846012703E000BFB0FBF8F07F1C40457B
:10AA1000FAD2B94500D94F465FEACA7012D18CB15B
:10AA20005FEA8A7002D5B9F1000F01D0202607E055
:10AA3000302605E031465846641EFCF745FD0CB152
:10AA4000A742F7D35FF00106B9F1010F02D9A9F1CE
:10AA5000010903E0B5FBF6F0404502D306FB08F61A
:10AA6000F2E7DFF83C9000BFB5FBF6F000FB1655AF
:10AA700019F800105846FCF727FDB6FBF8F6002E33
:10AA8000F2D15FEACA7009D0002C07D0A74205D2E4
:10AA900020215846641EFCF717FDF5E7BDE8F09F3E
:10AAA00086AC0200F8B5054680B2FDF77FF80400D9
:10AAB00013D0154E207A0027317B88420ED2A8B2DF
:10AAC00004F10A0175DF28B1112806D0BDE8F8406D
:10AAD000FFF710BC207A401C2072F8BD2772307C32
:10AAE00038B1A8B23B2176DF18B1082801D0FFF7B2
:10AAF00001FC71690029F0D08DF80070ADF80250AA
:10AB000068468847F8BD00008024002030B4044621
:10AB1000007A00280AD06088002166DF28B1112859
:10AB200002D0616830BC08470120207230BC7047F9
:10AB30000A494A788B78521CD2B2934200D1002243
:10AB40000B78934201D1002070470270487800EBE7
:10AB5000400001EBC000001D70470000FC250020F4
:10AB60002DE9FC411646DDE90854CDE900541F46A5
:10AB70008046022200F00CF8002807D1CDE90054ED
:10AB80003B4610223146404600F002F8BDE8FC8109
:10AB90002DE9FC5F0026DDE90C4B994692468E4676
:10ABA00080462788354630E0D8F80400002200EBC4
:10ABB000850069460068019001A864DF002830D153
:10ABC0009DF8000050451FD10EB1002100E0022188
:10ABD000228808441118594522D846B9521C90B20F
:10ABE000208009F800E02088401C20800126218870
:10ABF00001A801EB0902694664DF002811D1208811
:10AC00009DF80010084420806D1CB8F80000A84290
:10AC1000CADC56B12088C01B401E80B2FF2802D972
:10AC20000C20BDE8FC9F09F807000020F9E70000B0
:10AC3000231500000D0E0F100B0C1819770A0000D9
:10AC400000000000770A0000000000007ADA00002F
:10AC50000000000023D1BCEA5F782315DEEF12125A
:10AC6000000000000000005000030050ED9A0200B8
:10AC7000499D020003000000E425002000000000C0
:10AC80000338FDD8704730313233343536373839F0
:10AC9000414243444546000000000000000000001F
:10ACA00000000000000000000000000000000000A4
:10ACB00098AC0200B0AC020004000000556E6B6E50
:10ACC0006F776E206572726F7220636F646500002B
:10ACD0000000000078B302000100000024B202006E
:10ACE0000200000018B002000300000098B2020049
:10ACF00004000000ECB2020005000000CCB102002C
:10AD00000600000068B1020007000000D4B2020093
:10AD100008000000E0B102000900000044B2020097
:10AD20000A00000060B302000B00000000B0020047
:10AD30000C000000F8B102000D000000C8B30200D2
:10AD40000E000000C4B202000F00000000B30200B9
:10AD50001000000034B3020011000000DCB3020058
:10AD600012000000B0B30200130000004CB3020058
:10AD70008000000080B1020081000000BCB0020031
:10AD8000820000007CB00200830000005CB0020082
:10AD90008400000098B0020085000000A4B1020009
:10ADA00086000000ACB202009000000048B1020032
:10ADB000910000003CB00200920000000CB20200C2
:10ADC0000082000014B302000182000060B20200A1
:10ADD000028200007CB2020000840000D8B00200B1
:10ADE0000184000084B302000284000020B102004C
:10ADF00003840000FCB00200518D0200258D02008A
:10AE00001D8D0200FFFFFFFFFFFFFFFFFFFFFFFFA2
:10AE1000FFFFFFFF00000000000000000000D6015F
:10AE200006010000202800207F000000A02800204C
:10AE30000000000000000000000000000000000012
:10AE40000100000730AE020040AE02000800000022
:10AE500068AE020078AE02000800000078AE020082
:10AE600088AE02000800000048B7020050B7020098
:10AE7000000000000000000038B7020048B70200E0
:10AE8000000000000000000000B7020008B7020048
:10AE900008B7020018B7020018B7020028B702006E
:10AEA00028B7020030B70200E022002088AE02007E
:10AEB000A8AE02000800000030B7020038B7020058
:10AEC0000000000000000000B8AE0200C8AE0200A2
:10AED00008000000004040404040404040404141A8
:10AEE000414141404040404040404040404040405F
:10AEF00040404040400502020202020202020202F9
:10AF000002020202022020202020202020202002F5
:10AF10000202020202029090909090901010101085
:10AF20001010101010101010101010101010101021
:10AF300002020202020288888888888808080808B5
:10AF40000808080808080808080808080808080881
:10AF50000202020240000000D5AE020073645F628C
:10AF60006C655F6761705F646174615F6C656E677B
:10AF700074685F7570646174652829202872657132
:10AF80007565737429206F6E20636F6E6E656374D0
:10AF9000696F6E20307825782072657475726E65E1
:10AFA000642025732E000000546865207265717559
:10AFB000657374656420636F6D62696E6174696F37
:10AFC0006E206F6620545820616E642052582070A5
:10AFD00061636B6574206C656E6774687320697358
:10AFE00020746F6F206C6F6E67206279202575204A
:10AFF0006D6963726F7365636F6E64732E0000001A
:10B000004E52465F4552524F525F494E56414C494F
:10B01000445F4441544100004E52465F4552524FF6
:10B02000525F534F46544445564943455F4E4F5433
:10B030005F454E41424C4544000000004E52465F81
:10B040004552524F525F464541545552455F4E4F0F
:10B05000545F454E41424C45440000004E52465F0D
:10B060004552524F525F4D555445585F554E4C4FC7
:10B07000434B5F4641494C45440000004E52465FF9
:10B080004552524F525F4D555445585F4C4F434BBC
:10B090005F4641494C4544004E52465F4552524F2F
:10B0A000525F4D555445585F434F4E445F494E499A
:10B0B000545F4641494C4544000000004E52465FF3
:10B0C0004552524F525F4D555445585F494E495471
:10B0D0005F4641494C4544004E52465F4552524FEF
:10B0E000525F424C455F495053505F52585F504B3E
:10B0F000545F5452554E4341544544004E52465FAE
:10B100004552524F525F424C455F495053505F5039
:10B110004545525F52454A454354454400000000AE
:10B120004E52465F4552524F525F424C455F495026
:10B1300053505F4C494E4B5F444953434F4E4E452D
:10B1400043544544000000004E52465F4552524F62
:10B15000525F4150495F4E4F545F494D504C454DF1
:10B16000454E5445440000004E52465F4552524FF2
:10B17000525F4E4F545F535550504F525445440008
:10B180004E52465F4552524F525F4D4F44554C45CB
:10B190005F4E4F545F494E495449414C495A4544CA
:10B1A000000000004E52465F4552524F525F4D4FD5
:10B1B00044554C455F414C52454144595F494E49C5
:10B1C0005449414C495A4544000000004E52465FE4
:10B1D0004552524F525F4E4F545F464F554E4400BA
:10B1E0004E52465F4552524F525F494E56414C496E
:10B1F000445F5354415445004E52465F4552524FAE
:10B20000525F444154415F53495A45004E52465F94
:10B210004552524F525F494F5F50454E44494E4749
:10B22000000000004E52465F4552524F525F535647
:10B23000435F48414E444C45525F4D495353494E3C
:10B24000470000004E52465F4552524F525F494EF2
:10B2500056414C49445F4C454E475448000000005D
:10B260004E52465F4552524F525F4452565F5457BA
:10B27000495F4552525F414E41434B004E52465F3B
:10B280004552524F525F4452565F5457495F4552A0
:10B29000525F444E41434B004E52465F4552524F1F
:10B2A000525F494E5445524E414C00004E52465F4B
:10B2B0004552524F525F53544F524147455F465596
:10B2C0004C4C00004E52465F4552524F525F4E5515
:10B2D0004C4C00004E52465F4552524F525F494E11
:10B2E00056414C49445F504152414D004E52465FD9
:10B2F0004552524F525F4E4F5F4D454D000000008A
:10B300004E52465F4552524F525F464F5242494459
:10B3100044454E004E52465F4552524F525F445292
:10B32000565F5457495F4552525F4F5645525255EA
:10B330004E0000004E52465F4552524F525F494EFA
:10B3400056414C49445F4144445200004E52465FCE
:10B350004552524F525F5245534F55524345530049
:10B360004E52465F4552524F525F494E56414C49EC
:10B37000445F464C414753004E52465F535543434A
:10B38000455353004E52465F4552524F525F424C16
:10B39000455F495053505F4348414E4E454C5F41D5
:10B3A0004C52454144595F4558495354530000009D
:10B3B0004E52465F4552524F525F434F4E4E5F438F
:10B3C0004F554E54000000004E52465F4552524FBA
:10B3D000525F54494D454F55540000004E52465F50
:10B3E0004552524F525F4255535900007761726E79
:10B3F000696E670064656275670000001B5B313B26
:10B4000033306D001B5B306D000000001B5B313B77
:10B4100033316D001B5B313B33326D001B5B313BC5
:10B4200033336D001B5B313B33346D001B5B313BB1
:10B4300033356D001B5B313B33366D001B5B313B9D
:10B4400033376D00696E666F000000006572726FC1
:10B450007200000073645F626C655F6366675F73B0
:10B46000657428292072657475726E656420257371
:10B47000207768656E20617474656D7074696E679D
:10B4800020746F2073657420424C455F47415454CB
:10B49000535F4346475F534552564943455F4348D0
:10B4A000414E4745442E000073645F626C655F63E4
:10B4B00066675F73657428292072657475726E659E
:10B4C00064202573207768656E20617474656D70E3
:10B4D00074696E6720746F2073657420424C455FF9
:10B4E000434F4D4D4F4E5F4346475F56535F555553
:10B4F00049442E0073645F626C655F6366675F73C7
:10B50000657428292072657475726E6564202573D0
:10B51000207768656E20617474656D7074696E67FC
:10B5200020746F2073657420424C455F474154542A
:10B53000535F4346475F415454525F5441425F5307
:10B54000495A452E0000000073645F626C655F63BA
:10B5500066675F73657428292072657475726E65FD
:10B5600064202573207768656E20617474656D7042
:10B5700074696E6720746F2073657420424C455F58
:10B58000434F4E4E5F4346475F4741502E000000F9
:10B5900073645F626C655F6366675F7365742829B7
:10B5A0002072657475726E656420257320776865F6
:10B5B0006E20617474656D7074696E6720746F209D
:10B5C00073657420424C455F4741505F4346475F77
:10B5D000524F4C455F434F554E542E006E72665F7E
:10B5E000626C655F6761747400000000636C6F6378
:10B5F0006B000000434C4F434B0000004750494F45
:10B600005445000050525300554152540000000070
:10B6100055415254450000007077725F6D676D743C
:10B6200000000000756172745F6C6F675F62616338
:10B630006B656E6400000000617070006E72665F82
:10B64000736468006E72665F7364685F626C650045
:10B650006E72665F7364685F736F630050B7020059
:10B66000E0220020FC000000446802004CB8020008
:10B67000DC2300200429000054680200F8AD020019
:10B680000000000024B602007C230020DCB502008C
:10B6900000000303ECB5020000000000F4B5020056
:10B6A00000000000FCB502000000000004B602002B
:10B6B0000000000008B602000000000010B6020002
:10B6C0000000000018B602000000000038B60200BA
:10B6D000000003033CB602000000030344B602006E
:10B6E0000000030350B60200000003038C23002077
:10B6F000842300208C2300206027002018000000F5
:10B70000857102000000000031840200F423002053
:10B7100089700200000000004D730200DC2300204D
:10B72000BB850200082400208D6F0200000000008D
:10B73000FDA3020000000000B99502000000000017
:10B74000B99602000000000049A2020000000000BB
:10B75000FF00FFFF0B000300FD7402001424002013
:10B760001F000000332400201F0000000000000024
:10B7700000000000000000000000000000000000C9
:10B7800000000000000000000000000000000000B9
:10B7900000000000000000000000000000000000A9
:10B7A0000000000000000000000000000000000099
:10B7B0000000000000000000000000000000000089
:10B7C0000000000000000000000000000000000079
:10B7D0000000000000000000000000000020004009
:10B7E00000000000002000400000000000000000F9
:10B7F000FF0000000000000000000000000000004A
:10B800000000000000000000000000000000000038
:10B810004CB40200ECB3020044B40200F4B30200E2
:10B8200004B40200FCB302000CB4020014B4020021
:10B830001CB4020024B402002CB4020034B4020090
:0CB840003CB40200000000000090D003A7
:040000050002620192
:00000001FF
